:1000000000000110E500000075010000590100002A
:100010007501000075010000750100007501000008
:100020007501000075010000750100008B4800009B
:1000300075010000750100008F4800009348000022
:100040007D6900007D6900007D6900007D69000018
:100050007D6900007D6900007D6900007D69000008
:100060007D6900007D6900007D6900007D690000F8
:100070007D6900007D6900007D6900007D690000E8
:100080007D6900007D6900007D6900007D690000D8
:100090007D6900007D6900007D6900007D690000C8
:1000A0007D6900007D6900007D6900007D690000B8
:1000B0007D6900007D6900007D6900007D690000A8
:1000C0007D6900007D6900007D6900007D69000098
:1000D0007D6900007D6900007D6900007D69000088
:1000E0007D69000008B500F057F900F073F900F0E1
:1000F0009DF800F079F900F095F802F061FF02F048
:100100008BFE00F0BFF840B141F28734002502F0C9
:1001100083FF8D4208BF8442F9D200F082F918B9FA
:100120000849094809F07AFB0649084809F076FBB6
:1001300007F0CCF8064B07481B68D96808F016F999
:10014000FEE700BF94D90000A0D90000CDD900007F
:100150000C020010E5D900001EF0040F0CBFEFF3F5
:100160000880EFF309808169004A1047D10100003F
:100170007047FFFF38B50F4C0F4B10481D782368B0
:10018000D96808F0F3F823680D49D8682A4608F0C2
:1001900075F80F2D236807D80A4A0B4952F8252015
:1001A000D86808F06BF8FEE7D968084808F0DEF870
:1001B000F9E700BF0C02001004ED00E020DA0000B7
:1001C0003ADA00002CDB000074DA000092DA00005A
:1001D00010B5044600F04AF8236883606368C36082
:1001E000A3680361E3684361236943626369013B78
:1001F000C361A3698361E3690362BFF34F8F05495C
:10020000054BCA6802F4E0621343CB60BFF34F8F23
:1002100000BFFDE700ED00E00400FA05004870476C
:1002200000D8B8050048704700D8B8050E4B072223
:10023000C3F88420AA210122C3F88020C3F88C10BF
:100240005521C3F88C10C3F8A821D3F88820520593
:10025000FBD51A6822F4704242F480421A6040F2E0
:100260000112C3F80421704700C00F400248034A3E
:10027000034BC0E90023704700000020EFBEADDE55
:100280001041522138B5224C224B22689A423DD16E
:100290006268214B9A4239D1204D21482B68D96898
:1002A00008F064F82B68A2691E49D86807F0E6FFD9
:1002B0002B68E2691C49D86807F0E0FF2B68226AC6
:1002C0001A49D86807F0DAFF2B68A2681849D8687D
:1002D00007F0D4FF2B68E2681649D86807F0CEFF14
:1002E0002B6822691449D86807F0C8FF2B68626937
:1002F0001249D86807F0C2FF2B681148D96808F086
:1003000035F801200023C4E9003338BD0020F9E7A7
:1003100000000020EFBEADDE104152210C020010A3
:100320006CDB0000BFDB0000CEDB0000DDDB00008B
:10033000ECDB0000FBDB00000ADC000019DC000045
:1003400028DC00000E4A136810B50E4C1918A142A3
:10035000116002D30C4CA1420BD313600B4A0C4921
:1003600013681844884208D30A49884205D21060AD
:1003700001E0002BF2D0184610BD0023FBE700BFC0
:100380000000001028000020008000200400001061
:10039000402B001000000110094A0A4B0A498B4209
:1003A00005D30A4B0A4A0021934205D3704712F83D
:1003B000010B03F8010BF2E703F8011BF4E700BFA0
:1003C0009465010000000010E0030010E00300103D
:1003D000402B0010034AD2F8883043F47003C2F86F
:1003E0008830704700ED00E0044800232021C21847
:1003F0000133292B82F80013F9D1704700E100E0A6
:1004000008B52A2219233821022006F0A9FA0D2264
:100410003821022006F060FAA0F12A035842584120
:1004200008BDFFF7EDBF42884378007843EA022316
:1004300040EA032070470B0A017043700B0C090E51
:100440008370C170704710B5024410F8013B11F879
:10045000014B9042A3EB040301D0002BF5D01846CA
:1004600010BDC3690239023B8B4283BF4389006BD5
:1004700001FB030000207047024600F10B01002041
:10048000C30143EA500312F8010B50FA83F38A4286
:10049000D8B2F5D1704702684AB1134613F8011B70
:1004A0001F290BD93A29F9D1911C8B4202D04FF068
:1004B000FF3070471278302AF9D10360002070476E
:1004C00001380A4411F8013B00F8013F9142F9D18B
:1004D0007047CA7E8B7E032843EA022301BF487D12
:1004E0000A7D42EA002243EA024318467047C2F3FB
:1004F00007238A76CB760378032B01BF120C0A758B
:10050000120A4A75704770B500F13806426B04460E
:1005100001233146407801F078FC054688B9616BCB
:10052000A36A226AE070CB1A934208D2A378022B06
:1005300005D10A4401233146607801F066FC284663
:1005400070BD0125FBE738B5436B8B4204460D4671
:1005500019D0C3788BB901232A4604F13801607899
:1005600001F03FFC002818BF4FF0FF3503466563DC
:100570000CBF03460123184638BDFFF7C4FF0346EE
:100580000028F8D1E7E70023F5E7FFFF38B500239F
:10059000C3704FF0FF3343630546FFF7D4FF0446B3
:1005A00018BB95F8372295F8363243EA02234AF60B
:1005B000552293421BD195F83830EB2B03D01833DA
:1005C000DBB2012B15D803220B4905F16E00FFF7B2
:1005D0003AFF40B10522094905F18A00FFF733FFD0
:1005E000002818BF0224204638BD0424FBE703245A
:1005F000F9E70224F7E700BF89DD00008DDD000088
:100600002DE9F043002385B00B600F461546FFF738
:1006100042FF061EC0F23981A44B53F82640002C3D
:1006200000F03581206901F040FB002800F03181A5
:100630003C60237805F0FE056BB1607801F0CCFBDF
:10064000C10708D41DB110F0040500D00A252846C2
:1006500005B0BDE8F0830023F0B22370607001F0B4
:10066000ADFBC20700F117810DB14307EED40021A5
:100670002046FFF78BFF022840F0EE806F4604F51E
:10068000FF7104F23E263D4611F8040C10B10846F5
:10069000FFF7C9FE10318E4245F8040BF4D1002556
:1006A00057F8046B002E00F0CE8031462046FFF74D
:1006B0006DFF012800F2C88094F8442094F843307C
:1006C00043EA0223B3F5007F40F0CA8094F84F302C
:1006D00094F84E5055EA032504D104F15C00FFF76D
:1006E000A2FE054694F8481025624B1E012BA1700E
:1006F00000F2B68094F845901FFA89F36381002BCD
:1007000000F0AE8009F1FF3313EA090F40F0A88032
:1007100094F84A3094F8497047EA03273FB21FFA29
:1007200087F818F00F0FA4F8088040F0998094F82B
:100730004C3094F84B0050EA032003D104F15800E8
:10074000FFF771FE94F8472094F8463053EA0223ED
:1007500000F0868005FB01FC03EB18126244904216
:100760007ED3801A4845B0FBF9F179D350488142D5
:1007700076D84FF6F570814240F28F804FF0030932
:10078000023133443244B9F1030FE1616662A3627E
:10079000226369D194F8632094F8623043EA02231B
:1007A0001F433FB2002F5BD104F16400FFF73BFE13
:1007B000E062890001F2FF11B5EB512F50D34FF0E9
:1007C000FF33C4E90533B9F1030F4FF08003237100
:1007D0002FD194F8692094F8683043EA0223012B62
:1007E00027D1711C2046FFF7AEFE10BB94F83722CC
:1007F00094F83632207143EA02234AF65522934296
:1008000017D104F13800FFF70EFE2A4B984210D1A1
:1008100004F50770FFF707FE274B984209D104F54E
:100820000870FFF700FEA06104F50970FFF7FBFDFB
:100830006061224A84F80090138801339BB21380D0
:10084000E380002503E703200135042D7FF428AF62
:10085000042805D10125FAE60428FBD0012801D996
:100860000D25F4E6002627E7B8F1000FF8D0634421
:10087000B9F1020FE3624FEA41031BBF5B1801F0BD
:100880000101194601EB530194E70B25DFE60C2526
:10089000DDE60F25DBE60325D9E640F6F579494587
:1008A0008CBF4FF002094FF0010969E7E003001027
:1008B000F5FFFF0F5252614172724161E403001073
:1008C00001292DE9F04705460C46174672D9C36940
:1008D0008B426FD90378022B3FD0032B50D0012BD2
:1008E00068D101EB5108816A01EB5821FFF72BFE1B
:1008F000064638BB05F1380908F1010AC8F30808B3
:1009000014F001041FBF19F8083003F00F023B0177
:1009100003F0F00314BF1343FBB209F80830A96ACF
:100920000123EB7001EB5A212846FFF70CFE064627
:1009300040B9CAF3080A44B1C7F3071709F80A70A7
:100940000123EB703046BDE8F08719F80A30C7F391
:10095000032723F00F031F43F0E7816A01EB142103
:10096000FFF7F1FD06460028ECD1640005F13803DD
:1009700004F4FF741A191F55C7F307275770DFE7F0
:10098000816A01EBD411FFF7DEFD06460028D9D1BC
:10099000A40005F1380304F4FE741C442046FFF75C
:1009A00042FD27F0704700F0704139432046FFF7C1
:1009B00042FDC5E70226C5E70129F8B505460C4604
:1009C00052D9C36999424FD20378022B29D0032B05
:1009D00038D0012B48D101EB5106816A01EB562139
:1009E000FFF7B1FD10B14FF0FF30F8BD771CA96AD9
:1009F000C6F308062E4401EB5721284696F83860C6
:100A0000FFF7A1FD0028EED1C7F308073D44E30737
:100A100095F8380046EA00204CBF0009C0F30B00EF
:100A2000E3E7816A01EB1421FFF78DFD0028DAD19D
:100A30006400383504F4FF742B19285D5B7840EAB4
:100A40000320D2E7816A01EBD411FFF77CFD002877
:100A5000C9D1A40005F1380004F4FE742044FFF766
:100A6000E2FC20F07040C0E70120BEE7B1F5001FB6
:100A7000F8B506460D4601D30220F8BDCA06FBD1E3
:100A8000826804683161CAB92378022B01D9E36A0C
:100A90009BB92389B3EB551FEED9E36AB361B36900
:100AA0007261002BE8D003EB55233834C5F30805F9
:100AB0002C44B361F4610020DFE71A4667897F02A6
:100AC000BD42114604D22046FFF7CBFCB061E6E7F9
:100AD0003068FFF771FF431C024606D00128CBD9CE
:100AE000E3698342C8D9ED1BEAE70120C5E72DE998
:100AF000F041804605680F4649B96E69C6B1EB6999
:100B0000B34298BF0126AB69A3B9002406E028468A
:100B1000FFF752FF0128044603D801242046BDE810
:100B2000F081421C51D0EB698342F7D83E46EAE798
:100B30000126E8E7BE4215D1EB69D8F80000741C25
:100B4000A34298BF02242146FFF736FF0128E4D0D4
:100B5000431C3AD0D8B16B69012B03D9EA6993429F
:100B600038BF1E463446EB690134A34202D8012E39
:100B7000CBD902242146D8F80000FFF71DFF40B171
:100B80000128CAD0013020D0B442ECD1BDE7002CFE
:100B9000E8D04FF0FF3221462846FFF791FE90B98A
:100BA00057B9D5E90632023A93426C6110D92B79D4
:100BB00043F001032B71B1E7224639462846FFF77F
:100BC0007FFE0028EDD00128A7D14FF0FF34A5E724
:100BD000013BAB61EBE7F8B50D46012D0746114629
:100BE00004682BD9E369AB4228D92AB14FF0FF3210
:100BF0002046FFF765FE30B929463868FFF7DCFE6E
:100C0000064608B90020F8BD012817D0431C17D0AC
:100C1000002229462046FFF753FE0028F3D1D4E9ED
:100C20000632911E8B4205D20133A361237943F032
:100C300001032371B2423546DED8E3E70220E2E742
:100C40000120E0E740B1A1F10B03012B04D90F29EA
:100C500002D0006901F032B8704738B50D4604463D
:100C6000F0B10368DBB11A78B2B18188DA889142B9
:100C700012D1186901F019F8034698B12368587821
:100C800001F0AAF810F0010002D124682C6038BDF0
:100C900000212068FFF7D6FF09200024F6E71C4654
:100CA0000920F3E70F201C46F0E72DE9F047002666
:100CB000D0F800A08E75836980460C46002B00F0AA
:100CC0009080C36A01336BD1D8F81C1000224D1EEE
:100CD00010462E2615F8013F202B00F101000CD004
:100CE000052B08BFE523092804D10B2A9EBFA718AE
:100CF00001327E72A71801327B720B28EAD1A31849
:100D000000205872A37D002B5AD1002A4FD004F145
:100D1000090010F8012B002A4CD092B2A2F1410533
:100D2000192D07D8082B0E7B8CBF102508252E42C5
:100D300018BF203202730133EBE7B9F1000F05D180
:100D400000F520539BB2B3F5006F12D340F2B511FA
:100D500040EA094000F0B8FFFF28C7F1800518D924
:100D6000012D20D9E319020A9A75D87502231F4470
:100D7000002002368146DAF80C30985B0028DCD17E
:100D80003D46B9F1000F18BF002525440023AB757F
:100D90009AE750B1002DF4D0E31998750123E6E7E6
:100DA000B1463746E7E70025EBE70546E9E73F238D
:100DB000A3750123234400229A750B7B03B9637248
:100DC000CB7A237201F11C00FFF72DFB2060CA7D56
:100DD0008B7D43EA0223E3804A7E0B7E43EA0223B3
:100DE000A380BDE8F087F8B5C37804460D46C3B9C3
:100DF00029462046FFF735FB04F1380607466063B5
:100E000004F50E723346002103F8011B9342FBD117
:100E1000002563899D420AD36089401B18BF0120C9
:100E2000F8BDFFF770FB0028E2D00120F8E70123AE
:100E30007A193146607800F0E8FF0028ECD10135DE
:100E4000E7E72DE9F843076905682037B7F5001F84
:100E500024BF0023836183690446894673B1C7F3C5
:100E60000808B8F1000F39D141690133836139B9FC
:100E70002B89B3EB571F31D80023A36104200BE06B
:100E80006B89013B13EA572328D12846FFF794FDCD
:100E90000128064602D80220BDE8F883421C01D191
:100EA0000120F9E7EB69834212D8B9F1000FE3D0D2
:100EB00061692046FFF71BFE0646A8B10128EAD06B
:100EC000431CEDD001462846FFF78DFF0028E7D1EF
:100ED000666131462846FFF7C4FAA06138354544BB
:100EE0002761E5610020D7E70720D5E72DE9F04F1E
:100EF000002185B00446D0F80080FFF7B7FD814699
:100F0000002840F08C804FF0FF334FF0FF0AE3627F
:100F100057460093A1694046FFF715FB814600281C
:100F20007DD1E5692E78002E7DD0EA7AE52E02F09B
:100F30003F03A37103D0100704D50F2B04D0009BEF
:100F4000E36252E00F2B57D194F82B30590642D46C
:100F5000720648D5236995F80DA0E36206F0BF0636
:100F60006B7B534541D1EA7EAB7E53EA02233CD1F1
:100F70002F78D8F80CB007F03F077B1E0D275F4392
:100F80002A4B012113F8012BA81815F8029040787C
:100F900049EA002959B37F2F039326D8484600F029
:100FA000C7FE7A1C02903BF81700019200F0C0FEC9
:100FB0000299814219D1019A039B494617461C4A5E
:100FC0009A42DFD12B785B0603D511B13BF817307D
:100FD0005BB9013EF7B200212046FFF732FF8146A0
:100FE000002897D01BE0B742BAD0FF27F3E74FF6AF
:100FF000FF729145E3D0F8E727B92846FFF73CFA9E
:1010000050450CD094F82B9019F0010997D10B2280
:1010100004F120012846FFF716FA00288FD1484630
:1010200005B0BDE8F08F4FF00409F8E77CDD000063
:1010300089DD00002DE9F84FFF2607680546344694
:101040004FF004094FF6FF78A96919B9B9F1000FFB
:101050006FD05FE03846FFF776FA8146002859D115
:10106000E8690378002B6DD0C27AE52B02F03F02CD
:10107000AA7154D02E2B52D022F0200108294ED034
:101080000F2A51D15A0648D503F0BF042B69467B7D
:10109000EB62437BB34242D1C27E837E43EA0223AA
:1010A0001BB2002B3BD10278F968DFF8A0E022F0F8
:1010B0004002013A4FF00D0C0CFB02FC4FF001090D
:1010C0001EF801AB00EB0A0292F801B010F80A20FA
:1010D00042EA0B22B9F1000F23D0BCF17F0F1ED8DA
:1010E00021F81C2091460CF1010C01330D2BE7D1A6
:1010F00003785B0605D5BCF17F0F10D8002321F8DB
:101100001C30013CE4B200212846FFF79AFE8146DC
:10111000002899D00023AB610DE0A342B9D0FF2491
:10112000F1E74245E1D0FAE744B9FFF7A5F9B0424B
:1011300004D14FF000094846BDE8F88F4FF0FF3367
:10114000EB62F8E74FF00409E4E700BF7CDD000044
:101150002DE9F04F85B00368019306468A4611F8E1
:10116000013B2F2BFAD05C2BF8D00021B1609AF80C
:1011700000301F2B00F2CD808023304686F82B30C4
:1011800005B0BDE8F04FFFF771BC7F2807D8924A41
:1011900012F8013B1BB19842FAD106204EE0802D97
:1011A000FBD02BF815000135B7E033F8022D202ACB
:1011B00002D02E2A40F0D480013DCEE00246D7E096
:1011C000C84505D2AB4249D1B9F10B0F3ED102E07F
:1011D000B9F10B0F35D144F003044FF00B0996F829
:1011E0002030E52B04BF052386F82030B9F1080F25
:1011F00004BFBF00FFB207F00C030C2B03D007F0B5
:101200000303032B01D144F00204A50707D4F80718
:1012100048BF44F01004790748BF44F0080486F83A
:101220002B403046FFF762FE96F82B3000285FD047
:10123000042803D113F0040F08BF052005B0BDE852
:10124000F08FAB4202D044F00304C8D8BF00FFB215
:101250002B464FF00B094FF00808B9E07F2812D950
:1012600044F0020240F2B5110393029200F02CFD0B
:1012700010F0800FDDE902230FD000F07F00574906
:10128000085C144628B1564911F8012BF2B182428C
:10129000FAD144F003045F2011E0FF28F1D909F1ED
:1012A000FF31884503D344F00304C84690E006EBC1
:1012B0000801040A81F8204008F10108144606EBF1
:1012C000080208F1010882F8200081E0A0F1410243
:1012D00092B2192A02D847F00207F0E7A0F16102A2
:1012E00092B2192A9EBF203847F0010780B2E6E784
:1012F0005A07A3D4B379DB066CD5019B03F13801FF
:101300003369C3F308031944019B1878FFF7E1F828
:10131000B0603368D3F80CB000251AF8010B68B13F
:1013200040F2B51100F0F0FC00283FF436AF1F2862
:1013300004D92F2802D05C287FF427AF52461378B7
:101340002F2B924602F10102F9D05C2BF7D0202816
:1013500034BF042400240BEB4503002D7FF425AF9C
:1013600000220BEB45032BF81520002D3FF415AFA1
:101370003BF81210202902F101003FF41FAF0AB917
:101380002E2901D144F0030433F8021D2E2901D087
:10139000013DF9D106F1200306F12B01202003F8CD
:1013A000010B9942FBD14FF000084FF00809474666
:1013B0003BF81200531C00283FF411AF202805D041
:1013C0002E287FF4FDAEAB423FF4FEAE44F00304A2
:1013D0001A46EDE7052031E793DD0000FCDC000054
:1013E0009CDD000070B5C3780446002B45D12378FE
:1013F000032B39D12379012B36D104F1380604F5BA
:101400000E723346002503F8015B9342FBD155234E
:1014100084F83632AA2384F83732522341227221CB
:1014200084F8383084F83930612384F83A3084F80D
:101430003B2084F81E2284F81F3284F81C1284F8A2
:101440001D1204F50870A169FEF7F5FF616904F546
:101450000970FEF7F0FF626A60780132626301236F
:10146000314600F0D2FC257100221146607800F070
:10147000E0FC003018BF012003E0FFF744F800282B
:10148000B5D070BD2DE9F04F90F82B4014F0A004BA
:1014900089B0054640F08F800668F26832F8143053
:1014A000002B66D105F120070C22394605A8FFF76D
:1014B00007F89DF81F30DB0740F186804023DFF8F6
:1014C000448285F82B304FF0010A0B2205A93846DB
:1014D000D6F80C90FEF7F4FFBAF1050F5AD9A9F12E
:1014E0000201534631F8022F002A44D10DF11300B6
:1014F000072203F00F0C0CF13001392988BF0CF1E1
:1015000037010F2B00F8011902F1FF324FEA1311D6
:1015100042D808AB13447E2103F8141C05F11F01C7
:1015200008460023934206D010F801CFBCF1200FEB
:1015300003F1010E32D1072A9CBF08A8801803F1DD
:10154000010396BF10F8140C20200132072BC85459
:10155000F1D92846FFF7CAFC814678BB0AF1010A97
:10156000BAF1640FB1D14FF00709484609B0BDE8A0
:10157000F08F013492E7102002F0010C0CEB4303D2
:1015800013F4803F18BF83EA080301384FEA520280
:10159000F2D1A7E75346A9E70B46AAE77346C1E78E
:1015A000804601212846FFF74CFC814610B3B9F173
:1015B000040FD8D0D9E74FF00609D6E70428D4D1D4
:1015C0009DF81F3085F82B309DF81F30D5F800A00E
:1015D0009B0748BF0C344FF00001284649BF0D233C
:1015E0000124B4FBF3F40134FFF740FA81460028EC
:1015F000DDD18046A9695046FEF7A5FF8146002847
:10160000D5D1EB691B78E52B01D0002BC8D108F1AF
:1016100001084445C5D1013C55D029692846A1EBB4
:101620004411FFF723FA814600289ED13846FEF781
:1016300023FF4FF6FF780190A9693046FEF783FF3C
:101640008146002891D1EB69019AD6F80CE05A73D3
:10165000E1B24FF00F024FF00D0CDA72DFF8A8A0E4
:1016600018734A1E0CFB02F29876D87684464045E1
:101670001AF8019B18BF3EF8120003F8090003EBAB
:10168000090B0CF1010C18BF01324FEA1029002898
:1016900008BF4046BCF10D0F8BF80190E7D14045E3
:1016A00002D03EF812200AB941F04001197001231E
:1016B000F37000212846FFF7C4FB814600287FF421
:1016C00054AF013CB8D1A9693046FEF73CFF8146D2
:1016D00000287FF44AAFEB69014603F1200203F8CA
:1016E000011B9342FBD10B223946E869FEF7E8FE65
:1016F00095F82B30EA6903F0180313730123F37094
:1017000033E700BF211001007CDD0000F0B585B09B
:10171000CDE9001003A814460391FEF7BCFE051E98
:1017200028DB154F57F825604EB1306900F0B8FA44
:1017300018B90224204605B0F0BD0023337001998A
:1017400079B9019B47F82530002CF3D001A900227C
:101750006846FEF755FF044601460198FFF772FA06
:10176000E8E7002301F8103BE8B200F08BFA00280C
:10177000E7D1DEE70B24DDE7E00300102DE9F041BF
:10178000D0B0174601910446002800F0DB8002F03B
:101790003F052A4602A901A8FEF732FF06460028A7
:1017A0004BD1029B019903930FAADA6003A8FFF7BC
:1017B000CFFC20B99DF93730002BB8BF062017F0B9
:1017C0001C0F00F09F80002842D0042835D103A8C8
:1017D000FFF758FE88BB45F00805029BDDF828801E
:1017E00018784146FEF775FE074600F034FB0146C7
:1017F00008F10E00FEF71FFE0A9B02982022DA7203
:101800000A990022FEF773FE0A9B00221A775A7784
:101810009A77DA77029B0121D97017B3394603A86A
:10182000D3F83480FFF7D7F938B941460298FEF76C
:101830008AFE029B013F5F6198B100232360064648
:1018400031460298FFF7FEF9304650B0BDE8F0810E
:101850009DF8123013F0110F5ED178076CD4390760
:10186000BBD4DDF808800A9FD8F834302362676261
:1018700098F800002907394648BF45F04005FEF7B3
:1018800028FEA06007F11C00FEF7CDFDB8F8063079
:10189000A38004F128070023E060C4F800802574C9
:1018A0006374E361636104F50A713A4602F8013B2F
:1018B0009142FBD1AA06C3D5E568002DC0D0B8F887
:1018C0000A80A16865614FEA4828A84526D3002010
:1018D000A1610028B1D1C5F30803002BB0D0DDF819
:1018E00008804046FEF7BDFD50B300EB5522E26193
:1018F0000123394698F8010000F073FA00289FD0C0
:1019000001209AE7002898D19DF81230DA0615D404
:10191000BF07A6D5D807A4D507208EE72068FFF714
:101920004BF801280146A5EB080503D9431CCCD18F
:101930000120CDE70220CBE708207EE704207CE7EA
:1019400002207AE709267FE72DE9F04F9B4685B014
:1019500000238946CBF8003003A904461646FFF75A
:101960007CF9054608B9657C25B129460398FFF73F
:1019700069F908E0257C15F0010508D107210398D5
:10198000FFF760F90725284605B0BDE8F08FE3684A
:101990006769DF1BB74204F1280328BF374600936D
:1019A0002FB939460398FFF74DF93D46EBE76269D9
:1019B000C2F30803002B76D1039B5B89013B13EA3A
:1019C000522313D12AB9A068012809D802256574C9
:1019D000CBE7A16920680193FEF7EEFF019BF3E7D7
:1019E000421C02D101216174C0E7A061DDF80CA0A6
:1019F000A16901935046FEF734FD019B20B90225F1
:101A0000657429465046B2E7B7F5007F03EB00083E
:101A10002BD37E0ABAF80A209AF80100991991424C
:101A200088BFD61A33464246494600F0DAF9002804
:101A3000D8D194F91030002B0BDAE069A0EB080044
:101A4000B04206D24FF40072009909EB4020FEF735
:101A500037FD7602DBF800303344CBF800306369A1
:101A6000BF1BB1441E4466619AE7E269424518D043
:101A700094F91030002B0BDA012300999AF8010039
:101A800000F0C3F90028ADD1237C03F07F03237459
:101A90000398009940780123424600F0A2F90028FB
:101AA000A0D1C4F81C806169009BC1F30801C1F595
:101AB0000076BE4228BF3E46324619444846FEF7ED
:101AC000FFFCC7E7F7B501A90446FFF7C6F80546CE
:101AD000002843D1237C13F040053FD01B0614D5CA
:101AE0000198E2694078012304F1280100F08DF9A2
:101AF00038B101210198FFF7A5F80125284603B068
:101B0000F0BD237C03F07F03237400F0A4F9216A65
:101B100007460198FEF717FD0546F8B9666AF37A9D
:101B200043F02003F372A26820683146FEF7DFFC21
:101B3000E16806F11C00FEF77EFC394606F116004E
:101B4000FEF779FC0198B5740123F574C370FFF7B3
:101B500049FC237C23F04003054623742946019861
:101B6000FFF770F8CAE737B50546FFF7ABFF044645
:101B700050B901A92846FFF770F8044620B928603B
:101B800001460198FFF75EF8204603B030BD30B53E
:101B9000C5B005460191002833D0002202A901A852
:101BA000FEF72EFD044690B9029B2B6003AADA6073
:101BB00001992846FFF7CCFA044620BB95F92B3053
:101BC000029C002B0BDBAB79DB0603D4052400233E
:101BD0002B600FE02078E969FEF77BFCA860E388C2
:101BE000AB8000212846FEF741FF04280446EDD0D3
:101BF0000028ECD121460298FFF724F8204645B092
:101C000030BD0924FAE70428E0D0E0E737B501A9A0
:101C10000546FFF722F8044620B9286001460198DE
:101C2000FFF710F8204603B030BDF0B5C3B00E4644
:101C300069460546FFF711F8044628B95EB9014622
:101C40002846FEF713FF044600982146FEF7FAFFE8
:101C5000204643B0F0BD009B01AADA602846FFF79A
:101C6000E9F910F0FB070446EED131462846FFF7AC
:101C70001CF839462846FFF7E4F8042814BF044648
:101C80000024E1E710B501200C46044903F0F6F901
:101C90002060003018BF012010BD00BFE803001015
:101CA00008B503F05DFC012008BD08B540F6B83169
:101CB00003F048FB431E5842584108BD00231A4612
:101CC000194603F02DB9FFFF7F2810B501D880B267
:101CD00010BDB0F5803F13D240F2B51399420FD139
:101CE0000849002231F8024B844293B203D103F138
:101CF0008000C0B2ECE70132802AF3D11346F6E748
:101D00000020E5E752E000007F280DD940F2B5132E
:101D1000994208D1FF2806D800F10040034B8038D3
:101D200033F8100070470020704700BF52E00000F9
:101D3000B0F5803FF0B521D21E4A1F4983B2B0F5FD
:101D4000805F28BF0A46141D34F8042C2146A2B136
:101D5000934212D334F8025C2E0AEDB2AF18B842A7
:101D600022DA082E09D8DFE806F0050A1012141648
:101D7000181A1C00801A34F810301846F0BD981A52
:101D800000F001001B1A9BB2F7E7103BFBE7203B7A
:101D9000F9E7303BF7E71A3BF5E70833F3E7503B49
:101DA000F1E7A3F5E353EEE70434002ECCD101EBC9
:101DB0004502C8E7A4DD000096DF000010B5044628
:101DC00001F0C0F834B900F00FF9044601F0D4F87E
:101DD000204610BD0424F9E708B900F0A3B9042097
:101DE0007047F8B507460C4615461E4601F0AAF89E
:101DF0004FB92046F2B2294600F09CF9044601F0A2
:101E0000BBF82046F8BD0424F9E7F8B507460C46B0
:101E100015461E4601F096F84FB92046F2B2294603
:101E200000F0CEF9044601F0A7F82046F8BD0424DE
:101E3000F9E770B506460C46154601F083F846B939
:101E40002046294600F010FA044601F095F8204695
:101E500070BD0424F9E70020704738B501F0DCF8C4
:101E600000F5FA75FF2004F06DFEFF2004F06AFE15
:101E7000FF28044603D001F0CFF88542F5D820466C
:101E800038BDFFFF08B504F071FAFFF7E6FF04F074
:101E900075FA034A137843F00103137008BD00BFBD
:101EA0000800001038B505460C46FFF7D6FFFF289E
:101EB00021D1204604F046FEFD2C1ED0AC1C05F2BC
:101EC000022514F8020C04F03DFE023414F8030C51
:101ED00004F038FEAC42F4D1FF2004F033FEFF20C2
:101EE00004F030FEFF2004F02DFE00F01F00431F21
:101EF0005842584138BD0020FCE70120FAE737B5C9
:101F0000020604460D4607D500217720FFF7F7FFAC
:101F1000012831D804F07F0404F030FA04F026FAE6
:101F2000FFF79BFFFF282BD1402C27D0482C0CBF5C
:101F3000872301232A0E8DF801202A0C8DF8022018
:101F400006212A0A68468DF800408DF803208DF896
:101F500004508DF8053004F0FFFD4C2C02D1FF2019
:101F600004F0F0FD0A24FF2004F0ECFD030603D585
:101F7000013C14F0FF04F6D103B030BD9523D9E73E
:101F8000FF20F9E770B5054601F046F800F1640658
:101F9000FF2004F0D7FD044601F03EF8864201D34D
:101FA000FF2CF5D0FE2C0CD14FF40071284604F024
:101FB000D6FDFF2004F0C6FDFF2004F0C3FD012084
:101FC00070BD0020FCE7FFFF38B5064D2C78E4B269
:101FD00004F0DCF918B104F0FD042C7038BD44F0B5
:101FE0000304FAE7080000102DE9F341FFF7ECFFC6
:101FF0004A4B1A7812F0020F1E4604D01878C0B26D
:1020000002B0BDE8F081C82004F05AFD0A25FF2087
:10201000013D04F097FD15F0FF05F8D104F0A6F995
:1020200029464020FFF76BFF0128044671D100F0DC
:10203000F3FF4FF4D57100F57A774820FFF75FFF83
:10204000012848D101ADA8460424FF2004F07AFD00
:10205000013C14F0FF0408F8010BF6D19DF806309E
:10206000012B56D19DF80730AA2B52D100F0D4FF96
:10207000874206D94FF08041E920FFF740FF002852
:10208000F4D100F0C9FF874243D900217A20FFF73D
:1020900036FF00283DD10424FF2004F053FD013C0D
:1020A00014F0FF0405F8010BF6D19DF8043013F08D
:1020B000400F14BF0C240424194B1C7004F05EF96B
:1020C0004CB3337845F6C05003F0FE03337004F090
:1020D000F7FC307893E72946E920FFF710FF022844
:1020E00036BFE9254125022400F096FF874205D935
:1020F00000212846FFF703FF0028F5D100F08CFFF0
:10210000874206D84FF400715020FFF7F8FE0028F0
:10211000D2D00024D0E7FFF7B5FEDAE708000010C0
:102120003804001008B5FFF74FFF014B187808BDC1
:102130000800001070B5144605460E46FFF744FF30
:10214000002C35D01C4B1B78DA0733D404F00EF981
:102150001A4B1B781B0758BF7602012C314611D150
:102160005120FFF7CCFE38B94FF400712846FFF735
:1021700009FFB0FA80F4640904F000F9201C18BFCC
:10218000012070BD5220FFF7BAFE0028F4D14FF4B1
:1021900000712846FFF7F6FE28B1013C14F0FF0459
:1021A00005F50075F3D100214C20FFF7A8FEE3E709
:1021B0000420E6E70320E4E70800001038040010DC
:1021C00070B5144605460E46FFF7FEFE002C41D0C2
:1021D000234B1A78D0073FD41B7859073ED404F01C
:1021E000C5F8204B1B781A0758BF7602012C11D175
:1021F00031465820FFF783FE50BBFE212846FFF7EB
:1022000051FEB0FA80F4640904F0B8F8201C18BF3D
:10221000012070BD13F0060F03D02146D720FFF731
:102220006EFE31465920FFF76AFE0028ECD1FC21F2
:102230002846FFF737FE28B1013C14F0FF0405F5EE
:102240000075F4D1FD210020FFF72CFE0028DBD122
:102250000124D9E70420DCE70320DAE70220D8E7ED
:1022600008000010380400107FB506460D46FFF741
:10227000ABFE052E15D12C78012C10D02CB1022CE0
:102280000AD00424204604B070BD04F07FF8002872
:10229000F8D0FFF7F7FDF5E704F078F86870002450
:1022A000F0E76F4B1C7814F0010440F0D7800E2E3D
:1022B00000F2D280DFE806F008134E52D0D0D0D022
:1022C000D0D09DA1B0B3C40004F050F8FFF7C5FD15
:1022D000B0F1FF0418BF012404F050F8D2E7002148
:1022E0004920FFF70CFE044608B10124F4E7102151
:1022F0006846FFF747FE0028F7D09DF800309DF8AC
:1023000008109B09012B9DF8093006D15A1C02EBDD
:10231000012292B292022A60DEE79DF807209DF822
:102320000A00920002EB91129DF80610890201F456
:10233000406101320A449DF805105B0001F00F0175
:1023400001EBD01103F006030B44073B02FA03F341
:102350002B60C1E74FF400732B80BDE7414E31780D
:1023600011F004011CD00021CD20FFF7C8FD00288A
:10237000BBD1FF2004F0E6FB10216846FFF702FE08
:102380000028B2D03024FF20013C04F0DBFB14F025
:10239000FF04F8D19DF80A301A0910239340D7E7BB
:1023A0004920FFF7ACFD044600289ED11021684665
:1023B000FFF7E8FD002898D032789DF80A309DF8A4
:1023C0000B1092070AD55B009DF80D2003F07E03E9
:1023D00003EBD11392090133013ADFE7CA0002F09F
:1023E0001802C3F3840302EB5112013302FB0333DF
:1023F000AEE71C4B1B782B706EE700214920FFF7DE
:102400007EFD00287FF471AF10212846FFF7BAFD4A
:10241000B0FA80F464095FE700214A20EFE7002169
:102420007A20FFF76CFD044600287FF45EAF2E1D76
:10243000FF2004F087FB05F8010BAE42F8D14BE713
:102440000021CD20FFF75BFD00287FF44EAFFF2079
:1024500004F078FB4021D8E704243DE7032411E78A
:10246000080000103804001008B5064607F0E7FB26
:1024700000240546A54200DCFEE7315D002004F0A3
:1024800063FC0134F6E7FFFF02280CD9074B1B68F9
:102490005A68824207D09A68824204D0DB681B1ACD
:1024A0005842584170470120704700BF0C0200108D
:1024B0000EB4024800B5FFF7D7FF00BF78E1000077
:1024C00008B50148FFF7D0FF52E100000020704737
:1024D00000207047F8B504460E461546FFF7D4FFB6
:1024E00048B3164B1B68DB68A34210D0A31E5C42A6
:1024F0005C4103F053FD0746002004F0D9FB022F96
:1025000017D1B0B1ACB9A54203DC2846F8BD01240F
:10251000EFE7315D4FF0FF32002004F077FC01342B
:10252000F1E7315D002004F00FFC0134A542F8DC36
:10253000EBE70024FAE70248FFF796FF0C020010D1
:10254000CFE1000038B50C46FFF79EFFA8B103F0BD
:1025500025FD0546002004F0B5FB022D08D138B159
:102560004FF0FF322146002004F000FC012038BD6E
:102570002146002004F020FCF8E70148FFF774FF33
:102580009DE100002DE9F04F85B002AC84E80C001D
:102590000646244ADFF89C90DFF89CA0DFF89CB048
:1025A000884694E8030001F007FF94E80300B5684B
:1025B00001F0DAFE01464046A847356815B905B076
:1025C000BDE8F08F6F68384607F039FB2B6800973D
:1025D00032288CBF52464A4694E8030001F0ECFED4
:1025E0005A4694E8030002F0BBF80F4A074694E805
:1025F000030002F0B5F807B920B10C4A94E80300D3
:1026000001F07DFF0A4A94E8030001F078FF94E8A6
:102610000300B76801F0A8FE01464046B847ED68E0
:10262000CCE700BF02E2000049E2000072E40000D3
:1026300048E200005EE200004BE200006AE20000B7
:1026400030B504294FF0000538BF04210560C0E90A
:102650000112C36030BD11B10368CB6001607047E7
:102660002DE9F04F87B06E4686E80C000546634AB8
:10267000884696E8030002F0DFF8614A96E8030016
:1026800001F0A5FF002856D096E8030002AC5C4A92
:1026900084E8030001F06EFF30B194E80C0041467D
:1026A0002846FFF76FFF3DE094E80300202202F088
:1026B00071F894E8030004AF87E803002E68DFF8A0
:1026C00048912EB994E803002E6887E8030010E0D3
:1026D0004B46326897E8030001F0B2FFD0B9F668C4
:1026E000EFE76B68326897E8030001F055FF88B99F
:1026F000F668002EF5D13246424B94E8030001F013
:10270000B7FE94E80300AE6801F02EFE0146404695
:10271000B04703E0AB68716840469847AB683749FB
:1027200040469847E968002965D0AB68404607B045
:10273000BDE8F04F1847DDE900A9CDE904A92E68EE
:10274000314F04AC1EB9CDE904A92E6810E03B4618
:10275000326894E8030001F073FFE0B9F668F1E72E
:102760006B68326894E8030001F016FF98B9F668C8
:10277000002EF5D1CDE904A93246244B94E803009C
:1027800001F076FE94E80300AE6801F0EDFD01462D
:102790004046B04781E7CDE902A90DF1080B2022A0
:1027A0009BE8030001F0F6FFB768AB689BE8060002
:1027B0004046B8470028B5D0CDE904A9144B002203
:1027C00094E8030001F054FE94E80300AF6801F0C0
:1027D000CBFD01464046B84773680E4A94E80300B3
:1027E00001F0EAFD94E80300AE6801F0BDFD01468A
:1027F0004046B04796E707B0BDE8F08F48E20000DA
:102800006CE200009FE200003EEA0000C8E2000027
:1028100071E2000082E2000010B54C1E14F8010FB6
:1028200000B910BD07F012F8F8E7FFFF2DE9F041FD
:10283000A6B06E468046224B802206A9304601F0A3
:1028400004FE02AC96E80C0000214046FFF708FFAA
:1028500096E8030084E8030001F08DFD04AD94E8E0
:10286000030001F016FF0028ECD105F0EDFEC7B221
:1028700094E80300082F85E8030017D101F050FD0C
:1028800068B1012295E8030001F04FFF384606F0D9
:10289000DDFF202006F0DAFF384606F0D7FF94E887
:1028A000030001F048FD0028D9D0CBE7384606F0F8
:1028B000CDFF3A4695E8030001F048FEEFE700BF80
:1028C0006CE2000030B589B004AD2846184B194AB7
:1028D000194C0421FFF7B4FE95E80F0084E80F00BF
:1028E00020461649FFF7B7FE20461549FFF7B3FE0D
:1028F00020461449FFF7AFFE20461349FFF7ABFE11
:1029000020461249FFF7A7FE20461149FFF7A3FE14
:10291000104B0293104B0193032300934FF400726A
:1029200023460E490E4802F077FF09B030BD00BFC4
:10293000F9E20000192800003C0400105C000010BF
:102940004C0000101C0000100C0000103C00001097
:102950002C0000104C0C00104C0400104CE3000044
:102960002D2800002DE9F047EAB00DF108090DF11E
:10297000A80A89E80300164600214FF480725046E9
:1029800008AC05F013FF0DF1180880220AA92046B3
:1029900007AF01F0A5FC002501233B60C8F80050FB
:1029A000CDE9008705AB2B4A059599E8030001F0B6
:1029B0001AFD012842D93B68009398F800209DF841
:1029C00014105346022003F05DFF814648B3059B77
:1029D000214ADFF8909094E8030001F0EDFC94E8C0
:1029E000030001F0C1FC01462846B0473B68AB42FA
:1029F00002D86AB0BDE8F0871AF80520D8F8003090
:102A0000CDE900222B444A4694E8030001F0D4FCAF
:102A100094E8030001F0A8FC01460020B04701350E
:102A2000E4E70E4A94E8030001F0F1FC94E80300A7
:102A300001F09AFC01464846B047DAE7084A94E8B4
:102A4000030001F0E4FC94E8030001F08DFC014672
:102A50002846F1E71FE500002CE500005DE50000D9
:102A60008AE5000046E500002DE9F047EAB00025C0
:102A700002AE0DF118080DF1A80986E8030017460B
:102A800029464FF48072484608AC0595C8F80050B6
:102A900005F08CFE80220AA9204601F021FCCDF829
:102AA000008005AB364A96E8030001F09CFC022842
:102AB0005AD1202296E8030001F06CFE202296E80D
:102AC000030001F067FE079507AA96E8030001F0EE
:102AD0007BFE824608BB00954B4698F800209DF887
:102AE0001410022003F008FF064680B3059B0093F4
:102AF000244A2B4694E8030001F05EFC94E80300AE
:102B000001F032FC01465046B8475646DFF880A037
:102B1000B54207D16AB0BDE8F087079B09F80530D8
:102B20000135D1E719F80620D8F80030CDE90022A8
:102B30003344524694E8030001F03EFC94E803005D
:102B400001F012FC01460020B8470136E0E70E4ACA
:102B500094E8030001F05BFC94E8030001F004FC3E
:102B600001463046B847D5E7084A94E8030001F02B
:102B70004EFC94E8030001F0F7FB01462846F1E71C
:102B8000CAE50000D4E500000BE6000039E60000CD
:102B9000F4E500002DE9FF416C4684E80600154A83
:102BA00094E803001F4601F012FD134A054694E81D
:102BB000030001F00CFD2022804694E8030001F0A0
:102BC000E9FD94E8030002AE86E8030035B13A4619
:102BD000FFF7C8FE002004B0BDE8F081B8F1000F97
:102BE00005D03A4696E80300FFF73EFFF2E70120E2
:102BF000F1E700BF14E5000019E5000037B56C46A9
:102C000084E8060094E803001D4601F0ADFB014690
:102C1000032000F00AFA08490020A84794E80300BE
:102C200001F0A2FB01460020A84704490020A84764
:102C3000002003B030BD00BF2CE7000048E20000D8
:102C4000094B1B6810B50A460C46D868074905F0C1
:102C500015FB074800234FF0FF322146006802F0C1
:102C60005FF9002010BD00BF0C020010AEE60000AE
:102C70002C2B0010094B1B6810B50A460C46D8686F
:102C8000074905F0FBFA074800234FF0FF322146C1
:102C9000006802F045F9002010BD00BF0C020010D2
:102CA0008BE60000242B001082B002AB03E9060083
:102CB0000123024A1A60002002B07047EFBEADDE69
:102CC0002DE9F04F8FB006AF07F1080080E806004D
:102CD00003C8994601F09AFC041E04DD03F072FA61
:102CE000204602F07DFFBB68BB61DAB0FB68FB6188
:102CF00000257D6100F016FA0DF1180B786007F1E0
:102D000014020A21584603F0FDF807F118042A4B73
:102D10002A4A386094E8030001F04EFB94E803006F
:102D200001F022FB01462846C847A8465E464FF000
:102D3000000A26E07369434520D1B2697B691544D6
:102D400023B16421B3FBF1F3B2FBF3F3CDE903321A
:102D5000338C1B4A9B00CDE90183337B52F823302F
:102D600000937368174A94E8030001F025FB94E888
:102D7000030001F0F9FA01460020C8470AF1010AF0
:102D800024363B685345D5D108F10108B8F10A0F44
:102D9000CCD17B680C4A5B1B94E8030001F00CFB70
:102DA00094E8030001F0E0FA01460020C847002043
:102DB0002437BD46BDE8F08FCEE60000D3E6000024
:102DC00068E70000FEE600001BE70000F8B50446D7
:102DD0000D4600F00BF9061941EB050703F0DEF88C
:102DE00002280CD100234FF47A72AB4208BFA242F2
:102DF00005D22046294604F0B9FE02F0F1FE00F0AB
:102E0000F5F8B94208BFB042F9D3F8BD4FF47A7370
:102E1000A0FB0301FFF7DABF30B585B003F024FA59
:102E200003F0BEFA8DF80C0003F0C0FA8DF80D0027
:102E300003F0C2FA8DF80E0003F0C4FA00248DF8F6
:102E40000F0004AA04F003031344013413F8040C24
:102E500003F084FB3220FFF7D9FF202CF1D1294B5E
:102E60001868002319460222406806F089FDFDF724
:102E7000D9F9002501464FF4E132002003F0D4FED9
:102E80000095214B214A0121204601F0D9FF204B1A
:102E9000009504461F4A0121802001F0D1FF2246FF
:102EA0000146284603F018FF45F6C05003F01EFE09
:102EB000012219491948FEF729FC194A194B1A49E8
:102EC000A84208BF1346194A19481A4D06F0A6FC35
:102ED000FDF7A8F9184B00930246184B1849022039
:102EE00003F074FC0224E1B2022003F02DFD18B1BE
:102EF0002146284606F092FC0234B4F5807FF2D1D8
:102F000005B030BD0C020010680D0010480D001017
:102F100070100010F00F00104AE20000B80D001011
:102F20008DE70000ABE70000D2E700007CE700007F
:102F300023E8000043E80000F80C0010A80C001083
:102F4000801A060010B50A4C236823B909490120EC
:102F500002F094F8206003F021F8022806D12068DE
:102F60004FF0FF31BDE8104002F0ECB910BD00BFDA
:102F7000C0100010C410001010B503F00FF80228A4
:102F800008D1054800231A4619460068BDE81040DC
:102F900001F0C6BF10BD00BFC0100010074A08B541
:102FA0001368002101330846136003F031FB002150
:102FB0000846BDE8084003F017BB00BF141100101D
:102FC00008B5074A0749B0FBF1F10020013903F0C9
:102FD000D5FA0021044A0846BDE8084003F0F2BAD9
:102FE0009D2F000040420F000087930370B5084EEC
:102FF000002003F005FB05460020346803F000FBC9
:103000008542F5D8034B0021E3FB040170BD00BFEE
:10301000141100100087930308B5FFF7E7FF4FF482
:103020007A72002304F0A2FD08BD70B5054608467B
:103030000C4606F004FE2618B4424FF0FF320BD1C6
:103040000D21284603F0E2FE28464FF0FF320A2108
:10305000BDE8704003F0DABE14F8011B284603F007
:10306000D5FEE9E770B5054608460C4606F0E7FDD3
:103070002618B44205D128460A21BDE8704003F065
:1030800063BE14F8011B284603F05EFEF1E7FFFF64
:103090000C460020044908B5FFF7E4FF2146002054
:1030A000FFF7E0FFFEE700BF9CE9000008B502491A
:1030B0000020FFF7D7FFFEE762E90000024B002285
:1030C000C3F8C02030BF704700C00F4008B50C46A1
:1030D00000200A49FFF7C6FF09490020FFF7C2FF99
:1030E00008490020FFF7BEFF07490020FFF7BAFF9D
:1030F00021460020FFF7B6FFFEE700BF6AE80000A8
:10310000BCE80000FFE8000033E90000034B036067
:10311000034B0B6064231360704700BFB0120010B4
:103120002011001008B5FFF761FF024B1B68C01AA1
:1031300008BD00BF1811001008B5FFF757FF024B7C
:10314000C3E9000108BD00BF1811001010B588B117
:103150006023400080B20204A3F10603F9D50649BA
:10316000002231F8024B0132A04228BF0133052A68
:10317000F7D198B210BD00BF7057010008B5082103
:10318000022003F085F903F0BBF90028F7D00621EF
:10319000022003F0A1F903F0C5F90721022003F092
:1031A0009BF903F0CDF9502003F0C2FC262003F078
:1031B000BFFC482003F0BCFC0721022003F08CF97F
:1031C000BDE8084003F0AEB938B505460C46082105
:1031D000022003F05DF903F093F90028F7D00621EF
:1031E000022003F079F903F09DF90721022003F092
:1031F00073F903F0A5F9022003F09AFC284603F0C6
:1032000097FC200A03F094FCE0B203F091FC072144
:10321000022003F061F9BDE8384003F083B938B506
:1032200004460821022003F033F903F069F900286D
:10323000F7D00621022003F04FF903F073F90721BC
:10324000022003F049F903F07BF9032003F070FC3E
:10325000204603F06DFCFF2003F06AFC0546FF20CA
:1032600003F066FC07210446022003F035F903F061
:1032700059F944EA052080B238BD70B506460D46BE
:103280000821022003F004F903F03AF90028F7D0EE
:103290000721022003F020F903F044F9062102205F
:1032A00003F01AF903F04CF90024AC420ADB0621C2
:1032B000022003F011F903F035F9012002F090FC2F
:1032C000002070BD305D03F033FC0821022003F0C4
:1032D000DFF803F015F90028F7D00134E5E7411CC9
:1032E00038B589B205460720FFF76EFF0620FFF7C5
:1032F00096FF294604460720FFF766FF0620FFF7E2
:103300008EFF05460620FFF78AFF15F4004F08BF21
:10331000044645EA044038BD10B501460720FFF7D2
:1033200053FF0620FFF77BFF04460620FFF777FFD9
:1033300044EA004010BD08B501460720FFF744FFEE
:103340000620BDE80840FFF76ABF10B50C460146ED
:103350000720FFF739FF21460620BDE81040FFF7A0
:1033600033BF2DE9F84F8146884600254FF6FF7799
:10337000A84501DCBDE8F88F6B009A1C09EB020B35
:1033800039F8024039F81500220405F1020A08D480
:103390002646C5B2013EB6B2BE4212D104EB0A05C2
:1033A000E6E74B44C4F30E04B3F804A00335C6B2F9
:1033B000013CA4B2BC42DBD051463046FFF704FFCB
:1033C000F6E73BF8021F2846FFF7FEFEE2E7FFFFA5
:1033D0002DE9F04F81468DB041F60960FFF7ABFF54
:1033E0000026A34F0790314604203E70FFF7ECFE05
:1033F00040F60204B246B046D9F81420D9F80C3091
:103400009A4203D09A4B1B78032B26D1994D9A48A8
:103410009A4F5246214606F001FA2B68986804F04C
:10342000E9FD4FF480625146944805F0BFF900264B
:10343000802138468036FFF720FFB442F8DC8C4B01
:103440001C78002C00F0F1808D4806F081FA484687
:10345000FEF789FB0DB0BDE8F08F0BAB4FF4806237
:103460008649DFF818B24846FEF76EFA0B9D002D2C
:10347000C2D07F4B1B78032BBED0079B99070BD480
:10348000802D28BF80255846E9B2FFF7F6FE0B9B3A
:103490005B1BAB440B93A8443B78012B0ED102235A
:1034A000414678483B7006F0B9F90020FFF7B7FEB7
:1034B00040F0080189B20020FFF786FE3B78022B1E
:1034C0000BD10020FFF7ABFE020706D441466E4841
:1034D00006F0A4F903233B70C8E73B78002BC5D165
:1034E0004645C3D80920FFF79AFE684B1A780B2A85
:1034F000054653D0002A0CBF4FF400724FF480529F
:1035000041F606601644FFF716FF47F265629542E2
:1035100082465E4B45D101221A7040F60204052016
:10352000FFF77DFE069041F60560FFF704FF574B5D
:103530001B78092B024608BF820004200992FFF77E
:103540006EFE099A0890104604F084F846A3D3E969
:10355000002304F0F9F8069ADFF844C1059512F04B
:10356000010F4B4A069B08BF9446484A1578494AC2
:1035700023F0010352F825209BB2CDE90001CDE9EB
:1035800003C20293089A44484FEA982106F046F98C
:10359000384B1B68986804F02DFD67E74FF4007204
:1035A000AEE744F25412954201D10722B4E744F247
:1035B0004412954201D10822AEE745F24D72954280
:1035C00001D10A22A8E744F66772954201D102228E
:1035D000A2E746F24C62954204D109221A704FF4D8
:1035E00040549CE744F63452954201D1062293E7B9
:1035F00044F65452954201D10B228DE725F0190271
:1036000092B24FF6E2718A4201D1052284E74FF669
:10361000E4718A4201D104227EE74FF6E6718A42C4
:1036200001D1032278E70022D8E72046FFF7F7FD13
:1036300040F0080189B22046FFF7C6FD17480F4C3D
:1036400006F0ECF82B68986804F0D4FC0020FFF733
:10365000E6FD03077FF5F8AE02212046FFF70DFED9
:10366000F4E700BFAFF30080FCA9F1D24D62803FC8
:10367000202B00100C02001040EA00000D13001077
:103680005CEA0000C5E90000ECE900000C13001042
:10369000C0E900006C00001016EA00005FEA0000BC
:1036A000B9E90000031D00F8011B83424FEA112114
:1036B000F9D1704738B50E20334D03F079F9022463
:1036C00007232B606C60FCF7A9FD40F2DB624FF42E
:1036D0007A73B0FBF3F0B0FBF4F1914251D80222BF
:1036E00012212C61002002F088FE02220F2100200E
:1036F00002F083FE02221121002002F07EFE08214A
:10370000022002F0C5FE02F08DFE0721022002F029
:10371000E3FE02F015FF0621022002F0DDFE02F0BA
:1037200001FF022002F05CFA0521022002F0D4FE23
:1037300002F006FF022002F053FA0521022002F0F7
:10374000CBFE02F0EFFE0821022002F0A1FE02F003
:10375000D7FE0028F7D00721022002F0BDFE02F0BC
:10376000E1FEFFF70BFD0020FFF759FD00210846A1
:10377000FFF72AFD40F624010020FFF725FD002079
:1037800038BDA31CDCB2A6E70080084038B54AF675
:10379000AD310D20FFF718FD47F657610E20FFF7FA
:1037A00013FD0D20FFF73BFD4AF6AD3398420DD0D7
:1037B0000D20FFF734FD04460E20FFF730FD2146B3
:1037C00002462B4806F02AF8012038BD0E20FFF7EC
:1037D00026FD47F657639842EAD100210D20FFF7F6
:1037E000F3FC00210E20FFF7EFFC0120FFF717FD8F
:1037F000204BC0F3031133F8115075B11E4C1F4913
:1038000023682A46D86804F039FD40F21D439D42E2
:1038100007D01B4806F09CF8D6E71A4805F0FEFFD3
:10382000D2E74AF230410320FFF7CEFC052002F038
:10383000D7F9FCF7F3FC4FF47A7341F66C32B0FB26
:10384000F3F00223B0FBF3F191420DD80E4A40F69B
:103850000C4113610B20FFF7B7FC23680B48D968B4
:1038600004F084FD0020B0E70233DBB2EAE700BFDA
:10387000A2EB00002EEC00000C020010DDEB0000BB
:10388000EBEB0000FAEB00000080084025EC0000A4
:103890002DE9F04FA24FA34EDFF894B285B000247B
:1038A0008146A1483C7006F053F84CF230410320A9
:1038B000FFF78AFC2046FFF7B2FC40F0040189B212
:1038C0002046FFF781FC02214CF21A00FFF73DFD74
:1038D00043F291519548FFF744FD2046FFF79FFCC6
:1038E00040F4A04189B22046FFF76EFC4FF480619E
:1038F0000D20FFF769FC21460F20FFF765FC3421FE
:103900000A20FFF761FC0520FFF789FC20F0010089
:1039100083B248F280010C204FF002080293A246C5
:10392000FFF752FC86F800803B78032B16D13378E2
:10393000022B40F0DA800920FFF771FC7C4D7D4EB0
:103940007D4F044614F1FF3480F0B180FFF71EFF75
:103950007A4805B0BDE8F04F05F0FABF0920FFF73F
:103960005EFC022878DD3378022B6BD140F2011522
:10397000A842A8BF28466E4A451E0023082003938C
:103980000192FFF74CFC019A039B010A02F8021B0B
:1039900001339D4202F8010CF0DC6D004B462A46D3
:1039A0000121584604F042FE2C44A4EB0A03B3F56F
:1039B000805FB9D3A10A624805F030FF3378022B4B
:1039C0000AF5805A06D10820FFF789FC01465D48B8
:1039D00005F024FF32785C4B5C4953F822305C4A96
:1039E0005C48B8F1020F08BF0A46029905F016FFBD
:1039F00033780193022B1FD10C20FFF78DFC03F0CD
:103A000029FE45A3D3E9002303F09EFE02460B46A0
:103A1000514805F003FF0C20FFF701FC20F4FE42A3
:103A200022F07F0248F2800192B28A4205461ED1FE
:103A300001464A4805F0F2FE494B1B68986804F0BD
:103A4000D9FA71E70820FFF7EAFB8BF80000000ABB
:103A50008BF801000125A0E73B78012BA5D10F20B1
:103A6000FFF7DDFB810744BF03233B709DE70C207C
:103A7000FFF7AAFB05F4FE40FFF768FB2A06A0F15A
:103A80005F0806D54146374805F0C8FE4FF00108EB
:103A9000D2E705F07F000002FFF758FB4146A0F196
:103AA0005F02314805F0BAFEDDF80480C4E7082063
:103AB000FFF7B5FB030A2B706870A4B90F20FFF75E
:103AC000AEFB0F20FFF7ABFB430709D5384605F0E7
:103AD0003FFF01224B460121284604F0A7FD31E7B4
:103AE000304605F035FF0222F4E700221146484631
:103AF00004F046FCA4F108011C48FFF7D3FDA4F133
:103B000024011B48FFF7CEFD4B4601222C2119480A
:103B100004F08CFD1AE700BFFCA9F1D24D62503FC2
:103B2000202B00100C13001082EA00004EEC000065
:103B30000D17001011EB0000F0EA00005CEA000035
:103B400093EA00009CEA00006C000010B9E9000054
:103B5000C0E90000A2EA0000AEEA0000BDEA0000F1
:103B60000C020010D4EA0000DEEA0000A000001001
:103B7000C40000109C00001030B50546ADF50B7D6B
:103B8000E1B9014601226846FDF7F8FD29460446E1
:103B9000134805F043FE34B96846FFF719FC204688
:103BA0000DF50B7D30BD29460E4805F037FE0E4859
:103BB000214605F033FE4FF0FF34F0E70B4904F0E7
:103BC00055FB294604460A4805F028FE24B1204644
:103BD000FFF75EFE0024E2E729460648E9E700BF5A
:103BE00033EB000041EB000060EB000070EB0000E5
:103BF00073EB000083EB00002DE9F0418CB0164917
:103C00006846FDF7C4FF18BB144DDFF85C8005F172
:103C1000160712496846FEF708F8B0B9AB7DA3B1A4
:103C20002B7ADB06F5D44146384606F058F80028D2
:103C3000EFD00B4E0B4834687F2200EBC41039469E
:103C4000013406F039F83460E3E76846FDF7DEFF3B
:103C50000CB0BDE8F08100BFBF5701001019001083
:103C6000A8290010A819001045610100014B18682F
:103C7000704700BFA8290010044B1B68834286BF11
:103C8000034B03EBC0100348704700BFA829001086
:103C9000A81900104AE2000008B500F07AFA0B21DA
:103CA0000248BDE8084002F057BF00BF355A010086
:103CB00008B500F06EFA0B210248BDE8084002F09A
:103CC0004BBF00BF405A010008B500F062FA07215F
:103CD0000248BDE8084002F03FBF00BF025A0100A1
:103CE00008B500F056FA08210248BDE8084002F085
:103CF00033BF00BFFA59010008B500F04AFA0821A5
:103D00000248BDE8084002F027BF00BF095A010081
:103D100008B500F03EFA0B210248BDE8084002F069
:103D20001BBF00BF255A010070B505460E4600F0C6
:103D300030FA0024A54200DC70BD304600F032FAB3
:103D40000134F7E738B5044618B9BDE83840FFF745
:103D5000AFBF431E052B12D8FFF79EFF142107208B
:103D600000F06EFA002518210E20FFF7DDFF013567
:103D700000210420FFF7D8FFA542F4DB38BDBDE8E1
:103D80003840FFF789BF92210A20FFF7CDBFFFFF20
:103D900010B50C4C0421002000F052FA00F0F9F9A3
:103DA00020460A2102F0D8FE0821012000F048FA3E
:103DB00000F0EFF904F10A000621BDE8104002F01E
:103DC000CBBE00BF115A0100F8B5184F05460024BC
:103DD00006262A5D02B9F8BD29194B7888786D2B23
:103DE00008BF70280CBF012300232E2A14BF002314
:103DF00003F0010323B1CB78332B01D10434E8E77E
:103E0000202A0BD00A4B002013F8011B91420BD142
:103E1000062106FB007002F09FFE03E00021062051
:103E2000FFF782FF0134D4E70130EDE7C15701000D
:103E3000B559010008B500F0ACF905210248BDE80C
:103E4000084002F089BE00BF305A010008B500F0FA
:103E5000A0F905210248BDE8084002F07DBE00BF80
:103E60005F59010037B5044600F078F900F0F7F922
:103E70002221072000F0E4F92F48304DFFF7A4FF7E
:103E80001E21052000F0DCF92D48FFF79DFF227967
:103E90002C49684605F03CFE5421052000F0D0F97D
:103EA0006846FFF791FFFFF773FF1E21022000F025
:103EB000C7F92548FFF788FFA078092829D800EB23
:103EC0004000062105EB400002F046FE1E210020C6
:103ED00000F0B6F91D48FFF777FF5421022000F0EB
:103EE000AFF91B48FFF770FFE07809281AD800EBFC
:103EF0004000062105EB400002F02EFE5421002078
:103F000000F09EF91148FFF75FFF00F030F903B0B1
:103F100030BD1048FFF758FFA07806210A3801FB92
:103F20000050D1E70B48FFF74FFFE07806210A3831
:103F300001FB0050E0E700BF88590100C1570100B4
:103F4000935901009D590100A2590100A85901008F
:103F5000AF5901008D57010073B5054600F0FEF81A
:103F600000F07DF92221072000F06AF92448FFF7CC
:103F70002BFFFFF70DFF00240326A01C0C21C0B26D
:103F800000F05EF9687906FB0040FFF775FE01342A
:103F9000FFF71AFF042CF0D1A87902302146C0B2F5
:103FA00000F04EF91748FFF70FFF1E21002000F028
:103FB00047F9FFF73FFF3021002000F041F9FFF7FC
:103FC00045FF4821002000F03BF90F48FFF7FCFEB9
:103FD0006421002000F034F90C48FFF7F5FEAB79BE
:103FE0000233DBB20A227F21CDE900210120062223
:103FF000194600F0E5F802B0BDE8704000F0B7B82F
:10400000645901007059010072590100765901008C
:1040100008B500F0BEF8702000F0C4F8182000F0D9
:10402000C1F87D2000F0BEF8B62000F0BBF8BC203F
:1040300000F0B8F83C2000F0B5F8BC2000F0B2F871
:10404000B62000F0AFF87D2000F0ACF8182000F0AA
:10405000A9F87020BDE8084000F0A4B808B5FFF743
:10406000D7FF00210820FFF75FFEFFF7D1FF0021F7
:104070000820FFF759FEFFF7CBFF00210820FFF7CC
:1040800053FEFFF7C5FF00210820FFF74DFEFFF7A5
:10409000BFFF00210820FFF747FEFFF7B9FF00210F
:1040A0000820FFF741FEBDE80840FFF7B1BFFFFF62
:1040B00013B5044600F052F800F0D1F800210520B5
:1040C00000F0BEF8FFF7CAFF1021022000F0B8F898
:1040D0002148FFF779FE1021032000F0B1F8E01D20
:1040E000FFF772FE0421072000F0AAF86378062B80
:1040F00084BF062363706078FFF724FE042100204C
:1041000000F09EF8FFF73FFE00211820FFF70CFE9D
:10411000FFF7F2FD00211020FFF706FEFFF7D4FDA8
:1041200000211020FFF700FEFFF7DAFD0021142028
:10413000FFF7FAFDFFF7ECFD00237F22CDE9003207
:10414000032105230422012000F03AF802B0BDE863
:10415000104000F00CB800BF7B59010008B50221E7
:10416000084602F0B9F9BDE8084002F0E9B908B51F
:104170000221084602F0B0F9BDE8084002F0D2B9C9
:1041800008B50421022002F0A7F9BDE8084002F0BA
:10419000D7B908B50421022002F09EF9BDE8084015
:1041A00002F0C0B902F0CEBC10B50446FFF7E8FF3C
:1041B000812002F0C7FC2046BDE8104002F0C2BCDE
:1041C0002DE9F843884617461E4681469DF8205043
:1041D0009DF82440FFF7D4FF2E2002F0B3FC49F0F5
:1041E000260002F0AFFC002002F0ACFC404602F0DA
:1041F000A9FC384602F0A6FC304602F0A3FC0020E1
:1042000002F0A0FC284602F09DFC204602F09AFC39
:104210002F20BDE8F84302F095BC40F0100002F0FA
:1042200091BC10B5044600F00F0002F08BFC200991
:10423000BDE81040FFF7F1BF40F0B00002F082BCD3
:1042400038B505460C46FFF79BFF2846FFF7F4FFFD
:104250002046FFF7E6FFBDE83840FFF79ABF38B5C4
:104260000024FFF78DFF0021E0B2FFF7E9FF802572
:10427000002002F067FC013DFAD10134082CF0D196
:1042800038BD08B5FFF77CFF0121022002F024F9B8
:1042900002F056F9FFF762FF0021022002F01CF93C
:1042A00002F04EF90021022002F016F902F03AF96C
:1042B0000121022002F010F902F034F9AF2002F0DF
:1042C00041FCFF20FFF770FFFFF7C9FFBDE8084082
:1042D000FFF74DBF18B109B1401A70470846704743
:1042E00038B5054614460B4649B152B1184600216F
:1042F00004F05CFA0346C5E90034284638BD0C4694
:10430000F9E71346F7E782B002AB03E90300DDE902
:1043100000301BB100B1013802B070471846FBE70E
:1043200082B002AB03E90300009810B102B005F0BF
:1043300086BC02B0704713B56C4684E80300009B4E
:1043400023B9B1FA81F0400902B010BD94E803002E
:10435000FFF7E6FF024694E80300FFF7D4FF82422E
:1043600034BF00200120EFE782B002AB03E9030075
:10437000009802B0704782B002AB03E90300009BD3
:1043800033B1019810B100221A70012002B07047B9
:104390001846FBE707B50DF1080C0CE9030000987F
:1043A00030B12AB1019919B106F050FB002800DCA8
:1043B000002003B05DF804FB0CB41FB56C4684E824
:1043C0000300069A40B162B1084629B107AB94E8F0
:1043D00003000393FFF7DEFF04B0BDE8104002B016
:1043E00070471046F8E70CB41FB56B4683E803002E
:1043F000069930B129B107AA039206F059FB0028AB
:1044000000DC002005B05DF804EB02B07047F7B5A2
:104410006D4685E8030014460646A0B19AB10846E9
:1044200079B1104605F00BFC074695E80300FFF74D
:104430006AFF8742024606D82146304605F03CFC1A
:10444000012003B0F0BD0020FBE738B504461D464F
:1044500021B90023C4E90033204638BD002BF8D031
:10446000FFF73EFF2A4694E80300FFF7D0FFF3E78B
:104470002DE9F04385B06D4685E8030016461F46DA
:10448000044618B9002005B0BDE8F083002BF9D030
:10449000DDF80480B8F1000FF4D095E80300FFF7D1
:1044A0003FFFB042EED3CDE902480DF1080898E88D
:1044B0000300FFF735FF8146384605F0C0FB814415
:1044C00098E80300FFF71FFF8145DBD8384605F069
:1044D000B6FB3444804604EB000995E80300FFF77F
:1044E0001FFFC6F1010202442146484604F044F988
:1044F00042463946204605F0DFFB0120C3E72DE99F
:10450000F3416C4684E8030015460646E0B1DAB193
:104510000846B1B194E80300FFF702FF07462846BA
:1045200005F08DFB024607EB000894E80300FFF757
:10453000EAFE804508D801322946F01904F00EF948
:10454000012002B0BDE8F0810020FAE71FB56B46FC
:1045500083E8030058B1084649B18DF80C200022C9
:104560008DF80D2093E8030003AAFFF7C8FF05B0FC
:104570005DF804FB07B502AB03E9030000981146A0
:1045800028B13AB105F02AFBB0FA80F0400903B037
:104590005DF804FB1046FAE7F7B56D4685E80300C1
:1045A00014461F46064680B17AB195E80300FFF72E
:1045B000B7FEB84209D33A462146304605F06AFBB9
:1045C000B0FA80F0400903B0F0BD0020FBE773B5FE
:1045D0006B4683E8030014460546A0B19AB193E800
:1045E0000300FFF79DFE0646204605F028FB8642A5
:1045F000024608D32146284605F02AFBB0FA80F08F
:10460000400902B070BD0020FBE7FFFF13B56B4609
:1046100083E80300044678B1084A93E80300FFF7F3
:10462000D6FF002814BF10220A220021204602B023
:10463000BDE8104006F0D4B902B010BD4B5A0100DD
:104640002DE9F3416F4687E8030015461C460646F0
:10465000E8B1E2B1DBB197E80300FFF761FE804605
:10466000284605F0ECFA8045074610D30246294655
:10467000304605F00FFB50B9F05D237883421ABF36
:10468000B0FA80F04009012002B0BDE8F0810020BE
:10469000FAE713B56B4683E80300044668B193E874
:1046A0000300FFF73DFE40B1204410F8010C0D2837
:1046B00005D0A0F10A035842584102B010BD0120B4
:1046C000FBE7F7B56F4687E8030015461E4604462C
:1046D000A8B1084689B197E80300FFF721FEA84278
:1046E0000DD9401B864228BF0646A9190130821BFE
:1046F0002144601904F040F8012003B0F0BD00200F
:10470000FBE717B46C4684E80300134640B139B1A7
:1047100094E80300002203B05DF8044BFFF7D1BF1B
:10472000002003B05DF8044B704737B56C4684E851
:104730000300154688B181B194E80300FFF7F0FD4E
:10474000A84228BF421B94E8030038BF00222B4632
:1047500003B0BDE83040FFF7B4BF002003B030BD68
:1047600013B502AB03E90300009C7CB182B1019850
:1047700050B11146204605F0B2FA28B12146FFF7A4
:10478000A9FD00232354012002B010BD2046FBE701
:104790001046F9E737B56C4684E80300054678B162
:1047A00071B1114605F036FA50B12946FFF792FD76
:1047B000421C94E8030003B0BDE83040FFF7A1BFFE
:1047C000002003B030BDFFFFF7B56F4687E8030058
:1047D0001446064648B351B3164905462A4612F810
:1047E000013BE3B15B5C580717D534B10A220021C5
:1047F000284606F0F5F8206001240E4A284615F8F0
:10480000013B73B93146FFF765FD024697E80300A7
:10481000FFF777FF204603B0F0BD1546DEE71C46E4
:10482000EBE79B5C5B07E9D4ECE70446F2E70C4658
:10483000F0E700BF41620100F7B56B4683E8030073
:1048400015460646F8B1EAB10846E1B193E803001F
:10485000FFF766FD0446284605F0F1F9631E334470
:10486000284400219A1B002A02DB2A46824201D1F9
:10487000012008E012F8014B1F78A742F6D103F897
:104880000119EFE7104603B0F0BD00F079B800F071
:10489000BFB800F0EFB810B5044601F091F820461B
:1048A00003F04CFF044601F025F90CB9FEF7FEFBBE
:1048B000204610BD10B5044640B101F081F82046F5
:1048C00003F044FFBDE8104001F014B910BDFFFF34
:1048D00008480068006880F308884FF0000080F303
:1048E000148862B661B6BFF34F8FBFF36F8F00DFDE
:1048F00000BF000008ED00E0DFF80C00016841F4A3
:10490000700101607047000088ED00E007B50023EA
:1049100001930B4B1B68013304D00A49EF20FEF7CB
:10492000D5FBFEE74FF0180383F31188BFF36F8FB9
:10493000BFF34F8F019B002BFCD003B05DF804FB4D
:10494000B42900104E5A01004FF0807340F8043C27
:10495000074B40F80C3C21F001016FF0020340F8D6
:10496000081C40F8202C40F8243C4438704700BF15
:104970000D490000FFFFFFFFFFFFFFFFFFFFFFFFED
:10498000074B19680868B0E8F04F80F30988BFF357
:104990006F8F4FF0000080F311887047AFF30080F5
:1049A000B829001008B54FF0180383F31188BFF33E
:1049B0006F8FBFF34F8F094A13680133012B1360C8
:1049C0000AD1074B1B6813F0FF0F05D0054940F2D1
:1049D000AB10FEF77BFBFEE708BD00BFB42900105B
:1049E00004ED00E0685A0100074A08B513682BB9C6
:1049F00006494FF4D970FEF769FBFEE7013B1360EF
:104A00000BB983F3118808BDB42900109D5A010029
:104A1000EFF30980BFF36F8F154B1A681EF0100F6C
:104A200008BF20ED108A20E9F04F10602DE9090041
:104A30004FF0180080F31188BFF34F8FBFF36F8FD3
:104A400001F0F2F84FF0000080F3118809BC1968FA
:104A50000868B0E8F04F1EF0100F08BFB0EC108AE5
:104A600080F30988BFF36F8F704700BFAFF30080FA
:104A7000B829001008B54FF0180383F31188BFF36D
:104A80006F8FBFF34F8F00F0A3FF18B1034B4FF0B0
:104A900080521A60002383F3118808BD04ED00E002
:104AA00010B5084A084C002323601360FBF7B6FBDF
:104AB0004FF47A73B0FBF3F0044B0138186007230E
:104AC000236010BD18E000E010E000E014E000E01A
:104AD000334B344A13B51968914205D132494FF42A
:104AE0009A70FEF7F3FAFEE71A68304B9A4205D146
:104AF0002F4940F23510FEF7E9FAFEE72D4B1A7800
:104B0000D2B20192FF221A701B782B4ADBB28DF8C9
:104B100003309DF8033003F018031370274A07236E
:104B2000136000219DF80300000603F1FF3409D44F
:104B300011B1022B13600ED0214940F25D10FEF737
:104B4000C5FAFEE79DF803305B00DBB28DF8033059
:104B500001212346E6E74FF400731360019B154AD9
:104B6000DBB21370174B1A6842F478021A601A68A5
:104B700042F078421A60FFF793FF134B00241C6049
:104B8000FFF7BAFE114A136843F040431360FFF782
:104B90009FFE01F049F8FFF7B9FE204602B010BDB4
:104BA00000ED00E071C20F411B5B010070C20F41BC
:104BB0003E5B010000E400E0AC290010B0290010C9
:104BC000615B010020ED00E0B429001034EF00E04B
:104BD00008B5EFF305830F2B0BD90D4A9B5C0D4AEB
:104BE00012789A4205D90C4940F2FE20FEF76EFA7F
:104BF000FEE70A4B0A4A1B68126803F4E06393421B
:104C000005D9084940F20E30FEF760FAFEE708BD0C
:104C1000F0E300E0AC290010AF5A01000CED00E019
:104C2000B0290010D95A010000F108034FF0FF32FB
:104C30004360C0E90223036100230360704700233F
:104C40000361704743684B609A688A609A68516054
:104C50009960036808610133036070470A68531C58
:104C600030B50AD103695A684A6091608B60596017
:104C7000036808610133036030BD00F108035C681C
:104C800025689542EFD82346F9E7D0E90112036978
:104C90008A6051605968814208BF5A6000220261EF
:104CA0001A68013A1A601868704710B50446FFF791
:104CB00079FEA46BFFF798FEB4FA84F0400910BDAA
:104CC000F8B51546026C866B044652B9076847BBB7
:104CD000806801F0C5F9A76005460136A66328463D
:104CE000F8BD65B9406803F039FD6368226C134470
:104CF000A26863609342F0D323686360EDE7C06805
:104D000003F02CFD236CE26821685B421A448A425E
:104D1000E2603EBFA2689B18E360022D01D116B18C
:104D2000013E0025D9E73546D7E7034610B41A6C93
:104D3000084662B1D9689C681144A142D96024BF79
:104D40001968D960D9685DF8044B03F007BD5DF8B8
:104D5000044B704770B50446FFF724FE94F84550A5
:104D600004F124066DB2002D14DCFF2384F84530D5
:104D7000FFF73AFEFFF716FE94F8445004F11006D0
:104D80006DB2002D12DCFF2384F84430BDE8704082
:104D9000FFF72ABE636A002BE7D0304600F0BAFF67
:104DA00008B101F03DF8013D6DB2DCE72369002B4D
:104DB000E9D0304600F0AEFF08B101F031F8013D16
:104DC0006DB2DEE738B50D46044628B91A4940F2FF
:104DD0000310FEF77BF9FEE7FFF7E4FDD4E90F309F
:104DE000226862604343D1181B1A1344A160E36038
:104DF0000021FF23A16384F8443084F8453095B93D
:104E0000236963B104F1100000F084FF38B10B4B4B
:104E10004FF080521A60BFF34F8FBFF36F8FFFF7D1
:104E2000E3FD012038BD04F11000FFF7FDFE04F1A1
:104E30002400FFF7F9FEF2E7675C010004ED00E0F3
:104E400013B51C4628B91E494FF49D70FEF73EF974
:104E5000FEE72BB91B494FF49F70FEF737F9FEE7C9
:104E600032B161B918494FF4A170FEF72FF9FEE78E
:104E700029B1164940F24310FEF728F9FEE7502306
:104E80000193019B502B05D0114940F24B10FEF7C6
:104E90001DF9FEE7002908BF2246019B226001237D
:104EA000C4E90F0184F8463019462046FFF78AFF0F
:104EB0009DF8103084F84C30204602B010BD00BF81
:104EC000A45B0100C65B0100DC5B0100145C010017
:104ED0004C5C0100F8B50D461746064628B90F4947
:104EE0004FF4BB70FEF7F2F8FEE748435030FFF78F
:104EF000D2FC044670B1002380F8463065B100F161
:104F000050032360C4E90F6501212046FFF75AFFD3
:104F100084F84C702046F8BD0346F2E7A45B01001C
:104F20002DE9FF47884601921F46044628B94E499D
:104F300040F2F120FEF7CAF8FEE739B9036C2BB155
:104F40004A4940F2F220FEF7C1F8FEE7022F08D1ED
:104F5000E36B012B05D0464940F2F320FEF7B6F88B
:104F6000FEE701F01BF8064638B9019B33B1414911
:104F700040F2F620FEF7AAF8FEE700264FF00009FF
:104F8000DFF8F4A037E0019D1DB9FFF72DFD0020EB
:104F900050E016B902A800F0FDFEFFF725FD00F075
:104FA0000FFDFFF7FFFC94F84430FF2B08BF84F897
:104FB000449094F84530FF2B08BF84F84590FFF7E4
:104FC00013FD01A902A800F0F1FE002846D1FFF769
:104FD000E9FCA26BE36B9A422FD1FFF705FD019923
:104FE00004F1100000F07EFE2046FFF7B3FE00F053
:104FF00081FD50B30126FFF7D5FCA26BE36B9A420B
:1050000001D3022FBFD13A4641462046FFF758FE52
:10501000636A1BB104F1240000F07CFE38B1164B2A
:105020004FF080521A60BFF34F8FBFF36F8FFFF7BF
:10503000DBFC012004B0BDE8F087FFF7D5FC20467B
:10504000FFF788FE00F056FDD4E74FF08053CAF812
:105050000030BFF34F8FBFF36F8FCBE72046FFF7D2
:1050600079FE00F047FD92E7675C01006F5C01008C
:10507000BF5C0100065D010004ED00E013B50022F5
:1050800000900B4601201146FFF7DAFE044638B1C6
:10509000002383600360C3601A461946FFF740FF90
:1050A000204602B010BDFFFF2DE9F8438946904627
:1050B0001F46044628B9284940F2C330FEF706F8D7
:1050C000FEE739B9036C2BB124494FF47170FDF739
:1050D000FDFFFEE7022F08D1E36B012B05D020492D
:1050E00040F2C530FDF7F2FFFEE7FFF771FDEFF389
:1050F00011864FF0180383F31188BFF36F8FBFF34E
:105100004F8FA26BE36B9A4201D3022F22D194F806
:1051100045503A466DB249462046FFF7D1FD6B1C1B
:1051200013D1636A0BB901200BE004F1240000F0F5
:10513000F1FD0028F7D0B8F1000FF4D00120C8F835
:10514000000086F31188BDE8F88301356DB284F85C
:105150004550E8E70020F4E7675C01006F5C010060
:10516000BF5C010070B50D46044628B923494FF4D1
:105170008C60FDF7ABFFFEE7036C2BB1204940F2DA
:105180006440FDF7A3FFFEE703683BB983682BB1DA
:105190001C4940F26940FDF799FFFEE7FFF718FD53
:1051A000EFF311864FF0180383F31188BFF36F8F6D
:1051B000BFF34F8FA26BE36B93421CD994F8453039
:1051C00001325BB2A2635A1C10D1636A0BB9012091
:1051D00009E004F1240000F09DFD0028F7D0002D27
:1051E000F5D00120286086F3118870BD01335BB2D1
:1051F00084F84530EBE70020F5E700BF675C01006D
:105200005C5D0100755D01002DE9F04385B00F463E
:105210000192044628B947494FF4A060FDF756FFB4
:10522000FEE739B9036C2BB1434940F20450FDF756
:105230004DFFFEE700F0B2FE064638B9019B33B1E0
:105240003E4940F20950FDF741FFFEE700264FF0CE
:105250000008DFF8EC903BE0019D1DB9FFF7C4FBAF
:10526000002052E016B902A800F094FDFFF7BCFB45
:1052700000F0A6FBFFF796FB94F84430FF2B08BF25
:1052800084F8448094F84530FF2B08BF84F84580AB
:10529000FFF7AAFB01A902A800F088FD00283DD174
:1052A0002046FFF702FD98B3019904F1240000F0B5
:1052B00019FD2046FFF74EFD00F01CFC38B94FF0F9
:1052C0008053C9F80030BFF34F8FBFF36F8F0126B3
:1052D000FFF768FBA56B002DBED039462046013D87
:1052E000FFF723FDA563236963B104F1100000F00B
:1052F00011FD38B1124B4FF080521A60BFF34F8F3F
:10530000BFF36F8FFFF770FB012005B0BDE8F0839E
:105310002046FFF71FFD00F0EDFBD8E72046FFF722
:1053200019FD00F0E7FB2046FFF7BFFC0028CED0B8
:1053300096E700BFDC5D0100E85D0100065D01004D
:1053400004ED00E02DE9FF410446019128B95849D8
:1053500040F29150FDF7BAFEFEE7056C2DB15549BC
:1053600040F29550FDF7B2FEFEE700F017FE06464C
:1053700038B9019B53B1504940F29A50FDF7A6FE4F
:10538000FEE72E460027DFF838814EE00546F9E7B4
:10539000019B4BB92DB1494940F2E150FDF796FE12
:1053A000FEE7FFF721FB5EE016B902A800F0F2FC71
:1053B000FFF71AFB00F004FBFFF7F4FA94F844300F
:1053C000FF2B08BF84F8447094F84530FF2B08BFCA
:1053D00084F84570FFF708FB01A902A800F0E6FC7D
:1053E00000284AD12046FFF760FC00283FD0236800
:1053F0003BB9FFF7D7FAA06800F0E0FD0546FFF7DC
:10540000F3FA019904F1240000F06CFC2046FFF748
:10541000A1FC00F06FFB38B94FF08053C8F80030A2
:10542000BFF34F8FBFF36F8F0126FFF7BBFAA36B5C
:10543000002BADD0013BA363236813B900F0B6FE87
:10544000A060236963B104F1100000F063FC38B17F
:105450001B4B4FF080521A60BFF34F8FBFF36F8F1B
:10546000FFF7C2FA0125284604B0BDE8F0812046C6
:10547000FFF770FC00F03EFBD6E72046FFF76AFC22
:1054800000F038FB2046FFF710FC0028CCD0002DA0
:10549000E9D0FFF787FA616A19B1236B1968C1F186
:1054A0000A01A06800F02AFE0025FFF79DFADAE75E
:1054B000DC5D01005C5D0100065D0100865E0100AF
:1054C00004ED00E02DE9F84389469046054628B9E9
:1054D000214940F2FB60FDF7F9FDFEE739B9036CA5
:1054E0002BB11E4940F2FC60FDF7F0FDFEE7FFF72F
:1054F0006FFBEFF311874FF0180383F31188BFF3AD
:105500006F8FBFF34F8FAC6B1CB395F84460494667
:1055100076B22846FFF709FC013C731CAC6313D13B
:105520002B690BB901200BE005F1100000F0F2FB34
:105530000028F7D0B8F1000FF4D00120C8F800001F
:1055400087F31188BDE8F883013676B285F84460A8
:10555000E8E72046F4E700BF675C01003B5E01001E
:1055600008B528B9064940F2B770FDF7AFFDFEE770
:1055700090F846301BB9BDE80840FFF79BB908BD5D
:10558000675C010043685B68436000F10802934276
:1055900004BFC3684360436830B5DC6800255B68BE
:1055A0009A4208BF5368D9688C420D65F7D14360B1
:1055B00030BDFFFF2DE9F0410446FFF7F3F92D4B15
:1055C0002D4D1A682D4F01321A602E68002E46D1DB
:1055D0002C601B68012B1CD1B84640460136FFF7F2
:1055E00023FB0A2E08F11408F7D1DFF8B880244E07
:1055F0004046FFF719FB3046FFF716FB2148FFF73F
:1056000013FB2148FFF710FB204BC3F80080204B11
:105610001E60204A20491368086801331360E26A5B
:10562000236401239340034314200B6000FB0270AA
:10563000211DFFF707FBFFF7D7F9184B1B6863B174
:105640002B68DA6AE36A9A4207D2154B4FF0805210
:105650001A60BFF34F8FBFF36F8FBDE8F0810F4B20
:105660001B68002BD5D12B68DA6AE36A9A4298BF8F
:105670002C60CEE7902A0010B8290010C429001031
:10568000B82A0010D82A0010F02A0010BC290010F7
:10569000C02900109C2A0010A02A0010EC2A00103B
:1056A00004ED00E0A42A001008B5074C074D4FF0A8
:1056B00080562368012B04D92E60BFF34F8FBFF3B0
:1056C0006F8FFDF7FBFCF4E7C429001004ED00E048
:1056D000064A13681968064B19B94FF0FF321A6071
:1056E00070471268D268D2685268F8E7BC29001087
:1056F000D02A00102DE9F047DDE909644FEA82095C
:105700004A4607460D46206BA521984603F04EF801
:10571000236BA9F10409994429F007099DB36B1E75
:1057200004F134020B3513F8011F02F8011B09B113
:10573000AB42F8D1002384F83F30089D092D28BFE3
:1057400009254FF0000AE562A564201DC4F84CA0AD
:10575000FFF775FAC5F10A0504F11800FFF76FFAB3
:10576000C4F854A02461A5616462C4F850A084F810
:1057700058A0424639464846FFF7E6F8206006B191
:105780003460BDE8F08784F83450D6E7F8B51B4B99
:105790001B4E1C680546306804300F46FFF775FA4B
:1057A000334640B93168174EC96A326801208840D3
:1057B00022EA000232606A1C07D137B11968124828
:1057C0000431BDE8F840FFF73DBA1A686419546027
:1057D00007D30E4A10681968BDE8F8400431FFF796
:1057E0003DBA0B4A106819680431FFF737FA094BC4
:1057F0001A68A24288BF1C60F8BD00BF042B0010CD
:10580000B8290010A02A0010F02A0010C0290010AA
:10581000BC290010D02A001070B586B0DDE90B5409
:105820002DB9154940F24D20FDF750FCFEE72CB98B
:10583000124940F24E20FDF749FCFEE75C26059632
:10584000059E5C2E05D00E4940F25620FDF73EFC29
:10585000FEE72563022584F8595004AD01950A9DA1
:1058600002940095059EFFF745FF2046FFF7A2FE34
:10587000049806B070BD00BF775F01008E5F010025
:10588000A35F01002DE9F043074685B090008846EC
:1058900016469946FEF7FFFF0546E8B15C20FEF785
:1058A000FAFF0446A8B1002380F859300D9B056328
:1058B00001930C9B0290009332464B46414638467A
:1058C000FFF718FF2046FFF775FE012005B0BDE881
:1058D000F0832846FEF7EEFF4FF0FF30F6E7FFFFBC
:1058E000F8B5044628B914494FF4AD60FDF7EEFB56
:1058F000FEE7124B1B68834218D0FFF753F8104B9A
:1059000065691F680F4B1E68FFF76EF8BD4211D026
:10591000B5420FD00C4B9D420AD1A36A53B994F8FB
:105920005830012B0CBF02200320F8BD0020FCE7FB
:105930000120FAE70220F8E7A65E0100B82900106E
:10594000BC290010C0290010F02A001010B588B042
:10595000002407AA06A905A8CDE90544FDF7D6FB52
:10596000059B0293069B079A0F491048CDE9004317
:105970002346FFF751FF0E4B186090B14FF018030C
:1059800083F31188BFF36F8FBFF34F8F094B4FF035
:10599000FF321A60084B01221A60084B1C60FFF7A7
:1059A00097F808B010BD00BF1D5F0100A9560000A8
:1059B000CC2A0010D02A0010EC2A0010042B001072
:1059C000024A136801331360704700BF982A001021
:1059D0002DE9F84F3B4B1B68002B6BD13A4B1C68F1
:1059E00001341C60A4B9394B1A6812682AB13849CD
:1059F00040F67F20FDF76AFBFEE7364A196810681B
:105A000018601160344A136801331360FFF760FEB9
:105A1000324D334F2B68A3424FF0000B11D93A6837
:105A2000304BD16A14224A439A58022A28BF4FF0B9
:105A3000010B2D4A1268002A0CBF58460120BDE810
:105A4000F88FDFF888A0DFF8A890DAF80020126855
:105A50001AB94FF0FF322A60E1E7DAF80020D26885
:105A6000D66871688C4201D22960D8E706F1040833
:105A70004046FFF70AF9B16A19B106F11800FFF7BD
:105A800004F9F06AD9F80030012202FA00F1194352
:105A9000144BC9F800104FF0140C41460CFB0030B9
:105AA000FFF7D0F83868F16AC26A914228BF4FF018
:105AB000010BCAE70D4A1368013313604FF0000B66
:105AC000B7E700BF982A0010042B0010BC29001073
:105AD000BC5F0100C0290010D42A0010D02A001099
