:1000000000000110E500000075010000590100002A
:100010007501000075010000750100007501000008
:10002000750100007501000075010000C348000063
:100030007501000075010000C7480000CB480000B2
:10004000AD690000AD690000AD690000AD69000058
:10005000AD690000AD690000AD690000AD69000048
:10006000AD690000AD690000AD690000AD69000038
:10007000AD690000AD690000AD690000AD69000028
:10008000AD690000AD690000AD690000AD69000018
:10009000AD690000AD690000AD690000AD69000008
:1000A000AD690000AD690000AD690000AD690000F8
:1000B000AD690000AD690000AD690000AD690000E8
:1000C000AD690000AD690000AD690000AD690000D8
:1000D000AD690000AD690000AD690000AD690000C8
:1000E000AD69000008B500F057F900F073F900F0B1
:1000F0009DF800F079F900F095F802F061FF02F048
:100100008BFE00F0BFF840B141F28734002502F0C9
:1001100083FF8D4208BF8442F9D200F082F918B9FA
:100120000849094809F0A8FB0649084809F0A4FB5A
:1001300007F0EEF8064B07481B68D96808F044F949
:10014000FEE700BFE4D90000F0D900001DDA00008E
:100150000C02001035DA00001EF0040F0CBFEFF3A4
:100160000880EFF309808169004A1047D10100003F
:100170007047FFFF38B50F4C0F4B10481D782368B0
:10018000D96808F021F923680D49D8682A4608F093
:10019000A3F80F2D236807D80A4A0B4952F82520E7
:1001A000D86808F099F8FEE7D968084808F00CF913
:1001B000F9E700BF0C02001004ED00E070DA000067
:1001C0008ADA00007CDB0000C4DA0000E2DA00001A
:1001D00010B5044600F04AF8236883606368C36082
:1001E000A3680361E3684361236943626369013B78
:1001F000C361A3698361E3690362BFF34F8F05495C
:10020000054BCA6802F4E0621343CB60BFF34F8F23
:1002100000BFFDE700ED00E00400FA05004870476C
:1002200000D8B8050048704700D8B8050E4B072223
:10023000C3F88420AA210122C3F88020C3F88C10BF
:100240005521C3F88C10C3F8A821D3F88820520593
:10025000FBD51A6822F4704242F480421A6040F2E0
:100260000112C3F80421704700C00F400248034A3E
:10027000034BC0E90023704700000020EFBEADDE55
:100280001041522138B5224C224B22689A423DD16E
:100290006268214B9A4239D1204D21482B68D96898
:1002A00008F092F82B68A2691E49D86808F014F883
:1002B0002B68E2691C49D86808F00EF82B68226A9E
:1002C0001A49D86808F008F82B68A2681849D86855
:1002D00008F002F82B68E2681649D86807F0FCFFBE
:1002E0002B6822691449D86807F0F6FF2B68626909
:1002F0001249D86807F0F0FF2B681148D96808F058
:1003000063F801200023C4E9003338BD0020F9E779
:1003100000000020EFBEADDE104152210C020010A3
:10032000BCDB00000FDC00001EDC00002DDC000048
:100330003CDC00004BDC00005ADC000069DC000003
:1003400078DC00000E4A136810B50E4C1918A14253
:10035000116002D30C4CA1420BD313600B4A0C4921
:1003600013681844884208D30A49884205D21060AD
:1003700001E0002BF2D0184610BD0023FBE700BFC0
:100380000000001028000020008000200400001061
:100390004033001000000110094A0A4B0A498B4201
:1003A00005D30A4B0A4A0021934205D3704712F83D
:1003B000010B03F8010BF2E703F8011BF4E700BFA0
:1003C000E465010000000010E0030010E0030010ED
:1003D00040330010034AD2F8883043F47003C2F867
:1003E0008830704700ED00E0044800232021C21847
:1003F0000133292B82F80013F9D1704700E100E0A6
:1004000008B52A2219233821022006F0C1FA0D224C
:100410003821022006F078FAA0F12A035842584108
:1004200008BDFFF7EDBF42884378007843EA022316
:1004300040EA032070470B0A017043700B0C090E51
:100440008370C170704710B5024410F8013B11F879
:10045000014B9042A3EB040301D0002BF5D01846CA
:1004600010BDC3690239023B8B4283BF4389006BD5
:1004700001FB030000207047024600F10B01002041
:10048000C30143EA500312F8010B50FA83F38A4286
:10049000D8B2F5D1704702684AB1134613F8011B70
:1004A0001F290BD93A29F9D1911C8B4202D04FF068
:1004B000FF3070471278302AF9D10360002070476E
:1004C00001380A4411F8013B00F8013F9142F9D18B
:1004D0007047CA7E8B7E032843EA022301BF487D12
:1004E0000A7D42EA002243EA024318467047C2F3FB
:1004F00007238A76CB760378032B01BF120C0A758B
:10050000120A4A75704770B500F13806426B04460E
:1005100001233146407801F078FC054688B9616BCB
:10052000A36A226AE070CB1A934208D2A378022B06
:1005300005D10A4401233146607801F066FC284663
:1005400070BD0125FBE738B5436B8B4204460D4671
:1005500019D0C3788BB901232A4604F13801607899
:1005600001F03FFC002818BF4FF0FF3503466563DC
:100570000CBF03460123184638BDFFF7C4FF0346EE
:100580000028F8D1E7E70023F5E7FFFF38B500239F
:10059000C3704FF0FF3343630546FFF7D4FF0446B3
:1005A00018BB95F8372295F8363243EA02234AF60B
:1005B000552293421BD195F83830EB2B03D01833DA
:1005C000DBB2012B15D803220B4905F16E00FFF7B2
:1005D0003AFF40B10522094905F18A00FFF733FFD0
:1005E000002818BF0224204638BD0424FBE703245A
:1005F000F9E70224F7E700BFD9DD0000DDDD0000E8
:100600002DE9F043002385B00B600F461546FFF738
:1006100042FF061EC0F23981A44B53F82640002C3D
:1006200000F03581206901F040FB002800F03181A5
:100630003C60237805F0FE056BB1607801F0CCFBDF
:10064000C10708D41DB110F0040500D00A252846C2
:1006500005B0BDE8F0830023F0B22370607001F0B4
:10066000ADFBC20700F117810DB14307EED40021A5
:100670002046FFF78BFF022840F0EE806F4604F51E
:10068000FF7104F23E263D4611F8040C10B10846F5
:10069000FFF7C9FE10318E4245F8040BF4D1002556
:1006A00057F8046B002E00F0CE8031462046FFF74D
:1006B0006DFF012800F2C88094F8442094F843307C
:1006C00043EA0223B3F5007F40F0CA8094F84F302C
:1006D00094F84E5055EA032504D104F15C00FFF76D
:1006E000A2FE054694F8481025624B1E012BA1700E
:1006F00000F2B68094F845901FFA89F36381002BCD
:1007000000F0AE8009F1FF3313EA090F40F0A88032
:1007100094F84A3094F8497047EA03273FB21FFA29
:1007200087F818F00F0FA4F8088040F0998094F82B
:100730004C3094F84B0050EA032003D104F15800E8
:10074000FFF771FE94F8472094F8463053EA0223ED
:1007500000F0868005FB01FC03EB18126244904216
:100760007ED3801A4845B0FBF9F179D350488142D5
:1007700076D84FF6F570814240F28F804FF0030932
:10078000023133443244B9F1030FE1616662A3627E
:10079000226369D194F8632094F8623043EA02231B
:1007A0001F433FB2002F5BD104F16400FFF73BFE13
:1007B000E062890001F2FF11B5EB512F50D34FF0E9
:1007C000FF33C4E90533B9F1030F4FF08003237100
:1007D0002FD194F8692094F8683043EA0223012B62
:1007E00027D1711C2046FFF7AEFE10BB94F83722CC
:1007F00094F83632207143EA02234AF65522934296
:1008000017D104F13800FFF70EFE2A4B984210D1A1
:1008100004F50770FFF707FE274B984209D104F54E
:100820000870FFF700FEA06104F50970FFF7FBFDFB
:100830006061224A84F80090138801339BB21380D0
:10084000E380002503E703200135042D7FF428AF62
:10085000042805D10125FAE60428FBD0012801D996
:100860000D25F4E6002627E7B8F1000FF8D0634421
:10087000B9F1020FE3624FEA41031BBF5B1801F0BD
:100880000101194601EB530194E70B25DFE60C2526
:10089000DDE60F25DBE60325D9E640F6F579494587
:1008A0008CBF4FF002094FF0010969E7E003001027
:1008B000F5FFFF0F5252614172724161E403001073
:1008C00001292DE9F04705460C46174672D9C36940
:1008D0008B426FD90378022B3FD0032B50D0012BD2
:1008E00068D101EB5108816A01EB5821FFF72BFE1B
:1008F000064638BB05F1380908F1010AC8F30808B3
:1009000014F001041FBF19F8083003F00F023B0177
:1009100003F0F00314BF1343FBB209F80830A96ACF
:100920000123EB7001EB5A212846FFF70CFE064627
:1009300040B9CAF3080A44B1C7F3071709F80A70A7
:100940000123EB703046BDE8F08719F80A30C7F391
:10095000032723F00F031F43F0E7816A01EB142103
:10096000FFF7F1FD06460028ECD1640005F13803DD
:1009700004F4FF741A191F55C7F307275770DFE7F0
:10098000816A01EBD411FFF7DEFD06460028D9D1BC
:10099000A40005F1380304F4FE741C442046FFF75C
:1009A00042FD27F0704700F0704139432046FFF7C1
:1009B00042FDC5E70226C5E70129F8B505460C4604
:1009C00052D9C36999424FD20378022B29D0032B05
:1009D00038D0012B48D101EB5106816A01EB562139
:1009E000FFF7B1FD10B14FF0FF30F8BD771CA96AD9
:1009F000C6F308062E4401EB5721284696F83860C6
:100A0000FFF7A1FD0028EED1C7F308073D44E30737
:100A100095F8380046EA00204CBF0009C0F30B00EF
:100A2000E3E7816A01EB1421FFF78DFD0028DAD19D
:100A30006400383504F4FF742B19285D5B7840EAB4
:100A40000320D2E7816A01EBD411FFF77CFD002877
:100A5000C9D1A40005F1380004F4FE742044FFF766
:100A6000E2FC20F07040C0E70120BEE7B1F5001FB6
:100A7000F8B506460D4601D30220F8BDCA06FBD1E3
:100A8000826804683161CAB92378022B01D9E36A0C
:100A90009BB92389B3EB551FEED9E36AB361B36900
:100AA0007261002BE8D003EB55233834C5F30805F9
:100AB0002C44B361F4610020DFE71A4667897F02A6
:100AC000BD42114604D22046FFF7CBFCB061E6E7F9
:100AD0003068FFF771FF431C024606D00128CBD9CE
:100AE000E3698342C8D9ED1BEAE70120C5E72DE998
:100AF000F041804605680F4649B96E69C6B1EB6999
:100B0000B34298BF0126AB69A3B9002406E028468A
:100B1000FFF752FF0128044603D801242046BDE810
:100B2000F081421C51D0EB698342F7D83E46EAE798
:100B30000126E8E7BE4215D1EB69D8F80000741C25
:100B4000A34298BF02242146FFF736FF0128E4D0D4
:100B5000431C3AD0D8B16B69012B03D9EA6993429F
:100B600038BF1E463446EB690134A34202D8012E39
:100B7000CBD902242146D8F80000FFF71DFF40B171
:100B80000128CAD0013020D0B442ECD1BDE7002CFE
:100B9000E8D04FF0FF3221462846FFF791FE90B98A
:100BA00057B9D5E90632023A93426C6110D92B79D4
:100BB00043F001032B71B1E7224639462846FFF77F
:100BC0007FFE0028EDD00128A7D14FF0FF34A5E724
:100BD000013BAB61EBE7F8B50D46012D0746114629
:100BE00004682BD9E369AB4228D92AB14FF0FF3210
:100BF0002046FFF765FE30B929463868FFF7DCFE6E
:100C0000064608B90020F8BD012817D0431C17D0AC
:100C1000002229462046FFF753FE0028F3D1D4E9ED
:100C20000632911E8B4205D20133A361237943F032
:100C300001032371B2423546DED8E3E70220E2E742
:100C40000120E0E740B1A1F10B03012B04D90F29EA
:100C500002D0006901F032B8704738B50D4604463D
:100C6000F0B10368DBB11A78B2B18188DA889142B9
:100C700012D1186901F019F8034698B12368587821
:100C800001F0AAF810F0010002D124682C6038BDF0
:100C900000212068FFF7D6FF09200024F6E71C4654
:100CA0000920F3E70F201C46F0E72DE9F047002666
:100CB000D0F800A08E75836980460C46002B00F0AA
:100CC0009080C36A01336BD1D8F81C1000224D1EEE
:100CD00010462E2615F8013F202B00F101000CD004
:100CE000052B08BFE523092804D10B2A9EBFA718AE
:100CF00001327E72A71801327B720B28EAD1A31849
:100D000000205872A37D002B5AD1002A4FD004F145
:100D1000090010F8012B002A4CD092B2A2F1410533
:100D2000192D07D8082B0E7B8CBF102508252E42C5
:100D300018BF203202730133EBE7B9F1000F05D180
:100D400000F520539BB2B3F5006F12D340F2B511FA
:100D500040EA094000F0B8FFFF28C7F1800518D924
:100D6000012D20D9E319020A9A75D87502231F4470
:100D7000002002368146DAF80C30985B0028DCD17E
:100D80003D46B9F1000F18BF002525440023AB757F
:100D90009AE750B1002DF4D0E31998750123E6E7E6
:100DA000B1463746E7E70025EBE70546E9E73F238D
:100DB000A3750123234400229A750B7B03B9637248
:100DC000CB7A237201F11C00FFF72DFB2060CA7D56
:100DD0008B7D43EA0223E3804A7E0B7E43EA0223B3
:100DE000A380BDE8F087F8B5C37804460D46C3B9C3
:100DF00029462046FFF735FB04F1380607466063B5
:100E000004F50E723346002103F8011B9342FBD117
:100E1000002563899D420AD36089401B18BF0120C9
:100E2000F8BDFFF770FB0028E2D00120F8E70123AE
:100E30007A193146607800F0E8FF0028ECD10135DE
:100E4000E7E72DE9F843076905682037B7F5001F84
:100E500024BF0023836183690446894673B1C7F3C5
:100E60000808B8F1000F39D141690133836139B9FC
:100E70002B89B3EB571F31D80023A36104200BE06B
:100E80006B89013B13EA572328D12846FFF794FDCD
:100E90000128064602D80220BDE8F883421C01D191
:100EA0000120F9E7EB69834212D8B9F1000FE3D0D2
:100EB00061692046FFF71BFE0646A8B10128EAD06B
:100EC000431CEDD001462846FFF78DFF0028E7D1EF
:100ED000666131462846FFF7C4FAA06138354544BB
:100EE0002761E5610020D7E70720D5E72DE9F04F1E
:100EF000002185B00446D0F80080FFF7B7FD814699
:100F0000002840F08C804FF0FF334FF0FF0AE3627F
:100F100057460093A1694046FFF715FB814600281C
:100F20007DD1E5692E78002E7DD0EA7AE52E02F09B
:100F30003F03A37103D0100704D50F2B04D0009BEF
:100F4000E36252E00F2B57D194F82B30590642D46C
:100F5000720648D5236995F80DA0E36206F0BF0636
:100F60006B7B534541D1EA7EAB7E53EA02233CD1F1
:100F70002F78D8F80CB007F03F077B1E0D275F4392
:100F80002A4B012113F8012BA81815F8029040787C
:100F900049EA002959B37F2F039326D8484600F029
:100FA000C7FE7A1C02903BF81700019200F0C0FEC9
:100FB0000299814219D1019A039B494617461C4A5E
:100FC0009A42DFD12B785B0603D511B13BF817307D
:100FD0005BB9013EF7B200212046FFF732FF8146A0
:100FE000002897D01BE0B742BAD0FF27F3E74FF6AF
:100FF000FF729145E3D0F8E727B92846FFF73CFA9E
:1010000050450CD094F82B9019F0010997D10B2280
:1010100004F120012846FFF716FA00288FD1484630
:1010200005B0BDE8F08F4FF00409F8E7CCDD000013
:10103000D9DD00002DE9F84FFF2607680546344644
:101040004FF004094FF6FF78A96919B9B9F1000FFB
:101050006FD05FE03846FFF776FA8146002859D115
:10106000E8690378002B6DD0C27AE52B02F03F02CD
:10107000AA7154D02E2B52D022F0200108294ED034
:101080000F2A51D15A0648D503F0BF042B69467B7D
:10109000EB62437BB34242D1C27E837E43EA0223AA
:1010A0001BB2002B3BD10278F968DFF8A0E022F0F8
:1010B0004002013A4FF00D0C0CFB02FC4FF001090D
:1010C0001EF801AB00EB0A0292F801B010F80A20FA
:1010D00042EA0B22B9F1000F23D0BCF17F0F1ED8DA
:1010E00021F81C2091460CF1010C01330D2BE7D1A6
:1010F00003785B0605D5BCF17F0F10D8002321F8DB
:101100001C30013CE4B200212846FFF79AFE8146DC
:10111000002899D00023AB610DE0A342B9D0FF2491
:10112000F1E74245E1D0FAE744B9FFF7A5F9B0424B
:1011300004D14FF000094846BDE8F88F4FF0FF3367
:10114000EB62F8E74FF00409E4E700BFCCDD0000F4
:101150002DE9F04F85B00368019306468A4611F8E1
:10116000013B2F2BFAD05C2BF8D00021B1609AF80C
:1011700000301F2B00F2CD808023304686F82B30C4
:1011800005B0BDE8F04FFFF771BC7F2807D8924A41
:1011900012F8013B1BB19842FAD106204EE0802D97
:1011A000FBD02BF815000135B7E033F8022D202ACB
:1011B00002D02E2A40F0D480013DCEE00246D7E096
:1011C000C84505D2AB4249D1B9F10B0F3ED102E07F
:1011D000B9F10B0F35D144F003044FF00B0996F829
:1011E0002030E52B04BF052386F82030B9F1080F25
:1011F00004BFBF00FFB207F00C030C2B03D007F0B5
:101200000303032B01D144F00204A50707D4F80718
:1012100048BF44F01004790748BF44F0080486F83A
:101220002B403046FFF762FE96F82B3000285FD047
:10123000042803D113F0040F08BF052005B0BDE852
:10124000F08FAB4202D044F00304C8D8BF00FFB215
:101250002B464FF00B094FF00808B9E07F2812D950
:1012600044F0020240F2B5110393029200F02CFD0B
:1012700010F0800FDDE902230FD000F07F00574906
:10128000085C144628B1564911F8012BF2B182428C
:10129000FAD144F003045F2011E0FF28F1D909F1ED
:1012A000FF31884503D344F00304C84690E006EBC1
:1012B0000801040A81F8204008F10108144606EBF1
:1012C000080208F1010882F8200081E0A0F1410243
:1012D00092B2192A02D847F00207F0E7A0F16102A2
:1012E00092B2192A9EBF203847F0010780B2E6E784
:1012F0005A07A3D4B379DB066CD5019B03F13801FF
:101300003369C3F308031944019B1878FFF7E1F828
:10131000B0603368D3F80CB000251AF8010B68B13F
:1013200040F2B51100F0F0FC00283FF436AF1F2862
:1013300004D92F2802D05C287FF427AF52461378B7
:101340002F2B924602F10102F9D05C2BF7D0202816
:1013500034BF042400240BEB4503002D7FF425AF9C
:1013600000220BEB45032BF81520002D3FF415AFA1
:101370003BF81210202902F101003FF41FAF0AB917
:101380002E2901D144F0030433F8021D2E2901D087
:10139000013DF9D106F1200306F12B01202003F8CD
:1013A000010B9942FBD14FF000084FF00809474666
:1013B0003BF81200531C00283FF411AF202805D041
:1013C0002E287FF4FDAEAB423FF4FEAE44F00304A2
:1013D0001A46EDE7052031E7E3DD00004CDD0000B3
:1013E000ECDD000070B5C3780446002B45D12378AE
:1013F000032B39D12379012B36D104F1380604F5BA
:101400000E723346002503F8015B9342FBD155234E
:1014100084F83632AA2384F83732522341227221CB
:1014200084F8383084F83930612384F83A3084F80D
:101430003B2084F81E2284F81F3284F81C1284F8A2
:101440001D1204F50870A169FEF7F5FF616904F546
:101450000970FEF7F0FF626A60780132626301236F
:10146000314600F0D2FC257100221146607800F070
:10147000E0FC003018BF012003E0FFF744F800282B
:10148000B5D070BD2DE9F04F90F82B4014F0A004BA
:1014900089B0054640F08F800668F26832F8143053
:1014A000002B66D105F120070C22394605A8FFF76D
:1014B00007F89DF81F30DB0740F186804023DFF8F6
:1014C000448285F82B304FF0010A0B2205A93846DB
:1014D000D6F80C90FEF7F4FFBAF1050F5AD9A9F12E
:1014E0000201534631F8022F002A44D10DF11300B6
:1014F000072203F00F0C0CF13001392988BF0CF1E1
:1015000037010F2B00F8011902F1FF324FEA1311D6
:1015100042D808AB13447E2103F8141C05F11F01C7
:1015200008460023934206D010F801CFBCF1200FEB
:1015300003F1010E32D1072A9CBF08A8801803F1DD
:10154000010396BF10F8140C20200132072BC85459
:10155000F1D92846FFF7CAFC814678BB0AF1010A97
:10156000BAF1640FB1D14FF00709484609B0BDE8A0
:10157000F08F013492E7102002F0010C0CEB4303D2
:1015800013F4803F18BF83EA080301384FEA520280
:10159000F2D1A7E75346A9E70B46AAE77346C1E78E
:1015A000804601212846FFF74CFC814610B3B9F173
:1015B000040FD8D0D9E74FF00609D6E70428D4D1D4
:1015C0009DF81F3085F82B309DF81F30D5F800A00E
:1015D0009B0748BF0C344FF00001284649BF0D233C
:1015E0000124B4FBF3F40134FFF740FA81460028EC
:1015F000DDD18046A9695046FEF7A5FF8146002847
:10160000D5D1EB691B78E52B01D0002BC8D108F1AF
:1016100001084445C5D1013C55D029692846A1EBB4
:101620004411FFF723FA814600289ED13846FEF781
:1016300023FF4FF6FF780190A9693046FEF783FF3C
:101640008146002891D1EB69019AD6F80CE05A73D3
:10165000E1B24FF00F024FF00D0CDA72DFF8A8A0E4
:1016600018734A1E0CFB02F29876D87684464045E1
:101670001AF8019B18BF3EF8120003F8090003EBAB
:10168000090B0CF1010C18BF01324FEA1029002898
:1016900008BF4046BCF10D0F8BF80190E7D14045E3
:1016A00002D03EF812200AB941F04001197001231E
:1016B000F37000212846FFF7C4FB814600287FF421
:1016C00054AF013CB8D1A9693046FEF73CFF8146D2
:1016D00000287FF44AAFEB69014603F1200203F8CA
:1016E000011B9342FBD10B223946E869FEF7E8FE65
:1016F00095F82B30EA6903F0180313730123F37094
:1017000033E700BF21100100CCDD0000F0B585B04B
:10171000CDE9001003A814460391FEF7BCFE051E98
:1017200028DB154F57F825604EB1306900F0B8FA44
:1017300018B90224204605B0F0BD0023337001998A
:1017400079B9019B47F82530002CF3D001A900227C
:101750006846FEF755FF044601460198FFF772FA06
:10176000E8E7002301F8103BE8B200F08BFA00280C
:10177000E7D1DEE70B24DDE7E00300102DE9F041BF
:10178000D0B0174601910446002800F0DB8002F03B
:101790003F052A4602A901A8FEF732FF06460028A7
:1017A0004BD1029B019903930FAADA6003A8FFF7BC
:1017B000CFFC20B99DF93730002BB8BF062017F0B9
:1017C0001C0F00F09F80002842D0042835D103A8C8
:1017D000FFF758FE88BB45F00805029BDDF828801E
:1017E00018784146FEF775FE074600F034FB0146C7
:1017F00008F10E00FEF71FFE0A9B02982022DA7203
:101800000A990022FEF773FE0A9B00221A775A7784
:101810009A77DA77029B0121D97017B3394603A86A
:10182000D3F83480FFF7D7F938B941460298FEF76C
:101830008AFE029B013F5F6198B100232360064648
:1018400031460298FFF7FEF9304650B0BDE8F0810E
:101850009DF8123013F0110F5ED178076CD4390760
:10186000BBD4DDF808800A9FD8F834302362676261
:1018700098F800002907394648BF45F04005FEF7B3
:1018800028FEA06007F11C00FEF7CDFDB8F8063079
:10189000A38004F128070023E060C4F800802574C9
:1018A0006374E361636104F50A713A4602F8013B2F
:1018B0009142FBD1AA06C3D5E568002DC0D0B8F887
:1018C0000A80A16865614FEA4828A84526D3002010
:1018D000A1610028B1D1C5F30803002BB0D0DDF819
:1018E00008804046FEF7BDFD50B300EB5522E26193
:1018F0000123394698F8010000F073FA00289FD0C0
:1019000001209AE7002898D19DF81230DA0615D404
:10191000BF07A6D5D807A4D507208EE72068FFF714
:101920004BF801280146A5EB080503D9431CCCD18F
:101930000120CDE70220CBE708207EE704207CE7EA
:1019400002207AE709267FE72DE9F04F9B4685B014
:1019500000238946CBF8003003A904461646FFF75A
:101960007CF9054608B9657C25B129460398FFF73F
:1019700069F908E0257C15F0010508D107210398D5
:10198000FFF760F90725284605B0BDE8F08FE3684A
:101990006769DF1BB74204F1280328BF374600936D
:1019A0002FB939460398FFF74DF93D46EBE76269D9
:1019B000C2F30803002B76D1039B5B89013B13EA3A
:1019C000522313D12AB9A068012809D802256574C9
:1019D000CBE7A16920680193FEF7EEFF019BF3E7D7
:1019E000421C02D101216174C0E7A061DDF80CA0A6
:1019F000A16901935046FEF734FD019B20B90225F1
:101A0000657429465046B2E7B7F5007F03EB00083E
:101A10002BD37E0ABAF80A209AF80100991991424C
:101A200088BFD61A33464246494600F0DAF9002804
:101A3000D8D194F91030002B0BDAE069A0EB080044
:101A4000B04206D24FF40072009909EB4020FEF735
:101A500037FD7602DBF800303344CBF800306369A1
:101A6000BF1BB1441E4466619AE7E269424518D043
:101A700094F91030002B0BDA012300999AF8010039
:101A800000F0C3F90028ADD1237C03F07F03237459
:101A90000398009940780123424600F0A2F90028FB
:101AA000A0D1C4F81C806169009BC1F30801C1F595
:101AB0000076BE4228BF3E46324619444846FEF7ED
:101AC000FFFCC7E7F7B501A90446FFF7C6F80546CE
:101AD000002843D1237C13F040053FD01B0614D5CA
:101AE0000198E2694078012304F1280100F08DF9A2
:101AF00038B101210198FFF7A5F80125284603B068
:101B0000F0BD237C03F07F03237400F0A4F9216A65
:101B100007460198FEF717FD0546F8B9666AF37A9D
:101B200043F02003F372A26820683146FEF7DFFC21
:101B3000E16806F11C00FEF77EFC394606F116004E
:101B4000FEF779FC0198B5740123F574C370FFF7B3
:101B500049FC237C23F04003054623742946019861
:101B6000FFF770F8CAE737B50546FFF7ABFF044645
:101B700050B901A92846FFF770F8044620B928603B
:101B800001460198FFF75EF8204603B030BD30B53E
:101B9000C5B005460191002833D0002202A901A852
:101BA000FEF72EFD044690B9029B2B6003AADA6073
:101BB00001992846FFF7CCFA044620BB95F92B3053
:101BC000029C002B0BDBAB79DB0603D4052400233E
:101BD0002B600FE02078E969FEF77BFCA860E388C2
:101BE000AB8000212846FEF741FF04280446EDD0D3
:101BF0000028ECD121460298FFF724F8204645B092
:101C000030BD0924FAE70428E0D0E0E737B501A9A0
:101C10000546FFF722F8044620B9286001460198DE
:101C2000FFF710F8204603B030BDF0B5C3B00E4644
:101C300069460546FFF711F8044628B95EB9014622
:101C40002846FEF713FF044600982146FEF7FAFFE8
:101C5000204643B0F0BD009B01AADA602846FFF79A
:101C6000E9F910F0FB070446EED131462846FFF7AC
:101C70001CF839462846FFF7E4F8042814BF044648
:101C80000024E1E710B501200C46044903F00EFAE8
:101C90002060003018BF012010BD00BFE803001015
:101CA00008B503F075FC012008BD08B540F6B83151
:101CB00003F060FB431E5842584108BD00231A46FA
:101CC000194603F045B9FFFF7F2810B501D880B24F
:101CD00010BDB0F5803F13D240F2B51399420FD139
:101CE0000849002231F8024B844293B203D103F138
:101CF0008000C0B2ECE70132802AF3D11346F6E748
:101D00000020E5E7A2E000007F280DD940F2B513DE
:101D1000994208D1FF2806D800F10040034B8038D3
:101D200033F8100070470020704700BFA2E00000A9
:101D3000B0F5803FF0B521D21E4A1F4983B2B0F5FD
:101D4000805F28BF0A46141D34F8042C2146A2B136
:101D5000934212D334F8025C2E0AEDB2AF18B842A7
:101D600022DA082E09D8DFE806F0050A1012141648
:101D7000181A1C00801A34F810301846F0BD981A52
:101D800000F001001B1A9BB2F7E7103BFBE7203B7A
:101D9000F9E7303BF7E71A3BF5E70833F3E7503B49
:101DA000F1E7A3F5E353EEE70434002ECCD101EBC9
:101DB0004502C8E7F4DD0000E6DF000010B5044688
:101DC00001F0C0F834B900F00FF9044601F0D4F87E
:101DD000204610BD0424F9E708B900F0A3B9042097
:101DE0007047F8B507460C4615461E4601F0AAF89E
:101DF0004FB92046F2B2294600F09CF9044601F0A2
:101E0000BBF82046F8BD0424F9E7F8B507460C46B0
:101E100015461E4601F096F84FB92046F2B2294603
:101E200000F0CEF9044601F0A7F82046F8BD0424DE
:101E3000F9E770B506460C46154601F083F846B939
:101E40002046294600F010FA044601F095F8204695
:101E500070BD0424F9E70020704738B501F0DCF8C4
:101E600000F5FA75FF2004F085FEFF2004F082FEE5
:101E7000FF28044603D001F0CFF88542F5D820466C
:101E800038BDFFFF08B504F089FAFFF7E6FF04F05C
:101E90008DFA034A137843F00103137008BD00BFA5
:101EA0000800001038B505460C46FFF7D6FFFF289E
:101EB00021D1204604F05EFEFD2C1ED0AC1C05F2A4
:101EC000022514F8020C04F055FE023414F8030C39
:101ED00004F050FEAC42F4D1FF2004F04BFEFF2092
:101EE00004F048FEFF2004F045FE00F01F00431FF1
:101EF0005842584138BD0020FCE70120FAE737B5C9
:101F0000020604460D4607D500217720FFF7F7FFAC
:101F1000012831D804F07F0404F048FA04F03EFAB6
:101F2000FFF79BFFFF282BD1402C27D0482C0CBF5C
:101F3000872301232A0E8DF801202A0C8DF8022018
:101F400006212A0A68468DF800408DF803208DF896
:101F500004508DF8053004F017FE4C2C02D1FF2000
:101F600004F008FE0A24FF2004F004FE030603D553
:101F7000013C14F0FF04F6D103B030BD9523D9E73E
:101F8000FF20F9E770B5054601F046F800F1640658
:101F9000FF2004F0EFFD044601F03EF8864201D335
:101FA000FF2CF5D0FE2C0CD14FF40071284604F024
:101FB000EEFDFF2004F0DEFDFF2004F0DBFD01203C
:101FC00070BD0020FCE7FFFF38B5064D2C78E4B269
:101FD00004F0F4F918B104F0FD042C7038BD44F09D
:101FE0000304FAE7080000102DE9F341FFF7ECFFC6
:101FF0004A4B1A7812F0020F1E4604D01878C0B26D
:1020000002B0BDE8F081C82004F072FD0A25FF206F
:10201000013D04F0AFFD15F0FF05F8D104F0BEF965
:1020200029464020FFF76BFF0128044671D100F0DC
:10203000F3FF4FF4D57100F57A774820FFF75FFF83
:10204000012848D101ADA8460424FF2004F092FDE8
:10205000013C14F0FF0408F8010BF6D19DF806309E
:10206000012B56D19DF80730AA2B52D100F0D4FF96
:10207000874206D94FF08041E920FFF740FF002852
:10208000F4D100F0C9FF874243D900217A20FFF73D
:1020900036FF00283DD10424FF2004F06BFD013CF5
:1020A00014F0FF0405F8010BF6D19DF8043013F08D
:1020B000400F14BF0C240424194B1C7004F076F953
:1020C0004CB3337845F6C05003F0FE03337004F090
:1020D0000FFD307893E72946E920FFF710FF02282B
:1020E00036BFE9254125022400F096FF874205D935
:1020F00000212846FFF703FF0028F5D100F08CFFF0
:10210000874206D84FF400715020FFF7F8FE0028F0
:10211000D2D00024D0E7FFF7B5FEDAE708000010C0
:102120003804001008B5FFF74FFF014B187808BDC1
:102130000800001070B5144605460E46FFF744FF30
:10214000002C35D01C4B1B78DA0733D404F026F969
:102150001A4B1B781B0758BF7602012C314611D150
:102160005120FFF7CCFE38B94FF400712846FFF735
:1021700009FFB0FA80F4640904F018F9201C18BFB4
:10218000012070BD5220FFF7BAFE0028F4D14FF4B1
:1021900000712846FFF7F6FE28B1013C14F0FF0459
:1021A00005F50075F3D100214C20FFF7A8FEE3E709
:1021B0000420E6E70320E4E70800001038040010DC
:1021C00070B5144605460E46FFF7FEFE002C41D0C2
:1021D000234B1A78D0073FD41B7859073ED404F01C
:1021E000DDF8204B1B781A0758BF7602012C11D15D
:1021F00031465820FFF783FE50BBFE212846FFF7EB
:1022000051FEB0FA80F4640904F0D0F8201C18BF25
:10221000012070BD13F0060F03D02146D720FFF731
:102220006EFE31465920FFF76AFE0028ECD1FC21F2
:102230002846FFF737FE28B1013C14F0FF0405F5EE
:102240000075F4D1FD210020FFF72CFE0028DBD122
:102250000124D9E70420DCE70320DAE70220D8E7ED
:1022600008000010380400107FB506460D46FFF741
:10227000ABFE052E15D12C78012C10D02CB1022CE0
:102280000AD00424204604B070BD04F097F800285A
:10229000F8D0FFF7F7FDF5E704F090F86870002438
:1022A000F0E76F4B1C7814F0010440F0D7800E2E3D
:1022B00000F2D280DFE806F008134E52D0D0D0D022
:1022C000D0D09DA1B0B3C40004F068F8FFF7C5FDFD
:1022D000B0F1FF0418BF012404F068F8D2E7002130
:1022E0004920FFF70CFE044608B10124F4E7102151
:1022F0006846FFF747FE0028F7D09DF800309DF8AC
:1023000008109B09012B9DF8093006D15A1C02EBDD
:10231000012292B292022A60DEE79DF807209DF822
:102320000A00920002EB91129DF80610890201F456
:10233000406101320A449DF805105B0001F00F0175
:1023400001EBD01103F006030B44073B02FA03F341
:102350002B60C1E74FF400732B80BDE7414E31780D
:1023600011F004011CD00021CD20FFF7C8FD00288A
:10237000BBD1FF2004F0FEFB10216846FFF702FEF0
:102380000028B2D03024FF20013C04F0F3FB14F00D
:10239000FF04F8D19DF80A301A0910239340D7E7BB
:1023A0004920FFF7ACFD044600289ED11021684665
:1023B000FFF7E8FD002898D032789DF80A309DF8A4
:1023C0000B1092070AD55B009DF80D2003F07E03E9
:1023D00003EBD11392090133013ADFE7CA0002F09F
:1023E0001802C3F3840302EB5112013302FB0333DF
:1023F000AEE71C4B1B782B706EE700214920FFF7DE
:102400007EFD00287FF471AF10212846FFF7BAFD4A
:10241000B0FA80F464095FE700214A20EFE7002169
:102420007A20FFF76CFD044600287FF45EAF2E1D76
:10243000FF2004F09FFB05F8010BAE42F8D14BE7FB
:102440000021CD20FFF75BFD00287FF44EAFFF2079
:1024500004F090FB4021D8E704243DE7032411E772
:10246000080000103804001008B5064607F015FCF7
:1024700000240546A54200DCFEE7315D002004F0A3
:102480007BFC0134F6E7FFFF02280CD9074B1B68E1
:102490005A68824207D09A68824204D0DB681B1ACD
:1024A0005842584170470120704700BF0C0200108D
:1024B0000EB4024800B5FFF7D7FF00BFC8E1000027
:1024C00008B50148FFF7D0FFA2E1000000207047E7
:1024D00000207047F8B504460E461546FFF7D4FFB6
:1024E00048B3164B1B68DB68A34210D0A31E5C42A6
:1024F0005C4103F06BFD0746002004F0F1FB022F66
:1025000017D1B0B1ACB9A54203DC2846F8BD01240F
:10251000EFE7315D4FF0FF32002004F08FFC013413
:10252000F1E7315D002004F027FC0134A542F8DC1E
:10253000EBE70024FAE70248FFF796FF0C020010D1
:102540001FE2000038B50C46FFF79EFFA8B103F06C
:102550003DFD0546002004F0CDFB022D08D138B129
:102560004FF0FF322146002004F018FC012038BD56
:102570002146002004F038FCF8E70148FFF774FF1B
:10258000EDE100002DE9F04F85B002AC84E80C00CD
:102590000646244ADFF89C90DFF89CA0DFF89CB048
:1025A000884694E8030001F023FF94E80300B5682F
:1025B00001F0F6FE01464046A847356815B905B05A
:1025C000BDE8F08F6F68384607F067FB2B6800970F
:1025D00032288CBF52464A4694E8030001F008FFB7
:1025E0005A4694E8030002F0D7F80F4A074694E8E9
:1025F000030002F0D1F807B920B10C4A94E80300B7
:1026000001F099FF0A4A94E8030001F094FF94E86E
:102610000300B76801F0C4FE01464046B847ED68C4
:10262000CCE700BF52E2000099E20000C2E40000E3
:1026300098E20000AEE200009BE20000BAE2000077
:1026400030B504294FF0000538BF04210560C0E90A
:102650000112C36030BD11B10368CB6001607047E7
:102660002DE9F04F87B06E4686E80C000546634AB8
:10267000884696E8030002F0FBF8614A96E80300FA
:1026800001F0C1FF002856D096E8030002AC5C4A76
:1026900084E8030001F08AFF30B194E80C00414661
:1026A0002846FFF76FFF3DE094E80300202202F088
:1026B0008DF894E8030004AF87E803002E68DFF884
:1026C00048912EB994E803002E6887E8030010E0D3
:1026D0004B46326897E8030001F0CEFFD0B9F668A8
:1026E000EFE76B68326897E8030001F071FF88B983
:1026F000F668002EF5D13246424B94E8030001F013
:10270000D3FE94E80300AE6801F04AFE014640465D
:10271000B04703E0AB68716840469847AB683749FB
:1027200040469847E968002965D0AB68404607B045
:10273000BDE8F04F1847DDE900A9CDE904A92E68EE
:10274000314F04AC1EB9CDE904A92E6810E03B4618
:10275000326894E8030001F08FFFE0B9F668F1E712
:102760006B68326894E8030001F032FF98B9F668AC
:10277000002EF5D1CDE904A93246244B94E803009C
:1027800001F092FE94E80300AE6801F009FE0146F4
:102790004046B04781E7CDE902A90DF1080B2022A0
:1027A0009BE8030002F012F8B768AB689BE80600EC
:1027B0004046B8470028B5D0CDE904A9144B002203
:1027C00094E8030001F070FE94E80300AF6801F0A4
:1027D000E7FD01464046B84773680E4A94E8030097
:1027E00001F006FE94E80300AE6801F0D9FD014651
:1027F0004046B04796E707B0BDE8F08F98E200008A
:10280000BCE20000EFE200008EEA000018E30000E6
:10281000C1E20000D2E2000010B54C1E14F8010F16
:1028200000B910BD07F040F8F8E7FFFF2DE9F041CF
:10283000A6B06E468046224B802206A9304601F0A3
:1028400020FE02AC96E80C0000214046FFF708FF8E
:1028500096E8030084E8030001F0A9FD04AD94E8C4
:10286000030001F032FF0028ECD105F01BFFC7B2D6
:1028700094E80300082F85E8030017D101F06CFDF0
:1028800068B1012295E8030001F06BFF384607F0BC
:102890000BF8202007F008F8384607F005F894E810
:1028A000030001F064FD0028D9D0CBE7384606F0DC
:1028B000FBFF3A4695E8030001F064FEEFE700BF36
:1028C000BCE2000030B589B004AD2846184B194A67
:1028D000194C0421FFF7B4FE95E80F0084E80F00BF
:1028E00020461649FFF7B7FE20461549FFF7B3FE0D
:1028F00020461449FFF7AFFE20461349FFF7ABFE11
:1029000020461249FFF7A7FE20461149FFF7A3FE14
:10291000104B0293104B0193032300934FF400726A
:1029200023460E490E4802F08FFF09B030BD00BFAC
:1029300049E30000192800003C0400105C0000106E
:102940004C0000101C0000100C0000103C00001097
:102950002C0000104C0C00104C0400109CE30000F4
:102960002D2800002DE9F047EAB00DF108090DF11E
:10297000A80A89E80300164600214FF480725046E9
:1029800008AC05F041FF0DF1180880220AA9204685
:1029900007AF01F0C1FC002501233B60C8F80050DF
:1029A000CDE9008705AB2B4A059599E8030001F0B6
:1029B00036FD012842D93B68009398F800209DF825
:1029C00014105346022003F075FF814648B3059B5F
:1029D000214ADFF8909094E8030001F009FD94E8A3
:1029E000030001F0DDFC01462846B0473B68AB42DE
:1029F00002D86AB0BDE8F0871AF80520D8F8003090
:102A0000CDE900222B444A4694E8030001F0F0FC93
:102A100094E8030001F0C4FC01460020B0470135F2
:102A2000E4E70E4A94E8030001F00DFD94E803008A
:102A300001F0B6FC01464846B047DAE7084A94E898
:102A4000030001F000FD94E8030001F0A9FC014639
:102A50002846F1E76FE500007CE50000ADE50000E9
:102A6000DAE5000096E500002DE9F047EAB0002520
:102A700002AE0DF118080DF1A80986E8030017460B
:102A800029464FF48072484608AC0595C8F80050B6
:102A900005F0BAFE80220AA9204601F03DFCCDF8DF
:102AA000008005AB364A96E8030001F0B8FC022826
:102AB0005AD1202296E8030001F088FE202296E8F1
:102AC000030001F083FE079507AA96E8030001F0D2
:102AD00097FE824608BB00954B4698F800209DF86B
:102AE0001410022003F020FF064680B3059B0093DC
:102AF000244A2B4694E8030001F07AFC94E8030092
:102B000001F04EFC01465046B8475646DFF880A01B
:102B1000B54207D16AB0BDE8F087079B09F80530D8
:102B20000135D1E719F80620D8F80030CDE90022A8
:102B30003344524694E8030001F05AFC94E8030041
:102B400001F02EFC01460020B8470136E0E70E4AAE
:102B500094E8030001F077FC94E8030001F020FC06
:102B600001463046B847D5E7084A94E8030001F02B
:102B70006AFC94E8030001F013FC01462846F1E7E3
:102B80001AE6000024E600005BE6000089E600008B
:102B900044E600002DE9FF416C4684E80600154A32
:102BA00094E803001F4601F02EFD134A054694E801
:102BB000030001F028FD2022804694E8030001F084
:102BC00005FE94E8030002AE86E8030035B13A46FC
:102BD000FFF7C8FE002004B0BDE8F081B8F1000F97
:102BE00005D03A4696E80300FFF73EFFF2E70120E2
:102BF000F1E700BF64E5000069E5000037B56C4609
:102C000084E8060094E803001D4601F0C9FB014674
:102C1000032000F00AFA08490020A84794E80300BE
:102C200001F0BEFB01460020A84704490020A84748
:102C3000002003B030BD00BF7CE7000098E2000038
:102C4000094B1B6810B50A460C46D868074905F0C1
:102C500043FB074800234FF0FF322146006802F093
:102C600077F9002010BD00BF0C020010FEE6000046
:102C70002C330010094B1B6810B50A460C46D86867
:102C8000074905F029FB074800234FF0FF32214692
:102C9000006802F05DF9002010BD00BF0C020010BA
:102CA000DBE600002433001082B002AB03E906002B
:102CB0000123024A1A60002002B07047EFBEADDE69
:102CC0002DE9F04F8FB006AF07F1080080E806004D
:102CD00003C8994601F0B6FC041E04DD03F08AFA2D
:102CE000204602F095FFBB68BB61DAB0FB68FB6170
:102CF00000257D6100F016FA0DF1180B786007F1E0
:102D000014020A21584603F015F907F118042A4B5A
:102D10002A4A386094E8030001F06AFB94E8030053
:102D200001F03EFB01462846C847A8465E464FF0E4
:102D3000000A26E07369434520D1B2697B691544D6
:102D400023B16421B3FBF1F3B2FBF3F3CDE903321A
:102D5000338C1B4A9B00CDE90183337B52F823302F
:102D600000937368174A94E8030001F041FB94E86C
:102D7000030001F015FB01460020C8470AF1010AD3
:102D800024363B685345D5D108F10108B8F10A0F44
:102D9000CCD17B680C4A5B1B94E8030001F028FB54
:102DA00094E8030001F0FCFA01460020C847002027
:102DB0002437BD46BDE8F08F1EE7000023E7000082
:102DC000B8E700004EE700006BE70000F8B50446E6
:102DD0000D4600F00BF9061941EB050703F0F6F874
:102DE00002280CD100234FF47A72AB4208BFA242F2
:102DF00005D22046294604F0E7FE02F009FF00F064
:102E0000F5F8B94208BFB042F9D3F8BD4FF47A7370
:102E1000A0FB0301FFF7DABF30B585B003F03CFA41
:102E200003F0D6FA8DF80C0003F0D8FA8DF80D00F7
:102E300003F0DAFA8DF80E0003F0DCFA00248DF8C6
:102E40000F0004AA04F003031344013413F8040C24
:102E500003F09CFB3220FFF7D9FF202CF1D1294B46
:102E60001868002319460222406806F0B7FDFDF7F6
:102E7000D9F9002501464FF4E132002003F0ECFEC1
:102E80000095214B214A0121204601F0F1FF204B02
:102E9000009504461F4A0121802001F0E9FF2246E7
:102EA0000146284603F030FF45F6C05003F036FED9
:102EB000012219491948FEF729FC194A194B1A49E8
:102EC000A84208BF1346194A19481A4D06F0D4FC07
:102ED000FDF7A8F9184B00930246184B1849022039
:102EE00003F08CFC0224E1B2022003F045FD18B18E
:102EF0002146284606F0C0FC0234B4F5807FF2D1AA
:102F000005B030BD0C020010680D0010480D001017
:102F100070100010F00F00109AE20000B80D0010C1
:102F2000DDE70000FBE7000022E80000CCE700003E
:102F300073E8000093E80000F80C0010A80C0010E3
:102F4000801A060010B50A4C236823B909490120EC
:102F500002F0ACF8206003F039F8022806D12068AE
:102F60004FF0FF31BDE8104002F004BA10BD00BFC1
:102F7000C0100010C410001010B503F027F802288C
:102F800008D1054800231A4619460068BDE81040DC
:102F900001F0DEBF10BD00BFC0100010074A08B529
:102FA0001368002101330846136003F049FB002138
:102FB0000846BDE8084003F02FBB00BF1411001005
:102FC00008B5074A0749B0FBF1F10020013903F0C9
:102FD000EDFA0021044A0846BDE8084003F00ABBA8
:102FE0009D2F000040420F000087930370B5084EEC
:102FF000002003F01DFB05460020346803F018FB99
:103000008542F5D8034B0021E3FB040170BD00BFEE
:10301000141100100087930308B5FFF7E7FF4FF482
:103020007A72002304F0D0FD08BD70B5054608464D
:103030000C4606F032FE2618B4424FF0FF320BD198
:103040000D21284603F0FAFE28464FF0FF320A21F0
:10305000BDE8704003F0F2BE14F8011B284603F0EF
:10306000EDFEE9E770B5054608460C4606F015FE8C
:103070002618B44205D128460A21BDE8704003F065
:103080007BBE14F8011B284603F076FEF1E7FFFF34
:103090000C460020044908B5FFF7E4FF2146002054
:1030A000FFF7E0FFFEE700BFECE9000008B50249CA
:1030B0000020FFF7D7FFFEE7B2E90000024B002235
:1030C000C3F8C02030BF704700C00F4008B50C46A1
:1030D00000200A49FFF7C6FF09490020FFF7C2FF99
:1030E00008490020FFF7BEFF07490020FFF7BAFF9D
:1030F00021460020FFF7B6FFFEE700BFBAE8000058
:103100000CE900004FE9000083E90000034B036075
:10311000034B0B6064231360704700BFB0120010B4
:103120002011001008B5FFF761FF024B1B68C01AA1
:1031300008BD00BF1811001008B5FFF757FF024B7C
:10314000C3E9000108BD00BF1811001010B588B117
:103150006023400080B20204A3F10603F9D50649BA
:10316000002231F8024B0132A04228BF0133052A68
:10317000F7D198B210BD00BFC057010010B504468A
:10318000FDF74CF84FF47A73B0FBF3F00223B0FB79
:10319000F3F2A24202D8034A136110BD0233DBB23C
:1031A000F5E700BF0080084008B50821022003F0C1
:1031B00087F903F0BDF90028F7D00621022003F0BB
:1031C000A3F903F0C7F90721022003F09DF903F0EA
:1031D000CFF9502003F0C4FC262003F0C1FC4820A6
:1031E00003F0BEFC0721022003F08EF9BDE8084081
:1031F00003F0B0B938B505460C460821022003F0AB
:103200005FF903F095F90028F7D00621022003F0BA
:103210007BF903F09FF90721022003F075F903F011
:10322000A7F9022003F09CFC284603F099FC200A31
:1032300003F096FCE0B203F093FC0721022003F0B8
:1032400063F9BDE8384003F085B938B50446082174
:10325000022003F035F903F06BF90028F7D00621BE
:10326000022003F051F903F075F90721022003F061
:103270004BF903F07DF9032003F072FC204603F0C4
:103280006FFCFF2003F06CFC0546FF2003F068FC98
:1032900007210446022003F037F903F05BF944EA02
:1032A000052080B238BD38B504464FF4C050FFF752
:1032B00065FF0821022003F003F903F039F9002823
:1032C000F7D00621022003F01FF903F043F907218C
:1032D000022003F019F903F04BF9032003F040FC3E
:1032E000204603F03DFCFF2003F03AFC0546FF209A
:1032F00003F036FC07210446022003F005F903F031
:1033000029F94FF44050FFF739FF44EA052080B215
:1033100038BD70B506460D460821022003F0D0F8EE
:1033200003F006F90028F7D00721022003F0ECF89B
:1033300003F010F90621022003F0E6F803F018F973
:103340000024AC4207DB0621022003F0DDF803F085
:1033500001F9002070BD305D03F002FC082102205D
:1033600003F0AEF803F0E4F80028F7D00134E8E702
:10337000411C38B589B205460720FFF73BFF062000
:10338000FFF791FF294604460720FFF733FF062089
:10339000FFF789FF05460620FFF785FF15F4004F6C
:1033A00008BF044645EA044038BD10B50146072071
:1033B000FFF720FF0620FFF776FF04460620FFF701
:1033C00072FF44EA004010BD08B501460720FFF730
:1033D00011FF0620BDE80840FFF765BF10B50C4699
:1033E00001460720FFF706FF21460620BDE81040F2
:1033F000FFF700BF2DE9F84F8146884600254FF6BC
:10340000FF77A84501DCBDE8F88F6B009A1C09EB3B
:10341000020B39F8024039F81500220405F1020ABE
:1034200008D42646C5B2013EB6B2BE4212D104EB64
:103430000A05E6E74B44C4F30E04B3F804A00335D1
:10344000C6B2013CA4B2BC42DBD051463046FFF7C5
:10345000D1FEF6E73BF8021F2846FFF7CBFEE2E776
:103460002DE9F04F81468DB041F60960FFF7ACFFC2
:103470000026A34F0790314604203E70FFF7BAFEA6
:1034800040F60204B246B046D9F81420D9F80C3000
:103490009A4203D09A4B1B78032B26D1994D9A4818
:1034A0009A4F5246214606F0E7F92B68986804F0D7
:1034B000CFFD4FF440625146944805F0A5F900262F
:1034C000802138468036FFF724FFB442F8DC8C4B6D
:1034D0001C78002C00F0F4808D4806F067FA48460E
:1034E000FEF741FB0DB0BDE8F08F0BAB4FF440622F
:1034F0008649DFF818B24846FEF726FA0B9D1DB143
:103500007F4B1B78032B03D12D2002F081FBBBE7FF
:10351000079B99070BD4802D28BF80255846E9B218
:10352000FFF7F7FE0B9B5B1BAB440B93A8443B7868
:10353000012B0ED10223414676483B7006F09CF9E0
:103540000020FFF7B0FE40F0080189B20020FFF72D
:1035500051FE3B78022B0BD10020FFF7A4FE02079F
:1035600006D441466C4806F087F903233B70C5E753
:103570003B78002BC2D14645C0D80920FFF793FE07
:10358000664B1A780B2A054653D0002A0CBF4FF41D
:1035900000724FF4805241F606601644FFF714FFA4
:1035A00047F26562954282465C4B45D101221A7012
:1035B00040F602040520FFF776FE069041F605600E
:1035C000FFF702FF554B1B78092B024608BF82000C
:1035D00004200992FFF767FE099A0890104604F04C
:1035E00067F845A3D3E9002304F0DCF8069ADFF876
:1035F00040C1059512F0010F494A069B08BF944649
:10360000464A1578474A23F0010352F825209BB219
:10361000CDE90001CDE903C20293089A42484FEA7E
:10362000982106F029F9374B1B68986804F010FDC3
:1036300064E74FF40072AEE744F25412954201D1B0
:103640000722B4E744F24412954201D10822AEE7C2
:1036500045F24D72954201D10A22A8E744F66772FD
:10366000954201D10222A2E746F24C62954204D172
:1036700009221A704FF440549CE744F634529542A4
:1036800001D1062293E744F65452954201D10B2210
:103690008DE725F0190292B24FF6E2718A4201D10C
:1036A000052284E74FF6E4718A4201D104227EE7C5
:1036B0004FF6E6718A4201D1032278E70022D8E76B
:1036C0002046FFF7F0FD40F0080189B22046FFF7E1
:1036D00091FD16480D4C06F0CFF82B68986804F061
:1036E000B7FC0020FFF7DFFD03077FF5F5AE0221F1
:1036F0002046FFF70EFEF4E7FCA9F1D24D62803FB1
:10370000203300100C02001090EA00000D1300108E
:10371000ACEA000015EA00003CEA00000C130010BF
:1037200010EA00006C00001066EA0000AFEA00003A
:1037300009EA0000031D00F8011B83424FEA112132
:10374000F9D1704738B50E2003F04AF9264B022410
:1037500007251D604FF4C0605C60FFF70FFD224637
:103760001221002002F061FE22460F21002002F00B
:103770005CFE22461121002002F057FE2946204619
:1037800002F0C2FE02F0F4FE0621204602F0BCFE6A
:1037900002F0E0FE0521204602F0B6FE02F0E8FE4F
:1037A0000521204602F0B0FE02F0D4FE08210220DE
:1037B00002F086FE02F0BCFE0028F7D007210220AE
:1037C00002F0A2FE02F0C6FEFFF7EEFC0020FFF7BB
:1037D0003CFD00210846FFF70DFD40F624010020C6
:1037E000FFF708FD002038BD0080084038B54AF6D4
:1037F000AD310D20FFF7FEFC47F657610E20FFF7B5
:10380000F9FC0D20FFF721FD4AF6AD3398420DD0AB
:103810000D20FFF71AFD04460E20FFF716FD214686
:103820000246244806F028F8012038BD0E20FFF794
:103830000CFD47F657639842EAD100210D20FFF7AF
:10384000D9FC00210E20FFF7D5FC0120FFF7FDFC7D
:10385000194BC0F3031133F8114074B1174D1849D7
:103860002B682246D86804F037FD40F21D439C4285
:1038700007D0144806F09AF8D6E7134805F0FCFF85
:10388000D2E74AF230410320FFF7B4FC052002F0F2
:10389000BFF94FF44050FFF771FC40F60C410B208C
:1038A000FFF7A8FC2B680948D96804F08DFD0020BB
:1038B000BBE700BFF2EB00007EEC00000C02001042
:1038C0002DEC00003BEC00004AEC000075EC000021
:1038D0002DE9F04FA04FA14EDFF88CB285B0002447
:1038E00081469F483C7006F061F82046FFF7DBFCFC
:1038F00040F0040189B22046FFF77CFC02214CF223
:103900001A00FFF76BFD43F291519648FFF772FDE5
:103910002046FFF7C8FC40F4A04189B22046FFF7DB
:1039200069FC4FF480610D20FFF764FC21460F20F5
:10393000FFF760FC34210A20FFF75CFC0520FFF74D
:10394000B2FC20F0010083B248F280010C204FF05D
:1039500002080293A246FFF74DFC86F800803B78F0
:10396000032B16D13378022B40F0DA800920FFF7C1
:103970009AFC7D4D7D4E7E4F044614F1FF3480F05D
:10398000B180FFF733FF7B4805B0BDE8F04F06F08C
:103990000DB80920FFF787FC022878DD3378022B69
:1039A0006BD140F20115A842A8BF28466E4A451EB9
:1039B0000023082003930192FFF775FC019A039BF3
:1039C000010A02F8021B01339D4202F8010CF0DCEF
:1039D0006D004B462A460121584604F055FE2C4402
:1039E000A4EB0A03B3F5805FB9D3A10A624805F0DE
:1039F00043FF3378022B0AF5805A06D10820FFF7DF
:103A0000B7FC01465D4805F037FF32785C4B5D49F5
:103A100053F822305C4A5D48B8F1020F08BF0A46ED
:103A2000029905F029FF33780193022B1FD10C2056
:103A3000FFF7BBFC03F03CFE45A3D3E9002303F0F2
:103A4000B1FE02460B46524805F016FF0C20FFF768
:103A50002AFC20F4FE4222F07F0248F2800192B25A
:103A60008A4205461ED101464A4805F005FF4A4BE9
:103A70001B68986804F0ECFA71E70820FFF713FC64
:103A80008BF80000000A8BF801000125A0E73B78C5
:103A9000012BA5D10F20FFF706FC810744BF0323AC
:103AA0003B709DE70C20FFF7A5FB05F4FE40FFF7F8
:103AB0004DFB2A06A0F15F0806D54146374805F0C0
:103AC000DBFE4FF00108D2E705F07F000002FFF7B0
:103AD0003DFB4146A0F15F02314805F0CDFEDDF827
:103AE0000480C4E70820FFF7DEFB030A2B70687030
:103AF000A4B90F20FFF7D7FB0F20FFF7D4FB430734
:103B000009D5384605F052FF01224B4601212846CF
:103B100004F0BAFD31E7304605F048FF0222F4E731
:103B200000221146484604F059FCA4F108011D4842
:103B3000FFF700FEA4F124011B48FFF7FBFD4B46F5
:103B400001222C21194804F09FFD1AE7AFF30080F1
:103B5000FCA9F1D24D62503F203300100C1300102D
:103B6000D2EA00009EEC00000D1F001061EB000087
:103B700040EB0000ACEA0000E3EA0000ECEA0000E1
:103B80006C00001009EA000010EA0000F2EA0000F0
:103B9000FEEA00000DEB00000C02001024EB000018
:103BA0002EEB0000A0000010C40000109C000010CC
:103BB00030B50546ADF50B7DE1B9014601226846F9
:103BC000FDF7DCFD29460446134805F055FE34B9DF
:103BD0006846FFF745FC20460DF50B7D30BD2946B4
:103BE0000E4805F049FE0E48214605F045FE4FF00F
:103BF000FF34F0E70B4904F067FB294604460A4806
:103C000005F03AFE24B12046FFF762FE0024E2E709
:103C100029460648E9E700BF83EB000091EB00006E
:103C2000B0EB0000C0EB0000C3EB0000D3EB0000E2
:103C30002DE9F0418CB016496846FDF7A8FF18BB86
:103C4000144DDFF85C8005F1160712496846FDF750
:103C5000ECFFB0B9AB7DA3B12B7ADB06F5D44146BE
:103C6000384606F06AF80028EFD00B4E0B4834684F
:103C70007F2200EBC4103946013406F04BF8346063
:103C8000E3E76846FDF7C2FF0CB0BDE8F08100BF76
:103C90000F58010010210010A8310010A8210010B9
:103CA00095610100014B1868704700BFA8310010F2
:103CB000044B1B68834286BF034B03EBC0100348D1
:103CC000704700BFA8310010A82100109AE2000040
:103CD00008B500F07AFA0B210248BDE8084002F06E
:103CE00053BF00BF855A010008B500F06EFA0B21E2
:103CF0000248BDE8084002F047BF00BF905A0100EB
:103D000008B500F062FA07210248BDE8084002F059
:103D10003BBF00BF525A010008B500F056FA082117
:103D20000248BDE8084002F02FBF00BF4A5A010018
:103D300008B500F04AFA08210248BDE8084002F040
:103D400023BF00BF595A010008B500F03EFA0B210D
:103D50000248BDE8084002F017BF00BF755A0100D5
:103D600070B505460E4600F030FA0024A54200DC8E
:103D700070BD304600F032FA0134F7E738B504463A
:103D800018B9BDE83840FFF7AFBF431E052B12D866
:103D9000FFF79EFF1421072000F06EFA002518217E
:103DA0000E20FFF7DDFF013500210420FFF7D8FFCB
:103DB000A542F4DB38BDBDE83840FFF789BF92214A
:103DC0000A20FFF7CDBFFFFF10B50C4C04210020E7
:103DD00000F052FA00F0F9F920460A2102F0D4FE70
:103DE0000821012000F048FA00F0EFF904F10A0080
:103DF0000621BDE8104002F0C7BE00BF615A0100B5
:103E0000F8B5184F0546002406262A5D02B9F8BD0C
:103E100029194B7888786D2B08BF70280CBF0123B7
:103E200000232E2A14BF002303F0010323B1CB7813
:103E3000332B01D10434E8E7202A0BD00A4B0020B1
:103E400013F8011B91420BD1062106FB007002F012
:103E50009BFE03E000210620FFF782FF0134D4E738
:103E60000130EDE711580100055A010008B500F0D6
:103E7000ACF905210248BDE8084002F085BE00BF4C
:103E8000805A010008B500F0A0F905210248BDE8FC
:103E9000084002F079BE00BFAF59010037B50446B3
:103EA00000F078F900F0F7F92221072000F0E4F99A
:103EB0002F48304DFFF7A4FF1E21052000F0DCF94C
:103EC0002D48FFF79DFF22792C49684605F04EFEEC
:103ED0005421052000F0D0F96846FFF791FFFFF765
:103EE00073FF1E21022000F0C7F92548FFF788FF65
:103EF000A078092829D800EB4000062105EB4000F6
:103F000002F042FE1E21002000F0B6F91D48FFF726
:103F100077FF5421022000F0AFF91B48FFF770FF34
:103F2000E07809281AD800EB4000062105EB400094
:103F300002F02AFE5421002000F09EF91148FFF7FC
:103F40005FFF00F030F903B030BD1048FFF758FFB5
:103F5000A07806210A3801FB0050D1E70B48FFF793
:103F60004FFFE07806210A3801FB0050E0E700BF70
:103F7000D859010011580100E3590100ED59010021
:103F8000F2590100F8590100FF590100DD57010005
:103F900073B5054600F0FEF800F07DF922210720F8
:103FA00000F06AF92448FFF72BFFFFF70DFF00240C
:103FB0000326A01C0C21C0B200F05EF9687906FB54
:103FC0000040FFF775FE0134FFF71AFF042CF0D113
:103FD000A87902302146C0B200F04EF91748FFF729
:103FE0000FFF1E21002000F047F9FFF73FFF3021AF
:103FF000002000F041F9FFF745FF4821002000F0C4
:104000003BF90F48FFF7FCFE6421002000F034F973
:104010000C48FFF7F5FEAB790233DBB20A227F21B1
:10402000CDE9002101200622194600F0E5F802B092
:10403000BDE8704000F0B7B8B4590100C0590100A4
:10404000C2590100C659010008B500F0BEF8702041
:1040500000F0C4F8182000F0C1F87D2000F0BEF890
:10406000B62000F0BBF8BC2000F0B8F83C2000F00F
:10407000B5F8BC2000F0B2F8B62000F0AFF87D2013
:1040800000F0ACF8182000F0A9F87020BDE8084056
:1040900000F0A4B808B5FFF7D7FF00210820FFF70C
:1040A0005FFEFFF7D1FF00210820FFF759FEFFF761
:1040B000CBFF00210820FFF753FEFFF7C5FF0021CB
:1040C0000820FFF74DFEFFF7BFFF00210820FFF794
:1040D00047FEFFF7B9FF00210820FFF741FEBDE8CA
:1040E0000840FFF7B1BFFFFF13B5044600F052F8D8
:1040F00000F0D1F80021052000F0BEF8FFF7CAFF5C
:104100001021022000F0B8F82148FFF779FE1021B5
:10411000032000F0B1F8E01DFFF772FE0421072034
:1041200000F0AAF86378062B84BF062363706078DA
:10413000FFF724FE0421002000F09EF8FFF73FFE69
:1041400000211820FFF70CFEFFF7F2FD00211020E0
:10415000FFF706FEFFF7D4FD00211020FFF700FE59
:10416000FFF7DAFD00211420FFF7FAFDFFF7ECFD61
:1041700000237F22CDE90032032105230422012000
:1041800000F03AF802B0BDE8104000F00CB800BFF3
:10419000CB59010008B50221084602F0B5F9BDE887
:1041A000084002F0E5B908B50221084602F0ACF972
:1041B000BDE8084002F0CEB908B50421022002F0A3
:1041C000A3F9BDE8084002F0D3B908B504210220E4
:1041D00002F09AF9BDE8084002F0BCB902F0CABC8E
:1041E00010B50446FFF7E8FF812002F0C3FC20462B
:1041F000BDE8104002F0BEBC2DE9F84388461746E2
:104200001E4681469DF820509DF82440FFF7D4FFBC
:104210002E2002F0AFFC49F0260002F0ABFC00209B
:1042200002F0A8FC404602F0A5FC384602F0A2FCD1
:10423000304602F09FFC002002F09CFC284602F071
:1042400099FC204602F096FC2F20BDE8F84302F0CE
:1042500091BC40F0100002F08DBC10B5044600F097
:104260000F0002F087FC2009BDE81040FFF7F1BF06
:1042700040F0B00002F07EBC38B505460C46FFF7B2
:104280009BFF2846FFF7F4FF2046FFF7E6FFBDE857
:104290003840FFF79ABF38B50024FFF78DFF0021A3
:1042A000E0B2FFF7E9FF8025002002F063FC013D4A
:1042B000FAD10134082CF0D138BD08B5FFF77CFFE6
:1042C0000121022002F020F902F052F9FFF762FF0B
:1042D0000021022002F018F902F04AF90021022020
:1042E00002F012F902F036F90121022002F00CF975
:1042F00002F030F9AF2002F03DFCFF20FFF770FF25
:10430000FFF7C9FFBDE80840FFF74DBF18B109B17D
:10431000401A70470846704738B5054614460B46A4
:1043200049B152B11846002104F06EFA0346C5E9BE
:104330000034284638BD0C46F9E71346F7E782B04B
:1043400002AB03E90300DDE900301BB100B1013825
:1043500002B070471846FBE782B002AB03E90300E6
:10436000009810B102B005F098BC02B0704713B5C8
:104370006C4684E80300009B23B9B1FA81F0400940
:1043800002B010BD94E80300FFF7E6FF024694E890
:104390000300FFF7D4FF824234BF00200120EFE783
:1043A00082B002AB03E90300009802B0704782B00C
:1043B00002AB03E90300009B33B1019810B1002266
:1043C0001A70012002B070471846FBE707B50DF1DF
:1043D000080C0CE90300009830B12AB1019919B119
:1043E00006F060FB002800DC002003B05DF804FB51
:1043F0000CB41FB56C4684E80300069A40B162B164
:10440000084629B107AB94E803000393FFF7DEFFEA
:1044100004B0BDE8104002B070471046F8E70CB495
:104420001FB56B4683E80300069930B129B107AA8E
:10443000039206F069FB002800DC002005B05DF85F
:1044400004EB02B07047F7B56D4685E803001446EB
:104450000646A0B19AB1084679B1104605F01DFC98
:10446000074695E80300FFF76AFF8742024606D831
:104470002146304605F04EFC012003B0F0BD00207F
:10448000FBE738B504461D4621B90023C4E90033D3
:10449000204638BD002BF8D0FFF73EFF2A4694E8AF
:1044A0000300FFF7D0FFF3E72DE9F04385B06D4639
:1044B00085E8030016461F46044618B9002005B0DB
:1044C000BDE8F083002BF9D0DDF80480B8F1000FCF
:1044D000F4D095E80300FFF73FFFB042EED3CDE9FB
:1044E00002480DF1080898E80300FFF735FF814600
:1044F000384605F0D2FB814498E80300FFF71FFF20
:104500008145DBD8384605F0C8FB3444804604EBCF
:10451000000995E80300FFF71FFFC6F101020244FE
:104520002146484604F056F942463946204605F0F1
:10453000F1FB0120C3E72DE9F3416C4684E8030059
:1045400015460646E0B1DAB10846B1B194E8030079
:10455000FFF702FF0746284605F09FFB024607EBE0
:10456000000894E80300FFF7EAFE804508D801320E
:104570002946F01904F020F9012002B0BDE8F081CD
:104580000020FAE71FB56B4683E8030058B10846E0
:1045900049B18DF80C2000228DF80D2093E803001E
:1045A00003AAFFF7C8FF05B05DF804FB07B502AB2F
:1045B00003E903000098114628B13AB105F03CFB2D
:1045C000B0FA80F0400903B05DF804FB1046FAE74A
:1045D000F7B56D4685E8030014461F46064680B1D0
:1045E0007AB195E80300FFF7B7FEB84209D33A461F
:1045F0002146304605F07CFBB0FA80F0400903B05C
:10460000F0BD0020FBE773B56B4683E8030014465A
:104610000546A0B19AB193E80300FFF79DFE064658
:10462000204605F03AFB8642024608D3214628463A
:1046300005F03CFBB0FA80F0400902B070BD0020EC
:10464000FBE7FFFF13B56B4683E80300044678B130
:10465000084A93E80300FFF7D6FF002814BF102292
:104660000A220021204602B0BDE8104006F0E4B95D
:1046700002B010BD9B5A01002DE9F3416F4687E857
:10468000030015461C460646E8B1E2B1DBB197E8E7
:104690000300FFF761FE8046284605F0FEFA8045DC
:1046A000074610D302462946304605F021FB50B993
:1046B000F05D237883421ABFB0FA80F040090120F0
:1046C00002B0BDE8F0810020FAE713B56B4683E83D
:1046D0000300044668B193E80300FFF73DFE40B1D4
:1046E000204410F8010C0D2805D0A0F10A0358420F
:1046F000584102B010BD0120FBE7F7B56F4687E8CF
:10470000030015461E460446A8B1084689B197E83D
:104710000300FFF721FEA8420DD9401B864228BFA7
:104720000646A9190130821B2144601904F052F891
:10473000012003B0F0BD0020FBE717B46C4684E80D
:104740000300134640B139B194E80300002203B0DE
:104750005DF8044BFFF7D1BF002003B05DF8044BB8
:10476000704737B56C4684E80300154688B181B1BF
:1047700094E80300FFF7F0FDA84228BF421B94E82D
:10478000030038BF00222B4603B0BDE83040FFF7DE
:10479000B4BF002003B030BD13B502AB03E9030082
:1047A000009C7CB182B1019850B11146204605F0C1
:1047B000C4FA28B12146FFF7A9FD002323540120A4
:1047C00002B010BD2046FBE71046F9E737B56C464E
:1047D00084E80300054678B171B1114605F048FA46
:1047E00050B12946FFF792FD421C94E8030003B044
:1047F000BDE83040FFF7A1BF002003B030BDFFFF90
:10480000F7B56F4687E803001446064648B351B330
:10481000164905462A4612F8013BE3B15B5C58078E
:1048200017D534B10A220021284606F005F9206088
:1048300001240E4A284615F8013B73B93146FFF7AB
:1048400065FD024697E80300FFF777FF204603B0B7
:10485000F0BD1546DEE71C46EBE79B5C5B07E9D441
:10486000ECE70446F2E70C46F0E700BF9162010076
:10487000F7B56B4683E8030015460646F8B1EAB182
:104880000846E1B193E80300FFF766FD04462846B9
:1048900005F003FA631E3344284400219A1B002AC2
:1048A00002DB2A46824201D1012008E012F8014BC6
:1048B0001F78A742F6D103F80119EFE7104603B0BD
:1048C000F0BD00F075B800F0BBB800F0EBB810B563
:1048D000044601F08DF8204603F05EFF044601F027
:1048E00021F90CB9FEF7E2FB204610BD10B50446D5
:1048F00040B101F07DF8204603F056FFBDE81040BE
:1049000001F010B910BDFFFF08480068006880F38F
:1049100008884FF0000080F3148862B661B6BFF3D8
:104920004F8FBFF36F8F00DF00BF000008ED00E086
:10493000DFF80C00016841F470010160704700006D
:1049400088ED00E007B5002301930B4B1B68013392
:1049500004D00A49EF20FEF7B9FBFEE74FF0180339
:1049600083F31188BFF36F8FBFF34F8F019B002B31
:10497000FCD003B05DF804FBB43100109E5A010076
:104980004FF0807340F8043C074B40F80C3C21F09A
:1049900001016FF0020340F8081C40F8202C40F899
:1049A000243C4438704700BF45490000FFFFFFFF2B
:1049B000074B19680868B0E8F04F80F30988BFF327
:1049C0006F8F4FF0000080F311887047AFF30080C5
:1049D000B831001008B54FF0180383F31188BFF306
:1049E0006F8FBFF34F8F094A13680133012B136098
:1049F0000AD1074B1B6813F0FF0F05D0054940F2A1
:104A0000AB10FEF763FBFEE708BD00BFB43100103A
:104A100004ED00E0B85A0100074A08B513682BB945
:104A200006494FF4D970FEF751FBFEE7013B1360D6
:104A30000BB983F3118808BDB4310010ED5A0100A1
:104A4000EFF30980BFF36F8F154B1A681EF0100F3C
:104A500008BF20ED108A20E9F04F10602DE9090011
:104A60004FF0180080F31188BFF34F8FBFF36F8FA3
:104A700001F0F2F84FF0000080F3118809BC1968CA
:104A80000868B0E8F04F1EF0100F08BFB0EC108AB5
:104A900080F30988BFF36F8F704700BFAFF30080CA
:104AA000B831001008B54FF0180383F31188BFF335
:104AB0006F8FBFF34F8F00F0A3FF18B1034B4FF080
:104AC00080521A60002383F3118808BD04ED00E0D2
:104AD00010B5084A084C002323601360FBF79EFBC7
:104AE0004FF47A73B0FBF3F0044B013818600723DE
:104AF000236010BD18E000E010E000E014E000E0EA
:104B0000334B344A13B51968914205D132494FF4F9
:104B10009A70FEF7DBFAFEE71A68304B9A4205D12D
:104B20002F4940F23510FEF7D1FAFEE72D4B1A78E7
:104B3000D2B20192FF221A701B782B4ADBB28DF899
:104B400003309DF8033003F018031370274A07233E
:104B5000136000219DF80300000603F1FF3409D41F
:104B600011B1022B13600ED0214940F25D10FEF707
:104B7000ADFAFEE79DF803305B00DBB28DF8033041
:104B800001212346E6E74FF400731360019B154AA9
:104B9000DBB21370174B1A6842F478021A601A6875
:104BA00042F078421A60FFF793FF134B00241C6019
:104BB000FFF7BEFE114A136843F040431360FFF74E
:104BC000A3FE01F049F8FFF7BDFE204602B010BD7C
:104BD00000ED00E071C20F416B5B010070C20F413C
:104BE0008E5B010000E400E0AC310010B031001039
:104BF000B15B010020ED00E0B431001034EF00E0C3
:104C000008B5EFF305830F2B0BD90D4A9B5C0D4ABA
:104C100012789A4205D90C4940F2FE20FEF756FA66
:104C2000FEE70A4B0A4A1B68126803F4E0639342EA
:104C300005D9084940F20E30FEF748FAFEE708BDF4
:104C4000F0E300E0AC310010FF5A01000CED00E091
:104C5000B0310010295B010000F108034FF0FF3272
:104C60004360C0E90223036100230360704700230F
:104C70000361704743684B609A688A609A68516024
:104C80009960036808610133036070470A68531C28
:104C900030B50AD103695A684A6091608B605960E7
:104CA000036808610133036030BD00F108035C68EC
:104CB00025689542EFD82346F9E7D0E90112036948
:104CC0008A6051605968814208BF5A6000220261BF
:104CD0001A68013A1A601868704710B50446FFF761
:104CE00079FEA46BFFF798FEB4FA84F0400910BD7A
:104CF000F8B51546026C866B044652B9076847BB87
:104D0000806801F0C5F9A76005460136A66328460C
:104D1000F8BD65B9406803F04FFD6368226C134429
:104D2000A26863609342F0D323686360EDE7C068D4
:104D300003F042FD236CE26821685B421A448A4218
:104D4000E2603EBFA2689B18E360022D01D116B15C
:104D5000013E0025D9E73546D7E7034610B41A6C63
:104D6000084662B1D9689C681144A142D96024BF49
:104D70001968D960D9685DF8044B03F01DBD5DF872
:104D8000044B704770B50446FFF724FE94F8455075
:104D900004F124066DB2002D14DCFF2384F84530A5
:104DA000FFF73AFEFFF716FE94F8445004F11006A0
:104DB0006DB2002D12DCFF2384F84430BDE8704052
:104DC000FFF72ABE636A002BE7D0304600F0BAFF37
:104DD00008B101F03DF8013D6DB2DCE72369002B1D
:104DE000E9D0304600F0AEFF08B101F031F8013DE6
:104DF0006DB2DEE738B50D46044628B91A4940F2CF
:104E00000310FEF763F9FEE7FFF7E4FDD4E90F3086
:104E1000226862604343D1181B1A1344A160E36007
:104E20000021FF23A16384F8443084F8453095B90C
:104E3000236963B104F1100000F084FF38B10B4B1B
:104E40004FF080521A60BFF34F8FBFF36F8FFFF7A1
:104E5000E3FD012038BD04F11000FFF7FDFE04F171
:104E60002400FFF7F9FEF2E7B75C010004ED00E073
:104E700013B51C4628B91E494FF49D70FEF726F95C
:104E8000FEE72BB91B494FF49F70FEF71FF9FEE7B1
:104E900032B161B918494FF4A170FEF717F9FEE776
:104EA00029B1164940F24310FEF710F9FEE75023EE
:104EB0000193019B502B05D0114940F24B10FEF796
:104EC00005F9FEE7002908BF2246019B2260012365
:104ED000C4E90F0184F8463019462046FFF78AFFDF
:104EE0009DF8103084F84C30204602B010BD00BF51
:104EF000F45B0100165C01002C5C0100645C0100A5
:104F00009C5C0100F8B50D461746064628B90F49C6
:104F10004FF4BB70FEF7DAF8FEE748435030FFF776
:104F2000D6FC044670B1002380F8463065B100F12C
:104F300050032360C4E90F6501212046FFF75AFFA3
:104F400084F84C702046F8BD0346F2E7F45B01009C
:104F50002DE9FF47884601921F46044628B94E496D
:104F600040F2F120FEF7B2F8FEE739B9036C2BB13D
:104F70004A4940F2F220FEF7A9F8FEE7022F08D1D5
:104F8000E36B012B05D0464940F2F320FEF79EF873
:104F9000FEE701F01BF8064638B9019B33B14149E1
:104FA00040F2F620FEF792F8FEE700264FF00009E7
:104FB000DFF8F4A037E0019D1DB9FFF72DFD0020BB
:104FC00050E016B902A800F0FDFEFFF725FD00F045
:104FD0000FFDFFF7FFFC94F84430FF2B08BF84F867
:104FE000449094F84530FF2B08BF84F84590FFF7B4
:104FF00013FD01A902A800F0F1FE002846D1FFF739
:10500000E9FCA26BE36B9A422FD1FFF705FD0199F2
:1050100004F1100000F07EFE2046FFF7B3FE00F022
:1050200081FD50B30126FFF7D5FCA26BE36B9A42DA
:1050300001D3022FBFD13A4641462046FFF758FE22
:10504000636A1BB104F1240000F07CFE38B1164BFA
:105050004FF080521A60BFF34F8FBFF36F8FFFF78F
:10506000DBFC012004B0BDE8F087FFF7D5FC20464B
:10507000FFF788FE00F056FDD4E74FF08053CAF8E2
:105080000030BFF34F8FBFF36F8FCBE72046FFF7A2
:1050900079FE00F047FD92E7B75C0100BF5C0100BC
:1050A0000F5D0100565D010004ED00E013B5002224
:1050B00000900B4601201146FFF7DAFE044638B196
:1050C000002383600360C3601A461946FFF740FF60
:1050D000204602B010BDFFFF2DE9F84389469046F7
:1050E0001F46044628B9284940F2C330FDF7EEFFB9
:1050F000FEE739B9036C2BB124494FF47170FDF709
:10510000E5FFFEE7022F08D1E36B012B05D0204914
:1051100040F2C530FDF7DAFFFEE7FFF771FDEFF370
:1051200011864FF0180383F31188BFF36F8FBFF31D
:105130004F8FA26BE36B9A4201D3022F22D194F8D6
:1051400045503A466DB249462046FFF7D1FD6B1CEB
:1051500013D1636A0BB901200BE004F1240000F0C5
:10516000F1FD0028F7D0B8F1000FF4D00120C8F805
:10517000000086F31188BDE8F88301356DB284F82C
:105180004550E8E70020F4E7B75C0100BF5C010090
:105190000F5D010070B50D46044628B923494FF450
:1051A0008C60FDF793FFFEE7036C2BB1204940F2C2
:1051B0006440FDF78BFFFEE703683BB983682BB1C2
:1051C0001C4940F26940FDF781FFFEE7FFF718FD3B
:1051D000EFF311864FF0180383F31188BFF36F8F3D
:1051E000BFF34F8FA26BE36B93421CD994F8453009
:1051F00001325BB2A2635A1C10D1636A0BB9012061
:1052000009E004F1240000F09DFD0028F7D0002DF6
:10521000F5D00120286086F3118870BD01335BB2A0
:1052200084F84530EBE70020F5E700BFB75C0100EC
:10523000AC5D0100C55D01002DE9F04385B00F466E
:105240000192044628B947494FF4A060FDF73EFF9C
:10525000FEE739B9036C2BB1434940F20450FDF726
:1052600035FFFEE700F0B2FE064638B9019B33B1C8
:105270003E4940F20950FDF729FFFEE700264FF0B6
:105280000008DFF8EC903BE0019D1DB9FFF7C4FB7F
:10529000002052E016B902A800F094FDFFF7BCFB15
:1052A00000F0A6FBFFF796FB94F84430FF2B08BFF5
:1052B00084F8448094F84530FF2B08BF84F845807B
:1052C000FFF7AAFB01A902A800F088FD00283DD144
:1052D0002046FFF702FD98B3019904F1240000F085
:1052E00019FD2046FFF74EFD00F01CFC38B94FF0C9
:1052F0008053C9F80030BFF34F8FBFF36F8F012683
:10530000FFF768FBA56B002DBED039462046013D56
:10531000FFF723FDA563236963B104F1100000F0DA
:1053200011FD38B1124B4FF080521A60BFF34F8F0E
:10533000BFF36F8FFFF770FB012005B0BDE8F0836E
:105340002046FFF71FFD00F0EDFBD8E72046FFF7F2
:1053500019FD00F0E7FB2046FFF7BFFC0028CED088
:1053600096E700BF2C5E0100385E0100565D01002B
:1053700004ED00E02DE9FF410446019128B95849A8
:1053800040F29150FDF7A2FEFEE7056C2DB15549A4
:1053900040F29550FDF79AFEFEE700F017FE064634
:1053A00038B9019B53B1504940F29A50FDF78EFE37
:1053B000FEE72E460027DFF838814EE00546F9E784
:1053C000019B4BB92DB1494940F2E150FDF77EFEFA
:1053D000FEE7FFF721FB5EE016B902A800F0F2FC41
:1053E000FFF71AFB00F004FBFFF7F4FA94F84430DF
:1053F000FF2B08BF84F8447094F84530FF2B08BF9A
:1054000084F84570FFF708FB01A902A800F0E6FC4C
:1054100000284AD12046FFF760FC00283FD02368CF
:105420003BB9FFF7D7FAA06800F0E0FD0546FFF7AB
:10543000F3FA019904F1240000F06CFC2046FFF718
:10544000A1FC00F06FFB38B94FF08053C8F8003072
:10545000BFF34F8FBFF36F8F0126FFF7BBFAA36B2C
:10546000002BADD0013BA363236813B900F0B6FE57
:10547000A060236963B104F1100000F063FC38B14F
:105480001B4B4FF080521A60BFF34F8FBFF36F8FEB
:10549000FFF7C2FA0125284604B0BDE8F081204696
:1054A000FFF770FC00F03EFBD6E72046FFF76AFCF2
:1054B00000F038FB2046FFF710FC0028CCD0002D70
:1054C000E9D0FFF787FA616A19B1236B1968C1F156
:1054D0000A01A06800F02AFE0025FFF79DFADAE72E
:1054E0002C5E0100AC5D0100565D0100D65E01003E
:1054F00004ED00E02DE9F84389469046054628B9B9
:10550000214940F2FB60FDF7E1FDFEE739B9036C8C
:105510002BB11E4940F2FC60FDF7D8FDFEE7FFF716
:105520006FFBEFF311874FF0180383F31188BFF37C
:105530006F8FBFF34F8FAC6B1CB395F84460494637
:1055400076B22846FFF709FC013C731CAC6313D10B
:105550002B690BB901200BE005F1100000F0F2FB04
:105560000028F7D0B8F1000FF4D00120C8F80000EF
:1055700087F31188BDE8F883013676B285F8446078
:10558000E8E72046F4E700BFB75C01008B5E01004E
:1055900008B528B9064940F2B770FDF797FDFEE758
:1055A00090F846301BB9BDE80840FFF79FB908BD29
:1055B000B75C010043685B68436000F108029342F6
:1055C00004BFC3684360436830B5DC6800255B688E
:1055D0009A4208BF5368D9688C420D65F7D1436081
:1055E00030BDFFFF2DE9F0410446FFF7F3F92D4BE5
:1055F0002D4D1A682D4F01321A602E68002E46D1AB
:105600002C601B68012B1CD1B84640460136FFF7C1
:1056100023FB0A2E08F11408F7D1DFF8B880244ED6
:105620004046FFF719FB3046FFF716FB2148FFF70E
:1056300013FB2148FFF710FB204BC3F80080204BE1
:105640001E60204A20491368086801331360E26A2B
:10565000236401239340034314200B6000FB02707A
:10566000211DFFF707FBFFF7D7F9184B1B6863B144
:105670002B68DA6AE36A9A4207D2154B4FF08052E0
:105680001A60BFF34F8FBFF36F8FBDE8F0810F4BF0
:105690001B68002BD5D12B68DA6AE36A9A4298BF5F
:1056A0002C60CEE790320010B8310010C4310010E9
:1056B000B8320010D8320010F0320010BC310010A7
:1056C000C03100109C320010A0320010EC320010EB
:1056D00004ED00E0A432001008B5074C074D4FF070
:1056E00080562368012B04D92E60BFF34F8FBFF380
:1056F0006F8FFDF7E3FCF4E7C431001004ED00E028
:10570000064A13681968064B19B94FF0FF321A6040
:1057100070471268D268D2685268F8E7BC3100104E
:10572000D03200102DE9F047DDE909644FEA820923
:105730004A4607460D46206BA521984603F064F8BB
:10574000236BA9F10409994429F007099DB36B1E45
:1057500004F134020B3513F8011F02F8011B09B1E3
:10576000AB42F8D1002384F83F30089D092D28BFB3
:1057700009254FF0000AE562A564201DC4F84CA07D
:10578000FFF775FAC5F10A0504F11800FFF76FFA83
:10579000C4F854A02461A5616462C4F850A084F8E0
:1057A00058A0424639464846FFF7EAF8206006B15D
:1057B0003460BDE8F08784F83450D6E7F8B51B4B69
:1057C0001B4E1C680546306804300F46FFF775FA1B
:1057D000334640B93168174EC96A326801208840A3
:1057E00022EA000232606A1C07D137B119681248F8
:1057F0000431BDE8F840FFF73DBA1A6864195460F7
:1058000007D30E4A10681968BDE8F8400431FFF765
:105810003DBA0B4A106819680431FFF737FA094B93
:105820001A68A24288BF1C60F8BD00BF0433001094
:10583000B8310010A0320010F0320010C03100105A
:10584000BC310010D032001070B586B0DDE90B54C9
:105850002DB9154940F24D20FDF738FCFEE72CB973
:10586000124940F24E20FDF731FCFEE75C2605961A
:10587000059E5C2E05D00E4940F25620FDF726FC11
:10588000FEE72563022584F8595004AD01950A9D71
:1058900002940095059EFFF745FF2046FFF7A2FE04
:1058A000049806B070BD00BFC75F0100DE5F010055
:1058B000F35F01002DE9F043074685B0900088466C
:1058C00016469946FFF703F80546E8B15C20FEF757
:1058D000FEFF0446A8B1002380F859300D9B0563F4
:1058E00001930C9B0290009332464B46414638464A
:1058F000FFF718FF2046FFF775FE012005B0BDE851
:10590000F0832846FEF7F2FF4FF0FF30F6E7FFFF87
:10591000F8B5044628B914494FF4AD60FDF7D6FB3D
:10592000FEE7124B1B68834218D0FFF753F8104B69
:1059300065691F680F4B1E68FFF76EF8BD4211D0F6
:10594000B5420FD00C4B9D420AD1A36A53B994F8CB
:105950005830012B0CBF02200320F8BD0020FCE7CB
:105960000120FAE70220F8E7F65E0100B8310010E6
:10597000BC310010C0310010F032001010B588B0FA
:10598000002407AA06A905A8CDE90544FDF7BEFB3A
:10599000059B0293069B079A0F491048CDE90043E7
:1059A0002346FFF751FF0E4B186090B14FF01803DC
:1059B00083F31188BFF36F8FBFF34F8F094B4FF005
:1059C000FF321A60084B01221A60084B1C60FFF777
:1059D00097F808B010BD00BF6D5F0100D9560000F8
:1059E000CC320010D0320010EC3200100433001022
:1059F000024A136801331360704700BF98320010E9
:105A00002DE9F84F3B4B1B68002B6BD13A4B1C68C0
:105A100001341C60A4B9394B1A6812682AB138499C
:105A200040F67F20FDF752FBFEE7364A1968106802
:105A300018601160344A136801331360FFF760FE89
:105A4000324D334F2B68A3424FF0000B11D93A6807
:105A5000304BD16A14224A439A58022A28BF4FF089
:105A6000010B2D4A1268002A0CBF58460120BDE8E0
:105A7000F88FDFF888A0DFF8A890DAF80020126825
:105A80001AB94FF0FF322A60E1E7DAF80020D26855
:105A9000D66871688C4201D22960D8E706F1040803
:105AA0004046FFF70AF9B16A19B106F11800FFF78D
:105AB00004F9F06AD9F80030012202FA00F1194322
:105AC000144BC9F800104FF0140C41460CFB003089
:105AD000FFF7D0F83868F16AC26A914228BF4FF0E8
