:1000000000000110E500000075010000590100002A
:100010007501000075010000750100007501000008
:10002000750100007501000075010000E525000064
:100030007501000075010000E9250000ED250000B4
:10004000F9460000F9460000F9460000F9460000B4
:10005000F9460000F9460000F9460000F9460000A4
:10006000F9460000F9460000F9460000F946000094
:10007000F9460000F9460000F9460000F946000084
:10008000F9460000F9460000F9460000F946000074
:10009000F9460000F9460000F9460000F946000064
:1000A000F9460000F9460000F9460000F946000054
:1000B000F9460000F9460000F9460000F946000044
:1000C000F9460000F9460000F9460000F946000034
:1000D000F9460000F9460000F9460000F946000024
:1000E000F946000008B500F057F900F073F900F088
:1000F0009DF800F079F900F095F802F0D5F902F0DA
:10010000FFF800F0BFF840B141F28734002502F05B
:10011000F7F98D4208BF8442F9D200F0B7F918B957
:100120000849094806F0A0FA0649084806F09CFA72
:1001300004F0CAFD064B07481B68D96805F02AFA87
:10014000FEE700BF84A3000090A30000BDA3000051
:1001500050010010D5A300001EF0040F0CBFEFF3F8
:100160000880EFF309808169004A1047D10100003F
:100170007047FFFF38B50F4C0F4B10481D782368B0
:10018000D96805F007FA23680D49D8682A4605F0B2
:1001900089F90F2D236807D80A4A0B4952F8252000
:1001A000D86805F07FF9FEE7D968084805F0F2F94C
:1001B000F9E700BF5001001004ED00E010A40000BA
:1001C0002AA400001CA5000064A4000082A4000072
:1001D00010B5044600F04AF8236883606368C36082
:1001E000A3680361E3684361236943626369013B78
:1001F000C361A3698361E3690362BFF34F8F05495C
:10020000054BCA6802F4E0621343CB60BFF34F8F23
:1002100000BFFDE700ED00E00400FA05004870476C
:1002200000D8B8050048704700D8B8050E4B072223
:10023000C3F88420AA210122C3F88020C3F88C10BF
:100240005521C3F88C10C3F8A821D3F88820520593
:10025000FBD51A6822F4704242F480421A6040F2E0
:100260000112C3F80421704700C00F400248034A3E
:10027000034BC0E90023704700000020EFBEADDE55
:100280001041522138B5224C224B22689A423DD16E
:100290006268214B9A4239D1204D21482B68D96898
:1002A00005F078F92B68A2691E49D86805F0FAF8BC
:1002B0002B68E2691C49D86805F0F4F82B68226ABB
:1002C0001A49D86805F0EEF82B68A2681849D86872
:1002D00005F0E8F82B68E2681649D86805F0E2F8FE
:1002E0002B6822691449D86805F0DCF82B6862692C
:1002F0001249D86805F0D6F82B681148D96805F07E
:1003000049F901200023C4E9003338BD0020F9E792
:1003100000000020EFBEADDE104152215001001060
:100320005CA50000AFA50000BEA50000CDA50000A3
:10033000DCA50000EBA50000FAA5000009A600005E
:1003400018A600000E4A136810B50E4C1918A142E9
:10035000116002D30C4CA1420BD313600B4A0C4921
:1003600013681844884208D30A49884205D21060AD
:1003700001E0002BF2D0184610BD0023FBE700BFC0
:100380000000001028000020008000200400001061
:10039000B80B001000000110094A0A4B0A498B42B1
:1003A00005D30A4B0A4A0021934205D3704712F83D
:1003B000010B03F8010BF2E703F8011BF4E700BFA0
:1003C00034BA0000000000102403001028030010BD
:1003D000B80B0010034AD2F8883043F47003C2F817
:1003E0008830704700ED00E0044800232021C21847
:1003F0000133292B82F80013F9D1704700E100E0A6
:1004000008B52A2219233821022004F067F90D22A9
:100410003821022004F01EF9A0F12A035842584165
:1004200008BD1FB500230293ADF80C300623044627
:100430000093012202AB3821022004F0E1F89DF87C
:100440000A209DF80B309DF80C109DF8080043EA37
:1004500002231BB2002BB8BF0F331A119DF80D30C9
:10046000628043EA01239DF809101BB241EA002192
:10047000002B09B2B8BF0F330029B8BF0F311B11D1
:10048000091120462180A38004B010BDFFF7B8BF3A
:1004900042884378007843EA022340EA0320704709
:1004A0000B0A017043700B0C090E8370C17070470A
:1004B00010B5024410F8013B11F8014B9042A3EB38
:1004C000040301D0002BF5D0184610BDC3690239D2
:1004D000023B8B4283BF4389006B01FB030000207A
:1004E0007047024600F10B010020C30143EA5003AC
:1004F00012F8010B50FA83F38A42D8B2F5D1704753
:1005000002684AB1134613F8011B1F290BD93A2977
:10051000F9D1911C8B4202D04FF0FF307047127816
:10052000302AF9D103600020704701380A4411F8DD
:10053000013B00F8013F9142F9D17047CA7E8B7EA2
:10054000032843EA022301BF487D0A7D42EA0022D4
:1005500043EA024318467047C2F307238A76CB76F4
:100560000378032B01BF120C0A75120A4A757047F3
:1005700070B500F13806426B0446012331464078DD
:1005800001F0E3FA054688B9616BA36A226AE0705C
:10059000CB1A934208D2A378022B05D10A44012337
:1005A0003146607801F0D1FA284670BD0125FBE79D
:1005B00038B5436B8B4204460D4619D0C3788BB9CE
:1005C00001232A4604F13801607801F0AAFA0028D4
:1005D00018BF4FF0FF35034665630CBF0346012388
:1005E000184638BDFFF7C4FF03460028F8D1E7E7F7
:1005F0000023F5E738B50023C3704FF0FF334363A2
:100600000546FFF7D5FF044618BB95F8372295F845
:10061000363243EA02234AF6552293421BD195F81B
:100620003830EB2B03D01833DBB2012B15D8032263
:100630000B4905F16E00FFF73BFF40B10522094968
:1006400005F18A00FFF734FF002818BF0224204676
:1006500038BD0424FBE70324F9E70224F7E700BFD1
:1006600079A700007DA700002DE9F043002385B0A5
:100670000B600F461546FFF743FF061EC0F2398197
:10068000A44B53F82640002C00F03581206901F07E
:10069000ACF9002800F031813C60237805F0FE05BC
:1006A0006BB1607801F038FAC10708D41DB110F0C1
:1006B000040500D00A25284605B0BDE8F0830023D4
:1006C000F0B22370607001F019FAC20700F11781CF
:1006D0000DB14307EED400212046FFF78BFF02281F
:1006E00040F0EE806F4604F5FF7104F23E263D4671
:1006F00011F8040C10B10846FFF7CAFE10318E4203
:1007000045F8040BF4D1002557F8046B002E00F0D7
:10071000CE8031462046FFF76DFF012800F2C880E9
:1007200094F8442094F8433043EA0223B3F5007F61
:1007300040F0CA8094F84F3094F84E5055EA0325A3
:1007400004D104F15C00FFF7A3FE054694F84810BD
:1007500025624B1E012BA17000F2B68094F84590E3
:100760001FFA89F36381002B00F0AE8009F1FF339B
:1007700013EA090F40F0A88094F84A3094F84970C1
:1007800047EA03273FB21FFA87F818F00F0FA4F8C3
:10079000088040F0998094F84C3094F84B0050EA6F
:1007A000032003D104F15800FFF772FE94F84720AC
:1007B00094F8463053EA022300F0868005FB01FCE2
:1007C00003EB1812624490427ED3801A4845B0FB76
:1007D000F9F179D35048814276D84FF6F5708142CD
:1007E00040F28F804FF00309023133443244B9F1B3
:1007F000030FE1616662A362226369D194F863200A
:1008000094F8623043EA02231F433FB2002F5BD1CA
:1008100004F16400FFF73CFEE062890001F2FF1181
:10082000B5EB512F50D34FF0FF33C4E90533B9F185
:10083000030F4FF0800323712FD194F8692094F8AF
:10084000683043EA0223012B27D1711C2046FFF7B1
:10085000AFFE10BB94F8372294F83632207143EA89
:1008600002234AF65522934217D104F13800FFF7CC
:100870000FFE2A4B984210D104F50770FFF708FECF
:10088000274B984209D104F50870FFF701FEA061DB
:1008900004F50970FFF7FCFD6061224A84F80090BE
:1008A000138801339BB21380E380002503E7032004
:1008B0000135042D7FF428AF042805D10125FAE67F
:1008C0000428FBD0012801D90D25F4E6002627E7EE
:1008D000B8F1000FF8D06344B9F1020FE3624FEAB8
:1008E00041031BBF5B1801F00101194601EB5301E5
:1008F00094E70B25DFE60C25DDE60F25DBE6032577
:10090000D9E640F6F57949458CBF4FF002094FF022
:10091000010969E728030010F5FFFF0F52526141FA
:10092000727241612C03001001292DE9F047054640
:100930000C46174672D9C3698B426FD90378022BD4
:100940003FD0032B50D0012B68D101EB5108816AB5
:1009500001EB5821FFF72CFE064638BB05F138099C
:1009600008F1010AC8F3080814F001041FBF19F8C0
:10097000083003F00F023B0103F0F00314BF1343F0
:10098000FBB209F80830A96A0123EB7001EB5A2188
:100990002846FFF70DFE064640B9CAF3080A44B1DF
:1009A000C7F3071709F80A700123EB703046BDE85A
:1009B000F08719F80A30C7F3032723F00F031F430A
:1009C000F0E7816A01EB1421FFF7F2FD06460028EB
:1009D000ECD1640005F1380304F4FF741A191F55B3
:1009E000C7F307275770DFE7816A01EBD411FFF7E0
:1009F000DFFD06460028D9D1A40005F1380304F430
:100A0000FE741C442046FFF743FD27F0704700F0BA
:100A1000704139432046FFF743FDC5E70226C5E78D
:100A20000129F8B505460C4652D9C36999424FD2FF
:100A30000378022B29D0032B38D0012B48D101EBAE
:100A40005106816A01EB5621FFF7B2FD10B14FF05C
:100A5000FF30F8BD771CA96AC6F308062E4401EBE7
:100A60005721284696F83860FFF7A2FD0028EED1FE
:100A7000C7F308073D44E30795F8380046EA00202D
:100A80004CBF0009C0F30B00E3E7816A01EB1421BE
:100A9000FFF78EFD0028DAD16400383504F4FF74C6
:100AA0002B19285D5B7840EA0320D2E7816A01EBCD
:100AB000D411FFF77DFD0028C9D1A40005F138004D
:100AC00004F4FE742044FFF7E3FC20F07040C0E71C
:100AD0000120BEE7B1F5001FF8B506460D4601D36B
:100AE0000220F8BDCA06FBD1826804683161CAB928
:100AF0002378022B01D9E36A9BB92389B3EB551FF5
:100B0000EED9E36AB361B3697261002BE8D003EBFD
:100B100055233834C5F308052C44B361F461002033
:100B2000DFE71A4667897F02BD42114604D220469C
:100B3000FFF7CCFCB061E6E73068FFF771FF431CBC
:100B4000024606D00128CBD9E3698342C8D9ED1B00
:100B5000EAE70120C5E72DE9F041804605680F4628
:100B600049B96E69C6B1EB69B34298BF0126AB695A
:100B7000A3B9002406E02846FFF752FF01280446E7
:100B800003D801242046BDE8F081421C51D0EB6916
:100B90008342F7D83E46EAE70126E8E7BE4215D190
:100BA000EB69D8F80000741CA34298BF02242146C8
:100BB000FFF736FF0128E4D0431C3AD0D8B16B6967
:100BC000012B03D9EA69934238BF1E463446EB69CC
:100BD0000134A34202D8012ECBD902242146D8F8F1
:100BE0000000FFF71DFF40B10128CAD0013020D01E
:100BF000B442ECD1BDE7002CE8D04FF0FF322146E3
:100C00002846FFF791FE90B957B9D5E90632023A66
:100C100093426C6110D92B7943F001032B71B1E73A
:100C2000224639462846FFF77FFE0028EDD00128EE
:100C3000A7D14FF0FF34A5E7013BAB61EBE7F8B577
:100C40000D46012D0746114604682BD9E369AB42D6
:100C500028D92AB14FF0FF322046FFF765FE30B9A0
:100C600029463868FFF7DCFE064608B90020F8BDC3
:100C7000012817D0431C17D0002229462046FFF731
:100C800053FE0028F3D1D4E90632911E8B4205D2DF
:100C90000133A361237943F001032371B242354646
:100CA000DED8E3E70220E2E70120E0E740B1A1F16E
:100CB0000B03012B04D90F2902D0006900F09EBE5E
:100CC000704738B50D460446F0B10368DBB11A78B9
:100CD000B2B18188DA88914212D1186900F085FE9C
:100CE000034698B12368587800F016FF10F0010011
:100CF00002D124682C6038BD00212068FFF7D6FFA0
:100D000009200024F6E71C460920F3E70F201C46C3
:100D1000F0E7F8B5C37804460D46C3B92946204626
:100D2000FFF7D4FB04F138060746606304F50E7242
:100D30003346002103F8011B9342FBD10025638950
:100D40009D420AD36089401B18BF0120F8BDFFF700
:100D50000FFC0028E2D00120F8E701237A19314680
:100D6000607800F0F2FE0028ECD10135E7E72DE9CC
:100D7000F843076905682037B7F5001F24BF002333
:100D8000836183690446894673B1C7F30808B8F1E3
:100D9000000F39D141690133836139B92B89B3EB34
:100DA000571F31D80023A36104200BE06B89013B5E
:100DB00013EA572328D12846FFF732FE01280646BA
:100DC00002D80220BDE8F883421C01D10120F9E7D6
:100DD000EB69834212D8B9F1000FE3D06169204674
:100DE000FFF7B9FE0646A8B10128EAD0431CEDD0B2
:100DF00001462846FFF78DFF0028E7D1666131469E
:100E00002846FFF763FBA061383545442761E5615B
:100E10000020D7E70720D5E72DE9F04F002185B066
:100E20000446D0F80080FFF755FE8146002840F0C8
:100E30008C804FF0FF334FF0FF0AE3625746009378
:100E4000A1694046FFF7B4FB814600287DD1E569E2
:100E50002E78002E7DD0EA7AE52E02F03F03A371B2
:100E600003D0100704D50F2B04D0009BE36252E09F
:100E70000F2B57D194F82B30590642D4720648D51F
:100E8000236995F80DA0E36206F0BF066B7B53451E
:100E900041D1EA7EAB7E53EA02233CD12F78D8F8C9
:100EA0000CB007F03F077B1E0D275F432A4B012143
:100EB00013F8012BA81815F80290407849EA002988
:100EC00059B37F2F039326D8484600F0D1FD7A1CF2
:100ED00002903BF81700019200F0CAFD029981428E
:100EE00019D1019A039B494617461C4A9A42DFD101
:100EF0002B785B0603D511B13BF817305BB9013E87
:100F0000F7B200212046FFF732FF8146002897D034
:100F10001BE0B742BAD0FF27F3E74FF6FF729145C7
:100F2000E3D0F8E727B92846FFF7DBFA50450CD0A5
:100F300094F82B9019F0010997D10B2204F12001AC
:100F40002846FFF7B5FA00288FD1484605B0BDE81E
:100F5000F08F4FF00409F8E76CA7000079A70000B4
:100F60002DE9F04F85B00368019306468A4611F8D3
:100F7000013B2F2BFAD05C2BF8D00021B1609AF8FE
:100F800000301F2B00F2CD808023304686F82B30B6
:100F900005B0BDE8F04FFFF79DBD7F2807D8924A06
:100FA00012F8013B1BB19842FAD106204EE0802D89
:100FB000FBD02BF815000135B7E033F8022D202ABD
:100FC00002D02E2A40F0D480013DCEE00246D7E088
:100FD000C84505D2AB4249D1B9F10B0F3ED102E071
:100FE000B9F10B0F35D144F003044FF00B0996F81B
:100FF0002030E52B04BF052386F82030B9F1080F17
:1010000004BFBF00FFB207F00C030C2B03D007F0A6
:101010000303032B01D144F00204A50707D4F8070A
:1010200048BF44F01004790748BF44F0080486F82C
:101030002B403046FFF7F0FE96F82B3000285FD0AB
:10104000042803D113F0040F08BF052005B0BDE844
:10105000F08FAB4202D044F00304C8D8BF00FFB207
:101060002B464FF00B094FF00808B9E07F2812D942
:1010700044F0020240F2B5110393029200F0C4FC66
:1010800010F0800FDDE902230FD000F07F005749F8
:10109000085C144628B1564911F8012BF2B182427E
:1010A000FAD144F003045F2011E0FF28F1D909F1DF
:1010B000FF31884503D344F00304C84690E006EBB3
:1010C0000801040A81F8204008F10108144606EBE3
:1010D000080208F1010882F8200081E0A0F1410235
:1010E00092B2192A02D847F00207F0E7A0F1610294
:1010F00092B2192A9EBF203847F0010780B2E6E776
:101100005A07A3D4B379DB066CD5019B03F13801F0
:101110003369C3F308031944019B1878FFF70EFAEB
:10112000B0603368D3F80CB000251AF8010B68B131
:1011300040F2B51100F088FC00283FF436AF1F28BC
:1011400004D92F2802D05C287FF427AF52461378A9
:101150002F2B924602F10102F9D05C2BF7D0202808
:1011600034BF042400240BEB4503002D7FF425AF8E
:1011700000220BEB45032BF81520002D3FF415AF93
:101180003BF81210202902F101003FF41FAF0AB909
:101190002E2901D144F0030433F8021D2E2901D079
:1011A000013DF9D106F1200306F12B01202003F8BF
:1011B000010B9942FBD14FF000084FF00809474658
:1011C0003BF81200531C00283FF411AF202805D033
:1011D0002E287FF4FDAEAB423FF4FEAE44F0030494
:1011E0001A46EDE7052031E783A70000ECA60000D2
:1011F0008CA7000070B5C3780446002B45D1237836
:10120000032B39D12379012B36D104F1380604F5AB
:101210000E723346002503F8015B9342FBD1552340
:1012200084F83632AA2384F83732522341227221BD
:1012300084F8383084F83930612384F83A3084F8FF
:101240003B2084F81E2284F81F3284F81C1284F894
:101250001D1204F50870A169FFF722F9616904F510
:101260000970FFF71DF9626A607801326263012339
:10127000314600F06AFC257100221146607800F0CA
:1012800078FC003018BF012003E0FFF771F9002857
:10129000B5D070BD2DE9F04F90F82B4014F0A004AC
:1012A00089B0054640F08F800668F26832F8143045
:1012B000002B66D105F120070C22394605A8FFF75F
:1012C00034F99DF81F30DB0740F186804023DFF8BA
:1012D000448285F82B304FF0010A0B2205A93846CD
:1012E000D6F80C90FFF721F9BAF1050F5AD9A9F1F8
:1012F0000201534631F8022F002A44D10DF11300A8
:10130000072203F00F0C0CF13001392988BF0CF1D2
:1013100037010F2B00F8011902F1FF324FEA1311C8
:1013200042D808AB13447E2103F8141C05F11F01B9
:1013300008460023934206D010F801CFBCF1200FDD
:1013400003F1010E32D1072A9CBF08A8801803F1CF
:10135000010396BF10F8140C20200132072BC8544B
:10136000F1D92846FFF758FD814678BB0AF1010AFA
:10137000BAF1640FB1D14FF00709484609B0BDE892
:10138000F08F013492E7102002F0010C0CEB4303C4
:1013900013F4803F18BF83EA080301384FEA520272
:1013A000F2D1A7E75346A9E70B46AAE77346C1E780
:1013B000804601212846FFF7DAFC814610B3B9F1D7
:1013C000040FD8D0D9E74FF00609D6E70428D4D1C6
:1013D0009DF81F3085F82B309DF81F30D5F800A000
:1013E0009B0748BF0C344FF00001284649BF0D232E
:1013F0000124B4FBF3F40134FFF76CFB81460028B1
:10140000DDD18046A9695046FFF7D2F88146002811
:10141000D5D1EB691B78E52B01D0002BC8D108F1A1
:1014200001084445C5D1013C55D029692846A1EBA6
:101430004411FFF74FFB814600289ED13846FFF745
:1014400050F84FF6FF780190A9693046FFF7B0F8E1
:101450008146002891D1EB69019AD6F80CE05A73C5
:10146000E1B24FF00F024FF00D0CDA72DFF8A8A0D6
:1014700018734A1E0CFB02F29876D87684464045D3
:101480001AF8019B18BF3EF8120003F8090003EB9D
:10149000090B0CF1010C18BF01324FEA102900288A
:1014A00008BF4046BCF10D0F8BF80190E7D14045D5
:1014B00002D03EF812200AB941F040011970012310
:1014C000F37000212846FFF752FC814600287FF484
:1014D00054AF013CB8D1A9693046FFF769F881469D
:1014E00000287FF44AAFEB69014603F1200203F8BC
:1014F000011B9342FBD10B223946E869FFF715F82F
:1015000095F82B30EA6903F0180313730123F37085
:1015100033E700BF211001006CA70000F0B585B0D3
:10152000CDE9001003A814460391FEF7E9FF051E5C
:1015300028DB154F57F825604EB1306900F050FA9E
:1015400018B90224204605B0F0BD0023337001997C
:1015500079B9019B47F82530002CF3D001A900226E
:101560006846FFF781F8044601460198FFF79EFBA5
:10157000E8E7002301F8103BE8B200F023FA002866
:10158000E7D1DEE70B24DDE7280300102DE9F04169
:10159000D0B0174601910446002800F0DB8002F02D
:1015A0003F052A4602A901A8FFF75EF80646002873
:1015B0004BD1029B019903930FAADA6003A8FFF7AE
:1015C000CFFC20B99DF93730002BB8BF062017F0AB
:1015D0001C0F00F09F80002842D0042835D103A8BA
:1015E000FFF758FE88BB45F00805029BDDF8288010
:1015F00018784146FEF7A2FF074600F0CCFA0146F4
:1016000008F10E00FEF74CFF0A9B02982022DA72C6
:101610000A990022FEF7A0FF0A9B00221A775A7748
:101620009A77DA77029B0121D97017B3394603A85C
:10163000D3F83480FFF703FB38B941460298FEF730
:10164000B7FF029B013F5F6198B10023236006460C
:1016500031460298FFF72AFB304650B0BDE8F081D2
:101660009DF8123013F0110F5ED178076CD4390752
:10167000BBD4DDF808800A9FD8F834302362676253
:1016800098F800002907394648BF45F04005FEF7A5
:1016900055FFA06007F11C00FEF7FAFEB8F806300F
:1016A000A38004F128070023E060C4F800802574BB
:1016B0006374E361636104F50A713A4602F8013B21
:1016C0009142FBD1AA06C3D5E568002DC0D0B8F879
:1016D0000A80A16865614FEA4828A84526D3002002
:1016E000A1610028B1D1C5F30803002BB0D0DDF80B
:1016F00008804046FEF7EAFE50B300EB5522E26157
:101700000123394698F8010000F00BFA00289FD019
:1017100001209AE7002898D19DF81230DA0615D4F6
:10172000BF07A6D5D807A4D507208EE72068FFF706
:1017300077F901280146A5EB080503D9431CCCD154
:101740000120CDE70220CBE708207EE704207CE7DC
:1017500002207AE709267FE72DE9F04F9B4685B006
:1017600000238946CBF8003003A904461746FFF74B
:10177000A8FA054608B9657C0DB1294693E0237C9B
:101780009A0708D407210398FFF790FA07252846FF
:1017900005B0BDE8F08F6369FB4200D3DF4304F17D
:1017A0002803009363E0A16973E0012802D10225B8
:1017B0006574E2E7431C01D10125F9E7A368A06144
:1017C00003B9A06094F91030002B0CDA0398E26999
:1017D00000994078012300F0B8F90028ECD1237C6F
:1017E00003F07F032374DDF80CA0A1695046FEF7D7
:1017F0006DFE20B9022565742946504654E0019BD0
:10180000B7F5007F03EB000851D3019ABAF80A300C
:101810009AF801007E0A32449A4284BF019A9E1AC5
:1018200033464246494600F090F90028C4D1E169A8
:10183000A1EB0801B1420AD24FF4007209EB412139
:101840000098FEF772FE237C03F07F032374760278
:10185000DBF800303344CBF800306369BF1BB14480
:101860001E44E3686661B3422CBFE360E660AFB13B
:101870006369C3F308026ABB039A5289013A12EA08
:10188000532201929ED1002B8DD1A06800288CD1CB
:1018900001462046FFF75FF9002886D1237C43F0FC
:1018A0004003237400210398FFF700FA6FE7E36910
:1018B00043450DD0E26863699A4209D90123424643
:1018C00000999AF8010000F02CF900287FF474AF19
:1018D000C4F81C806069009BC0F30800C0F5007666
:1018E000BE4228BF3E46184432464946FEF71DFE1A
:1018F000237C63F07F032374AAE7F7B501A90446AC
:10190000FFF7DFF90546002843D1237C13F040059B
:101910003FD01B0614D50198E2694078012304F1F9
:10192000280100F012F938B101210198FFF7BEF942
:101930000125284603B0F0BD237C03F07F03237408
:1019400000F029F9216A07460198FEF731FE0546A5
:10195000F8B9666AF37A43F02003F372A26820684C
:101960003146FEF7F9FDE16806F11C00FEF798FD2F
:10197000394606F11600FEF793FD0198B574012370
:10198000F574C370FFF736FC237C23F04003054653
:10199000237429460198FFF789F9CAE737B5054648
:1019A000FFF7ABFF044650B901A92846FFF789F9B4
:1019B000044620B9286001460198FFF777F92046D0
:1019C00003B030BD10B501200C46044901F0D2FA35
:1019D0002060003018BF012010BD00BF3003001090
:1019E00008B501F039FD012008BD08B540F6B83151
:1019F00001F024FC431E5842584108BD00231A46FA
:101A0000194601F009BAFFFF7F2810B501D880B24E
:101A100010BDB0F5803F13D240F2B51399420FD1FB
:101A20000849002231F8024B844293B203D103F1FA
:101A30008000C0B2ECE70132802AF3D11346F6E70A
:101A40000020E5E742AA00007F280DD940F2B51337
:101A5000994208D1FF2806D800F10040034B803896
:101A600033F8100070470020704700BF42AA000002
:101A7000B0F5803FF0B521D21E4A1F4983B2B0F5C0
:101A8000805F28BF0A46141D34F8042C2146A2B1F9
:101A9000934212D334F8025C2E0AEDB2AF18B8426A
:101AA00022DA082E09D8DFE806F0050A101214160B
:101AB000181A1C00801A34F810301846F0BD981A15
:101AC00000F001001B1A9BB2F7E7103BFBE7203B3D
:101AD000F9E7303BF7E71A3BF5E70833F3E7503B0C
:101AE000F1E7A3F5E353EEE70434002ECCD101EB8C
:101AF0004502C8E794A7000086A9000010B5044677
:101B000000F094FC34B900F00FF9044600F0A8FC92
:101B1000204610BD0424F9E708B900F0A3B9042059
:101B20007047F8B507460C4615461E4600F07EFC89
:101B30004FB92046F2B2294600F09CF9044600F065
:101B40008FFC2046F8BD0424F9E7F8B507460C469B
:101B500015461E4600F06AFC4FB92046F2B22946EF
:101B600000F0CEF9044600F07BFC2046F8BD0424CA
:101B7000F9E770B506460C46154600F057FC46B925
:101B80002046294600F010FA044600F069FC204681
:101B900070BD0424F9E70020704738B500F0B0FCB0
:101BA00000F5FA75FF2002F081FEFF2002F07EFEB4
:101BB000FF28044603D000F0A3FC8542F5D8204658
:101BC00038BDFFFF08B502F08FFAFFF7E6FF02F01D
:101BD00093FA034A137843F00103137008BD00BF62
:101BE0000800001038B505460C46FFF7D6FFFF2861
:101BF00021D1204602F05AFEFD2C1ED0AC1C05F26D
:101C0000022514F8020C02F051FE023414F8030C01
:101C100002F04CFEAC42F4D1FF2002F047FEFF2060
:101C200002F044FEFF2002F041FE00F01F00431FBF
:101C30005842584138BD0020FCE70120FAE737B58B
:101C4000020604460D4607D500217720FFF7F7FF6F
:101C5000012831D804F07F0402F04EFA02F044FA71
:101C6000FFF79BFFFF282BD1402C27D0482C0CBF1F
:101C7000872301232A0E8DF801202A0C8DF80220DB
:101C800006212A0A68468DF800408DF803208DF859
:101C900004508DF8053002F013FE4C2C02D1FF20C9
:101CA00002F004FE0A24FF2002F000FE030603D522
:101CB000013C14F0FF04F6D103B030BD9523D9E701
:101CC000FF20F9E770B5054600F01AFC00F1640644
:101CD000FF2002F0EBFD044600F012FC864201D327
:101CE000FF2CF5D0FE2C0CD14FF40071284602F0E9
:101CF000EAFDFF2002F0DAFDFF2002F0D7FD01200F
:101D000070BD0020FCE7FFFF38B5064D2C78E4B22B
:101D100002F0FAF918B104F0FD042C7038BD44F05B
:101D20000304FAE7080000102DE9F341FFF7ECFF88
:101D30004A4B1A7812F0020F1E4604D01878C0B22F
:101D400002B0BDE8F081C82002F078FD0A25FF202E
:101D5000013D02F0ABFD15F0FF05F8D102F0C4F92A
:101D600029464020FFF76BFF0128044671D100F09F
:101D7000C7FB4FF4D57100F57A774820FFF75FFF76
:101D8000012848D101ADA8460424FF2002F08EFDB1
:101D9000013C14F0FF0408F8010BF6D19DF8063061
:101DA000012B56D19DF80730AA2B52D100F0A8FB89
:101DB000874206D94FF08041E920FFF740FF002815
:101DC000F4D100F09DFB874243D900217A20FFF730
:101DD00036FF00283DD10424FF2002F067FD013CBE
:101DE00014F0FF0405F8010BF6D19DF8043013F050
:101DF000400F14BF0C240424194B1C7002F07CF912
:101E00004CB3337845F6C05003F0FE03337002F054
:101E100015FD307893E72946E920FFF710FF0228E7
:101E200036BFE9254125022400F06AFB874205D927
:101E300000212846FFF703FF0028F5D100F060FBE2
:101E4000874206D84FF400715020FFF7F8FE0028B3
:101E5000D2D00024D0E7FFF7B5FEDAE70800001083
:101E60008003001008B5FFF74FFF014B187808BD3D
:101E70000800001070B5144605460E46FFF744FFF3
:101E8000002C35D01C4B1B78DA0733D402F02CF928
:101E90001A4B1B781B0758BF7602012C314611D113
:101EA0005120FFF7CCFE38B94FF400712846FFF7F8
:101EB00009FFB0FA80F4640902F01EF9201C18BF73
:101EC000012070BD5220FFF7BAFE0028F4D14FF474
:101ED00000712846FFF7F6FE28B1013C14F0FF041C
:101EE00005F50075F3D100214C20FFF7A8FEE3E7CC
:101EF0000420E6E70320E4E7080000108003001058
:101F000070B5144605460E46FFF7FEFE002C41D084
:101F1000234B1A78D0073FD41B7859073ED402F0E0
:101F2000E3F8204B1B781A0758BF7602012C11D119
:101F300031465820FFF783FE50BBFE212846FFF7AD
:101F400051FEB0FA80F4640902F0D6F8201C18BFE4
:101F5000012070BD13F0060F03D02146D720FFF7F4
:101F60006EFE31465920FFF76AFE0028ECD1FC21B5
:101F70002846FFF737FE28B1013C14F0FF0405F5B1
:101F80000075F4D1FD210020FFF72CFE0028DBD1E5
:101F90000124D9E70420DCE70320DAE70220D8E7B0
:101FA00008000010800300107FB506460D46FFF7BD
:101FB000ABFE052E15D12C78012C10D02CB1022CA3
:101FC0000AD00424204604B070BD02F09DF8002819
:101FD000F8D0FFF7F7FDF5E702F096F868700024F7
:101FE000F0E76F4B1C7814F0010440F0D7800E2E00
:101FF00000F2D280DFE806F008134E52D0D0D0D0E5
:10200000D0D09DA1B0B3C40002F06EF8FFF7C5FDBB
:10201000B0F1FF0418BF012402F06EF8D2E70021EE
:102020004920FFF70CFE044608B10124F4E7102113
:102030006846FFF747FE0028F7D09DF800309DF86E
:1020400008109B09012B9DF8093006D15A1C02EBA0
:10205000012292B292022A60DEE79DF807209DF8E5
:102060000A00920002EB91129DF80610890201F419
:10207000406101320A449DF805105B0001F00F0138
:1020800001EBD01103F006030B44073B02FA03F304
:102090002B60C1E74FF400732B80BDE7414E3178D0
:1020A00011F004011CD00021CD20FFF7C8FD00284D
:1020B000BBD1FF2002F0FAFB10216846FFF702FEB9
:1020C0000028B2D03024FF20013C02F0EFFB14F0D6
:1020D000FF04F8D19DF80A301A0910239340D7E77E
:1020E0004920FFF7ACFD044600289ED11021684628
:1020F000FFF7E8FD002898D032789DF80A309DF867
:102100000B1092070AD55B009DF80D2003F07E03AB
:1021100003EBD11392090133013ADFE7CA0002F061
:102120001802C3F3840302EB5112013302FB0333A1
:10213000AEE71C4B1B782B706EE700214920FFF7A0
:102140007EFD00287FF471AF10212846FFF7BAFD0D
:10215000B0FA80F464095FE700214A20EFE700212C
:102160007A20FFF76CFD044600287FF45EAF2E1D39
:10217000FF2002F09BFB05F8010BAE42F8D14BE7C4
:102180000021CD20FFF75BFD00287FF44EAFFF203C
:1021900002F08CFB4021D8E704243DE7032411E73B
:1021A000080000108003001008B5064604F0E2FBAA
:1021B00000240546A54200DCFEE7315D002002F068
:1021C00077FC0134F6E7FFFF02280CD9074B1B68A8
:1021D0005A68824207D09A68824204D0DB681B1A90
:1021E0005842584170470120704700BF500100100D
:1021F00008B50148FFF7D8FF42AB00000020704748
:1022000000207047F8B504460E461546FFF7DCFF80
:1022100048B3164B1B68DB68A34210D0A31E5C4278
:102220005C4101F0A3FD0746002002F0F5FB022F00
:1022300017D1B0B1ACB9A54203DC2846F8BD0124E2
:10224000EFE7315D4FF0FF32002002F093FC0134E4
:10225000F1E7315D002002F02BFC0134A542F8DCEF
:10226000EBE70024FAE70248FFF79EFF5001001059
:102270009AAB000038B50C46FFF7A6FFA8B101F0F5
:1022800075FD0546002002F0D1FB022D08D138B1C2
:102290004FF0FF322146002002F01CFC012038BD27
:1022A0002146002002F03CFCF8E70148FFF77CFFE4
:1022B00068AB0000F8B504460D4600F00BF90619AE
:1022C00041EB050701F052FD02280CD100234FF429
:1022D0007A72AB4208BFA24205D22046294602F0DC
:1022E0005FFF01F0B1FB00F0F5F8B94208BFB04262
:1022F000F9D3F8BD4FF47A73A0FB0301FFF7DABFFF
:1023000030B585B001F06EFE01F008FF8DF80C00CD
:1023100001F00AFF8DF80D0001F00CFF8DF80E00A2
:1023200001F00EFF00248DF80F0004AA04F003034F
:102330001344013413F8040C01F0CEFF3220FFF7F0
:10234000D9FF202CF1D1294B18680023194602220D
:10235000406804F027FAFDF765FF002501464FF4B9
:10236000E132002002F014FB0095214B214A0121AB
:10237000204600F0E1FC204B009504461F4A012155
:10238000802000F0D9FC22460146284602F058FB86
:1023900045F6C05002F068FA012219491948FFF7C2
:1023A000BDF8194A194B1A49A84208BF1346194AE1
:1023B00019481A4D04F058F9FDF734FF184B0093F3
:1023C0000246184B1849022002F0BEF80224E1B27E
:1023D000022002F077F918B12146284604F044F9AA
:1023E0000234B4F5807FF2D105B030BD5001001049
:1023F00044040010240400104C070010CC06001008
:1024000081A4000094040010DEAB0000FCAB0000CF
:1024100023AC0000CDAB000074AC000094AC000015
:10242000D403001084030010801A060010B50A4C73
:10243000236823B90949012000F09CFD206001F0C8
:1024400095FC022806D120684FF0FF31BDE810400E
:1024500000F0F4BE10BD00BF9C070010A0070010E4
:1024600010B501F083FC022808D1054800231A4664
:1024700019460068BDE8104000F0CEBC10BD00BF9A
:102480009C070010074A08B513680021013308466D
:10249000136001F07BFF00210846BDE8084001F011
:1024A00061BF00BFF007001008B5074A0749B0FB3D
:1024B000F1F10020013901F01FFF0021044A084614
:1024C000BDE8084001F03CBF8524000040420F00F9
:1024D0000087930370B5084E002001F04FFF0546BA
:1024E0000020346801F04AFF8542F5D8034B0021F3
:1024F000E3FB040170BD00BFF007001000879303E9
:1025000008B5FFF7E7FF4FF47A72002302F048FEA8
:1025100008BD70B5054608460C4604F02BFA26188F
:10252000B44205D128460A21BDE8704002F0C0BA85
:1025300014F8011B284602F0BBFAF1E70C46002014
:10254000044908B5FFF7E5FF21460020FFF7E1FF4A
:10255000FEE700BFEDAD000008B502490020FFF71F
:10256000D8FFFEE7B3AD0000024B0022C3F8C02045
:1025700030BF704700C00F4008B50C4600200A4924
:10258000FFF7C7FF09490020FFF7C3FF08490020F4
:10259000FFF7BFFF07490020FFF7BBFF21460020E0
:1025A000FFF7B7FFFEE700BFBBAC00000DAD0000BA
:1025B00050AD000084AD0000034B0360034B0B6083
:1025C00064231360704700BF9009001000080010DA
:1025D00008B5FFF77FFF024B1B68C01A08BD00BF9C
:1025E000F807001000F074B800F0BAB800F0EAB8CC
:1025F00010B5044601F012F9204602F0D7FF044658
:1026000001F0ACF90CB9FFF7A7FF204610BD10B5DB
:10261000044640B101F002F9204602F0CFFFBDE8C8
:10262000104001F09BB910BD08480068006880F3B5
:1026300008884FF0000080F3148862B661B6BFF3DB
:102640004F8FBFF36F8F00DF00BF000008ED00E089
:10265000DFF80C00016841F4700101607047000070
:1026600088ED00E007B5002301930B4B1B68013395
:1026700004D00A49EF20FFF77FFFFEE74FF0180371
:1026800083F31188BFF36F8FBFF34F8F019B002B34
:10269000FCD003B05DF804FBF40900100AAE0000A2
:1026A0004FF0807340F8043C074B40F80C3C21F09D
:1026B00001016FF0020340F8081C40F8202C40F89C
:1026C000243C4438704700BF65260000FFFFFFFF31
:1026D000074B19680868B0E8F04F80F30988BFF32A
:1026E0006F8F4FF0000080F311887047AFF30080C8
:1026F000F809001008B54FF0180383F31188BFF3F1
:102700006F8FBFF34F8F094A13680133012B13609A
:102710000AD1074B1B6813F0FF0F05D0054940F2A3
:10272000AB10FFF729FFFEE708BD00BFF40900105A
:1027300004ED00E024AE0000074A08B513682BB989
:1027400006494FF4D970FFF717FFFEE7013B13600E
:102750000BB983F3118808BDF409001059AE0000CD
:10276000EFF30980BFF36F8F154B1A681EF0100F3F
:1027700008BF20ED108A20E9F04F10602DE9090014
:102780004FF0180080F31188BFF34F8FBFF36F8FA6
:1027900001F07EF94FF0000080F3118809BC196840
:1027A0000868B0E8F04F1EF0100F08BFB0EC108AB8
:1027B00080F30988BFF36F8F704700BFAFF30080CD
:1027C000F809001008B54FF0180383F31188BFF320
:1027D0006F8FBFF34F8F01F02FF818B1034B4FF0FD
:1027E00080521A60002383F3118808BD04ED00E0D5
:1027F00010B5084A084C002323601360FDF70EFD56
:102800004FF47A73B0FBF3F0044B013818600723E0
:10281000236010BD18E000E010E000E014E000E0EC
:10282000334B344A13B51968914205D132494FF4FC
:102830009A70FFF7A1FEFEE71A68304B9A4205D165
:102840002F4940F23510FFF797FEFEE72D4B1A781F
:10285000D2B20192FF221A701B782B4ADBB28DF89C
:1028600003309DF8033003F018031370274A072341
:10287000136000219DF80300000603F1FF3409D422
:1028800011B1022B13600ED0214940F25D10FFF709
:1028900073FEFEE79DF803305B00DBB28DF803307A
:1028A00001212346E6E74FF400731360019B154AAC
:1028B000DBB21370174B1A6842F478021A601A6878
:1028C00042F078421A60FFF793FF134B00241C601C
:1028D000FFF7BEFE114A136843F040431360FFF751
:1028E000A3FE01F0D5F8FFF7BDFE204602B010BDF3
:1028F00000ED00E071C20F41D7AE000070C20F4181
:10290000FAAE000000E400E0EC090010F00900104D
:102910001DAF000020ED00E0F409001034EF00E0EE
:1029200008B5EFF305830F2B0BD90D4A9B5C0D4ABD
:1029300012789A4205D90C4940F2FE20FFF71CFE9E
:10294000FEE70A4B0A4A1B68126803F4E0639342ED
:1029500005D9084940F20E30FFF70EFEFEE708BD2C
:10296000F0E300E0EC0900106BAE00000CED00E0BD
:10297000F009001095AE000038B52020FFF738FEB2
:10298000044628B1002540F8045B00F0C9F825771B
:10299000204638BD2DE9F047089F0C4690469946E1
:1029A000064628B938494FF4A070FFF7E5FDFEE769
:1029B00011F07F4A05D0354940F24110FFF7DCFDA8
:1029C000FEE729B932494FF4A170FFF7D5FDFEE7C4
:1029D00001F0CCF930B92FB12E4940F24510FFF784
:1029E000CBFDFEE700F01AFF356804EA0503B9F1F4
:1029F000000F14D1ABB987B1B8F1000F0CBF0021A3
:102A00004FF08071B9F1000F01D041F080613A467A
:102A10002143301D01F0B2F80025BA4607E09C4280
:102A2000E9D1B8F1000F02D025EA0403336000F0C9
:102A300095FFBAF1000F1AD038B9174B4FF08052FA
:102A40001A60BFF34F8FBFF36F8F01F097FA8301C6
:102A500005460AD4FFF74EFE356804EA0503B9F1CE
:102A6000000F07D143B9FFF767FE25F07F452846E1
:102A7000BDE8F0879C42F6D1B8F1000FF3D025EA0B
:102A800004043460EFE700BF95AF0000A1AF000081
:102A9000DAAF0000EFAF000004ED00E02DE9F041F7
:102AA0000F46044628B91C4940F21220FFF764FD86
:102AB000FEE711F07F4505D0184940F21320FFF7DB
:102AC0005BFDFEE700F10C0600F0A8FE236820691C
:102AD0003B4323608642216807D121EA050121603A
:102AE00000F03CFF2068BDE8F081D0E9002822F02A
:102AF0007F4312F0806F03EA010702D11FB94046FD
:102B0000E8E7BB42FBD1D20141F0007148BF1D4351
:102B100001F09EF8F3E700BF95AF000060AF000042
:102B200000F108034FF0FF324360C0E90223036164
:102B300000230360704700230361704743684B60C4
:102B40009A688A609A6851609960036808610133E5
:102B5000036070470A68531C30B50AD103695A688C
:102B60004A6091608B6059600368086101330360BB
:102B700030BD00F108035C6825689542EFD8234614
:102B8000F9E7D0E9011203698A605160596881420E
:102B900008BF5A60002202611A68013A1A60186878
:102BA000704710B50446FFF7A5FDA46BFFF7C4FD01
:102BB000B4FA84F0400910BDF8B51546026C866B76
:102BC000044652B9076847BB806801F031F9A76035
:102BD00005460136A6632846F8BD65B9406802F08F
:102BE000F5FC6368226C1344A26863609342F0D3DF
:102BF00023686360EDE7C06802F0E8FC236CE268DC
:102C000021685B421A448A42E2603EBFA2689B1878
:102C1000E360022D01D116B1013E0025D9E735460A
:102C2000D7E7034610B41A6C084662B1D9689C68AD
:102C30001144A142D96024BF1968D960D9685DF8F0
:102C4000044B02F0C3BC5DF8044B704770B50446FA
:102C5000FFF750FD94F8455004F124066DB2002DA5
:102C600014DCFF2384F84530FFF766FDFFF742FDD3
:102C700094F8445004F110066DB2002D12DCFF23CD
:102C800084F84430BDE87040FFF756BD636A002BFE
:102C9000E7D0304600F09CFF08B101F061F8013D3B
:102CA0006DB2DCE72369002BE9D0304600F090FFDD
:102CB00008B101F055F8013D6DB2DEE738B50D46BB
:102CC000044628B91A4940F20310FFF755FCFEE705
:102CD000FFF710FDD4E90F30226862604343D1183A
:102CE0001B1A1344A160E3600021FF23A16384F851
:102CF000443084F8453095B9236963B104F110007C
:102D000000F066FF38B10B4B4FF080521A60BFF3F2
:102D10004F8FBFF36F8FFFF70FFD012038BD04F118
:102D20001000FFF7FDFE04F12400FFF7F9FEF2E7C3
:102D300008B1000004ED00E013B51C4628B91E4997
:102D40004FF49D70FFF718FCFEE72BB91B494FF4B9
:102D50009F70FFF711FCFEE732B161B918494FF4DB
:102D6000A170FFF709FCFEE729B1164940F24310B4
:102D7000FFF702FCFEE750230193019B502B05D087
:102D8000114940F24B10FFF7F7FBFEE7002908BF9F
:102D90002246019B22600123C4E90F0184F84630DA
:102DA00019462046FFF78AFF9DF8103084F84C3012
:102DB000204602B010BD00BF45B0000067B0000063
:102DC0007DB00000B5B00000EDB00000F8B50D46D4
:102DD0001746064628B90F494FF4BB70FFF7CCFBE6
:102DE000FEE748435030FFF703FC044670B1002370
:102DF00080F8463065B100F150032360C4E90F65E7
:102E000001212046FFF75AFF84F84C702046F8BD98
:102E10000346F2E745B000002DE9FF4788460192DE
:102E20001F46044628B94E4940F2F120FFF7A4FBA3
:102E3000FEE739B9036C2BB14A4940F2F220FFF7A3
:102E40009BFBFEE7022F08D1E36B012B05D046491F
:102E500040F2F320FFF790FBFEE700F087FF064605
:102E600038B9019B33B1414940F2F620FFF784FBAA
:102E7000FEE700264FF00009DFF8F4A037E0019DDF
:102E80001DB9FFF759FC002050E016B902A800F068
:102E900021FFFFF751FC00F0C1FCFFF72BFC94F879
:102EA0004430FF2B08BF84F8449094F84530FF2B42
:102EB00008BF84F84590FFF73FFC01A902A800F085
:102EC00015FF002846D1FFF715FCA26BE36B9A4271
:102ED0002FD1FFF731FC019904F1100000F036FE0C
:102EE0002046FFF7B3FE00F039FD50B30126FFF78F
:102EF00001FCA26BE36B9A4201D3022FBFD13A4689
:102F000041462046FFF758FE636A1BB104F12400D6
:102F100000F05EFE38B1164B4FF080521A60BFF3DE
:102F20004F8FBFF36F8FFFF707FC012004B0BDE8A0
:102F3000F087FFF701FC2046FFF788FE00F00EFD4A
:102F4000D4E74FF08053CAF80030BFF34F8FBFF380
:102F50006F8FCBE72046FFF779FE00F0FFFC92E78A
:102F600008B1000010B1000060B10000EFAF000038
:102F700004ED00E013B5002200900B46012011463D
:102F8000FFF7DAFE044638B1002383600360C360B4
:102F90001A461946FFF740FF204602B010BDFFFF5A
:102FA0002DE9F843894690461F46044628B928492A
:102FB00040F2C330FFF7E0FAFEE739B9036C2BB1FA
:102FC00024494FF47170FFF7D7FAFEE7022F08D1BA
:102FD000E36B012B05D0204940F2C530FFF7CCFA56
:102FE000FEE7FFF79DFCEFF311864FF0180383F324
:102FF0001188BFF36F8FBFF34F8FA26BE36B9A42C1
:1030000001D3022F22D194F845503A466DB2494679
:103010002046FFF7D1FD6B1C13D1636A0BB9012069
:103020000BE004F1240000F0D3FD0028F7D0B8F144
:10303000000FF4D00120C8F8000086F31188BDE825
:10304000F88301356DB284F84550E8E70020F4E7D5
:1030500008B1000010B1000060B1000070B50D466D
:10306000044628B923494FF48C60FFF785FAFEE740
:10307000036C2BB1204940F26440FFF77DFAFEE774
:1030800003683BB983682BB11C4940F26940FFF7E4
:1030900073FAFEE7FFF744FCEFF311864FF01803D5
:1030A00083F31188BFF36F8FBFF34F8FA26BE36B76
:1030B00093421CD994F8453001325BB2A2635A1C8A
:1030C00010D1636A0BB9012009E004F1240000F07B
:1030D0007FFD0028F7D0002DF5D00120286086F371
:1030E000118870BD01335BB284F84530EBE70020F6
:1030F000F5E700BF08B10000A7B10000C0B10000B3
:103100002DE9F04385B00F460192044628B947499E
:103110004FF4A060FFF730FAFEE739B9036C2BB12A
:10312000434940F20450FFF727FAFEE700F01EFE85
:10313000064638B9019B33B13E4940F20950FFF7CA
:103140001BFAFEE700264FF00008DFF8EC903BE0AA
:10315000019D1DB9FFF7F0FA002052E016B902A850
:1031600000F0B8FDFFF7E8FA00F058FBFFF7C2FAED
:1031700094F84430FF2B08BF84F8448094F845301D
:10318000FF2B08BF84F84580FFF7D6FA01A902A8F3
:1031900000F0ACFD00283DD12046FFF702FD98B3BA
:1031A000019904F1240000F0D1FC2046FFF74EFD08
:1031B00000F0D4FB38B94FF08053C9F80030BFF3AA
:1031C0004F8FBFF36F8F0126FFF794FAA56B002D89
:1031D000BED039462046013DFFF723FDA563236994
:1031E00063B104F1100000F0F3FC38B1124B4FF062
:1031F00080521A60BFF34F8FBFF36F8FFFF79CFAB7
:10320000012005B0BDE8F0832046FFF71FFD00F068
:10321000A5FBD8E72046FFF719FD00F09FFB2046ED
:10322000FFF7BFFC0028CED096E700BF27B2000012
:1032300033B20000EFAF000004ED00E02DE9FF41E4
:103240000446019128B9584940F29150FFF794F98A
:10325000FEE7056C2DB1554940F29550FFF78CF90A
:10326000FEE700F083FD064638B9019B53B1504993
:1032700040F29A50FFF780F9FEE72E460027DFF86C
:1032800038814EE00546F9E7019B4BB92DB149491C
:1032900040F2E150FFF770F9FEE7FFF74DFA5EE00C
:1032A00016B902A800F016FDFFF746FA00F0B6FACC
:1032B000FFF720FA94F84430FF2B08BF84F84470DD
:1032C00094F84530FF2B08BF84F84570FFF734FAB7
:1032D00001A902A800F00AFD00284AD12046FFF704
:1032E00060FC00283FD023683BB9FFF703FAA068D1
:1032F00000F04CFD0546FFF71FFA019904F1240088
:1033000000F024FC2046FFF7A1FC00F027FB38B9B1
:103310004FF08053C8F80030BFF34F8FBFF36F8F6B
:103320000126FFF7E7F9A36B002BADD0013BA363A8
:10333000236813B900F02EFEA060236963B104F185
:10334000100000F045FC38B11B4B4FF080521A6062
:10335000BFF34F8FBFF36F8FFFF7EEF901252846BC
:1033600004B0BDE8F0812046FFF770FC00F0F6FAEB
:10337000D6E72046FFF76AFC00F0F0FA2046FFF798
:1033800010FC0028CCD0002DE9D0FFF7B3F9616A1A
:1033900019B1236B1968C1F10A01A06800F096FD0C
:1033A0000025FFF7C9F9DAE727B20000A7B100004E
:1033B000EFAF0000D1B2000004ED00E02DE9F843CA
:1033C00089469046054628B9214940F2FB60FFF73F
:1033D000D3F8FEE739B9036C2BB11E4940F2FC600B
:1033E000FFF7CAF8FEE7FFF79BFAEFF311874FF0FC
:1033F000180383F31188BFF36F8FBFF34F8FAC6B4C
:103400001CB395F84460494676B22846FFF709FC9C
:10341000013C731CAC6313D12B690BB901200BE089
:1034200005F1100000F0D4FB0028F7D0B8F1000F30
:10343000F4D00120C8F8000087F31188BDE8F883B4
:10344000013676B285F84460E8E72046F4E700BF2D
:1034500008B1000086B2000008B528B9064940F25C
:10346000B770FFF789F8FEE790F846301BB9BDE862
:103470000840FFF7CCB808BD08B100002DE9F041C5
:103480000446FFF737F92D4B2D4D1A682D4F0132A9
:103490001A602E68002E46D12C601B68012B1CD1AF
:1034A000B84640460136FFF73BFB0A2E08F11408E8
:1034B000F7D1DFF8B880244E4046FFF731FB3046A5
:1034C000FFF72EFB2148FFF72BFB2148FFF728FBD6
:1034D000204BC3F80080204B1E60204A204913680F
:1034E000086801331360E26A2364012393400343B5
:1034F00014200B6000FB0270211DFFF71FFBFFF77C
:103500001BF9184B1B6863B12B68DA6AE36A9A42AD
:1035100007D2154B4FF080521A60BFF34F8FBFF3A5
:103520006F8FBDE8F0810F4B1B68002BD5D12B6846
:10353000DA6AE36A9A4298BF2C60CEE7D00A00109C
:10354000F8090010040A0010F80A0010180B001007
:10355000300B0010FC090010000A0010DC0A0010FB
:10356000E00A00102C0B001004ED00E0E40A00104B
:1035700008B5074C074D4FF080562368012B04D93E
:103580002E60BFF34F8FBFF36F8FFEF7EDFFF4E7B1
:10359000040A001004ED00E0064A13681968064B9F
:1035A00019B94FF0FF321A6070471268D268D268BA
:1035B0005268F8E7FC090010100B00102DE9F047E5
:1035C000DDE909644FEA82094A4607460D46206B49
:1035D000A521984602F022F8236BA9F10409994429
:1035E00029F007099DB36B1E04F134020B3513F863
:1035F000011F02F8011B09B1AB42F8D1002384F886
:103600003F30089D092D28BF09254FF0000AE562CB
:10361000A564201DC4F84CA0FFF78DFAC5F10A057A
:1036200004F11800FFF787FAC4F854A02461A561DB
:103630006462C4F850A084F858A04246394648460F
:10364000FFF72EF8206006B13460BDE8F08784F8FB
:103650003450D6E7F8B51B4B1B4E1C680546306846
:1036600004300F46FFF78DFA334640B93168174EE4
:10367000C96A32680120884022EA000232606A1C6E
:1036800007D137B1196812480431BDE8F840FFF797
:1036900055BA1A686419546007D30E4A106819683D
:1036A000BDE8F8400431FFF755BA0B4A10681968B5
:1036B0000431FFF74FFA094B1A68A24288BF1C6019
:1036C000F8BD00BF440B0010F8090010E00A00101C
:1036D000300B0010000A0010FC090010100B001045
:1036E00070B586B0DDE90B542DB9154940F24D2077
:1036F000FEF742FFFEE72CB9124940F24E20FEF7DA
:103700003BFFFEE75C260596059E5C2E05D00E4924
:1037100040F25620FEF730FFFEE72563022584F8CD
:10372000595004AD01950A9D02940095059EFFF73E
:1037300045FF2046FFF7A2FE049806B070BD00BF0B
:10374000F6B300000DB4000022B400002DE9F043F0
:10375000074685B09000884616469946FEF748FF12
:103760000546E8B15C20FEF743FF0446A8B10023FC
:1037700080F859300D9B056301930C9B02900093D8
:1037800032464B4641463846FFF718FF2046FFF7C2
:1037900075FE012005B0BDE8F0832846FEF737FF2F
:1037A0004FF0FF30F6E7FFFF10B588B0002407AAFE
:1037B00006A905A8CDE90544FEF7FEFE059B029388
:1037C000069B079A0F491048CDE900432346FFF7AF
:1037D00087FF0E4B186090B14FF0180383F31188E8
:1037E000BFF36F8FBFF34F8F094B4FF0FF321A605B
:1037F000084B01221A60084B1C60FFF711F808B053
:1038000010BD00BF9CB30000713500000C0B001010
:10381000100B00102C0B0010440B0010024A136810
:1038200001331360704700BFD80A0010014B1868BD
:10383000704700BF440B00102DE9F84F3B4B1B684D
:10384000002B6BD13A4B1C6801341C60A4B9394B76
:103850001A6812682AB1384940F67F20FEF78CFEBC
:10386000FEE7364A1968106818601160344A136818
:1038700001331360FFF790FE324D334F2B68A342A4
:103880004FF0000B11D93A68304BD16A14224A43E9
:103890009A58022A28BF4FF0010B2D4A1268002ABD
:1038A0000CBF58460120BDE8F88FDFF888A0DFF88C
:1038B000A890DAF8002012681AB94FF0FF322A6097
:1038C000E1E7DAF80020D268D66871688C4201D24C
:1038D0002960D8E706F104084046FFF752F9B16ABB
:1038E00019B106F11800FFF74CF9F06AD9F8003069
:1038F000012202FA00F11943144BC9F800104FF0ED
:10390000140C41460CFB0030FFF718F93868F16AD7
:10391000C26A914228BF4FF0010BCAE70D4A1368F3
:10392000013313604FF0000BB7E700BFD80A001057
:10393000440B0010FC0900103BB40000000A00100A
:10394000140B0010100B0010F8090010040A0010EE
:10395000480B0010D40A0010E00A00102DE9F843CB
:103960002F4C23682BB92F4940F68500FEF704FE43
:10397000FEE7FEF7BFFE2368013B236024682CB1FD
:103980000024FEF7D9FE2046BDE8F883264B1B68CD
:10399000002BF5D0254D264EDFF8A8801FE0EB6800
:1039A000DC6804F1040904F11800FFF7EAF848465E
:1039B000FFF7E7F8E26A3168012707FA02F31420FB
:1039C0000B4300FB028049463360FFF7B7F8194B01
:1039D000E26A1B68DB6A9A4201D3174B1F602B68AF
:1039E000002BDCD10CB1FFF7D7FD144D2C6844B18E
:1039F000114E0127FFF720FF00B13760013CF9D1DC
:103A00002C600D4B1B68002BBAD00D4B4FF0805231
:103A10001A60BFF34F8FBFF36F8F0124B1E700BF70
:103A2000D80A0010A0B40000D00A0010180B001033
:103A3000E00A0010F8090010480B0010D40A00102A
:103A400004ED00E0040A001008B540B90D4B4FF03A
:103A500080521A60BFF34F8FBFF36F8F08BD0A4BC0
:103A6000196829B1094940F23C50FEF785FDFEE78F
:103A7000FFF7D4FEFFF7EEFDFFF770FF0028E5D05B
:103A8000ECE700BF04ED00E0D80A00101CB3000012
:103A900038B5274B1A68274B12B101221A6038BD7E
:103AA0001A60FEF795FD244A244C1568A84204D9F3
:103AB00021680B6D5B1B03440B65236810601B6B57
:103AC0001A68B2F1A53F0BD15A68B2F1A53F07D1F0
:103AD0009A68B2F1A53F03D1DB68B3F1A53F04D0EA
:103AE000206821683431FEF729FD154B1B68B3FAB5
:103AF00083F3DBB2C3F11F03142212495A4388181F
:103B00008D582DB9104940F6B730FEF735FDFEE768
:103B1000456808326D6845600A44954204BF6A688A
:103B20004260142202FB03135B68DB682360B6E784
:103B3000D80A0010480B0010CC0A0010F809001039
:103B4000E00A0010040A0010A1B3000010B50C46F2
:103B500028B9084940F6CE30FEF70EFDFEE7064BC9
:103B600019681831FEF7F6FF20460121BDE8104024
:103B7000FFF770BD36B30000F809001010B5144609
:103B800028B90F4940F6DF30FEF7F6FCFEE70D4B93
:103B90001B682BB90C4940F6E330FEF7EDFCFEE75D
:103BA0000A4B1A6841F00041916119681831FEF71B
:103BB000C5FF20460121BDE81040FFF74BBD00BF07
:103BC00036B30000D80A001042B30000F809001014
:103BD00038B5C368DC682CB9164940F62940FEF7B1
:103BE000CBFCFEE704F118052846FEF7CAFF124B8E
:103BF0001B68E3B9251D2846FEF7C3FF0F49E26A9B
:103C000008680123934003430B600D4B14202946A1
:103C100000FB0230FEF792FF0A4BE26A1B68DB6A88
:103C20009A4283BF084B01201860002038BD294606
:103C30000648EFE791B40000D80A0010E00A00102F
:103C4000040A0010F8090010480B0010180B0010AF
:103C5000194A126870B52AB918494FF44660FEF740
:103C60008BFCFEE7C46841F0004101602CB91449A7
:103C700040F66840FEF780FCFEE7261DFEF781FF58
:103C80003046FEF77EFF0F49E26A0868012505FA13
:103C900002F303430B600C4B142000FB023031464F
:103CA000FEF74CFF094BE26A1B68DB6A9A4284BF4D
:103CB000074B1D6070BD00BFD80A001072B3000032
:103CC00091B40000E00A0010040A0010F809001086
:103CD000480B0010034B1B680360034B1B684360D9
:103CE000704700BF140B0010440B001070B50C4659
:103CF000054628B9164940F69440FEF73DFCFEE71C
:103D000029B9144940F69540FEF736FCFEE7FEF768
:103D1000F1FC114B196823685A1C10D00F482E680B
:103D200000686A68864201D08A420FD9881A8342A5
:103D30000AD95B1A134423602846FFF7CBFF0024FF
:103D4000FEF7FAFC204670BD002323600124F7E74C
:103D500092B30000E8B30000440B0010140B0010F5
:103D6000014B01221A607047480B0010054B1B687D
:103D700033B1054B1B68002B0CBF0220002070479D
:103D8000012070472C0B0010D80A00102DE9F041DB
:103D90000446002835D0234AC36A1168C96A8B4299
:103DA000174636D28269204D002AA1BF3A68D26AEE
:103DB000C2F10A0282611426426906FB03539A4249
:103DC00021D100F104084046FEF7DBFE174B48B94D
:103DD000E06A4643AA592AB91A680121814022EAB9
:103DE00001021A603A681968D26AE262012404FA90
:103DF00002F0084318601420414600FB0250FEF711
:103E00009DFE204603E03B68DB6AC3620120BDE8FB
:103E1000F0811368806CDC6AA0422CBF0020012076
:103E2000F5E700BFF8090010040A0010E00A0010CE
:103E3000F8B5044608B90020F8BD1F4B1B68834243
:103E400005D01E4940F6D170FEF796FBFEE7DB6C0D
:103E50002BB91B4940F6D270FEF78EFBFEE7C16A14
:103E6000826C013B9142C364E5D0002BE3D1051D78
:103E70002846FEF786FE134E134A50B9E76A14210E
:103E8000794373582BB913680120B84023EA000323
:103E90001360A36CE362C3F10A01A16111680124FC
:103EA00004FA03F008431060142000FB0360294665
:103EB000FEF744FE2046BFE7F809001066B4000094
:103EC0007CB40000040A0010E00A0010F8B50446B3
:103ED000002847D0C26C2AB923494FF48150FEF71D
:103EE0004BFBFEE7836C994238BF1946C36A8B428D
:103EF00038D0012A36D11D4A1268824205D11C49A8
:103F000041F23B00FEF738FBFEE78269194DC162C2
:103F1000002A4FF014064269A8BFC1F10A0106FB4E
:103F20000353A8BF81619A421CD1071D3846FEF792
:103F300028FEE26A104C40B95643AB592BB92368AE
:103F40000121914023EA010323602168012393406A
:103F50000B4314202360394600FB0250BDE8F840B3
:103F6000FEF7ECBDF8BD00BF7CB40000F8090010FE
:103F70005CB30000040A0010E00A0010044B1A6849
:103F8000196890691A68CB6AC3F10A039361704794
:103F9000F8090010044B1A681AB11968CA6C01328A
:103FA000CA641868704700BFF809001010B5FEF722
:103FB0000FFB064B064A196829B1196814680B6D86
:103FC0001B1B03440B65106010BD00BFF8090010F7
:103FD000CC0A001008B5FEF7FBFA014B186008BDCB
:103FE000CC0A001038B501220221002000F0C3F8ED
:103FF00001220321002000F0BEF80422002101204C
:1040000000F0B9F801210422084600F0B4F80422B7
:104010001146012000F0AFF80821012000F01AF944
:10402000284B4FF480729A610921012000F0EEF8CC
:1040300002220A21002000F09EF802220B210546F0
:10404000002000F098F80446284600F0A9F8204621
:1040500000F0A6F80321022000F0FCF81A4B1B4DDB
:1040600018701A21012000F0F5F8194B194C18703E
:104070001821012000F0EEF8174B122118700120D2
:1040800000F0E8F8154B13211870012000F0BEF87D
:104090000F212870012000F0B9F81E2120700020A7
:1040A00000F0B4F80E4B1D211870002000F0AEF89F
:1040B0000C4B1870287800F083F82078BDE8384061
:1040C00000F07EB8208009204C0B0010500B00102F
:1040D0004D0B0010510B00104E0B00104F0B001039
:1040E000520B0010530B0010024B4FF48072DA6138
:1040F000704700BF20800920024B4FF480729A6104
:10410000704700BF20800920034B586980F400707D
:10411000C0F34020704700BF20800920014B187871
:10412000704700BF4C0B0010014B1878704700BF60
:104130004D0B0010014B1878704700BF4E0B00105C
:10414000014B1878704700BF4F0B0010C0F3C40339
:1041500000F007029B0003EBC21303F1804303F559
:10416000303301F007011A6822F007021A601A685A
:1041700011431960704738B500F007054FF0000093
:1041800001F01F0465F3020064F3C7001146FFF756
:10419000DDFF4FF0000065F3020064F3C70038BD97
:1041A000C0F3C40300F007029B0003EBC21303F14A
:1041B000804303F530331A6842F480621A60704716
:1041C000C0F3C40300F007029B0003EBC21303F12A
:1041D000804303F530331A6822F018021A601A6817
:1041E00042F008021A60704700F00702064B53F8CD
:1041F0002210C0F3C4000B68012202FA00F023EA87
:1042000000030B60704700BFB8B4000038B500F081
:1042100007054FF0000001F01F0465F3020064F38E
:10422000C700FFF7E1FF4FF0000065F3020064F301
:10423000C70038BD00F00702054B53F82220C0F339
:10424000C40311680120984008431060704700BF04
:10425000B8B4000038B500F007054FF0000001F0D9
:104260001F0465F3020064F3C700FFF7E3FF4FF09C
:10427000000065F3020064F3C70038BD00F00702D8
:10428000064B53F82230C0F3C4005A69012303FAE5
:1042900000F0104214BF184600207047B8B4000068
:1042A00000F00702044BC0F3C40053F8222001239E
:1042B00003FA00F090617047B8B4000000F0070204
:1042C000044BC0F3C40053F82220012303FA00F08A
:1042D000D0617047B8B4000008B50146FFF7CEFFC3
:1042E00020B10846BDE80840FFF7E8BF0846BDE832
:1042F0000840FFF7D5BFFFFF2DE9F8430F4F0C240F
:1043000044433E19884635792846914600F00EFA16
:104310003C5900233F2263604946A360284622603F
:104320006361B268A361E3612362636200F022FA11
:104330000123C4F80C806360BDE8F883D0B40000AA
:104340000C235843064B1B5830B501205C6901EB28
:104350004105A84020435861183343F8212030BD5F
:10436000D0B400000C235843034B1A58012303FA1E
:1043700001F11160704700BFD0B400000C23584316
:10438000014B1B5898687047D0B400000C23584369
:10439000014B1B5899607047D0B400002DE9F041E3
:1043A000044617461E468846FFF7E0FC00210546F6
:1043B000A068FEF743FF00232374069BA361079BBD
:1043C000E361236884F811802022022DA7746661BE
:1043D0001A600BD140F6B831A068FEF72FFF18B174
:1043E000207CB0FA80F04009BDE8F0810021A0688F
:1043F000FEF724FF0028F9D0F2E7FFFF03685A68B0
:10440000282A13B557D00AD8102A2CD0182A32D00F
:10441000082A09D1417C01F0FE01996028E0402A78
:1044200063D00DD8382A77D05A68027420229A6156
:1044300010221A6008229A611A68D206FCD426E07B
:10444000502A5BD0582AEFD1426999681170002236
:10445000C26120229A6110221A6008229A611A68A9
:10446000D106FCD413E0427C42F001029A6008229B
:104470009A6102B010BDC469202199610822C4B9B3
:104480009961102119609A611A68D106FCD4002341
:1044900001A980680193FEF7E1FD019B002BE8D0A4
:1044A0001F4B4FF080521A60BFF34F8FBFF36F8FD7
:1044B000DFE7817CB1E7427CD20702D520221A6077
:1044C000D5E7C2694AB920229A6110221A600822EF
:1044D0009A611A68D406FCD4D9E78169013A11F8C7
:1044E000014B9C608161C261C1E720229A61C2696F
:1044F000012A4FF00402E2D89A61B8E7426999684C
:104500001170426901324261C269013A012AC261F5
:104510004FF00402D3D1EFE75B680374B7E700BF45
:1045200004ED00E00148FFF769BF00BF4C00001038
:104530000148FFF763BF00BF2C0000100148FFF7E0
:104540005DBF00BF0C0000102DE9F0471546284A5A
:104550000646894607CA86B006AC04E9070040F65D
:104560000A32ADF808200C228DF80A202149DDF826
:1045700038A072018F188C5806AA3244012012F814
:10458000108C0322009200221146FEF7D5FB514603
:10459000B8600120FEF7EEFCF860404600F0C6F877
:1045A0006C23A361144A154B914588BF9946282373
:1045B000B5FBF9F25208C8215343B3FBF1F3236171
:1045C0003C235A430023B2FBF1F26261A3626362AF
:1045D0002362E3604023236006AB03EB86067A6820
:1045E00056F80C1C404606B0BDE8F04700F0C2B8D3
:1045F00018B500000C00001040420F00A08601001A
:104600002DE9F3410F4690461D4623B90025284663
:1046100002B0BDE8F0810E4C04EB40144FF0FF31C6
:10462000E068FEF70BFE0028F0D00026089B0193FF
:1046300042462B4647F0010100962046FFF7AEFEAA
:104640003346054632463146E068FEF7E5FBDEE7D5
:104650000C0000101FB500238DF80F3001230093CC
:104660000DF10F03FFF7CCFF9DF80F0005B05DF8CB
:1046700004FBFFFFF7B50E4617461D461BB9002584
:10468000284603B0F0BD0E4C04EB40144FF0FF3150
:10469000E068FEF7D3FD0028F1D0089B3A46CDE94B
:1046A000005306F0FE0100232046FFF777FE0023AB
:1046B00005461A461946E068FEF7AEFBE0E700BF84
:1046C0000C0000101FB5002200920DF10F038DF8B1
:1046D0000F20FFF7CFFF05B05DF804FB1FB58DF885
:1046E0000F30012300930DF10F03FFF7C3FF05B057
:1046F0005DF804FBFEE7FFFF08B5FFF757FC084B2A
:10470000084A1B78103BDBB252F823309847064B1F
:1047100000221A601B68BDE80840FFF75BBC00BFC1
:1047200004ED00E06C000010540B0010592809D86B
:10473000054B064A185CD2F8C410012383400B4392
:10474000C2F8C430704700BF33B5000000C00F404E
:1047500059289FBF054B064AD3F8C430105C9ABF56
:1047600023FA00F000F001000020704700C00F4065
:1047700033B50000592808BF1920084B43F8201012
:1047800043B2002B08DB012200F01F0002FA00F008
:104790005B09034A42F82300704700BF6C00001019
:1047A00000E100E073B54FF0FF33B1F5805F019396
:1047B00036D21D4C2369DE0734D41C4B1D69ED072E
:1047C00030D41B4D0326AE602E611A4D1D6002B31E
:1047D00001AE5E6041F00046DE6041F20F061E61F0
:1047E000DAB1206041F0806140F68112E1606560DD
:1047F0002261114A516A41F003015162D868C0F345
:104800000B000028FAD1536A23F00303536202B06D
:1048100070BD586041F00846DEE701AA2260E3E778
:104820000120F4E70220F2E700010820200108201F
:104830000000082008C00A4000C00A4010B5044625
:10484000FBF7ECFC4FF47A73B0FBF3F00223B0FB00
:10485000F3F2A24202D8034A136110BD0233DBB265
:10486000F5E700BF00C00A4010B504462420FFF75A
:104870005DFF0B4B07221A6002225A602046FFF7A9
:10488000DDFF1A20FFF752FF064B01221A631A6B55
:10489000D207FCD5044A0023936042F8183C10BDAF
:1048A00000C00A400000082020010820034B986047
:1048B000DA68D206FCD49868C0B2704700C00A40DB
:1048C0000122FFF76FBF0022FFF76CBF02689368F9
:1048D000C3F34203022B73B5064623D0062B21D027
:1048E000012B34D100248DF803400194102501AA36
:1048F0000DF10301B068FEF761FD48B133689DF822
:1049000003201A70019B002B18BF0124013DEED13A
:104910000CB3124B4FF080521A60BFF34F8FBFF3AE
:104920006F8F18E00024019433681A7DD207EFD509
:104930001B788DF8033001AA00230DF10301F06804
:10494000FEF72EFB019B002B18BF0124ECE7137D23
:10495000DBB20193019B02B070BD00BF04ED00E02B
:104960000148FFF7B3BF00BF400100100148FFF747
:10497000ADBF00BF300100100148FFF7A7BF00BF67
:10498000200100100148FFF7A1BF00BF1001001077
:10499000154B70B516460546185C0C463601FFF7F8
:1049A000C5FEB4FBF6F307EE903AF8EE677AB6EE82
:1049B000007A77EE877A2D01FCEEE77A0B4A17EE44
:1049C000903A52599BB280211173190ADBB21171CE
:1049D0001370102382F8283001231372812313727D
:1049E0000323137370BD00BFB8B5000010010010A1
:1049F000074B10B50446185CFFF7AAFE30B124013E
:104A0000044B1B59187B003018BF012010BD00BF9C
:104A1000B8B5000010010010034B03EB00108068D4
:104A2000003018BF0120704710010010034B03EB4A
:104A30000010C068003018BF01207047100100103E
:104A40002DE9F843074689469046FFF7D1FF064611
:104A500018B900263046BDE8F883124C3D016319B1
:104A6000DA6822B9B9F1000F01D0C3F80C906319CC
:104A70009A6822B9B8F1000F01D0C3F80880631911
:104A8000DA68002AE5D09A68002AE2D05A68064B14
:104A900053F82710054BD85DFFF76CFE63590722CA
:104AA0005A60D7E710010010A8B50000B8B50000A3
:104AB00038B5074A03010D46D458FFF799FF30B1C6
:104AC000237D9A06FCD52570237D9B06FCD538BD39
:104AD0001001001070B504460E461546FFF746F962
:104AE0000E4B03EB0413DC68B4B1022814D16B1C29
:104AF00009D04FF47A70A5FB00014FF47A720023BD
:104B000000F04EFB05462A4631462046FEF7F8FAED
:104B1000003018BF012070BD0020FCE7100100101C
:104B20002DE9F84305460E46114CFFF71FF92F01FA
:104B3000E31981462846D3F80C80FFF759FF98B156
:104B4000B9F1020F0AD1B8F1000F07D0314628465B
:104B50004FF0FF32BDE8F843FFF7BCBFE3591A7DC1
:104B6000D207FCD51B7833700020BDE8F88300BF66
:104B700010010010F7B505461C4E8DF807102D01E9
:104B80001746FFF7F3F873199C6854B302282BD12A
:104B9000791C09D04FF47A70A7FB00014FF47A72A8
:104BA000002300F0FDFA074600233A460DF1070105
:104BB0002046FEF731F9041C18BF0124FDF79AFDC9
:104BC000731975592A7D520609D500220DF1070186
:104BD0009868FEF7F3FB10B19DF807302B70FDF7D6
:104BE000ABFD204603B0F0BD0024FAE71001001031
:104BF0002DE9F047DFF86480174FADF5187D0025EB
:104C00002C4602AE4FF0060A0AFB05F906EB090036
:104C1000FBF707FC39F80630012001351C44FEF78C
:104C200013FF642D24B2EFD100231A46694694FB8A
:104C3000F5F4D8F8000024B2ADF80040ADF8024019
:104C4000ADF80440FEF7E8F801213868FDF726FFCB
:104C50002846FEF7F9FED2E7600B0010A40B001007
:104C600073B5134D134CC826C820FEF7EDFE012383
:104C700000961A4603212868FDF78CFE28B92368A0
:104C80000D48D96800F086FCEEE7012803D12368BF
:104C90000A48D968F6E7022803D123680848D9688A
:104CA000F0E70328E0D123680648D968EAE700BFA7
:104CB000600B001050010010FCB5000032B600007F
:104CC0006FB60000ACB6000037B5002204210A2000
:104CD000FEF77CF8164B174918600024022523467E
:104CE000CDE900544FF480621348FEF72FFD2346B0
:104CF000CDE900544FF4806210491148FEF726FDBB
:104D000003234FF480620F490093019423460E4819
:104D1000FEF71CFDFBF774FBFDF72EFE0B4B186036
:104D20000B4801F027FDFEF73FFD204603B030BDE4
:104D3000A40B0010D3B50000F14B0000DCB500005F
:104D4000AD4D0000E5B50000614C0000600B0010A7
:104D5000EEB5000000B5ADF50D7D00233A220F49F8
:104D6000019302A8FCF712FC98B90D4801F002FE6D
:104D700001AB02460A4902A8FCF7EEFC10B1094853
:104D800001F0F8FC02A8FCF709FE0DF50D7D5DF8B9
:104D900004FB0249044801F067FCF6E7BDB60000D9
:104DA000640B0010C6B60000EAB60000F0B5194F5B
:104DB000194E1A4C85B04FF0FF3202A93868FEF741
:104DC0009FF90028F7D0FEF731FDBDF90C300193B3
:104DD00005B2BDF90A30306800932A46BDF90830A3
:104DE000C068214600F05EFBBDF90C300193BDF9AF
:104DF0000A3000932146BDF9083009482A4601F0DF
:104E000099FDFFF7A7FF074B02211868FDF746FE43
:104E1000D1E700BFA40B001050010010BCB500008A
:104E2000640B0010600B001081F0004102E000BF35
:104E300083F0004330B54FEA41044FEA430594EA5A
:104E4000050F08BF90EA020F1FBF54EA000C55EA95
:104E5000020C7FEA645C7FEA655C00F0E2804FEA66
:104E60005454D4EB5555B8BF6D420CDD2C4480EA48
:104E7000020281EA030382EA000083EA010180EA78
:104E8000020281EA0303362D88BF30BD11F0004FC6
:104E90004FEA01314FF4801C4CEA113102D04042FC
:104EA00061EB410113F0004F4FEA03334CEA133337
:104EB00002D0524263EB430394EA050F00F0A7804F
:104EC000A4F10104D5F1200E0DDB02FA0EFC22FA4A
:104ED00005F2801841F1000103FA0EF2801843FA3E
:104EE00005F359410EE0A5F120050EF1200E012A2F
:104EF00003FA0EFC28BF4CF0020C43FA05F3C0186D
:104F000051EBE37101F0004507D54FF0000EDCF1E5
:104F1000000C7EEB00006EEB0101B1F5801F1BD38E
:104F2000B1F5001F0CD349085FEA30004FEA3C0C92
:104F300004F101044FEA445212F5800F80F09A8088
:104F4000BCF1004F08BF5FEA500C50F1000041EB8C
:104F5000045141EA050130BD5FEA4C0C404141EB90
:104F6000010111F4801FA4F10104E9D191F0000FB7
:104F700004BF01460020B1FA81F308BF2033A3F13A
:104F80000B03B3F120020CDA0C3208DD02F1140C31
:104F9000C2F10C0201FA0CF021FA02F10CE002F16C
:104FA0001402D8BFC2F1200C01FA02F120FA0CFC65
:104FB000DCBF41EA0C019040E41AA2BF01EB0451AE
:104FC000294330BD6FEA04041F3C1CDA0C340EDCAC
:104FD00004F11404C4F1200220FA04F001FA02F3EF
:104FE00040EA030021FA04F345EA030130BDC4F1AD
:104FF0000C04C4F1200220FA02F001FA04F340EAA2
:105000000300294630BD21FA04F0294630BD94F052
:10501000000F83F4801306BF81F480110134013D39
:105020004EE77FEA645C18BF7FEA655C29D094EAAA
:10503000050F08BF90EA020F05D054EA000C04BF28
:105040001946104630BD91EA030F1EBF0021002013
:1050500030BD5FEA545C05D14000494128BF41F0B2
:10506000004130BD14F580043CBF01F5801130BD16
:1050700001F0004545F0FE4141F470014FF00000A1
:1050800030BD7FEA645C1ABF194610467FEA655C52
:105090001CBF0B46024650EA013406BF52EA0335F4
:1050A00091EA030F41F4002130BD00BF90F0000FE2
:1050B00004BF0021704730B54FF4806404F132041E
:1050C0004FF000054FF0000150E700BF90F0000FD7
:1050D00004BF0021704730B54FF4806404F13204FE
:1050E00010F0004548BF40424FF000013EE700BFCE
:1050F00042004FEAE2014FEA31014FEA02701FBF5E
:1051000012F07F4393F07F4F81F06051704732F08F
:105110007F4208BF704793F07F4F04BF41F40021E6
:10512000704730B54FF4607401F0004521F0004144
:105130001CE700BF50EA010208BF704730B54FF0CE
:1051400000050AE050EA010208BF704730B511F0CF
:10515000004502D5404261EB41014FF4806404F107
:1051600032045FEA915C3FF4D8AE4FF003025FEA8D
:10517000DC0C18BF03325FEADC0C18BF033202EB11
:10518000DC02C2F1200300FA03FC20FA02F001FA6B
:1051900003FE40EA0E0021FA02F11444BDE600BF0E
:1051A00053B94AB9002908BF00281CBF4FF0FF318E
:1051B0004FF0FF3000F074B9ADF1080C6DE904CE8A
:1051C00000F006F8DDF804E0DDE9022304B07047E2
:1051D0002DE9F047089E04468846002B40F0858064
:1051E0008A42154648D9B2FA82F24AB1C2F1200782
:1051F00001FA02F320FA07F7954047EA03089440C2
:105200004FEA154E230CB8FBFEF71FFA85FC0EFB88
:10521000178843EA084307FB0CF1994209D9EB18B8
:1052200007F1FF3080F0E380994240F2E080023FD6
:105230002B445B1AA4B2B3FBFEF00EFB103344EA1E
:10524000034400FB0CFCA44509D92C1900F1FF33E1
:1052500080F0CB80A44540F2C88002382C4440EA5C
:105260000740A4EB0C0400271EB1D4400023C6E97C
:1052700000433946BDE8F087002A53D0B2FA82F2E3
:10528000002A40F0B680491B4FEA154E1FFA85F8F8
:105290000127B1FBFEFC230C0EFB1C1143EA01436A
:1052A00008FB0CF1994207D9EB180CF1FF3002D240
:1052B000994200F2EC808446591AA3B2B1FBFEF089
:1052C0000EFB101443EA044408FB00F8A04507D97C
:1052D0002C1900F1FF3302D2A04500F2DC80184601
:1052E000A4EB080440EA0C40BEE78B4208D9002E2C
:1052F00078D00027C6E9000138463946BDE8F08776
:10530000B3FA83F77FB98B4202D3824200F2BD80A9
:10531000841A61EB030301209846002EA9D0C6E948
:105320000048A6E7FFDEC7F12005BB4022FA05FCD6
:105330004CEA030C01FA07F420FA05F821FA05F308
:105340004FEA1C4E48EA0404B3FBFEF9210C0EFBA5
:1053500019331FFA8CF841EA034309FB08FA9A450E
:1053600002FA07F200FA07F10BD91CEB030309F16B
:10537000FF3080F088809A4540F28580A9F10209CB
:105380006344A3EB0A03A4B2B3FBFEF00EFB10339D
:1053900044EA034400FB08F8A04508D91CEB0404C8
:1053A00000F1FF336BD2A04569D90238644440EA6A
:1053B0000940A4EB0804A0FB02894C45C6464B46B5
:1053C00054D351D0002E69D0B1EB0E0264EB03042C
:1053D00004FA05F522FA07F3FC401D43C6E9005420
:1053E000002746E73746304643E7184637E7074683
:1053F0001FE7C2F1200320FA03F7954001FA02F0FB
:1054000021FA03F34FEA154E3843010CB3FBFEF7C4
:105410001FFA85F80EFB173341EA034107FB08F337
:105420008B4204FA02F407D9691807F1FF3C28D22D
:105430008B4226D9023F2944CB1A81B2B3FBFEF03E
:105440000EFB103341EA034100FB08F38B4207D9FE
:10545000691800F1FF3C10D28B420ED90238294462
:10546000C91A40EA074714E74145ABD2B8EB020E30
:1054700069EB0C0201381346A4E76046F0E71846D2
:1054800095E76746D8E781467BE7384645E7ACF1C4
:10549000020C2B4410E702382C4421E73746E8E69B
:1054A000704700BF0EB403B5014603AB054853F87F
:1054B000042B0068019300F08BF902B05DF804EB57
:1054C00003B070475001001070B50E4614460546F3
:1054D00018B183690BB903F0EFF82B4B9C421ED136
:1054E0006C68636EDA0705D4A3899B0502D4A06DAE
:1054F00000F059F8A38918071BD52369CBB1013EE9
:1055000016F8011F39BB656E15F0010539D1A38965
:10551000990502D4A06D00F047F8284670BD1B4BDA
:105520009C4201D1AC68DCE7194B9C4208BFEC6897
:10553000D7E72146284602F0F1F80028DFD0636E55
:10554000DA0705D4A3899B0502D4A06D00F02CF8DE
:105550004FF0FF35E1E7A368013B002BA36004DABD
:10556000A269934206DB0A2904D023685A1C2260F0
:105570001970C5E72246284602F07EF80130BFD1F7
:10558000DDE70D46C9E700BFD8B80000F8B8000055
:10559000B8B80000024B0A4601461868FFF794BFEE
:1055A00050010010704770477047FFFF024B0146E3
:1055B000186800F089B800BF50010010024B014686
:1055C000186800F033B800BF500100100A4491423F
:1055D00000F1FF3300D1704710B511F8014B03F80B
:1055E000014F9142F9D110BD884210B501EB020381
:1055F00002D983421C4607D8421E994208D011F8AE
:10560000014B02F8014FF8E783189A1A9A4200D129
:1056100010BD14F8011D03F8011DF7E7024403460D
:10562000934200D1704703F8011BF9E738B50546EE
:10563000002945D051F8043C0C1F002BB8BFE418DA
:1056400003F0CEFC1F4A1368104633B96360146040
:105650002846BDE8384003F0C9BCA3420CD92168F4
:105660006218934204BF1A685B68636004BF5218F3
:1056700022600460ECE713465A680AB1A242FAD9E4
:1056800019685818A0420BD120680144581882426A
:105690001960DDD1106852685A6001441960D7E77B
:1056A00002D90C232B60D3E7206821188A4204BF5B
:1056B00011685268626004BF091821605C60C7E726
:1056C00038BD00BF580B0010F8B5CD1C25F0030500
:1056D00008350C2D38BF0C25002D064601DBA942EC
:1056E00003D90C2333600020F8BD03F079FC214975
:1056F0000A6814469CB9204F3B6823B921463046BE
:1057000001F040F838602946304601F03BF8431C70
:1057100023D10C233360304603F068FCE3E72368B1
:105720005B1B17D40B2B03D923601C44256004E0BA
:105730006368A2420CBF0B605360304603F056FC16
:1057400004F10B00231D20F00700C21ACCD01B1A55
:10575000A350C9E722466468CCE7C41C24F00304C4
:10576000A042E3D0211A304601F00CF80130DDD11F
:10577000CFE700BF580B00105C0B00109368013B93
:10578000002B10B4936008DA9469A34201DB0A2964
:1057900003D15DF8044B01F06FBF1368581C106013
:1057A000197008465DF8044B7047F8B506460F4679
:1057B0001446D518AC4201D1002007E03A4614F84F
:1057C000011B3046FFF7DAFF431CF3D1F8BDFFFFA2
:1057D0002DE9F04F0D469DB014461E46074618B100
:1057E00083690BB902F068FF854B9D421BD17D6830
:1057F0006B6ED90705D4AB899A0502D4A86DFFF763
:10580000D2FEAB891B0701D52B69EBB92946384677
:1058100001F084FFC0B16B6ED8070ED54FF0FF309A
:105820001DB0BDE8F08F774B9D4201D1BD68DFE729
:10583000754B9D4208BFFD68DAE7AB899905EDD449
:10584000A86DFFF7B1FEE9E70023099320238DF847
:105850002930DFF8B891039630238DF82A304FF0C5
:10586000010A23461E4613F8012B0AB1252AF9D155
:10587000B6EB040B0BD05B46224629463846FFF7B1
:1058800094FF013000F0A380099B5B4409933378B7
:10589000002B00F09C8000234FF0FF32CDE9052360
:1058A0000136049307938DF853301A93344605223A
:1058B00014F8011B554803F043FB049BC0B9DA06FA
:1058C00044BF20228DF85320180744BF2B228DF8A7
:1058D000532032782A2A13D0079A344600200A2609
:1058E000214611F8013B303B092B4BD970B914E02C
:1058F000A0EB09000AFA00F0184304902646D5E709
:10590000039A111D12680391002A01DB079204E03B
:10591000524243F002030792049323782E2B0CD1BA
:1059200063782A2B33D1039B1A1D1B680392002B2B
:10593000B8BF4FF0FF3302340593354E2178032270
:10594000304603F0FDFA38B14023801B03FA00F023
:10595000049B03430134049314F8011B2D488DF874
:105960002810062203F0ECFA00283FD02A4B13BB84
:10597000039B073323F0070308330393099B434436
:1059800009936EE706FB023201200C46A8E70023CC
:105990000134059319460A26204610F8012B303AA7
:1059A000092A03D9002BC8D00591C6E706FB0121BF
:1059B00001230446F0E703AB00932A46174B04A9E2
:1059C000384600F0BDF8B0F1FF3F8046D6D16B6E8F
:1059D000D90705D4AB899A0502D4A86DFFF7E4FD79
:1059E000AB895B063FF51AAF099819E703AB009343
:1059F0002A460A4B04A9384600F042FBE3E700BF01
:105A0000D8B80000F8B80000B8B800000CB8000022
:105A100012B8000016B80000415B0000AB57000050
:105A20002DE9FF4755EC104B002D0E4691461946C7
:105A3000DDF830A04FF0000203DA05F100431D4607
:105A40002D220D9F0A7027F02007462F04D0452FE6
:105A500000D10136022100E0032103AB019302AB28
:105A600000933246534645EC104B01F051FF472F4F
:105A7000804602D119F0010F22D0462F08EB06090B
:105A800011D198F80030302B0AD100220023204693
:105A9000294604F061FB18B9C6F10106CAF8006096
:105AA000DAF800309944002200232046294604F009
:105AB00053FB08B1CDF80C903022039B4B4508D323
:105AC000039B0E9AA3EB08034046136004B0BDE8A5
:105AD000F087591C03911A70EFE7F7B50029BABF98
