:1000000000000110E500000075010000590100002A
:100010007501000075010000750100007501000008
:10002000750100007501000075010000E334000057
:100030007501000075010000E7340000EB3400009A
:100040005553000055530000555300005553000010
:100050005553000055530000555300005553000000
:1000600055530000555300005553000055530000F0
:1000700055530000555300005553000055530000E0
:1000800055530000555300005553000055530000D0
:1000900055530000555300005553000055530000C0
:1000A00055530000555300005553000055530000B0
:1000B00055530000555300005553000055530000A0
:1000C0005553000055530000555300005553000090
:1000D0005553000055530000555300005553000080
:1000E0005553000008B500F057F900F073F900F01F
:1000F0009DF800F079F900F095F802F03DFB02F070
:1001000067FA00F0BFF840B141F28734002502F0F1
:100110005FFB8D4208BF8442F9D200F082F918B922
:100120000849094807F000FE0649084807F0FCFDA9
:1001300005F0AAFB064B07481B68D96806F0CAFB06
:10014000FEE700BFB4B20000C0B20000EDB2000094
:10015000AC01001005B300001EF0040F0CBFEFF35C
:100160000880EFF309808169004A1047D10100003F
:100170007047FFFF38B50F4C0F4B10481D782368B0
:10018000D96806F0A7FB23680D49D8682A4606F00F
:1001900029FB0F2D236807D80A4A0B4952F825205E
:1001A000D86806F01FFBFEE7D968084806F092FB06
:1001B000F9E700BFAC01001004ED00E040B300001F
:1001C0005AB300004CB4000094B30000B2B3000076
:1001D00010B5044600F04AF8236883606368C36082
:1001E000A3680361E3684361236943626369013B78
:1001F000C361A3698361E3690362BFF34F8F05495C
:10020000054BCA6802F4E0621343CB60BFF34F8F23
:1002100000BFFDE700ED00E00400FA05004870476C
:1002200000D8B8050048704700D8B8050E4B072223
:10023000C3F88420AA210122C3F88020C3F88C10BF
:100240005521C3F88C10C3F8A821D3F88820520593
:10025000FBD51A6822F4704242F480421A6040F2E0
:100260000112C3F80421704700C00F400248034A3E
:10027000034BC0E90023704700000020EFBEADDE55
:100280001041522138B5224C224B22689A423DD16E
:100290006268214B9A4239D1204D21482B68D96898
:1002A00006F018FB2B68A2691E49D86806F09AFA76
:1002B0002B68E2691C49D86806F094FA2B68226A18
:1002C0001A49D86806F08EFA2B68A2681849D868CF
:1002D00006F088FA2B68E2681649D86806F082FAB8
:1002E0002B6822691449D86806F07CFA2B68626989
:1002F0001249D86806F076FA2B681148D96806F0DA
:10030000E9FA01200023C4E9003338BD0020F9E7F1
:1003100000000020EFBEADDE10415221AC01001004
:100320008CB40000DFB40000EEB40000FDB40000A7
:100330000CB500001BB500002AB5000039B500005F
:1003400048B500000E4A136810B50E4C1918A142AA
:10035000116002D30C4CA1420BD313600B4A0C4921
:1003600013681844884208D30A49884205D21060AD
:1003700001E0002BF2D0184610BD0023FBE700BFC0
:100380000000001028000020008000200400001061
:100390007820001000000110094A0A4B0A498B42DC
:1003A00005D30A4B0A4A0021934205D3704712F83D
:1003B000010B03F8010BF2E703F8011BF4E700BFA0
:1003C000AC35010000000010800300108003001015
:1003D00078200010034AD2F8883043F47003C2F842
:1003E0008830704700ED00E0044800232021C21847
:1003F0000133292B82F80013F9D1704700E100E0A6
:1004000008B52A2219233821022004F095FF0D2275
:100410003821022004F04CFFA0F12A035842584131
:1004200008BDFFF7EDBF42884378007843EA022316
:1004300040EA032070470B0A017043700B0C090E51
:100440008370C170704710B5024410F8013B11F879
:10045000014B9042A3EB040301D0002BF5D01846CA
:1004600010BDC3690239023B8B4283BF4389006BD5
:1004700001FB030000207047024600F10B01002041
:10048000C30143EA500312F8010B50FA83F38A4286
:10049000D8B2F5D1704702684AB1134613F8011B70
:1004A0001F290BD93A29F9D1911C8B4202D04FF068
:1004B000FF3070471278302AF9D10360002070476E
:1004C00001380A4411F8013B00F8013F9142F9D18B
:1004D0007047CA7E8B7E032843EA022301BF487D12
:1004E0000A7D42EA002243EA024318467047C2F3FB
:1004F00007238A76CB760378032B01BF120C0A758B
:10050000120A4A75704770B500F13806426B04460E
:1005100001233146407801F078FC054688B9616BCB
:10052000A36A226AE070CB1A934208D2A378022B06
:1005300005D10A4401233146607801F066FC284663
:1005400070BD0125FBE738B5436B8B4204460D4671
:1005500019D0C3788BB901232A4604F13801607899
:1005600001F03FFC002818BF4FF0FF3503466563DC
:100570000CBF03460123184638BDFFF7C4FF0346EE
:100580000028F8D1E7E70023F5E7FFFF38B500239F
:10059000C3704FF0FF3343630546FFF7D4FF0446B3
:1005A00018BB95F8372295F8363243EA02234AF60B
:1005B000552293421BD195F83830EB2B03D01833DA
:1005C000DBB2012B15D803220B4905F16E00FFF7B2
:1005D0003AFF40B10522094905F18A00FFF733FFD0
:1005E000002818BF0224204638BD0424FBE703245A
:1005F000F9E70224F7E700BFA9B60000ADB6000096
:100600002DE9F043002385B00B600F461546FFF738
:1006100042FF061EC0F23981A44B53F82640002C3D
:1006200000F03581206901F040FB002800F03181A5
:100630003C60237805F0FE056BB1607801F0CCFBDF
:10064000C10708D41DB110F0040500D00A252846C2
:1006500005B0BDE8F0830023F0B22370607001F0B4
:10066000ADFBC20700F117810DB14307EED40021A5
:100670002046FFF78BFF022840F0EE806F4604F51E
:10068000FF7104F23E263D4611F8040C10B10846F5
:10069000FFF7C9FE10318E4245F8040BF4D1002556
:1006A00057F8046B002E00F0CE8031462046FFF74D
:1006B0006DFF012800F2C88094F8442094F843307C
:1006C00043EA0223B3F5007F40F0CA8094F84F302C
:1006D00094F84E5055EA032504D104F15C00FFF76D
:1006E000A2FE054694F8481025624B1E012BA1700E
:1006F00000F2B68094F845901FFA89F36381002BCD
:1007000000F0AE8009F1FF3313EA090F40F0A88032
:1007100094F84A3094F8497047EA03273FB21FFA29
:1007200087F818F00F0FA4F8088040F0998094F82B
:100730004C3094F84B0050EA032003D104F15800E8
:10074000FFF771FE94F8472094F8463053EA0223ED
:1007500000F0868005FB01FC03EB18126244904216
:100760007ED3801A4845B0FBF9F179D350488142D5
:1007700076D84FF6F570814240F28F804FF0030932
:10078000023133443244B9F1030FE1616662A3627E
:10079000226369D194F8632094F8623043EA02231B
:1007A0001F433FB2002F5BD104F16400FFF73BFE13
:1007B000E062890001F2FF11B5EB512F50D34FF0E9
:1007C000FF33C4E90533B9F1030F4FF08003237100
:1007D0002FD194F8692094F8683043EA0223012B62
:1007E00027D1711C2046FFF7AEFE10BB94F83722CC
:1007F00094F83632207143EA02234AF65522934296
:1008000017D104F13800FFF70EFE2A4B984210D1A1
:1008100004F50770FFF707FE274B984209D104F54E
:100820000870FFF700FEA06104F50970FFF7FBFDFB
:100830006061224A84F80090138801339BB21380D0
:10084000E380002503E703200135042D7FF428AF62
:10085000042805D10125FAE60428FBD0012801D996
:100860000D25F4E6002627E7B8F1000FF8D0634421
:10087000B9F1020FE3624FEA41031BBF5B1801F0BD
:100880000101194601EB530194E70B25DFE60C2526
:10089000DDE60F25DBE60325D9E640F6F579494587
:1008A0008CBF4FF002094FF0010969E78003001087
:1008B000F5FFFF0F525261417272416184030010D3
:1008C00001292DE9F04705460C46174672D9C36940
:1008D0008B426FD90378022B3FD0032B50D0012BD2
:1008E00068D101EB5108816A01EB5821FFF72BFE1B
:1008F000064638BB05F1380908F1010AC8F30808B3
:1009000014F001041FBF19F8083003F00F023B0177
:1009100003F0F00314BF1343FBB209F80830A96ACF
:100920000123EB7001EB5A212846FFF70CFE064627
:1009300040B9CAF3080A44B1C7F3071709F80A70A7
:100940000123EB703046BDE8F08719F80A30C7F391
:10095000032723F00F031F43F0E7816A01EB142103
:10096000FFF7F1FD06460028ECD1640005F13803DD
:1009700004F4FF741A191F55C7F307275770DFE7F0
:10098000816A01EBD411FFF7DEFD06460028D9D1BC
:10099000A40005F1380304F4FE741C442046FFF75C
:1009A00042FD27F0704700F0704139432046FFF7C1
:1009B00042FDC5E70226C5E70129F8B505460C4604
:1009C00052D9C36999424FD20378022B29D0032B05
:1009D00038D0012B48D101EB5106816A01EB562139
:1009E000FFF7B1FD10B14FF0FF30F8BD771CA96AD9
:1009F000C6F308062E4401EB5721284696F83860C6
:100A0000FFF7A1FD0028EED1C7F308073D44E30737
:100A100095F8380046EA00204CBF0009C0F30B00EF
:100A2000E3E7816A01EB1421FFF78DFD0028DAD19D
:100A30006400383504F4FF742B19285D5B7840EAB4
:100A40000320D2E7816A01EBD411FFF77CFD002877
:100A5000C9D1A40005F1380004F4FE742044FFF766
:100A6000E2FC20F07040C0E70120BEE7B1F5001FB6
:100A7000F8B506460D4601D30220F8BDCA06FBD1E3
:100A8000826804683161CAB92378022B01D9E36A0C
:100A90009BB92389B3EB551FEED9E36AB361B36900
:100AA0007261002BE8D003EB55233834C5F30805F9
:100AB0002C44B361F4610020DFE71A4667897F02A6
:100AC000BD42114604D22046FFF7CBFCB061E6E7F9
:100AD0003068FFF771FF431C024606D00128CBD9CE
:100AE000E3698342C8D9ED1BEAE70120C5E72DE998
:100AF000F041804605680F4649B96E69C6B1EB6999
:100B0000B34298BF0126AB69A3B9002406E028468A
:100B1000FFF752FF0128044603D801242046BDE810
:100B2000F081421C51D0EB698342F7D83E46EAE798
:100B30000126E8E7BE4215D1EB69D8F80000741C25
:100B4000A34298BF02242146FFF736FF0128E4D0D4
:100B5000431C3AD0D8B16B69012B03D9EA6993429F
:100B600038BF1E463446EB690134A34202D8012E39
:100B7000CBD902242146D8F80000FFF71DFF40B171
:100B80000128CAD0013020D0B442ECD1BDE7002CFE
:100B9000E8D04FF0FF3221462846FFF791FE90B98A
:100BA00057B9D5E90632023A93426C6110D92B79D4
:100BB00043F001032B71B1E7224639462846FFF77F
:100BC0007FFE0028EDD00128A7D14FF0FF34A5E724
:100BD000013BAB61EBE7F8B50D46012D0746114629
:100BE00004682BD9E369AB4228D92AB14FF0FF3210
:100BF0002046FFF765FE30B929463868FFF7DCFE6E
:100C0000064608B90020F8BD012817D0431C17D0AC
:100C1000002229462046FFF753FE0028F3D1D4E9ED
:100C20000632911E8B4205D20133A361237943F032
:100C300001032371B2423546DED8E3E70220E2E742
:100C40000120E0E740B1A1F10B03012B04D90F29EA
:100C500002D0006901F032B8704738B50D4604463D
:100C6000F0B10368DBB11A78B2B18188DA889142B9
:100C700012D1186901F019F8034698B12368587821
:100C800001F0AAF810F0010002D124682C6038BDF0
:100C900000212068FFF7D6FF09200024F6E71C4654
:100CA0000920F3E70F201C46F0E72DE9F047002666
:100CB000D0F800A08E75836980460C46002B00F0AA
:100CC0009080C36A01336BD1D8F81C1000224D1EEE
:100CD00010462E2615F8013F202B00F101000CD004
:100CE000052B08BFE523092804D10B2A9EBFA718AE
:100CF00001327E72A71801327B720B28EAD1A31849
:100D000000205872A37D002B5AD1002A4FD004F145
:100D1000090010F8012B002A4CD092B2A2F1410533
:100D2000192D07D8082B0E7B8CBF102508252E42C5
:100D300018BF203202730133EBE7B9F1000F05D180
:100D400000F520539BB2B3F5006F12D340F2B511FA
:100D500040EA094000F0B8FFFF28C7F1800518D924
:100D6000012D20D9E319020A9A75D87502231F4470
:100D7000002002368146DAF80C30985B0028DCD17E
:100D80003D46B9F1000F18BF002525440023AB757F
:100D90009AE750B1002DF4D0E31998750123E6E7E6
:100DA000B1463746E7E70025EBE70546E9E73F238D
:100DB000A3750123234400229A750B7B03B9637248
:100DC000CB7A237201F11C00FFF72DFB2060CA7D56
:100DD0008B7D43EA0223E3804A7E0B7E43EA0223B3
:100DE000A380BDE8F087F8B5C37804460D46C3B9C3
:100DF00029462046FFF735FB04F1380607466063B5
:100E000004F50E723346002103F8011B9342FBD117
:100E1000002563899D420AD36089401B18BF0120C9
:100E2000F8BDFFF770FB0028E2D00120F8E70123AE
:100E30007A193146607800F0E8FF0028ECD10135DE
:100E4000E7E72DE9F843076905682037B7F5001F84
:100E500024BF0023836183690446894673B1C7F3C5
:100E60000808B8F1000F39D141690133836139B9FC
:100E70002B89B3EB571F31D80023A36104200BE06B
:100E80006B89013B13EA572328D12846FFF794FDCD
:100E90000128064602D80220BDE8F883421C01D191
:100EA0000120F9E7EB69834212D8B9F1000FE3D0D2
:100EB00061692046FFF71BFE0646A8B10128EAD06B
:100EC000431CEDD001462846FFF78DFF0028E7D1EF
:100ED000666131462846FFF7C4FAA06138354544BB
:100EE0002761E5610020D7E70720D5E72DE9F04F1E
:100EF000002185B00446D0F80080FFF7B7FD814699
:100F0000002840F08C804FF0FF334FF0FF0AE3627F
:100F100057460093A1694046FFF715FB814600281C
:100F20007DD1E5692E78002E7DD0EA7AE52E02F09B
:100F30003F03A37103D0100704D50F2B04D0009BEF
:100F4000E36252E00F2B57D194F82B30590642D46C
:100F5000720648D5236995F80DA0E36206F0BF0636
:100F60006B7B534541D1EA7EAB7E53EA02233CD1F1
:100F70002F78D8F80CB007F03F077B1E0D275F4392
:100F80002A4B012113F8012BA81815F8029040787C
:100F900049EA002959B37F2F039326D8484600F029
:100FA000C7FE7A1C02903BF81700019200F0C0FEC9
:100FB0000299814219D1019A039B494617461C4A5E
:100FC0009A42DFD12B785B0603D511B13BF817307D
:100FD0005BB9013EF7B200212046FFF732FF8146A0
:100FE000002897D01BE0B742BAD0FF27F3E74FF6AF
:100FF000FF729145E3D0F8E727B92846FFF73CFA9E
:1010000050450CD094F82B9019F0010997D10B2280
:1010100004F120012846FFF716FA00288FD1484630
:1010200005B0BDE8F08F4FF00409F8E79CB600006A
:10103000A9B600002DE9F84FFF260768054634469B
:101040004FF004094FF6FF78A96919B9B9F1000FFB
:101050006FD05FE03846FFF776FA8146002859D115
:10106000E8690378002B6DD0C27AE52B02F03F02CD
:10107000AA7154D02E2B52D022F0200108294ED034
:101080000F2A51D15A0648D503F0BF042B69467B7D
:10109000EB62437BB34242D1C27E837E43EA0223AA
:1010A0001BB2002B3BD10278F968DFF8A0E022F0F8
:1010B0004002013A4FF00D0C0CFB02FC4FF001090D
:1010C0001EF801AB00EB0A0292F801B010F80A20FA
:1010D00042EA0B22B9F1000F23D0BCF17F0F1ED8DA
:1010E00021F81C2091460CF1010C01330D2BE7D1A6
:1010F00003785B0605D5BCF17F0F10D8002321F8DB
:101100001C30013CE4B200212846FFF79AFE8146DC
:10111000002899D00023AB610DE0A342B9D0FF2491
:10112000F1E74245E1D0FAE744B9FFF7A5F9B0424B
:1011300004D14FF000094846BDE8F88F4FF0FF3367
:10114000EB62F8E74FF00409E4E700BF9CB600004B
:101150002DE9F04F85B00368019306468A4611F8E1
:10116000013B2F2BFAD05C2BF8D00021B1609AF80C
:1011700000301F2B00F2CD808023304686F82B30C4
:1011800005B0BDE8F04FFFF771BC7F2807D8924A41
:1011900012F8013B1BB19842FAD106204EE0802D97
:1011A000FBD02BF815000135B7E033F8022D202ACB
:1011B00002D02E2A40F0D480013DCEE00246D7E096
:1011C000C84505D2AB4249D1B9F10B0F3ED102E07F
:1011D000B9F10B0F35D144F003044FF00B0996F829
:1011E0002030E52B04BF052386F82030B9F1080F25
:1011F00004BFBF00FFB207F00C030C2B03D007F0B5
:101200000303032B01D144F00204A50707D4F80718
:1012100048BF44F01004790748BF44F0080486F83A
:101220002B403046FFF762FE96F82B3000285FD047
:10123000042803D113F0040F08BF052005B0BDE852
:10124000F08FAB4202D044F00304C8D8BF00FFB215
:101250002B464FF00B094FF00808B9E07F2812D950
:1012600044F0020240F2B5110393029200F02CFD0B
:1012700010F0800FDDE902230FD000F07F00574906
:10128000085C144628B1564911F8012BF2B182428C
:10129000FAD144F003045F2011E0FF28F1D909F1ED
:1012A000FF31884503D344F00304C84690E006EBC1
:1012B0000801040A81F8204008F10108144606EBF1
:1012C000080208F1010882F8200081E0A0F1410243
:1012D00092B2192A02D847F00207F0E7A0F16102A2
:1012E00092B2192A9EBF203847F0010780B2E6E784
:1012F0005A07A3D4B379DB066CD5019B03F13801FF
:101300003369C3F308031944019B1878FFF7E1F828
:10131000B0603368D3F80CB000251AF8010B68B13F
:1013200040F2B51100F0F0FC00283FF436AF1F2862
:1013300004D92F2802D05C287FF427AF52461378B7
:101340002F2B924602F10102F9D05C2BF7D0202816
:1013500034BF042400240BEB4503002D7FF425AF9C
:1013600000220BEB45032BF81520002D3FF415AFA1
:101370003BF81210202902F101003FF41FAF0AB917
:101380002E2901D144F0030433F8021D2E2901D087
:10139000013DF9D106F1200306F12B01202003F8CD
:1013A000010B9942FBD14FF000084FF00809474666
:1013B0003BF81200531C00283FF411AF202805D041
:1013C0002E287FF4FDAEAB423FF4FEAE44F00304A2
:1013D0001A46EDE7052031E7B3B600001CB6000061
:1013E000BCB6000070B5C3780446002B45D1237805
:1013F000032B39D12379012B36D104F1380604F5BA
:101400000E723346002503F8015B9342FBD155234E
:1014100084F83632AA2384F83732522341227221CB
:1014200084F8383084F83930612384F83A3084F80D
:101430003B2084F81E2284F81F3284F81C1284F8A2
:101440001D1204F50870A169FEF7F5FF616904F546
:101450000970FEF7F0FF626A60780132626301236F
:10146000314600F0D2FC257100221146607800F070
:10147000E0FC003018BF012003E0FFF744F800282B
:10148000B5D070BD2DE9F04F90F82B4014F0A004BA
:1014900089B0054640F08F800668F26832F8143053
:1014A000002B66D105F120070C22394605A8FFF76D
:1014B00007F89DF81F30DB0740F186804023DFF8F6
:1014C000448285F82B304FF0010A0B2205A93846DB
:1014D000D6F80C90FEF7F4FFBAF1050F5AD9A9F12E
:1014E0000201534631F8022F002A44D10DF11300B6
:1014F000072203F00F0C0CF13001392988BF0CF1E1
:1015000037010F2B00F8011902F1FF324FEA1311D6
:1015100042D808AB13447E2103F8141C05F11F01C7
:1015200008460023934206D010F801CFBCF1200FEB
:1015300003F1010E32D1072A9CBF08A8801803F1DD
:10154000010396BF10F8140C20200132072BC85459
:10155000F1D92846FFF7CAFC814678BB0AF1010A97
:10156000BAF1640FB1D14FF00709484609B0BDE8A0
:10157000F08F013492E7102002F0010C0CEB4303D2
:1015800013F4803F18BF83EA080301384FEA520280
:10159000F2D1A7E75346A9E70B46AAE77346C1E78E
:1015A000804601212846FFF74CFC814610B3B9F173
:1015B000040FD8D0D9E74FF00609D6E70428D4D1D4
:1015C0009DF81F3085F82B309DF81F30D5F800A00E
:1015D0009B0748BF0C344FF00001284649BF0D233C
:1015E0000124B4FBF3F40134FFF740FA81460028EC
:1015F000DDD18046A9695046FEF7A5FF8146002847
:10160000D5D1EB691B78E52B01D0002BC8D108F1AF
:1016100001084445C5D1013C55D029692846A1EBB4
:101620004411FFF723FA814600289ED13846FEF781
:1016300023FF4FF6FF780190A9693046FEF783FF3C
:101640008146002891D1EB69019AD6F80CE05A73D3
:10165000E1B24FF00F024FF00D0CDA72DFF8A8A0E4
:1016600018734A1E0CFB02F29876D87684464045E1
:101670001AF8019B18BF3EF8120003F8090003EBAB
:10168000090B0CF1010C18BF01324FEA1029002898
:1016900008BF4046BCF10D0F8BF80190E7D14045E3
:1016A00002D03EF812200AB941F04001197001231E
:1016B000F37000212846FFF7C4FB814600287FF421
:1016C00054AF013CB8D1A9693046FEF73CFF8146D2
:1016D00000287FF44AAFEB69014603F1200203F8CA
:1016E000011B9342FBD10B223946E869FEF7E8FE65
:1016F00095F82B30EA6903F0180313730123F37094
:1017000033E700BF211001009CB60000F0B585B0A2
:10171000CDE9001003A814460391FEF7BCFE051E98
:1017200028DB154F57F825604EB1306900F0B8FA44
:1017300018B90224204605B0F0BD0023337001998A
:1017400079B9019B47F82530002CF3D001A900227C
:101750006846FEF755FF044601460198FFF772FA06
:10176000E8E7002301F8103BE8B200F08BFA00280C
:10177000E7D1DEE70B24DDE7800300102DE9F0411F
:10178000D0B0174601910446002800F0DB8002F03B
:101790003F052A4602A901A8FEF732FF06460028A7
:1017A0004BD1029B019903930FAADA6003A8FFF7BC
:1017B000CFFC20B99DF93730002BB8BF062017F0B9
:1017C0001C0F00F09F80002842D0042835D103A8C8
:1017D000FFF758FE88BB45F00805029BDDF828801E
:1017E00018784146FEF775FE074600F034FB0146C7
:1017F00008F10E00FEF71FFE0A9B02982022DA7203
:101800000A990022FEF773FE0A9B00221A775A7784
:101810009A77DA77029B0121D97017B3394603A86A
:10182000D3F83480FFF7D7F938B941460298FEF76C
:101830008AFE029B013F5F6198B100232360064648
:1018400031460298FFF7FEF9304650B0BDE8F0810E
:101850009DF8123013F0110F5ED178076CD4390760
:10186000BBD4DDF808800A9FD8F834302362676261
:1018700098F800002907394648BF45F04005FEF7B3
:1018800028FEA06007F11C00FEF7CDFDB8F8063079
:10189000A38004F128070023E060C4F800802574C9
:1018A0006374E361636104F50A713A4602F8013B2F
:1018B0009142FBD1AA06C3D5E568002DC0D0B8F887
:1018C0000A80A16865614FEA4828A84526D3002010
:1018D000A1610028B1D1C5F30803002BB0D0DDF819
:1018E00008804046FEF7BDFD50B300EB5522E26193
:1018F0000123394698F8010000F073FA00289FD0C0
:1019000001209AE7002898D19DF81230DA0615D404
:10191000BF07A6D5D807A4D507208EE72068FFF714
:101920004BF801280146A5EB080503D9431CCCD18F
:101930000120CDE70220CBE708207EE704207CE7EA
:1019400002207AE709267FE72DE9F04F9B4685B014
:1019500000238946CBF8003003A904461646FFF75A
:101960007CF9054608B9657C25B129460398FFF73F
:1019700069F908E0257C15F0010508D107210398D5
:10198000FFF760F90725284605B0BDE8F08FE3684A
:101990006769DF1BB74204F1280328BF374600936D
:1019A0002FB939460398FFF74DF93D46EBE76269D9
:1019B000C2F30803002B76D1039B5B89013B13EA3A
:1019C000522313D12AB9A068012809D802256574C9
:1019D000CBE7A16920680193FEF7EEFF019BF3E7D7
:1019E000421C02D101216174C0E7A061DDF80CA0A6
:1019F000A16901935046FEF734FD019B20B90225F1
:101A0000657429465046B2E7B7F5007F03EB00083E
:101A10002BD37E0ABAF80A209AF80100991991424C
:101A200088BFD61A33464246494600F0DAF9002804
:101A3000D8D194F91030002B0BDAE069A0EB080044
:101A4000B04206D24FF40072009909EB4020FEF735
:101A500037FD7602DBF800303344CBF800306369A1
:101A6000BF1BB1441E4466619AE7E269424518D043
:101A700094F91030002B0BDA012300999AF8010039
:101A800000F0C3F90028ADD1237C03F07F03237459
:101A90000398009940780123424600F0A2F90028FB
:101AA000A0D1C4F81C806169009BC1F30801C1F595
:101AB0000076BE4228BF3E46324619444846FEF7ED
:101AC000FFFCC7E7F7B501A90446FFF7C6F80546CE
:101AD000002843D1237C13F040053FD01B0614D5CA
:101AE0000198E2694078012304F1280100F08DF9A2
:101AF00038B101210198FFF7A5F80125284603B068
:101B0000F0BD237C03F07F03237400F0A4F9216A65
:101B100007460198FEF717FD0546F8B9666AF37A9D
:101B200043F02003F372A26820683146FEF7DFFC21
:101B3000E16806F11C00FEF77EFC394606F116004E
:101B4000FEF779FC0198B5740123F574C370FFF7B3
:101B500049FC237C23F04003054623742946019861
:101B6000FFF770F8CAE737B50546FFF7ABFF044645
:101B700050B901A92846FFF770F8044620B928603B
:101B800001460198FFF75EF8204603B030BD30B53E
:101B9000C5B005460191002833D0002202A901A852
:101BA000FEF72EFD044690B9029B2B6003AADA6073
:101BB00001992846FFF7CCFA044620BB95F92B3053
:101BC000029C002B0BDBAB79DB0603D4052400233E
:101BD0002B600FE02078E969FEF77BFCA860E388C2
:101BE000AB8000212846FEF741FF04280446EDD0D3
:101BF0000028ECD121460298FFF724F8204645B092
:101C000030BD0924FAE70428E0D0E0E737B501A9A0
:101C10000546FFF722F8044620B9286001460198DE
:101C2000FFF710F8204603B030BDF0B5C3B00E4644
:101C300069460546FFF711F8044628B95EB9014622
:101C40002846FEF713FF044600982146FEF7FAFFE8
:101C5000204643B0F0BD009B01AADA602846FFF79A
:101C6000E9F910F0FB070446EED131462846FFF7AC
:101C70001CF839462846FFF7E4F8042814BF044648
:101C80000024E1E710B501200C46044902F01EF8DB
:101C90002060003018BF012010BD00BF8803001075
:101CA00008B502F085FA012008BD08B540F6B83144
:101CB00002F070F9431E5842584108BD00231A46ED
:101CC000194601F055BFFFFF7F2810B501D880B23B
:101CD00010BDB0F5803F13D240F2B51399420FD139
:101CE0000849002231F8024B844293B203D103F138
:101CF0008000C0B2ECE70132802AF3D11346F6E748
:101D00000020E5E772B900007F280DD940F2B51335
:101D1000994208D1FF2806D800F10040034B8038D3
:101D200033F8100070470020704700BF72B9000000
:101D3000B0F5803FF0B521D21E4A1F4983B2B0F5FD
:101D4000805F28BF0A46141D34F8042C2146A2B136
:101D5000934212D334F8025C2E0AEDB2AF18B842A7
:101D600022DA082E09D8DFE806F0050A1012141648
:101D7000181A1C00801A34F810301846F0BD981A52
:101D800000F001001B1A9BB2F7E7103BFBE7203B7A
:101D9000F9E7303BF7E71A3BF5E70833F3E7503B49
:101DA000F1E7A3F5E353EEE70434002ECCD101EBC9
:101DB0004502C8E7C4B60000B6B8000010B5044636
:101DC00000F09CFC34B900F00FF9044600F0B0FCC0
:101DD000204610BD0424F9E708B900F0A3B9042097
:101DE0007047F8B507460C4615461E4600F086FCBF
:101DF0004FB92046F2B2294600F09CF9044600F0A3
:101E000097FC2046F8BD0424F9E7F8B507460C46D0
:101E100015461E4600F072FC4FB92046F2B2294624
:101E200000F0CEF9044600F083FC2046F8BD0424FF
:101E3000F9E770B506460C46154600F05FFC46B95A
:101E40002046294600F010FA044600F071FC2046B6
:101E500070BD0424F9E70020704738B500F0B8FCE5
:101E600000F5FA75FF2003F059FBFF2003F056FB45
:101E7000FF28044603D000F0ABFC8542F5D820468D
:101E800038BDFFFF08B502F05DFFFFF7E6FF02F087
:101E900061FF034A137843F00103137008BD00BFCC
:101EA0000800001038B505460C46FFF7D6FFFF289E
:101EB00021D1204603F032FBFD2C1ED0AC1C05F2D4
:101EC000022514F8020C03F029FB023414F8030C69
:101ED00003F024FBAC42F4D1FF2003F01FFBFF20F2
:101EE00003F01CFBFF2003F019FB00F01F00431F51
:101EF0005842584138BD0020FCE70120FAE737B5C9
:101F0000020604460D4607D500217720FFF7F7FFAC
:101F1000012831D804F07F0402F01CFF02F012FF08
:101F2000FFF79BFFFF282BD1402C27D0482C0CBF5C
:101F3000872301232A0E8DF801202A0C8DF8022018
:101F400006212A0A68468DF800408DF803208DF896
:101F500004508DF8053003F0EBFA4C2C02D1FF2031
:101F600003F0DCFA0A24FF2003F0D8FA030603D5B5
:101F7000013C14F0FF04F6D103B030BD9523D9E73E
:101F8000FF20F9E770B5054600F022FC00F1640679
:101F9000FF2003F0C3FA044600F01AFC864201D386
:101FA000FF2CF5D0FE2C0CD14FF40071284603F025
:101FB000C2FAFF2003F0B2FAFF2003F0AFFA0120CB
:101FC00070BD0020FCE7FFFF38B5064D2C78E4B269
:101FD00002F0C8FE18B104F0FD042C7038BD44F0C6
:101FE0000304FAE7080000102DE9F341FFF7ECFFC6
:101FF0004A4B1A7812F0020F1E4604D01878C0B26D
:1020000002B0BDE8F081C82003F046FA0A25FF209F
:10201000013D03F083FA15F0FF05F8D102F092FEBE
:1020200029464020FFF76BFF0128044671D100F0DC
:10203000CFFB4FF4D57100F57A774820FFF75FFFAB
:10204000012848D101ADA8460424FF2003F066FA18
:10205000013C14F0FF0408F8010BF6D19DF806309E
:10206000012B56D19DF80730AA2B52D100F0B0FBBE
:10207000874206D94FF08041E920FFF740FF002852
:10208000F4D100F0A5FB874243D900217A20FFF765
:1020900036FF00283DD10424FF2003F03FFA013C25
:1020A00014F0FF0405F8010BF6D19DF8043013F08D
:1020B000400F14BF0C240424194B1C7002F04AFE7C
:1020C0004CB3337845F6C05003F0FE03337003F091
:1020D000E3F9307893E72946E920FFF710FF02285B
:1020E00036BFE9254125022400F072FB874205D95D
:1020F00000212846FFF703FF0028F5D100F068FB18
:10210000874206D84FF400715020FFF7F8FE0028F0
:10211000D2D00024D0E7FFF7B5FEDAE708000010C0
:10212000D803001008B5FFF74FFF014B187808BD22
:102130000800001070B5144605460E46FFF744FF30
:10214000002C35D01C4B1B78DA0733D402F0FAFD93
:102150001A4B1B781B0758BF7602012C314611D150
:102160005120FFF7CCFE38B94FF400712846FFF735
:1021700009FFB0FA80F4640902F0ECFD201C18BFDE
:10218000012070BD5220FFF7BAFE0028F4D14FF4B1
:1021900000712846FFF7F6FE28B1013C14F0FF0459
:1021A00005F50075F3D100214C20FFF7A8FEE3E709
:1021B0000420E6E70320E4E708000010D80300103D
:1021C00070B5144605460E46FFF7FEFE002C41D0C2
:1021D000234B1A78D0073FD41B7859073ED402F01E
:1021E000B1FD204B1B781A0758BF7602012C11D184
:1021F00031465820FFF783FE50BBFE212846FFF7EB
:1022000051FEB0FA80F4640902F0A4FD201C18BF4E
:10221000012070BD13F0060F03D02146D720FFF731
:102220006EFE31465920FFF76AFE0028ECD1FC21F2
:102230002846FFF737FE28B1013C14F0FF0405F5EE
:102240000075F4D1FD210020FFF72CFE0028DBD122
:102250000124D9E70420DCE70320DAE70220D8E7ED
:1022600008000010D80300107FB506460D46FFF7A2
:10227000ABFE052E15D12C78012C10D02CB1022CE0
:102280000AD00424204604B070BD02F06BFD002883
:10229000F8D0FFF7F7FDF5E702F064FD6870002461
:1022A000F0E76F4B1C7814F0010440F0D7800E2E3D
:1022B00000F2D280DFE806F008134E52D0D0D0D022
:1022C000D0D09DA1B0B3C40002F03CFDFFF7C5FD26
:1022D000B0F1FF0418BF012402F03CFDD2E7002159
:1022E0004920FFF70CFE044608B10124F4E7102151
:1022F0006846FFF747FE0028F7D09DF800309DF8AC
:1023000008109B09012B9DF8093006D15A1C02EBDD
:10231000012292B292022A60DEE79DF807209DF822
:102320000A00920002EB91129DF80610890201F456
:10233000406101320A449DF805105B0001F00F0175
:1023400001EBD01103F006030B44073B02FA03F341
:102350002B60C1E74FF400732B80BDE7414E31780D
:1023600011F004011CD00021CD20FFF7C8FD00288A
:10237000BBD1FF2003F0D2F810216846FFF702FE20
:102380000028B2D03024FF20013C03F0C7F814F03D
:10239000FF04F8D19DF80A301A0910239340D7E7BB
:1023A0004920FFF7ACFD044600289ED11021684665
:1023B000FFF7E8FD002898D032789DF80A309DF8A4
:1023C0000B1092070AD55B009DF80D2003F07E03E9
:1023D00003EBD11392090133013ADFE7CA0002F09F
:1023E0001802C3F3840302EB5112013302FB0333DF
:1023F000AEE71C4B1B782B706EE700214920FFF7DE
:102400007EFD00287FF471AF10212846FFF7BAFD4A
:10241000B0FA80F464095FE700214A20EFE7002169
:102420007A20FFF76CFD044600287FF45EAF2E1D76
:10243000FF2003F073F805F8010BAE42F8D14BE72B
:102440000021CD20FFF75BFD00287FF44EAFFF2079
:1024500003F064F84021D8E704243DE7032411E7A2
:1024600008000010D803001008B5064605F025FE48
:1024700000240546A54200DCFEE7315D002003F0A4
:102480004FF90134F6E7FFFF02280CD9074B1B6810
:102490005A68824207D09A68824204D0DB681B1ACD
:1024A0005842584170470120704700BFAC010010EE
:1024B0000EB4024800B5FFF7D7FF00BF98BA00007E
:1024C00008B50148FFF7D0FF72BA0000002070473E
:1024D00000207047F8B504460E461546FFF7D4FFB6
:1024E00048B3164B1B68DB68A34210D0A31E5C42A6
:1024F0005C4102F075FA0746002003F0C5F8022F90
:1025000017D1B0B1ACB9A54203DC2846F8BD01240F
:10251000EFE7315D4FF0FF32002003F063F9013443
:10252000F1E7315D002003F0FBF80134A542F8DC4F
:10253000EBE70024FAE70248FFF796FFAC01001032
:10254000EFBA000038B50C46FFF79EFFA8B102F0C5
:1025500047FA0546002003F0A1F8022D08D138B152
:102560004FF0FF322146002003F0ECF8012038BD87
:102570002146002003F00CF9F8E70148FFF774FF4B
:10258000BDBA0000F8B504460D4600F00BF9061977
:1025900041EB050702F024FA02280CD100234FF486
:1025A0007A72AB4208BFA24205D22046294603F008
:1025B00091FD02F0EFF800F0F5F8B94208BFB04223
:1025C000F9D3F8BD4FF47A73A0FB0301FFF7DABF2C
:1025D00030B585B002F034FB02F0CEFB8DF80C0074
:1025E00002F0D0FB8DF80D0002F0D2FB8DF80E004A
:1025F00002F0D4FB00248DF80F0004AA04F00303BA
:102600001344013413F8040C02F094FC3220FFF759
:10261000D9FF202CF1D1294B18680023194602223A
:10262000406805F01FFCFDF7FDFD002501464FF455
:10263000E132002002F0E4FF0095214B214A012104
:10264000204601F025FA204B009504461F4A01213F
:10265000802001F01DFA22460146284603F028F8A2
:1026600045F6C05002F02EFF012219491948FFF724
:102670004DF8194A194B1A49A84208BF1346194A7E
:1026800019481A4D05F050FBFDF7CCFD184B00938F
:102690000246184B1849022002F084FD0224E1B2E0
:1026A000022002F03DFE18B12146284605F03CFB11
:1026B0000234B4F5807FF2D105B030BDAC0100101A
:1026C0009C0400107C040010A407001024070010D4
:1026D000B1B30000EC04001033BB000051BB00009C
:1026E00078BB000022BB0000C9BB0000E9BB0000B2
:1026F0002C040010DC030010801A060010B50A4CF0
:10270000236823B90949012001F0E0FA206002F0B2
:1027100067F9022806D120684FF0FF31BDE810406C
:1027200001F038BC10BD00BFF4070010F80700101E
:1027300010B502F055F9022808D1054800231A46C1
:1027400019460068BDE8104001F012BA10BD00BF84
:10275000F4070010074A08B5136800210133084642
:10276000136002F041FC00210846BDE8084002F079
:1027700027BC00BF4808001008B5074A0749B0FB4E
:10278000F1F10020013902F0E5FB0021044A08467E
:10279000BDE8084002F002BC5527000040420F008F
:1027A0000087930370B5084E002002F015FC054623
:1027B0000020346802F010FC8542F5D8034B00215C
:1027C000E3FB040170BD00BF4808001000879303BD
:1027D00008B5FFF7E7FF4FF47A72002303F07AFCA5
:1027E00008BD70B5054608460C4605F066FC26187F
:1027F000B44205D128460A21BDE8704002F090BFDE
:1028000014F8011B284602F08BFFF1E70C4600206C
:10281000044908B5FFF7E5FF21460020FFF7E1FF77
:10282000FEE700BF42BD000008B502490020FFF7E7
:10283000D8FFFEE708BD0000024B0022C3F8C0200D
:1028400030BF704700C00F4008B50C4600200A4951
:10285000FFF7C7FF09490020FFF7C3FF0849002021
:10286000FFF7BFFF07490020FFF7BBFF214600200D
:10287000FFF7B7FFFEE700BF10BC000062BC00001E
:10288000A5BC0000D9BC0000034B0360034B0B60E8
:1028900064231360704700BFE80900105808001057
:1028A00008B5FFF77FFF024B1B68C01A08BD00BFC9
:1028B0005008001010B588B16023400080B20204B7
:1028C000A3F10603F9D50649002231F8024B013283
:1028D000A04228BF0133052AF7D198B210BD00BF2E
:1028E000162B010008B50821022002F0BDFA02F003
:1028F000F3FA0028F7D00621022002F0D9FA02F0FC
:10290000FDFA0721022002F0D3FA02F005FB502065
:1029100002F0FAFD262002F0F7FD482002F0F4FD57
:102920000721022002F0C4FABDE8084002F0E6BA2E
:1029300038B505460C460821022002F095FA02F04F
:10294000CBFA0028F7D00621022002F0B1FA02F0FB
:10295000D5FA0721022002F0ABFA02F0DDFA0220DC
:1029600002F0D2FD284602F0CFFD200A02F0CCFD95
:10297000E0B202F0C9FD0721022002F099FABDE899
:10298000384002F0BBBA38B504460821022002F0F4
:102990006BFA02F0A1FA0028F7D00621022002F01B
:1029A00087FA02F0ABFA0721022002F081FA02F066
:1029B000B3FA032002F0A8FD204602F0A5FDFF2097
:1029C00002F0A2FD0546FF2002F09EFD072104460D
:1029D000022002F06DFA02F091FA44EA052080B27A
:1029E00038BD70B506460D460821022002F03CFABB
:1029F00002F072FA0028F7D00721022002F058FAFC
:102A000002F07CFA0621022002F052FA02F084FA67
:102A10000024AC4207DB0621022002F049FA02F052
:102A20006DFA002070BD305D02F06EFD08210220BD
:102A300002F01AFA02F050FA0028F7D00134E8E761
:102A4000411C38B589B205460720FFF771FF062003
:102A5000FFF799FF294604460720FFF769FF062084
:102A6000FFF791FF05460620FFF78DFF15F4004F95
:102A700008BF044645EA044038BD10B501460720AA
:102A8000FFF756FF0620FFF77EFF04460620FFF7FC
:102A90007AFF44EA004010BD08B501460720FFF761
:102AA00047FF0620BDE80840FFF76DBF10B50C4694
:102AB00001460720FFF73CFF21460620BDE81040F5
:102AC000FFF736BF2DE9F84F8146884600254FF6BF
:102AD000FF77A84501DCBDE8F88F6B009A1C09EB75
:102AE000020B39F8024039F81500220405F1020AF8
:102AF00008D42646C5B2013EB6B2BE4212D104EB9E
:102B00000A05E6E74B44C4F30E04B3F804A003350A
:102B1000C6B2013CA4B2BC42DBD051463046FFF7FE
:102B200007FFF6E73BF8021F2846FFF701FFE2E741
:102B30002DE9F04F81468DB041F60960FFF7ACFFFB
:102B40000026A34F0790314604203E70FFF7F0FEA9
:102B500040F60204B246B046D9F81420D9F80C3039
:102B60009A4203D09A4B1B78032B26D1994D9A4851
:102B70009A4F5246214605F0D7F82B68986803F023
:102B8000EDFC4FF400725146944804F095F800268D
:102B9000202138462036FFF724FFB442F8DC8C4B66
:102BA0001C78002C00F0F1808D4805F043F9484670
:102BB000FEF7D9FF0DB0BDE8F08F0BAB4FF40072FC
:102BC0008649DFF818B24846FEF7BEFE0B9D002D81
:102BD000C2D07F4B1B78032BBED0079B99070BD429
:102BE000202D28BF20255846E9B2FFF7FAFE0B9B9F
:102BF0005B1BAB440B93A8443B78012B0ED1022303
:102C0000414678483B7005F08FF80020FFF7BBFE87
:102C100040F0080189B20020FFF78AFE3B78022BC2
:102C20000BD10020FFF7AFFE020706D441466E48E5
:102C300005F07AF803233B70C8E73B78002BC5D139
:102C40004645C3D80920FFF79EFE684B1A780B2A29
:102C5000054653D0002A0CBF4FF400724FF4805247
:102C600041F606601644FFF717FF47F2656295428A
:102C700082465E4B45D101221A7040F602040520BF
:102C8000FFF781FE069041F60560FFF705FF574B01
:102C90001B78092B024608BF820004200992FFF727
:102CA00072FE099A0890104602F088FF46A3D3E905
:102CB000002302F0FDFF069ADFF844C1059512F0EB
:102CC000010F4B4A069B08BF9446484A1578494A6B
:102CD00023F0010352F825209BB2CDE90001CDE994
:102CE00003C20293089A44484FEA982105F01CF861
:102CF000384B1B68986803F031FC67E74FF40072AB
:102D0000AEE744F25412954201D10722B4E744F2EF
:102D10004412954201D10822AEE745F24D72954228
:102D200001D10A22A8E744F66772954201D1022236
:102D3000A2E746F24C62954204D109221A704FF480
:102D400040549CE744F63452954201D1062293E761
:102D500044F65452954201D10B228DE725F0190219
:102D600092B24FF6E2718A4201D1052284E74FF612
:102D7000E4718A4201D104227EE74FF6E6718A426D
:102D800001D1032278E70022D8E72046FFF7FBFDB8
:102D900040F0080189B22046FFF7CAFD17480F4CE2
:102DA00004F0C2FF2B68986803F0D8FB0020FFF7FF
:102DB000EAFD03077FF5F8AE02212046FFF711FE7A
:102DC000F4E700BFAFF30080FCA9F1D24D62803F71
:102DD00058200010AC010010E6BD0000450A0010AC
:102DE00002BE00006BBD000092BD0000440A00104E
:102DF00066BD00000C000010BCBD000005BE000058
:102E00005FBD0000031D00F8011B83424FEA112142
:102E1000F9D1704738B50E20334D02F0B5FA0224CF
:102E200007232B606C60FDF7F9F94FF47A73B0FB60
:102E3000F3F0B0FBF4F2B2F5E16F51D802221221A7
:102E40002C61002001F0C5FF02220F21002001F0BB
:102E5000C0FF02221121002001F0BBFF0821022047
:102E600002F002F801F0CAFF0721022002F020F868
:102E700002F052F80621022002F01AF802F03EF8A1
:102E8000022001F087FC0521022002F011F802F077
:102E900043F8022001F07EFC0521022002F008F830
:102EA00002F02CF80821022001F0DEFF02F014F8F5
:102EB0000028F7D00721022001F0FAFF02F01EF8E7
:102EC000FFF710FD0020FFF75EFD00210846FFF729
:102ED0002FFD40F624010020FFF72AFD002038BD19
:102EE000A31CDCB2A5E700BF0080084038B54AF655
:102EF000AD310D20FFF71CFD47F657610E20FFF79F
:102F000017FD0D20FFF73FFD4AF6AD3398420DD077
:102F10000D20FFF738FD04460E20FFF734FD214653
:102F20000246204804F000FF012038BD0E20FFF7C4
:102F30002AFD47F657639842EAD100210D20FFF79A
:102F4000F7FC00210E20FFF7F3FC0120FFF71BFD2B
:102F5000154BC0F3031133F8114074B1134D1449EC
:102F60002B682246D86803F03DFC40F21D439C428A
:102F700007D0104804F05EFFD6E70F4804F0D4FEF7
:102F8000D2E748F630410320FFF7D2FC40F60C416F
:102F90000B20FFF7CDFC2B680848D96803F09AFC9A
:102FA0000020C2E748BF0000D4BF0000AC01001001
:102FB00083BF000091BF0000A0BF0000CBBF000096
:102FC0002DE9F04FA24FA34EDFF894B285B0002454
:102FD0008146A1483C7004F02DFF4CF230410320A3
:102FE000FFF7A6FC2046FFF7CEFC40F0040189B2B3
:102FF0002046FFF79DFC02214CF21A00FFF756FD18
:1030000043F291519548FFF75DFD2046FFF7BBFC69
:1030100040F4A04189B22046FFF78AFC4FF480615A
:103020000D20FFF785FC21460F20FFF781FC34219E
:103030000A20FFF77DFC0520FFF7A5FC20F001002A
:1030400083B248F280010C204FF002080293A2469E
:10305000FFF76EFC86F800803B78032B16D133789F
:10306000022B40F0DA800920FFF78DFC7C4D7D4E6D
:103070007D4F044614F1FF3480F0B180FFF736FF36
:103080007A4805B0BDE8F04F04F0D4BE0920FFF740
:103090007AFC022878DD3378022B6BD140F20115DF
:1030A000A842A8BF28466E4A451E00230820039365
:1030B0000192FFF768FC019A039B010A02F8021BC8
:1030C00001339D4202F8010CF0DC6D004B462A46AC
:1030D0000121584603F042FD2C44A4EB0A03B3F54A
:1030E000805FB9D3A10A624804F01EFE3378022B38
:1030F0000AF5805A06D10820FFF7A2FC01465D4878
:1031000004F012FE32785C4B5C4953F822305C4A82
:103110005C48B8F1020F08BF0A46029904F004FEA9
:1031200033780193022B1FD10C20FFF7A6FC02F08D
:1031300045FD45A3D3E9002302F0BAFD02460B4644
:10314000514804F0F1FD0C20FFF71DFC20F4FE4275
:1031500022F07F0248F2800192B28A4205461ED1D7
:1031600001464A4804F0E0FD494B1B68986803F0AB
:10317000F5F971E70820FFF706FC8BF80000000A5C
:103180008BF801000125A0E73B78012BA5D10F208A
:10319000FFF7F9FB810744BF03233B709DE70C2039
:1031A000FFF7C6FB05F4FE40FFF784FB2A06A0F1FB
:1031B0005F0806D54146374804F0B6FD4FF00108D8
:1031C000D2E705F07F000002FFF774FB4146A0F153
:1031D0005F02314804F0A8FDDDF80480C4E7082050
:1031E000FFF7D1FB030A2B706870A4B90F20FFF71B
:1031F000CAFB0F20FFF7C7FB430709D5384604F089
:1032000019FE01224B460121284603F0A7FC31E7B5
:10321000304604F00FFE0222F4E700221146484631
:1032200003F062FBA4F108011C48FFF7EBFDA4F1D9
:1032300024011B48FFF7E6FD4B4601222C211948CB
:1032400003F08CFC1AE700BFFCA9F1D24D62503F9D
:1032500058200010440A001028BE0000F4BF0000EF
:10326000450C0010B7BE000096BE000002BE000074
:1032700039BE000042BE00000C0000105FBD00001F
:1032800066BD000048BE000054BE000063BE0000E2
:10329000AC0100107ABE000084BE000040000010A7
:1032A000640000103C00001030B50546ADF50B7D04
:1032B000E1B9014601226846FEF760FA2946044654
:1032C000134804F031FD34B96846FFF731FC20465D
:1032D0000DF50B7D30BD29460E4804F025FD0E4846
:1032E000214604F021FD4FF0FF34F0E70B4903F0D5
:1032F00071FA294604460A4804F016FD24B1204616
:10330000FFF75EFE0024E2E729460648E9E700BF32
:10331000D9BE0000E7BE000006BF000016BF0000D7
:1033200019BF000029BF00002DE9F0418CB01649FB
:103330006846FEF72CFC18BB144DDFF85C8005F1E5
:10334000160712496846FEF770FCB0B9AB7DA3B111
:103350002B7ADB06F5D44146384604F0DBFE002824
:10336000EFD00B4E0B4834687F2200EBC410394677
:10337000013404F0BCFE3460E3E76846FEF746FC27
:103380000CB0BDE8F08100BF652B0100480E0010B5
:10339000E01E0010E00E0010672B0100014B1868C2
:1033A000704700BFE01E0010044B1B68834286BFBD
:1033B000034B03EBC0100348704700BFE01E001032
:1033C000E00E0010B1B3000008B50221084601F07C
:1033D0006FFDBDE8084001F09FBD08B50221084619
:1033E00001F066FDBDE8084001F088BD08B5042184
:1033F000022001F05DFDBDE8084001F08DBD08B57B
:103400000421022001F054FDBDE8084001F076BD22
:1034100010B50446FFF7EAFF812002F07FF820464E
:10342000BDE8104002F07AB840F0100002F076B823
:1034300010B5044600F00F0002F070F82009BDE856
:103440001040FFF7F1BF40F0B00002F067B838B5A8
:1034500005460C46FFF7CAFF2846FFF7F4FF204653
:10346000FFF7E6FFBDE83840FFF7C9BF38B50024D5
:10347000FFF7BCFF0021E0B2FFF7E9FF8025002045
:1034800002F04CF8013DFAD10134082CF0D138BDDE
:1034900008B5FFF7ABFF0121022001F009FD01F0A3
:1034A0003BFDFFF791FF0021022001F001FD01F03B
:1034B00033FD0021022001F0FBFC01F01FFD012182
:1034C000022001F0F5FC01F019FDAF2002F026F812
:1034D000FF20FFF79DFFFFF7C9FFBDE80840FFF79A
:1034E0007CBF00F075B800F0BBB800F0EBB810B5C9
:1034F000044601F03FF8204603F0A6FB044601F025
:10350000D3F80CB9FFF790F9204610BD10B504466A
:1035100040B101F02FF8204603F09EFBBDE81040BB
:1035200001F0C2B810BDFFFF08480068006880F3D2
:1035300008884FF0000080F3148862B661B6BFF3CC
:103540004F8FBFF36F8F00DF00BF000008ED00E07A
:10355000DFF80C00016841F4700101607047000061
:1035600088ED00E007B5002301930B4B1B68013386
:1035700004D00A49EF20FFF767F9FEE74FF0180380
:1035800083F31188BFF36F8FBFF34F8F019B002B25
:10359000FCD003B05DF804FBEC1E00106C2B0100A6
:1035A0004FF0807340F8043C074B40F80C3C21F08E
:1035B00001016FF0020340F8081C40F8202C40F88D
:1035C000243C4438704700BF65350000FFFFFFFF13
:1035D000074B19680868B0E8F04F80F30988BFF31B
:1035E0006F8F4FF0000080F311887047AFF30080B9
:1035F000F01E001008B54FF0180383F31188BFF3D5
:103600006F8FBFF34F8F094A13680133012B13608B
:103610000AD1074B1B6813F0FF0F05D0054940F294
:10362000AB10FFF711F9FEE708BD00BFEC1E00105C
:1036300004ED00E0862B0100074A08B513682BB99A
:1036400006494FF4D970FFF7FFF8FEE7013B13601E
:103650000BB983F3118808BDEC1E0010BB2B0100D1
:10366000EFF30980BFF36F8F154B1A681EF0100F30
:1036700008BF20ED108A20E9F04F10602DE9090005
:103680004FF0180080F31188BFF34F8FBFF36F8F97
:1036900001F0A4F84FF0000080F3118809BC19680C
:1036A0000868B0E8F04F1EF0100F08BFB0EC108AA9
:1036B00080F30988BFF36F8F704700BFAFF30080BE
:1036C000F01E001008B54FF0180383F31188BFF304
:1036D0006F8FBFF34F8F00F055FF18B1034B4FF0C2
:1036E00080521A60002383F3118808BD04ED00E0C6
:1036F00010B5084A084C002323601360FCF78EFDC8
:103700004FF47A73B0FBF3F0044B013818600723D1
:10371000236010BD18E000E010E000E014E000E0DD
:10372000334B344A13B51968914205D132494FF4ED
:103730009A70FFF789F8FEE71A68304B9A4205D174
:103740002F4940F23510FFF77FF8FEE72D4B1A782E
:10375000D2B20192FF221A701B782B4ADBB28DF88D
:1037600003309DF8033003F018031370274A072332
:10377000136000219DF80300000603F1FF3409D413
:1037800011B1022B13600ED0214940F25D10FFF7FA
:103790005BF8FEE79DF803305B00DBB28DF8033089
:1037A00001212346E6E74FF400731360019B154A9D
:1037B000DBB21370174B1A6842F478021A601A6869
:1037C00042F078421A60FFF793FF134B00241C600D
:1037D000FFF7BEFE114A136843F040431360FFF742
:1037E000A3FE00F0FBFFFFF7BDFE204602B010BDB8
:1037F00000ED00E071C20F41392C010070C20F4191
:103800005C2C010000E400E0E41E0010E81E001043
:103810007F2C010020ED00E0EC1E001034EF00E0F2
:1038200008B5EFF305830F2B0BD90D4A9B5C0D4AAE
:1038300012789A4205D90C4940F2FE20FFF704F8AD
:10384000FEE70A4B0A4A1B68126803F4E0639342DE
:1038500005D9084940F20E30FEF7F6FFFEE708BD35
:10386000F0E300E0E41E0010CD2B01000CED00E0C1
:10387000E81E0010F72B010000F108034FF0FF32A3
:103880004360C0E902230361002303607047002303
:103890000361704743684B609A688A609A68516018
:1038A0009960036808610133036070470A68531C1C
:1038B00030B50AD103695A684A6091608B605960DB
:1038C000036808610133036030BD00F108035C68E0
:1038D00025689542EFD82346F9E7D0E9011203693C
:1038E0008A6051605968814208BF5A6000220261B3
:1038F0001A68013A1A601868704710B50446FFF755
:1039000079FEA46BFFF798FEB4FA84F0400910BD6D
:10391000F8B51546026C866B044652B9076847BB7A
:10392000806801F0BFF8A76005460136A663284607
:10393000F8BD65B9406803F097F96368226C1344D9
:10394000A26863609342F0D323686360EDE7C068C8
:1039500003F08AF9236CE26821685B421A448A42C8
:10396000E2603EBFA2689B18E360022D01D116B150
:10397000013E0025D9E73546D7E7034610B41A6C57
:10398000084662B1D9689C681144A142D96024BF3D
:103990001968D960D9685DF8044B03F065B95DF822
:1039A000044B704770B50446FFF724FE94F8455069
:1039B00004F124066DB2002D14DCFF2384F8453099
:1039C000FFF73AFEFFF716FE94F8445004F1100694
:1039D0006DB2002D12DCFF2384F84430BDE8704046
:1039E000FFF72ABE636A002BE7D0304600F06CFF79
:1039F00008B100F0EFFF013D6DB2DCE72369002B59
:103A0000E9D0304600F060FF08B100F0E3FF013D6F
:103A10006DB2DEE738B50D46044628B91A4940F2C2
:103A20000310FEF711FFFEE7FFF7E4FDD4E90F30C6
:103A3000226862604343D1181B1A1344A160E360FB
:103A40000021FF23A16384F8443084F8453095B900
:103A5000236963B104F1100000F036FF38B10B4B5D
:103A60004FF080521A60BFF34F8FBFF36F8FFFF795
:103A7000E3FD012038BD04F11000FFF7FDFE04F165
:103A80002400FFF7F9FEF2E7852D010004ED00E0C8
:103A900013B51C4628B91E494FF49D70FEF7D4FE9D
:103AA000FEE72BB91B494FF49F70FEF7CDFEFEE7F2
:103AB00032B161B918494FF4A170FEF7C5FEFEE7B7
:103AC00029B1164940F24310FEF7BEFEFEE750232F
:103AD0000193019B502B05D0114940F24B10FEF78A
:103AE000B3FEFEE7002908BF2246019B22600123A6
:103AF000C4E90F0184F8463019462046FFF78AFFD3
:103B00009DF8103084F84C30204602B010BD00BF44
:103B1000C22C0100E42C0100FA2C0100322D01001E
:103B20006A2D0100F8B50D461746064628B90F491B
:103B30004FF4BB70FEF788FEFEE748435030FFF7B6
:103B4000D6FC044670B1002380F8463065B100F120
:103B500050032360C4E90F6501212046FFF75AFF97
:103B600084F84C702046F8BD0346F2E7C22C0100F1
:103B70002DE9FF47884601921F46044628B94E4961
:103B800040F2F120FEF760FEFEE739B9036C2BB17D
:103B90004A4940F2F220FEF757FEFEE7022F08D115
:103BA000E36B012B05D0464940F2F320FEF74CFEB3
:103BB000FEE700F015FF064638B9019B33B14149D5
:103BC00040F2F620FEF740FEFEE700264FF0000927
:103BD000DFF8F4A037E0019D1DB9FFF72DFD0020AF
:103BE00050E016B902A800F0AFFEFFF725FD00F087
:103BF000C1FCFFF7FFFC94F84430FF2B08BF84F8AA
:103C0000449094F84530FF2B08BF84F84590FFF7A7
:103C100013FD01A902A800F0A3FE002846D1FFF77A
:103C2000E9FCA26BE36B9A422FD1FFF705FD0199E6
:103C300004F1100000F030FE2046FFF7B3FE00F064
:103C400033FD50B30126FFF7D5FCA26BE36B9A421C
:103C500001D3022FBFD13A4641462046FFF758FE16
:103C6000636A1BB104F1240000F02EFE38B1164B3C
:103C70004FF080521A60BFF34F8FBFF36F8FFFF783
:103C8000DBFC012004B0BDE8F087FFF7D5FC20463F
:103C9000FFF788FE00F008FDD4E74FF08053CAF824
:103CA0000030BFF34F8FBFF36F8FCBE72046FFF796
:103CB00079FE00F0F9FC92E7852D01008D2D0100C1
:103CC000DD2D0100242E010004ED00E013B50022DB
:103CD00000900B4601201146FFF7DAFE044638B18A
:103CE000002383600360C3601A461946FFF740FF54
:103CF000204602B010BDFFFF2DE9F84389469046EB
:103D00001F46044628B9284940F2C330FEF79CFDFF
:103D1000FEE739B9036C2BB124494FF47170FEF7FB
:103D200093FDFEE7022F08D1E36B012B05D020495C
:103D300040F2C530FEF788FDFEE7FFF771FDEFF3B7
:103D400011864FF0180383F31188BFF36F8FBFF311
:103D50004F8FA26BE36B9A4201D3022F22D194F8CA
:103D600045503A466DB249462046FFF7D1FD6B1CDF
:103D700013D1636A0BB901200BE004F1240000F0B9
:103D8000A3FD0028F7D0B8F1000FF4D00120C8F847
:103D9000000086F31188BDE8F88301356DB284F820
:103DA0004550E8E70020F4E7852D01008D2D010046
:103DB000DD2D010070B50D46044628B923494FF4A6
:103DC0008C60FEF741FDFEE7036C2BB1204940F209
:103DD0006440FEF739FDFEE703683BB983682BB109
:103DE0001C4940F26940FEF72FFDFEE7FFF718FD82
:103DF000EFF311864FF0180383F31188BFF36F8F31
:103E0000BFF34F8FA26BE36B93421CD994F84530FC
:103E100001325BB2A2635A1C10D1636A0BB9012054
:103E200009E004F1240000F04FFD0028F7D0002D38
:103E3000F5D00120286086F3118870BD01335BB294
:103E400084F84530EBE70020F5E700BF852D010041
:103E50007A2E0100932E01002DE9F04385B00F4624
:103E60000192044628B947494FF4A060FEF7ECFCE4
:103E7000FEE739B9036C2BB1434940F20450FEF719
:103E8000E3FCFEE700F0ACFD064638B9019B33B118
:103E90003E4940F20950FEF7D7FCFEE700264FF0FE
:103EA0000008DFF8EC903BE0019D1DB9FFF7C4FB73
:103EB000002052E016B902A800F046FDFFF7BCFB57
:103EC00000F058FBFFF796FB94F84430FF2B08BF37
:103ED00084F8448094F84530FF2B08BF84F845806F
:103EE000FFF7AAFB01A902A800F03AFD00283DD186
:103EF0002046FFF702FD98B3019904F1240000F079
:103F0000CBFC2046FFF74EFD00F0CEFB38B94FF05A
:103F10008053C9F80030BFF34F8FBFF36F8F012676
:103F2000FFF768FBA56B002DBED039462046013D4A
:103F3000FFF723FDA563236963B104F1100000F0CE
:103F4000C3FC38B1124B4FF080521A60BFF34F8F51
:103F5000BFF36F8FFFF770FB012005B0BDE8F08362
:103F60002046FFF71FFD00F09FFBD8E72046FFF734
:103F700019FD00F099FB2046FFF7BFFC0028CED0CA
:103F800096E700BFFA2E0100062F0100242E010043
:103F900004ED00E02DE9FF410446019128B958499C
:103FA00040F29150FEF750FCFEE7056C2DB15549EB
:103FB00040F29550FEF748FCFEE700F011FD064682
:103FC00038B9019B53B1504940F29A50FEF73CFC7E
:103FD000FEE72E460027DFF838814EE00546F9E778
:103FE000019B4BB92DB1494940F2E150FEF72CFC41
:103FF000FEE7FFF721FB5EE016B902A800F0A4FC83
:10400000FFF71AFB00F0B6FAFFF7F4FA94F8443021
:10401000FF2B08BF84F8447094F84530FF2B08BF8D
:1040200084F84570FFF708FB01A902A800F098FC8E
:1040300000284AD12046FFF760FC00283FD02368C3
:104040003BB9FFF7D7FAA06800F0DAFC0546FFF7A6
:10405000F3FA019904F1240000F01EFC2046FFF75A
:10406000A1FC00F021FB38B94FF08053C8F80030B4
:10407000BFF34F8FBFF36F8F0126FFF7BBFAA36B20
:10408000002BADD0013BA363236813B900F0B0FD52
:10409000A060236963B104F1100000F015FC38B191
:1040A0001B4B4FF080521A60BFF34F8FBFF36F8FDF
:1040B000FFF7C2FA0125284604B0BDE8F08120468A
:1040C000FFF770FC00F0F0FAD6E72046FFF76AFC35
:1040D00000F0EAFA2046FFF710FC0028CCD0002DB3
:1040E000E9D0FFF787FA616A19B1236B1968C1F14A
:1040F0000A01A06800F024FD0025FFF79DFADAE729
:10410000FA2E01007A2E0100242E0100A42F0100B6
:1041100004ED00E02DE9F84389469046054628B9AC
:10412000214940F2FB60FEF78FFBFEE739B9036CD3
:104130002BB11E4940F2FC60FEF786FBFEE7FFF75D
:104140006FFBEFF311874FF0180383F31188BFF370
:104150006F8FBFF34F8FAC6B1CB395F8446049462B
:1041600076B22846FFF709FC013C731CAC6313D1FF
:104170002B690BB901200BE005F1100000F0A4FB46
:104180000028F7D0B8F1000FF4D00120C8F80000E3
:1041900087F31188BDE8F883013676B285F844606C
:1041A000E8E72046F4E700BF852D0100592F010004
:1041B00008B528B9064940F2B770FEF745FBFEE79F
:1041C00090F846301BB9BDE80840FFF79FB908BD1D
:1041D000852D01002DE9F0410446FFF70BFA2D4B28
:1041E0002D4D1A682D4F01321A602E68002E46D1CF
:1041F0002C601B68012B1CD1B84640460136FFF7E6
:104200003BFB0A2E08F11408F7D1DFF8B880244EE2
:104210004046FFF731FB3046FFF72EFB2148FFF702
:104220002BFB2148FFF728FB204BC3F80080204BD5
:104230001E60204A20491368086801331360E26A4F
:10424000236401239340034314200B6000FB02709E
:10425000211DFFF71FFBFFF7EFF9184B1B6863B138
:104260002B68DA6AE36A9A4207D2154B4FF0805204
:104270001A60BFF34F8FBFF36F8FBDE8F0810F4B14
:104280001B68002BD5D12B68DA6AE36A9A4298BF83
:104290002C60CEE7C81F0010F01E0010FC1E00109E
:1042A000F01F00101020001028200010F41E001035
:1042B000F81E0010D41F0010D81F0010242000107A
:1042C00004ED00E0DC1F001008B5074C074D4FF06F
:1042D00080562368012B04D92E60BFF34F8FBFF3A4
:1042E0006F8FFEF7A9FAF4E7FC1E001004ED00E062
:1042F000064A13681968064B19B94FF0FF321A6065
:1043000070471268D268D2685268F8E7F41E00104D
:10431000082000102DE9F047DDE909644FEA820921
:104320004A4607460D46206BA521984602F0C4FC7C
:10433000236BA9F10409994429F007099DB36B1E69
:1043400004F134020B3513F8011F02F8011B09B107
:10435000AB42F8D1002384F83F30089D092D28BFD7
:1043600009254FF0000AE562A564201DC4F84CA0A1
:10437000FFF78DFAC5F10A0504F11800FFF787FA77
:10438000C4F854A02461A5616462C4F850A084F804
:1043900058A0424639464846FFF702F9206006B168
:1043A0003460BDE8F08784F83450D6E7F8B51B4B8D
:1043B0001B4E1C680546306804300F46FFF78DFA27
:1043C000334640B93168174EC96A326801208840C7
:1043D00022EA000232606A1C07D137B1196812481C
:1043E0000431BDE8F840FFF755BA1A686419546003
:1043F00007D30E4A10681968BDE8F8400431FFF78A
:1044000055BA0B4A106819680431FFF74FFA094B87
:104410001A68A24288BF1C60F8BD00BF3C20001093
:10442000F01E0010D81F001028200010F81E0010E9
:10443000F41E00100820001070B586B0DDE90B54A2
:104440002DB9154940F24D20FEF7FEF9FEE72CB9D3
:10445000124940F24E20FEF7F7F9FEE75C2605967A
:10446000059E5C2E05D00E4940F25620FEF7ECF971
:10447000FEE72563022584F8595004AD01950A9D95
:1044800002940095059EFFF745FF2046FFF7A2FE28
:10449000049806B070BD00BF8F300100A630010047
:1044A000BB3001002DE9F043074685B090008846F7
:1044B00016469946FFF71BF80546E8B15C20FFF762
:1044C00016F80446A8B1002380F859300D9B056307
:1044D00001930C9B0290009332464B46414638466E
:1044E000FFF718FF2046FFF775FE012005B0BDE875
:1044F000F0832846FFF70AF84FF0FF30F6E7FFFF9A
:1045000010B588B0002407AA06A905A8CDE905447E
:10451000FEF7BAF9059B0293069B079A0F491048CC
:10452000CDE900432346FFF787FF0E4B186090B19B
:104530004FF0180383F31188BFF36F8FBFF34F8FD2
:10454000094B4FF0FF321A60084B01221A60084BEA
:104550001C60FFF7E5F808B010BD00BF3530010062
:10456000C942000004200010082000102420001080
:104570003C200010024A136801331360704700BFEB
:10458000D01F00102DE9F84F3B4B1B68002B6BD15F
:104590003A4B1C6801341C60A4B9394B1A68126884
:1045A0002AB1384940F67F20FEF74EF9FEE7364A39
:1045B0001968106818601160344A13680133136079
:1045C000FFF796FE324D334F2B68A3424FF0000B9E
:1045D00011D93A68304BD16A14224A439A58022AB8
:1045E00028BF4FF0010B2D4A1268002A0CBF584615
:1045F0000120BDE8F88FDFF888A0DFF8A890DAF88E
:10460000002012681AB94FF0FF322A60E1E7DAF8A9
:104610000020D268D66871688C4201D22960D8E740
:1046200006F104084046FFF758F9B16A19B106F1DE
:104630001800FFF752F9F06AD9F80030012202FAA7
:1046400000F11943144BC9F800104FF0140C414607
:104650000CFB0030FFF71EF93868F16AC26A91421C
:1046600028BF4FF0010BCAE70D4A136801331360EE
:104670004FF0000BB7E700BFD01F00103C20001028
:10468000F41E0010D4300100F81E00100C200010A1
:1046900008200010F01E0010FC1E0010402000102A
:1046A000CC1F0010D81F00102DE9F8432F4C2368B1
:1046B0002BB92F4940F68500FEF7C6F8FEE7FEF756
:1046C00099FF2368013B236024682CB10024FEF786
:1046D000B3FF2046BDE8F883264B1B68002BF5D0BE
:1046E000254D264EDFF8A8801FE0EB68DC6804F15A
:1046F000040904F11800FFF7F0F84846FFF7EDF859
:10470000E26A3168012707FA02F314200B4300FB29
:10471000028049463360FFF7BDF8194BE26A1B6817
:10472000DB6A9A4201D3174B1F602B68002BDCD148
:104730000CB1FFF7DDFD144D2C6844B1114E01277B
:10474000FFF720FF00B13760013CF9D12C600D4B21
:104750001B68002BBAD00D4B4FF080521A60BFF38C
:104760004F8FBFF36F8F0124B1E700BFD01F001040
:1047700039310100C81F001010200010D81F001090
:10478000F01E001040200010CC1F001004ED00E0CF
:10479000FC1E001008B540B90D4B4FF080521A6056
:1047A000BFF34F8FBFF36F8F08BD0A4B196829B154
:1047B000094940F23C50FEF747F8FEE7FFF7DAFE02
:1047C000FFF7F4FDFFF770FF0028E5D0ECE700BF2E
:1047D00004ED00E0D01F0010EF2F010038B5274B8B
:1047E0001A68274B12B101221A6038BD1A60FEF711
:1047F00057F8244A244C1568A84204D921680B6D47
:104800005B1B03440B65236810601B6B1A68B2F1D5
:10481000A53F0BD15A68B2F1A53F07D19A68B2F112
:10482000A53F03D1DB68B3F1A53F04D02068216820
:104830003431FDF7EBFF154B1B68B3FA83F3DBB2A2
:10484000C3F11F03142212495A4388188D582DB9F9
:10485000104940F6B730FDF7F7FFFEE7456808322C
:104860006D6845600A44954204BF6A68426014223C
:1048700002FB03135B68DB682360B6E7D01F001000
:1048800040200010C41F0010F01E0010D81F0010A0
:10489000FC1E00103A30010010B50C4628B908493A
:1048A00040F6CE30FDF7D0FFFEE7064B1968183111
:1048B000FEF7FCFF20460121BDE81040FFF776BD62
:1048C00009300100F01E001038B5C368DC682CB94F
:1048D000164940F62940FDF7B7FFFEE704F1180539
:1048E0002846FEF7FAFF124B1B68E3B9251D284640
:1048F000FEF7F3FF0F49E26A086801239340034380
:104900000B600D4B1420294600FB0230FEF7C2FF5E
:104910000A4BE26A1B68DB6A9A4283BF084B01209C
:104920001860002038BD29460648EFE72A3101000B
:10493000D01F0010D81F0010FC1E0010F01E001029
:104940004020001010200010034B1B680360034B35
:104950001B684360704700BF0C2000103C20001013
:1049600070B50C46054628B9164940F69440FDF747
:104970006BFFFEE729B9144940F69540FDF764FF47
:10498000FEE7FEF737FE114B196823685A1C10D05A
:104990000F482E6800686A68864201D08A420FD9A3
:1049A000881A83420AD95B1A134423602846FFF70A
:1049B000CBFF0024FEF740FE204670BD002323609D
:1049C0000124F7E72B300100813001003C2000106A
:1049D0000C200010014B01221A607047402000108B
:1049E000054B1B6833B1054B1B68002B0CBF022025
:1049F000002070470120704724200010D01F0010B5
:104A00002DE9F0410446002835D0234AC36A1168D5
:104A1000C96A8B42174636D28269204D002AA1BF4F
:104A20003A68D26AC2F10A0282611426426906FB20
:104A300003539A4221D100F104084046FEF74DFF8E
:104A4000174B48B9E06A4643AA592AB91A680121A6
:104A5000814022EA01021A603A681968D26AE26269
:104A6000012404FA02F0084318601420414600FBB8
:104A70000250FEF70FFF204603E03B68DB6AC3628B
:104A80000120BDE8F0811368806CDC6AA0422CBF75
:104A900000200120F5E700BFF01E0010FC1E0010F2
:104AA000D81F0010F8B5044608B90020F8BD1F4B08
:104AB0001B68834205D01E4940F6D170FDF7C4FE45
:104AC000FEE7DB6C2BB91B4940F6D270FDF7BCFE4C
:104AD000FEE7C16A826C013B9142C364E5D0002BC2
:104AE000E3D1051D2846FEF7F8FE134E134A50B9D0
:104AF000E76A1421794373582BB913680120B84031
:104B000023EA00031360A36CE362C3F10A01A1610D
:104B10001168012404FA03F008431060142000FB1C
:104B200003602946FEF7B6FE2046BFE7F01E0010E0
:104B3000FF30010015310100FC1E0010D81F0010CD
:104B4000F8B50446002847D0C26C2AB923494FF46F
:104B50008150FDF779FEFEE7836C994238BF194614
:104B6000C36A8B4238D0012A36D11D4A126882426C
:104B700005D11C4941F23B00FDF766FEFEE7826964
:104B8000194DC162002A4FF014064269A8BFC1F155
:104B90000A0106FB0353A8BF81619A421CD1071D7D
:104BA0003846FEF79AFEE26A104C40B95643AB59BC
:104BB0002BB923680121914023EA01032360216876
:104BC000012393400B4314202360394600FB02501D
:104BD000BDE8F840FEF75EBEF8BD00BF153101002C
:104BE000F01E001015300100FC1E0010D81F001030
:104BF000044B1A681AB11968CA6C0132CA64186881
:104C0000704700BFF01E001010B5FDF749FE064BBF
:104C1000064A196829B1196814680B6D1B1B0344F7
:104C20000B65106010BD00BFF01E0010C41F001007
:104C300008B5FDF735FE014B186008BDC41F001014
:104C400038B501220221002000F0C3F8012203211F
:104C5000002000F0BEF804220021012000F0B9F885
:104C600001210422084600F0B4F804221146012074
:104C700000F0AFF80821012000F01AF9284B4FF49A
:104C800080729A610921012000F0EEF802220A21C7
:104C9000002000F09EF802220B210546002000F0C3
:104CA00098F80446284600F0A9F8204600F0A6F837
:104CB0000321022000F0FCF81A4B1B4D18701A213A
:104CC000012000F0F5F8194B194C1870182101203B
:104CD00000F0EEF8174B12211870012000F0E8F8F0
:104CE000154B13211870012000F0BEF80F21287019
:104CF000012000F0B9F81E212070002000F0B4F867
:104D00000E4B1D211870002000F0AEF80C4B1870EF
:104D1000287800F083F82078BDE8384000F07EB8AD
:104D20002080092044200010482000104520001059
:104D30004920001046200010472000104A20001093
:104D40004B200010024B4FF48072DA61704700BFB5
:104D500020800920024B4FF480729A61704700BF97
:104D600020800920034B586980F40070C0F3402074
:104D7000704700BF20800920014B1878704700BFA2
:104D800044200010014B1878704700BF45200010E8
:104D9000014B1878704700BF46200010014B18786F
:104DA000704700BF47200010C0F3C40300F00702A3
:104DB0009B0003EBC21303F1804303F5303301F092
:104DC00007011A6822F007021A601A681143196075
:104DD000704738B500F007054FF0000001F01F04E0
:104DE00065F3020064F3C7001146FFF7DDFF4FF0E3
:104DF000000065F3020064F3C70038BDC0F3C403CC
:104E000000F007029B0003EBC21303F1804303F59C
:104E100030331A6842F480621A607047C0F3C403EA
:104E200000F007029B0003EBC21303F1804303F57C
:104E300030331A6822F018021A601A6842F0080229
:104E40001A60704700F00702064B53F82210C0F3B7
:104E5000C4000B68012202FA00F023EA00030B6091
:104E6000704700BF5031010038B500F007054FF022
:104E7000000001F01F0465F3020064F3C700FFF7B0
:104E8000E1FF4FF0000065F3020064F3C70038BD96
:104E900000F00702054B53F82220C0F3C403116849
:104EA0000120984008431060704700BF5031010056
:104EB00038B500F007054FF0000001F01F0465F35E
:104EC000020064F3C700FFF7E3FF4FF0000065F353
:104ED000020064F3C70038BD00F00702064B53F828
:104EE0002230C0F3C4005A69012303FA00F01042D3
:104EF00014BF1846002070475031010000F007022F
:104F0000044BC0F3C40053F82220012303FA00F03D
:104F1000906170475031010000F00702044BC0F36C
:104F2000C40053F82220012303FA00F0D061704737
:104F30005031010008B50146FFF7CEFF20B1084609
:104F4000BDE80840FFF7E8BF0846BDE80840FFF7A6
:104F5000D5BFFFFF2DE9F8430F4F0C2444433E1902
:104F6000884635792846914600F00EFA3C590023D0
:104F70003F2263604946A360284622606361B268AD
:104F8000A361E3612362636200F022FA0123C4F8A3
:104F90000C806360BDE8F883683101000C2358433E
:104FA000064B1B5830B501205C6901EB4105A84058
:104FB00020435861183343F8212030BD6831010087
:104FC0000C235843034B1A58012303FA01F11160D3
:104FD000704700BF683101000C235843014B1B5838
:104FE00098687047683101000C235843014B1B58E7
:104FF00099607047683101002DE9F0410446174679
:105000001E468846FFF7ECFC00210546A068FEF727
:10501000C1FF00232374069BA361079BE361236800
:1050200084F811802022022DA77466611A600BD1CA
:1050300040F6B831A068FEF7ADFF18B1207CB0FA99
:1050400080F04009BDE8F0810021A068FEF7A2FFD2
:105050000028F9D0F2E7FFFF03685A68282A13B541
:1050600057D00AD8102A2CD0182A32D0082A09D1B1
:10507000417C01F0FE01996028E0402A63D00DD800
:10508000382A77D05A68027420229A6110221A6056
:1050900008229A611A68D206FCD426E0502A5BD016
:1050A000582AEFD14269996811700022C26120220A
:1050B0009A6110221A6008229A611A68D106FCD4FB
:1050C00013E0427C42F001029A6008229A6102B029
:1050D00010BDC469202199610822C4B999611021C9
:1050E00019609A611A68D106FCD4002301A980686E
:1050F0000193FEF75FFE019B002BE8D01F4B4FF0A2
:1051000080521A60BFF34F8FBFF36F8FDFE7817C50
:10511000B1E7427CD20702D520221A60D5E7C269E6
:105120004AB920229A6110221A6008229A611A68EC
:10513000D406FCD4D9E78169013A11F8014B9C608F
:105140008161C261C1E720229A61C269012A4FF0E0
:105150000402E2D89A61B8E742699968117042691D
:1051600001324261C269013A012AC2614FF0040270
:10517000D3D1EFE75B680374B7E700BF04ED00E04D
:105180000148FFF769BF00BFA80000100148FFF702
:1051900063BF00BF880000100148FFF75DBF00BF7C
:1051A000680000102DE9F0471546284A0646894652
:1051B00007CA86B006AC04E9070040F60A32ADF82B
:1051C00008200C228DF80A202149DDF838A0720150
:1051D0008F188C5806AA3244012012F8108C032232
:1051E000009200221146FEF753FC5146B8600120A0
:1051F000FEF76CFDF860404600F0C6F86C23A36132
:10520000144A154B914588BF99462823B5FBF9F2FE
:105210005208C8215343B3FBF1F323613C235A43A3
:105220000023B2FBF1F26261A36263622362E36076
:105230004023236006AB03EB86067A6856F80C1C05
:10524000404606B0BDE8F04700F0C2B8B0310100FA
:105250006800001040420F00A08601002DE9F341D4
:105260000F4690461D4623B90025284602B0BDE8EA
:10527000F0810E4C04EB40144FF0FF31E068FEF774
:1052800089FE0028F0D00026089B019342462B4659
:1052900047F0010100962046FFF7AEFE3346054673
:1052A00032463146E068FEF763FCDEE76800001036
:1052B0001FB500238DF80F30012300930DF10F036C
:1052C000FFF7CCFF9DF80F0005B05DF804FBFFFF72
:1052D000F7B50E4617461D461BB90025284603B0F4
:1052E000F0BD0E4C04EB40144FF0FF31E068FEF7C8
:1052F00051FE0028F1D0089B3A46CDE9005306F054
:10530000FE0100232046FFF777FE002305461A46DC
:105310001946E068FEF72CFCE0E700BF68000010CB
:105320001FB5002200920DF10F038DF80F20FFF73B
:10533000CFFF05B05DF804FB1FB58DF80F300123DA
:1053400000930DF10F03FFF7C3FF05B05DF804FBF9
:10535000FEE7FFFF08B5FFF757FC084B084A1B782C
:10536000103BDBB252F823309847064B00221A60FC
:105370001B68BDE80840FFF75BBC00BF04ED00E020
:10538000C80000104C200010592809D8054B064AC7
:10539000185CD2F8C410012383400B43C2F8C43018
:1053A000704700BFCB31010000C00F4059289FBF9C
:1053B000054B064AD3F8C430105C9ABF23FA00F0BC
:1053C00000F001000020704700C00F40CB31010009
:1053D000592808BF1920084B43F8201043B2002B6E
:1053E00008DB012200F01F0002FA00F05B09034A0B
:1053F00042F82300704700BFC800001000E100E041
:1054000073B54FF0FF33B1F5805F019336D21D4C79
:105410002369DE0734D41C4B1D69ED0730D41B4DC6
:105420000326AE602E611A4D1D6002B301AE5E60B0
:1054300041F00046DE6041F20F061E61DAB12060E5
:1054400041F0806140F68112E16065602261114A9D
:10545000516A41F003015162D868C0F30B00002883
:10546000FAD1536A23F00303536202B070BD58604F
:1054700041F00846DEE701AA2260E3E70120F4E7F5
:105480000220F2E700010820200108200000082087
:1054900008C00A4000C00A4010B50446FAF7BEFE34
:1054A0004FF47A73B0FBF3F00223B0FBF3F2A242A5
:1054B00002D8034A136110BD0233DBB2F5E700BF27
:1054C00000C00A4010B504462420FFF75DFF0B4BD7
:1054D00007221A6002225A602046FFF7DDFF1A20D9
:1054E000FFF752FF064B01221A631A6BD207FCD555
:1054F000044A0023936042F8183C10BD00C00A40E3
:105500000000082020010820034B9860DA68D206CA
:10551000FCD49868C0B2704700800840034B986084
:10552000DA68D206FCD49868C0B2704700C00A405E
:105530000122FFF765BF0022FFF762BF0268936890
:10554000C3F34203022B73B5064623D0062B21D0AA
:10555000012B34D100248DF803400194102501AAB9
:105560000DF10301B068FEF7D5FD48B133689DF831
:1055700003201A70019B002B18BF0124013DEED1BE
:105580000CB3124B4FF080521A60BFF34F8FBFF332
:105590006F8F18E00024019433681A7DD207EFD58D
:1055A0001B788DF8033001AA00230DF10301F06888
:1055B000FEF7A2FB019B002B18BF0124ECE7137D33
:1055C000DBB20193019B02B070BD00BF04ED00E0AF
:1055D0000148FFF7B3BF00BF9C0100100148FFF76F
:1055E000ADBF00BF8C0100100148FFF7A7BF00BF8F
:1055F0007C0100100148FFF7A1BF00BF6C01001043
:10560000154B70B516460546185C0C463601FFF77B
:10561000BBFEB4FBF6F307EE903AF8EE677AB6EE0F
:10562000007A77EE877A2D01FCEEE77A0B4A17EEC7
:10563000903A52599BB280211173190ADBB2117151
:105640001370102382F82830012313728123137200
:105650000323137370BD00BF503201006C010010B2
:10566000074B10B50446185CFFF7A0FE30B12401CB
:10567000044B1B59187B003018BF012010BD00BF20
:10568000503201006C010010034B03EB00108068E6
:10569000003018BF012070476C010010034B03EB72
:1056A0000010C068003018BF012070476C01001066
:1056B0002DE9F843074689469046FFF7D1FF064695
:1056C00018B900263046BDE8F883124C3D01631935
:1056D000DA6822B9B9F1000F01D0C3F80C90631950
:1056E0009A6822B9B8F1000F01D0C3F80880631995
:1056F000DA68002AE5D09A68002AE2D05A68064B98
:1057000053F82710054BD85DFFF762FE6359072257
:105710005A60D7E76C01001040320100503201009E
:1057200038B5074A03010D46D458FFF799FF30B149
:10573000237D9A06FCD52570237D9B06FCD538BDBC
:105740006C01001070B504460E461546FFF748F987
:105750000E4B03EB0413DC68B4B1022814D16B1CAC
:1057600009D04FF47A70A5FB00014FF47A72002340
:1057700000F0B0FC05462A4631462046FEF76CFB99
:10578000003018BF012070BD0020FCE76C01001044
:105790002DE9F84305460E46114CFFF721F92F017C
:1057A000E31981462846D3F80C80FFF759FF98B1DA
:1057B000B9F1020F0AD1B8F1000F07D031462846DF
:1057C0004FF0FF32BDE8F843FFF7BCBFE3591A7D45
:1057D000D207FCD51B7833700020BDE8F88300BFEA
:1057E0006C010010F7B505461C4E8DF807102D0111
:1057F0001746FFF7F5F873199C6854B302282BD1AC
:10580000791C09D04FF47A70A7FB00014FF47A722B
:10581000002300F05FFC074600233A460DF1070124
:105820002046FEF7A5F9041C18BF0124FDF7E2FE8F
:10583000731975592A7D520609D500220DF1070109
:105840009868FEF767FC10B19DF807302B70FDF7E4
:10585000F3FE204603B0F0BD0024FAE76C0100100F
:1058600010B50120FDF7A0FD0446FDF7D3FAFDF7C2
:105870003DFB20460021FDF717FD4FF0FF30BDE84E
:105880001040FEF787BFFFFF2DE9F3410121002201
:105890000846FEF747F9204B204E18600022802171
:1058A0000120FEF73FF91E4B1E4F18600022042115
:1058B0000120FEF737F91C4B1C4918600024032314
:1058C0004FF48062CDE9003419482346FEF7EAFD23
:1058D0001820FFF7F7FDFDF7DBFDFDF725FDFDF7D0
:1058E0005DFDA04208D8134802F0A4FAFEF708FEB6
:1058F000002002B0BDE8F08133682046D3F80C8068
:10590000FDF752FD651C03462A463946404600F025
:1059100069FF2C46E3E700BF60200010AC010010D7
:1059200064200010603201005C200010543201003D
:10593000615800006E32010081F0004102E000BFBA
:1059400083F0004330B54FEA41044FEA430594EA3F
:10595000050F08BF90EA020F1FBF54EA000C55EA7A
:10596000020C7FEA645C7FEA655C00F0E2804FEA4B
:105970005454D4EB5555B8BF6D420CDD2C4480EA2D
:10598000020281EA030382EA000083EA010180EA5D
:10599000020281EA0303362D88BF30BD11F0004FAB
:1059A0004FEA01314FF4801C4CEA113102D04042E1
:1059B00061EB410113F0004F4FEA03334CEA13331C
:1059C00002D0524263EB430394EA050F00F0A78034
:1059D000A4F10104D5F1200E0DDB02FA0EFC22FA2F
:1059E00005F2801841F1000103FA0EF2801843FA23
:1059F00005F359410EE0A5F120050EF1200E012A14
:105A000003FA0EFC28BF4CF0020C43FA05F3C01851
:105A100051EBE37101F0004507D54FF0000EDCF1CA
:105A2000000C7EEB00006EEB0101B1F5801F1BD373
:105A3000B1F5001F0CD349085FEA30004FEA3C0C77
:105A400004F101044FEA445212F5800F80F09A806D
:105A5000BCF1004F08BF5FEA500C50F1000041EB71
:105A6000045141EA050130BD5FEA4C0C404141EB75
:105A7000010111F4801FA4F10104E9D191F0000F9C
:105A800004BF01460020B1FA81F308BF2033A3F11F
:105A90000B03B3F120020CDA0C3208DD02F1140C16
:105AA000C2F10C0201FA0CF021FA02F10CE002F151
:105AB0001402D8BFC2F1200C01FA02F120FA0CFC4A
:105AC000DCBF41EA0C019040E41AA2BF01EB045193
:105AD000294330BD6FEA04041F3C1CDA0C340EDC91
