:1000000000000110E500000075010000590100002A
:100010007501000075010000750100007501000008
:100020007501000075010000750100005B330000E0
:1000300075010000750100005F33000063330000AC
:10004000715400007154000071540000715400009C
:10005000715400007154000071540000715400008C
:10006000715400007154000071540000715400007C
:10007000715400007154000071540000715400006C
:10008000715400007154000071540000715400005C
:10009000715400007154000071540000715400004C
:1000A000715400007154000071540000715400003C
:1000B000715400007154000071540000715400002C
:1000C000715400007154000071540000715400001C
:1000D000715400007154000071540000715400000C
:1000E0007154000008B500F057F900F073F900F002
:1000F0009DF800F079F900F095F802F08DFD02F01E
:10010000B7FC00F0BFF840B141F28734002502F09F
:10011000AFFD8D4208BF8442F9D200F082F918B9D0
:100120000849094807F05AF90649084807F056F9FE
:1001300005F0A4FC064B07481B68D96806F0D2F806
:10014000FEE700BF88BD000094BD0000C1BD0000F7
:10015000A0010010D9BD00001EF0040F0CBFEFF38A
:100160000880EFF309808169004A1047D10100003F
:100170007047FFFF38B50F4C0F4B10481D782368B0
:10018000D96806F0AFF823680D49D8682A4605F00B
:10019000F1FF0F2D236807D80A4A0B4952F8252092
:1001A000D86805F0E7FFFEE7D968084806F09AF836
:1001B000F9E700BFA001001004ED00E014BE00004C
:1001C0002EBE000020BF000068BE000086BE0000FA
:1001D00010B5044600F04AF8236883606368C36082
:1001E000A3680361E3684361236943626369013B78
:1001F000C361A3698361E3690362BFF34F8F05495C
:10020000054BCA6802F4E0621343CB60BFF34F8F23
:1002100000BFFDE700ED00E00400FA05004870476C
:1002200000D8B8050048704700D8B8050E4B072223
:10023000C3F88420AA210122C3F88020C3F88C10BF
:100240005521C3F88C10C3F8A821D3F88820520593
:10025000FBD51A6822F4704242F480421A6040F2E0
:100260000112C3F80421704700C00F400248034A3E
:10027000034BC0E90023704700000020EFBEADDE55
:100280001041522138B5224C224B22689A423DD16E
:100290006268214B9A4239D1204D21482B68D96898
:1002A00006F020F82B68A2691E49D86805F062FFA5
:1002B0002B68E2691C49D86805F05CFF2B68226A4C
:1002C0001A49D86805F056FF2B68A2681849D86803
:1002D00005F050FF2B68E2681649D86805F04AFF20
:1002E0002B6822691449D86805F044FF2B686269BD
:1002F0001249D86805F03EFF2B681148D96805F00F
:10030000F1FF01200023C4E9003338BD0020F9E7E4
:1003100000000020EFBEADDE10415221A001001010
:1003200060BF0000B3BF0000C2BF0000D1BF00002B
:10033000E0BF0000EFBF0000FEBF00000DC00000E6
:100340001CC000000E4A136810B50E4C1918A142CB
:10035000116002D30C4CA1420BD313600B4A0C4921
:1003600013681844884208D30A49884205D21060AD
:1003700001E0002BF2D0184610BD0023FBE700BFC0
:100380000000001028000020008000200400001061
:100390003014001000000110094A0A4B0A498B4230
:1003A00005D30A4B0A4A0021934205D3704712F83D
:1003B000010B03F8010BF2E703F8011BF4E700BFA0
:1003C000ECD7000000000010740300107803001048
:1003D00030140010034AD2F8883043F47003C2F896
:1003E0008830704700ED00E0044800232021C21847
:1003F0000133292B82F80013F9D1704700E100E0A6
:1004000008B52A2219233821022005F023F80D22ED
:100410003821022004F0DAFFA0F12A0358425841A3
:1004200008BDFFF7EDBF42884378007843EA022316
:1004300040EA032070470B0A017043700B0C090E51
:100440008370C170704710B5024410F8013B11F879
:10045000014B9042A3EB040301D0002BF5D01846CA
:1004600010BDC3690239023B8B4283BF4389006BD5
:1004700001FB030000207047024600F10B01002041
:10048000C30143EA500312F8010B50FA83F38A4286
:10049000D8B2F5D1704702684AB1134613F8011B70
:1004A0001F290BD93A29F9D1911C8B4202D04FF068
:1004B000FF3070471278302AF9D10360002070476E
:1004C00001380A4411F8013B00F8013F9142F9D18B
:1004D0007047CA7E8B7E032843EA022301BF487D12
:1004E0000A7D42EA002243EA024318467047C2F3FB
:1004F00007238A76CB760378032B01BF120C0A758B
:10050000120A4A75704770B500F13806426B04460E
:1005100001233146407801F0D2FA054688B9616B73
:10052000A36A226AE070CB1A934208D2A378022B06
:1005300005D10A4401233146607801F0C0FA28460B
:1005400070BD0125FBE738B5436B8B4204460D4671
:1005500019D0C3788BB901232A4604F13801607899
:1005600001F099FA002818BF4FF0FF350346656384
:100570000CBF03460123184638BDFFF7C4FF0346EE
:100580000028F8D1E7E70023F5E7FFFF38B500239F
:10059000C3704FF0FF3343630546FFF7D4FF0446B3
:1005A00018BB95F8372295F8363243EA02234AF60B
:1005B000552293421BD195F83830EB2B03D01833DA
:1005C000DBB2012B15D803220B4905F16E00FFF7B2
:1005D0003AFF40B10522094905F18A00FFF733FFD0
:1005E000002818BF0224204638BD0424FBE703245A
:1005F000F9E70224F7E700BF7DC1000081C10000D8
:100600002DE9F043002385B00B600F461546FFF738
:1006100042FF061EC0F23981A44B53F82640002C3D
:1006200000F03581206901F09AF9002800F031814D
:100630003C60237805F0FE056BB1607801F026FA86
:10064000C10708D41DB110F0040500D00A252846C2
:1006500005B0BDE8F0830023F0B22370607001F0B4
:1006600007FAC20700F117810DB14307EED400214C
:100670002046FFF78BFF022840F0EE806F4604F51E
:10068000FF7104F23E263D4611F8040C10B10846F5
:10069000FFF7C9FE10318E4245F8040BF4D1002556
:1006A00057F8046B002E00F0CE8031462046FFF74D
:1006B0006DFF012800F2C88094F8442094F843307C
:1006C00043EA0223B3F5007F40F0CA8094F84F302C
:1006D00094F84E5055EA032504D104F15C00FFF76D
:1006E000A2FE054694F8481025624B1E012BA1700E
:1006F00000F2B68094F845901FFA89F36381002BCD
:1007000000F0AE8009F1FF3313EA090F40F0A88032
:1007100094F84A3094F8497047EA03273FB21FFA29
:1007200087F818F00F0FA4F8088040F0998094F82B
:100730004C3094F84B0050EA032003D104F15800E8
:10074000FFF771FE94F8472094F8463053EA0223ED
:1007500000F0868005FB01FC03EB18126244904216
:100760007ED3801A4845B0FBF9F179D350488142D5
:1007700076D84FF6F570814240F28F804FF0030932
:10078000023133443244B9F1030FE1616662A3627E
:10079000226369D194F8632094F8623043EA02231B
:1007A0001F433FB2002F5BD104F16400FFF73BFE13
:1007B000E062890001F2FF11B5EB512F50D34FF0E9
:1007C000FF33C4E90533B9F1030F4FF08003237100
:1007D0002FD194F8692094F8683043EA0223012B62
:1007E00027D1711C2046FFF7AEFE10BB94F83722CC
:1007F00094F83632207143EA02234AF65522934296
:1008000017D104F13800FFF70EFE2A4B984210D1A1
:1008100004F50770FFF707FE274B984209D104F54E
:100820000870FFF700FEA06104F50970FFF7FBFDFB
:100830006061224A84F80090138801339BB21380D0
:10084000E380002503E703200135042D7FF428AF62
:10085000042805D10125FAE60428FBD0012801D996
:100860000D25F4E6002627E7B8F1000FF8D0634421
:10087000B9F1020FE3624FEA41031BBF5B1801F0BD
:100880000101194601EB530194E70B25DFE60C2526
:10089000DDE60F25DBE60325D9E640F6F579494587
:1008A0008CBF4FF002094FF0010969E7780300108F
:1008B000F5FFFF0F52526141727241617C030010DB
:1008C00001292DE9F04705460C46174672D9C36940
:1008D0008B426FD90378022B3FD0032B50D0012BD2
:1008E00068D101EB5108816A01EB5821FFF72BFE1B
:1008F000064638BB05F1380908F1010AC8F30808B3
:1009000014F001041FBF19F8083003F00F023B0177
:1009100003F0F00314BF1343FBB209F80830A96ACF
:100920000123EB7001EB5A212846FFF70CFE064627
:1009300040B9CAF3080A44B1C7F3071709F80A70A7
:100940000123EB703046BDE8F08719F80A30C7F391
:10095000032723F00F031F43F0E7816A01EB142103
:10096000FFF7F1FD06460028ECD1640005F13803DD
:1009700004F4FF741A191F55C7F307275770DFE7F0
:10098000816A01EBD411FFF7DEFD06460028D9D1BC
:10099000A40005F1380304F4FE741C442046FFF75C
:1009A00042FD27F0704700F0704139432046FFF7C1
:1009B00042FDC5E70226C5E70129F8B505460C4604
:1009C00052D9C36999424FD20378022B29D0032B05
:1009D00038D0012B48D101EB5106816A01EB562139
:1009E000FFF7B1FD10B14FF0FF30F8BD771CA96AD9
:1009F000C6F308062E4401EB5721284696F83860C6
:100A0000FFF7A1FD0028EED1C7F308073D44E30737
:100A100095F8380046EA00204CBF0009C0F30B00EF
:100A2000E3E7816A01EB1421FFF78DFD0028DAD19D
:100A30006400383504F4FF742B19285D5B7840EAB4
:100A40000320D2E7816A01EBD411FFF77CFD002877
:100A5000C9D1A40005F1380004F4FE742044FFF766
:100A6000E2FC20F07040C0E70120BEE7B1F5001FB6
:100A7000F8B506460D4601D30220F8BDCA06FBD1E3
:100A8000826804683161CAB92378022B01D9E36A0C
:100A90009BB92389B3EB551FEED9E36AB361B36900
:100AA0007261002BE8D003EB55233834C5F30805F9
:100AB0002C44B361F4610020DFE71A4667897F02A6
:100AC000BD42114604D22046FFF7CBFCB061E6E7F9
:100AD0003068FFF771FF431C024606D00128CBD9CE
:100AE000E3698342C8D9ED1BEAE70120C5E72DE998
:100AF000F041804605680F4649B96E69C6B1EB6999
:100B0000B34298BF0126AB69A3B9002406E028468A
:100B1000FFF752FF0128044603D801242046BDE810
:100B2000F081421C51D0EB698342F7D83E46EAE798
:100B30000126E8E7BE4215D1EB69D8F80000741C25
:100B4000A34298BF02242146FFF736FF0128E4D0D4
:100B5000431C3AD0D8B16B69012B03D9EA6993429F
:100B600038BF1E463446EB690134A34202D8012E39
:100B7000CBD902242146D8F80000FFF71DFF40B171
:100B80000128CAD0013020D0B442ECD1BDE7002CFE
:100B9000E8D04FF0FF3221462846FFF791FE90B98A
:100BA00057B9D5E90632023A93426C6110D92B79D4
:100BB00043F001032B71B1E7224639462846FFF77F
:100BC0007FFE0028EDD00128A7D14FF0FF34A5E724
:100BD000013BAB61EBE7F8B50D46012D0746114629
:100BE00004682BD9E369AB4228D92AB14FF0FF3210
:100BF0002046FFF765FE30B929463868FFF7DCFE6E
:100C0000064608B90020F8BD012817D0431C17D0AC
:100C1000002229462046FFF753FE0028F3D1D4E9ED
:100C20000632911E8B4205D20133A361237943F032
:100C300001032371B2423546DED8E3E70220E2E742
:100C40000120E0E740B1A1F10B03012B04D90F29EA
:100C500002D0006900F08CBE704738B50D460446DE
:100C6000F0B10368DBB11A78B2B18188DA889142B9
:100C700012D1186900F073FE034698B123685878C2
:100C800000F004FF10F0010002D124682C6038BD90
:100C900000212068FFF7D6FF09200024F6E71C4654
:100CA0000920F3E70F201C46F0E7F8B5C3780446A7
:100CB0000D46C3B929462046FFF7D3FB04F1380699
:100CC0000746606304F50E723346002103F8011BEA
:100CD0009342FBD1002563899D420AD36089401B62
:100CE00018BF0120F8BDFFF70EFC0028E2D001205C
:100CF000F8E701237A193146607800F0E0FE002819
:100D0000ECD10135E7E72DE9F8430769056820379D
:100D1000B7F5001F24BF0023836183690446894619
:100D200073B1C7F30808B8F1000F39D14169013335
:100D3000836139B92B89B3EB571F31D80023A361E5
:100D400004200BE06B89013B13EA572328D1284686
:100D5000FFF732FE0128064602D80220BDE8F883DC
:100D6000421C01D10120F9E7EB69834212D8B9F1A5
:100D7000000FE3D061692046FFF7B9FE0646A8B12F
:100D80000128EAD0431CEDD001462846FFF78DFF2D
:100D90000028E7D1666131462846FFF762FBA06173
:100DA000383545442761E5610020D7E70720D5E7BE
:100DB0002DE9F04F002185B00446D0F80080FFF700
:100DC00055FE8146002840F08C804FF0FF334FF0F5
:100DD000FF0AE36257460093A1694046FFF7B3FB61
:100DE000814600287DD1E5692E78002E7DD0EA7AF3
:100DF000E52E02F03F03A37103D0100704D50F2B9B
:100E000004D0009BE36252E00F2B57D194F82B30B3
:100E1000590642D4720648D5236995F80DA0E362BD
:100E200006F0BF066B7B534541D1EA7EAB7E53EAA9
:100E300002233CD12F78D8F80CB007F03F077B1E77
:100E40000D275F432A4B012113F8012BA81815F831
:100E50000290407849EA002959B37F2F039326D89E
:100E6000484600F0BFFD7A1C02903BF81700019243
:100E700000F0B8FD0299814219D1019A039B4946BD
:100E800017461C4A9A42DFD12B785B0603D511B175
:100E90003BF817305BB9013EF7B200212046FFF75F
:100EA00032FF8146002897D01BE0B742BAD0FF2717
:100EB000F3E74FF6FF729145E3D0F8E727B92846EC
:100EC000FFF7DAFA50450CD094F82B9019F001098D
:100ED00097D10B2204F120012846FFF7B4FA00282D
:100EE0008FD1484605B0BDE8F08F4FF00409F8E710
:100EF00070C100007DC100002DE9F04F85B003688E
:100F0000019306468A4611F8013B2F2BFAD05C2B41
:100F1000F8D00021B1609AF800301F2B00F2CD808C
:100F20008023304686F82B3005B0BDE8F04FFFF740
:100F30009DBD7F2807D8924A12F8013B1BB1984209
:100F4000FAD106204EE0802DFBD02BF8150001359C
:100F5000B7E033F8022D202A02D02E2A40F0D480A8
:100F6000013DCEE00246D7E0C84505D2AB4249D1AB
:100F7000B9F10B0F3ED102E0B9F10B0F35D144F0BE
:100F800003044FF00B0996F82030E52B04BF05232E
:100F900086F82030B9F1080F04BFBF00FFB207F098
:100FA0000C030C2B03D007F00303032B01D144F0F7
:100FB0000204A50707D4F80748BF44F010047907D6
:100FC00048BF44F0080486F82B403046FFF7F0FE97
:100FD00096F82B3000285FD0042803D113F0040FBB
:100FE00008BF052005B0BDE8F08FAB4202D044F049
:100FF0000304C8D8BF00FFB22B464FF00B094FF0D7
:101000000808B9E07F2812D944F0020240F2B51175
:101010000393029200F0B2FC10F0800FDDE902238E
:101020000FD000F07F005749085C144628B156499C
:1010300011F8012BF2B18242FAD144F003045F208F
:1010400011E0FF28F1D909F1FF31884503D344F0BD
:101050000304C84690E006EB0801040A81F820402A
:1010600008F10108144606EB080208F1010882F8AD
:10107000200081E0A0F1410292B2192A02D847F083
:101080000207F0E7A0F1610292B2192A9EBF203850
:1010900047F0010780B2E6E75A07A3D4B379DB062D
:1010A0006CD5019B03F138013369C3F3080319447C
:1010B000019B1878FFF70DFAB0603368D3F80CB0D5
:1010C00000251AF8010B68B140F2B51100F076FC6A
:1010D00000283FF436AF1F2804D92F2802D05C28FF
:1010E0007FF427AF524613782F2B924602F101026C
:1010F000F9D05C2BF7D0202834BF042400240BEB5C
:101100004503002D7FF425AF00220BEB45032BF8A0
:101110001520002D3FF415AF3BF81210202902F1E5
:1011200001003FF41FAF0AB92E2901D144F0030496
:1011300033F8021D2E2901D0013DF9D106F120031B
:1011400006F12B01202003F8010B9942FBD14FF04F
:1011500000084FF0080947463BF81200531C0028CE
:101160003FF411AF202805D02E287FF4FDAEAB420E
:101170003FF4FEAE44F003041A46EDE7052031E7E4
:1011800087C10000F0C0000090C1000070B5C378B6
:101190000446002B45D12378032B39D12379012B29
:1011A00036D104F1380604F50E723346002503F8F3
:1011B000015B9342FBD1552384F83632AA2384F88D
:1011C000373252234122722184F8383084F8393082
:1011D000612384F83A3084F83B2084F81E2284F896
:1011E0001F3284F81C1284F81D1204F50870A169DE
:1011F000FFF721F9616904F50970FFF71CF9626ACC
:101200006078013262630123314600F058FC257199
:1012100000221146607800F066FC003018BF012003
:1012200003E0FFF770F90028B5D070BD2DE9F04F4D
:1012300090F82B4014F0A00489B0054640F08F8050
:101240000668F26832F81430002B66D105F12007E9
:101250000C22394605A8FFF733F99DF81F30DB074C
:1012600040F186804023DFF8448285F82B304FF030
:10127000010A0B2205A93846D6F80C90FFF720F991
:10128000BAF1050F5AD9A9F10201534631F8022FDC
:10129000002A44D10DF11300072203F00F0C0CF1CA
:1012A0003001392988BF0CF137010F2B00F80119E3
:1012B00002F1FF324FEA131142D808AB13447E21EA
:1012C00003F8141C05F11F0108460023934206D0C1
:1012D00010F801CFBCF1200F03F1010E32D1072A23
:1012E0009CBF08A8801803F1010396BF10F8140CE6
:1012F00020200132072BC854F1D92846FFF758FDAA
:10130000814678BB0AF1010ABAF1640FB1D14FF0FE
:101310000709484609B0BDE8F08F013492E7102074
:1013200002F0010C0CEB430313F4803F18BF83EA77
:10133000080301384FEA5202F2D1A7E75346A9E762
:101340000B46AAE77346C1E7804601212846FFF70E
:10135000DAFC814610B3B9F1040FD8D0D9E74FF0C9
:101360000609D6E70428D4D19DF81F3085F82B3024
:101370009DF81F30D5F800A09B0748BF0C344FF0F4
:101380000001284649BF0D230124B4FBF3F40134C6
:10139000FFF76CFB81460028DDD18046A9695046E5
:1013A000FFF7D1F881460028D5D1EB691B78E52BF2
:1013B00001D0002BC8D108F101084445C5D1013C3A
:1013C00055D029692846A1EB4411FFF74FFB814610
:1013D00000289ED13846FFF74FF84FF6FF7801906E
:1013E000A9693046FFF7AFF88146002891D1EB6933
:1013F000019AD6F80CE05A73E1B24FF00F024FF0A9
:101400000D0CDA72DFF8A8A018734A1E0CFB02F26A
:101410009876D876844640451AF8019B18BF3EF866
:10142000120003F8090003EB090B0CF1010C18BFC3
:1014300001324FEA1029002808BF4046BCF10D0FC9
:101440008BF80190E7D1404502D03EF812200AB94E
:1014500041F0400119700123F37000212846FFF785
:1014600052FC814600287FF454AF013CB8D1A969F1
:101470003046FFF768F8814600287FF44AAFEB69F1
:10148000014603F1200203F8011B9342FBD10B221A
:101490003946E869FFF714F895F82B30EA6903F04C
:1014A000180313730123F37033E700BF2110010009
:1014B00070C10000F0B585B0CDE9001003A8144656
:1014C0000391FEF7E8FF051E28DB154F57F825604E
:1014D0004EB1306900F03EFA18B90224204605B03A
:1014E000F0BD00233370019979B9019B47F825308D
:1014F000002CF3D001A900226846FFF781F80446CA
:1015000001460198FFF79EFBE8E7002301F8103B36
:10151000E8B200F011FA0028E7D1DEE70B24DDE79E
:10152000780300102DE9F041D0B017460191044630
:10153000002800F0DB8002F03F052A4602A901A83E
:10154000FFF75EF8064600284BD1029B01990393F2
:101550000FAADA6003A8FFF7CFFC20B99DF9373056
:10156000002BB8BF062017F01C0F00F09F8000284A
:1015700042D0042835D103A8FFF758FE88BB45F0B8
:101580000805029BDDF8288018784146FEF7A1FF88
:10159000074600F0BAFA014608F10E00FEF74BFFCD
:1015A0000A9B02982022DA720A990022FEF79FFF16
:1015B0000A9B00221A775A779A77DA77029B0121E1
:1015C000D97017B3394603A8D3F83480FFF703FB6B
:1015D00038B941460298FEF7B6FF029B013F5F61B2
:1015E00098B100232360064631460298FFF72AFB94
:1015F000304650B0BDE8F0819DF8123013F0110F65
:101600005ED178076CD43907BBD4DDF808800A9F17
:10161000D8F834302362676298F800002907394609
:1016200048BF45F04005FEF754FFA06007F11C00DD
:10163000FEF7F9FEB8F80630A38004F1280700236E
:10164000E060C4F8008025746374E361636104F5AD
:101650000A713A4602F8013B9142FBD1AA06C3D572
:10166000E568002DC0D0B8F80A80A16865614FEA2E
:101670004828A84526D30020A1610028B1D1C5F390
:101680000803002BB0D0DDF808804046FEF7E9FEE5
:1016900050B300EB5522E2610123394698F801006E
:1016A00000F0F9F900289FD001209AE7002898D18E
:1016B0009DF81230DA0615D4BF07A6D5D807A4D5F1
:1016C00007208EE72068FFF777F901280146A5EB90
:1016D000080503D9431CCCD10120CDE70220CBE77C
:1016E00008207EE704207CE702207AE709267FE7CE
:1016F0002DE9F04F9B4685B000238946CBF800309A
:1017000003A904461646FFF7A8FA054608B9657C02
:1017100025B129460398FFF795FA08E0257C15F0D6
:10172000010508D107210398FFF78CFA0725284601
:1017300005B0BDE8F08FE3686769DF1BB74204F1CD
:10174000280328BF374600932FB939460398FFF77F
:1017500079FA3D46EBE76269C2F30803002B76D1C4
:10176000039B5B89013B13EA522313D12AB9A0687A
:10177000012809D802256574CBE7A1692068019387
:10178000FFF71AF9019BF3E7421C02D101216174B2
:10179000C0E7A061DDF80CA0A16901935046FEF7F7
:1017A00060FE019B20B90225657429465046B2E7C8
:1017B000B7F5007F03EB00082BD37E0ABAF80A20A6
:1017C0009AF801009919914288BFD61A33464246C9
:1017D000494600F060F90028D8D194F91030002B68
:1017E0000BDAE069A0EB0800B04206D24FF40072B9
:1017F000009909EB4020FEF763FE7602DBF800302B
:101800003344CBF800306369BF1BB1441E446661AA
:101810009AE7E269424518D094F91030002B0BDAB0
:10182000012300999AF8010000F049F90028ADD190
:10183000237C03F07F0323740398009940780123ED
:10184000424600F028F90028A0D1C4F81C80616944
:10185000009BC1F30801C1F50076BE4228BF3E4699
:10186000324619444846FEF72BFEC7E7F7B501A9F3
:101870000446FFF7F2F90546002843D1237C13F014
:1018800040053FD01B0614D50198E269407801233A
:1018900004F1280100F013F938B101210198FFF794
:1018A000D1F90125284603B0F0BD237C03F07F0366
:1018B000237400F02AF9216A07460198FEF743FED7
:1018C0000546F8B9666AF37A43F02003F372A2681A
:1018D00020683146FEF70BFEE16806F11C00FEF7BA
:1018E000AAFD394606F11600FEF7A5FD0198B5746C
:1018F0000123F574C370FFF749FC237C23F04003F8
:101900000546237429460198FFF79CF9CAE737B5C5
:101910000546FFF7ABFF044650B901A92846FFF77B
:101920009CF9044620B9286001460198FFF78AF91E
:10193000204603B030BDFFFF10B501200C4604491E
:1019400002F004F92060003018BF012010BD00BF74
:101950008003001008B502F07DFB012008BD08B52A
:1019600040F6B83102F056FA431E5842584108BDBD
:1019700000231A46194602F03BB8FFFF7F2810B536
:1019800001D880B210BDB0F5803F13D240F2B5133C
:1019900099420FD10849002231F8024B844293B298
:1019A00003D103F18000C0B2ECE70132802AF3D109
:1019B0001346F6E70020E5E746C400007F280DD96E
:1019C00040F2B513994208D1FF2806D800F1004033
:1019D000034B803833F8100070470020704700BF79
:1019E00046C40000B0F5803FF0B521D21E4A1F4921
:1019F00083B2B0F5805F28BF0A46141D34F8042C6A
:101A00002146A2B1934212D334F8025C2E0AEDB201
:101A1000AF18B84222DA082E09D8DFE806F0050A26
:101A200010121416181A1C00801A34F810301846B8
:101A3000F0BD981A00F001001B1A9BB2F7E7103BAB
:101A4000FBE7203BF9E7303BF7E71A3BF5E70833C4
:101A5000F3E7503BF1E7A3F5E353EEE70434002E40
:101A6000CCD101EB4502C8E798C100008AC3000051
:101A700010B5044601F092F834B900F00FF90446AD
:101A800001F0A6F8204610BD0424F9E708B900F0DB
:101A9000A3B904207047F8B507460C4615461E4604
:101AA00001F07CF84FB92046F2B2294600F09CF9CB
:101AB000044601F08DF82046F8BD0424F9E7F8B596
:101AC00007460C4615461E4601F068F84FB92046F9
:101AD000F2B2294600F0CEF9044601F079F820462A
:101AE000F8BD0424F9E770B506460C46154601F02A
:101AF00055F846B92046294600F010FA044601F090
:101B000067F8204670BD0424F9E70020704738B517
:101B100001F0AEF800F5FA75FF2003F083FDFF2019
:101B200003F080FDFF28044603D001F0A1F88542B0
:101B3000F5D8204638BDFFFF08B503F091F9FFF74F
:101B4000E6FF03F095F9034A137843F0010313709D
:101B500008BD00BF0800001038B505460C46FFF769
:101B6000D6FFFF2821D1204603F05CFDFD2C1ED0BE
:101B7000AC1C05F2022514F8020C03F053FD0234EC
:101B800014F8030C03F04EFDAC42F4D1FF2003F037
:101B900049FDFF2003F046FDFF2003F043FD00F068
:101BA0001F00431F5842584138BD0020FCE7012068
:101BB000FAE737B5020604460D4607D5002177201F
:101BC000FFF7F7FF012831D804F07F0403F050F944
:101BD00003F046F9FFF79BFFFF282BD1402C27D0BD
:101BE000482C0CBF872301232A0E8DF801202A0CD4
:101BF0008DF8022006212A0A68468DF800408DF8EB
:101C000003208DF804508DF8053003F015FD4C2CA1
:101C100002D1FF2003F006FD0A24FF2003F002FD9D
:101C2000030603D5013C14F0FF04F6D103B030BD28
:101C30009523D9E7FF20F9E770B5054601F018F8BC
:101C400000F16406FF2003F0EDFC044601F010F8FB
:101C5000864201D3FF2CF5D0FE2C0CD14FF400713D
:101C6000284603F0ECFCFF2003F0DCFCFF2003F02F
:101C7000D9FC012070BD0020FCE7FFFF38B5064D00
:101C80002C78E4B203F0FCF818B104F0FD042C70D9
:101C900038BD44F00304FAE7080000102DE9F341D1
:101CA000FFF7ECFF4A4B1A7812F0020F1E4604D0E1
:101CB0001878C0B202B0BDE8F081C82003F07AFC09
:101CC0000A25FF20013D03F0ADFC15F0FF05F8D11A
:101CD00003F0C6F829464020FFF76BFF01280446B1
:101CE00071D100F0C5FF4FF4D57100F57A77482027
:101CF000FFF75FFF012848D101ADA8460424FF206B
:101D000003F090FC013C14F0FF0408F8010BF6D13D
:101D10009DF80630012B56D19DF80730AA2B52D1E1
:101D200000F0A6FF874206D94FF08041E920FFF777
:101D300040FF0028F4D100F09BFF874243D90021E7
:101D40007A20FFF736FF00283DD10424FF2003F05E
:101D500069FC013C14F0FF0405F8010BF6D19DF875
:101D6000043013F0400F14BF0C240424194B1C70D2
:101D700003F07EF84CB3337845F6C05003F0FE0311
:101D8000337003F017FC307893E72946E920FFF71A
:101D900010FF022836BFE9254125022400F068FF24
:101DA000874205D900212846FFF703FF0028F5D117
:101DB00000F05EFF874206D84FF400715020FFF715
:101DC000F8FE0028D2D00024D0E7FFF7B5FEDAE70E
:101DD00008000010D003001008B5FFF74FFF014BBB
:101DE000187808BD0800001070B5144605460E4668
:101DF000FFF744FF002C35D01C4B1B78DA0733D497
:101E000003F02EF81A4B1B781B0758BF7602012CE3
:101E1000314611D15120FFF7CCFE38B94FF4007193
:101E20002846FFF709FFB0FA80F4640903F020F8B0
:101E3000201C18BF012070BD5220FFF7BAFE0028F9
:101E4000F4D14FF400712846FFF7F6FE28B1013CAB
:101E500014F0FF0405F50075F3D100214C20FFF7C5
:101E6000A8FEE3E70420E6E70320E4E7080000100B
:101E7000D003001070B5144605460E46FFF7FEFE6F
:101E8000002C41D0234B1A78D0073FD41B78590738
:101E90003ED402F0E5FF204B1B781A0758BF7602AC
:101EA000012C11D131465820FFF783FE50BBFE2193
:101EB0002846FFF751FEB0FA80F4640902F0D8FF1B
:101EC000201C18BF012070BD13F0060F03D021465F
:101ED000D720FFF76EFE31465920FFF76AFE002833
:101EE000ECD1FC212846FFF737FE28B1013C14F065
:101EF000FF0405F50075F4D1FD210020FFF72CFE4D
:101F00000028DBD10124D9E70420DCE70320DAE74D
:101F10000220D8E708000010D00300107FB5064665
:101F20000D46FFF7ABFE052E15D12C78012C10D0F5
:101F30002CB1022C0AD00424204604B070BD02F05B
:101F40009FFF0028F8D0FFF7F7FDF5E702F098FFB4
:101F500068700024F0E76F4B1C7814F0010440F027
:101F6000D7800E2E00F2D280DFE806F008134E5222
:101F7000D0D0D0D0D0D09DA1B0B3C40002F070FFBB
:101F8000FFF7C5FDB0F1FF0418BF012402F070FF98
:101F9000D2E700214920FFF70CFE044608B10124D6
:101FA000F4E710216846FFF747FE0028F7D09DF8B8
:101FB00000309DF808109B09012B9DF8093006D1CF
:101FC0005A1C02EB012292B292022A60DEE79DF8CF
:101FD00007209DF80A00920002EB91129DF806106E
:101FE000890201F4406101320A449DF805105B004A
:101FF00001F00F0101EBD01103F006030B44073B86
:1020000002FA03F32B60C1E74FF400732B80BDE7A6
:10201000414E317811F004011CD00021CD20FFF792
:10202000C8FD0028BBD1FF2003F0FCFA1021684650
:10203000FFF702FE0028B2D03024FF20013C03F05D
:10204000F1FA14F0FF04F8D19DF80A301A091023B0
:102050009340D7E74920FFF7ACFD044600289ED106
:1020600010216846FFF7E8FD002898D032789DF8E7
:102070000A309DF80B1092070AD55B009DF80D20E1
:1020800003F07E0303EBD11392090133013ADFE73A
:10209000CA0002F01802C3F3840302EB51120133A9
:1020A00002FB0333AEE71C4B1B782B706EE700215D
:1020B0004920FFF77EFD00287FF471AF10212846EC
:1020C000FFF7BAFDB0FA80F464095FE700214A2007
:1020D000EFE700217A20FFF76CFD044600287FF42B
:1020E0005EAF2E1DFF2003F09DFA05F8010BAE42F6
:1020F000F8D14BE70021CD20FFF75BFD00287FF4EE
:102100004EAFFF2003F08EFA4021D8E704243DE7CC
:10211000032411E708000010D003001008B506469C
:1021200005F067FB00240546A54200DCFEE7315DB3
:10213000002003F079FB0134F6E7FFFF02280CD9F9
:10214000074B1B685A68824207D09A68824204D0C3
:10215000DB681B1A5842584170470120704700BF86
:10216000A001001008B50148FFF7D8FF46C50000E0
:102170000020704700207047F8B504460E4615460B
:10218000FFF7DCFF48B3164B1B68DB68A34210D097
:10219000A31E5C425C4102F07BFC0746002003F07A
:1021A000F7FA022F17D1B0B1ACB9A54203DC28462B
:1021B000F8BD0124EFE7315D4FF0FF32002003F05E
:1021C00095FB0134F1E7315D002003F02DFB013474
:1021D000A542F8DCEBE70024FAE70248FFF79EFF90
:1021E000A00100109EC5000038B50C46FFF7A6FF01
:1021F000A8B102F04DFC0546002003F0D3FA022DF1
:1022000008D138B14FF0FF322146002003F01EFB09
:10221000012038BD2146002003F03EFBF8E70148CD
:10222000FFF77CFF6CC500002DE9F04F85B002ACD4
:1022300084E80C000646244ADFF89C90DFF89CA056
:10224000DFF89CB0884694E8030000F01DFE94E897
:102250000300B56800F0F0FD01464046A847356828
:1022600015B905B0BDE8F08F6F68384605F0C1FAC2
:102270002B68009732288CBF52464A4694E80300E8
:1022800000F002FE5A4694E8030000F0D1FF0F4A26
:10229000074694E8030000F0CBFF07B920B10C4AD1
:1022A00094E8030000F093FE0A4A94E8030000F06B
:1022B0008EFE94E80300B76800F0BEFD014640467C
:1022C000B847ED68CCE700BFD1C5000018C60000D4
:1022D0000CC8000017C600002DC600001AC600007A
:1022E00039C6000030B504294FF0000538BF04217D
:1022F0000560C0E90112C36030BD11B10368CB6055
:10230000016070472DE9F04F87B06E4686E80C00FB
:102310000546634A884696E8030000F0F5FF614AE7
:1023200096E8030000F0BBFE002856D096E80300B4
:1023300002AC5C4A84E8030000F084FE30B194E80B
:102340000C0041462846FFF76FFF3DE094E803008C
:10235000202200F087FF94E8030004AF87E8030021
:102360002E68DFF848912EB994E803002E6887E8BC
:10237000030010E04B46326897E8030000F0C8FE07
:10238000D0B9F668EFE76B68326897E8030000F0B1
:102390006BFE88B9F668002EF5D13246424B94E8C0
:1023A000030000F0CDFD94E80300AE6800F044FDAA
:1023B00001464046B04703E0AB6871684046984725
:1023C000AB68374940469847E968002965D0AB6853
:1023D000404607B0BDE8F04F1847DDE900A9CDE958
:1023E00004A92E68314F04AC1EB9CDE904A92E68AA
:1023F00010E03B46326894E8030000F089FEE0B943
:10240000F668F1E76B68326894E8030000F02CFE90
:1024100098B9F668002EF5D1CDE904A93246244BCF
:1024200094E8030000F08CFD94E80300AE6800F02F
:1024300003FD01464046B04781E7CDE902A90DF111
:10244000080B20229BE8030000F00CFFB768AB6884
:102450009BE806004046B8470028B5D0CDE904A95E
:10246000144B002294E8030000F06AFD94E8030096
:10247000AF6800F0E1FC01464046B84773680E4A79
:1024800094E8030000F000FD94E80300AE6800F05B
:10249000D3FC01464046B04796E707B0BDE8F08F51
:1024A00017C600003BC600006EC60000A4D50000A1
:1024B00097C6000040C6000051C6000010B54C1E73
:1024C00014F8010F00B910BD04F0E8FFF8E7FFFFB2
:1024D0002DE9F041A6B06E468046224B802206A927
:1024E000304600F01AFD02AC96E80C000021404690
:1024F000FFF708FF96E8030084E8030000F0A3FC60
:1025000004AD94E8030000F02CFE0028ECD103F0A9
:10251000F1FEC7B294E80300082F85E8030017D145
:1025200000F066FC68B1012295E8030000F065FE4A
:10253000384604F0B3FF202004F0B0FF384604F022
:10254000ADFF94E8030000F05EFC0028D9D0CBE793
:10255000384604F0A3FF3A4695E8030000F05EFD1C
:10256000EFE700BF3BC6000030B589B004AD284698
:10257000164B174A174C0421FFF7B4FE95E80F00DD
:1025800084E80F0020461449FFF7B7FE20461349A0
:10259000FFF7B3FE20461249FFF7AFFE2046114970
:1025A000FFF7ABFE20461049FFF7A7FE0F4B029343
:1025B0000F4B0193032300934FF4007223460D4900
:1025C0000D4801F0A3FE09B030BD00BFC8C6000031
:1025D000BD240000D40300104C0000103C0000108B
:1025E0001C0000100C0000102C000010E40B001068
:1025F000E40300101BC70000D12400002DE9F047C0
:10260000EAB00DF108090DF1A80A89E803001646A1
:1026100000214FF48072504608AC03F0B9FE0DF172
:10262000180880220AA9204607AF00F0C1FB002548
:1026300001233B60C8F80050CDE9008705AB2B4A69
:10264000059599E8030000F036FC012842D93B6863
:10265000009398F800209DF814105346022002F0D1
:102660008BFE814648B3059B214ADFF8909094E8A1
:10267000030000F009FC94E8030000F0DDFB0146D4
:102680002846B0473B68AB4202D86AB0BDE8F08745
:102690001AF80520D8F80030CDE900222B444A462C
:1026A00094E8030000F0F0FB94E8030000F0C4FBA2
:1026B00001460020B0470135E4E70E4A94E80300E4
:1026C00000F00DFC94E8030000F0B6FB014648461C
:1026D000B047DAE7084A94E8030000F000FC94E809
:1026E000030000F0A9FB01462846F1E7B9C8000045
:1026F000C6C80000F7C8000024C90000E0C80000F8
:102700002DE9F047EAB0002502AE0DF118080DF1F1
:10271000A80986E80300174629464FF48072484608
:1027200008AC0595C8F8005003F032FE80220AA9D3
:10273000204600F03DFBCDF8008005AB364A96E818
:10274000030000F0B8FB02285AD1202296E80300CB
:1027500000F088FD202296E8030000F083FD079535
:1027600007AA96E8030000F097FD824608BB009593
:102770004B4698F800209DF81410022002F036FE17
:10278000064680B3059B0093244A2B4694E8030039
:1027900000F07AFB94E8030000F04EFB014650463F
:1027A000B8475646DFF880A0B54207D16AB0BDE809
:1027B000F087079B09F805300135D1E719F80620A5
:1027C000D8F80030CDE900223344524694E80300A3
:1027D00000F05AFB94E8030000F02EFB01460020B5
:1027E000B8470136E0E70E4A94E8030000F077FBB3
:1027F00094E8030000F020FB01463046B847D5E7D7
:10280000084A94E8030000F06AFB94E8030000F033
:1028100013FB01462846F1E764C900006EC90000B9
:10282000A5C90000D3C900008EC900002DE9FF41F1
:102830006C4684E80600154A94E803001F4600F041
:102840002EFC134A054694E8030000F028FC2022E1
:10285000804694E8030000F005FD94E8030002AE12
:1028600086E8030035B13A46FFF7C8FE002004B001
:10287000BDE8F081B8F1000F05D03A4696E80300B4
:10288000FFF73EFFF2E70120F1E700BFAEC800000E
:10289000B3C8000037B56C4684E8060094E803002E
:1028A0001D4600F0C9FA0146032000F0EAF9084984
:1028B0000020A84794E8030000F0BEFA014600207B
:1028C000A84704490020A847002003B030BD00BF3E
:1028D000A3CA000017C6000010B507480C46002325
:1028E0004FF0FF32006801F083F82146034804F0FE
:1028F00075FD002010BD00BF1814001025CA00008F
:1029000082B002AB03E906000123024A1A600020EC
:1029100002B07047EFBEADDE2DE9F04F8FB006AFCD
:1029200007F1080080E8060003C8994600F0D6FBCE
:10293000041E04DD02F0C0F9204601F0CBFEBB68A6
:10294000BB61DAB0FB68FB6100257D6100F016FA1F
:102950000DF1180B786007F114020A21584602F0B5
:102960004BF807F118042A4B2A4A386094E8030010
:1029700000F08AFA94E8030000F05EFA0146284667
:10298000C847A8465E464FF0000A26E073694345F3
:1029900020D1B2697B69154423B16421B3FBF1F303
:1029A000B2FBF3F3CDE90332338C1B4A9B00CDE934
:1029B0000183337B52F8233000937368174A94E8FD
:1029C000030000F061FA94E8030000F035FA0146D4
:1029D0000020C8470AF1010A24363B685345D5D187
:1029E00008F10108B8F10A0FCCD17B680C4A5B1BD7
:1029F00094E8030000F048FA94E8030000F01CFAA1
:102A000001460020C84700202437BD46BDE8F08FAE
:102A100045CA00004ACA0000E0CA000075CA0000AA
:102A200092CA0000F8B504460D4600F00BF90619ED
:102A300041EB050702F02CF802280CD100234FF4DB
:102A40007A72AB4208BFA24205D22046294603F063
:102A50000FFA01F03FFE00F0F5F8B94208BFB042AE
:102A6000F9D3F8BD4FF47A73A0FB0301FFF7DABF87
:102A700030B585B002F072F902F00CFA8DF80C0056
:102A800002F00EFA8DF80D0002F010FA8DF80E002B
:102A900002F012FA00248DF80F0004AA04F00303D8
:102AA0001344013413F8040C02F0D2FA3220FFF779
:102AB000D9FF202CF1D1294B186800231946022296
:102AC000406804F085FDFDF7ADFB002501464FF49D
:102AD000E132002002F018FE0095214B214A01212D
:102AE000204600F015FF204B009504461F4A0121A7
:102AF000802000F00DFF22460146284602F05CFED1
:102B000045F6C05002F06CFD012219491948FEF744
:102B1000D1FC194A194B1A49A84208BF1346194A51
:102B200019481A4D04F05AFCFDF77CFB184B009332
:102B30000246184B1849022002F0C2FB0224E1B2FF
:102B4000022002F07BFC18B12146284604F046FC26
:102B50000234B4F5807FF2D105B030BDA001001081
:102B6000000D0010E00C001008100010880F00107D
:102B700019C60000500D001005CB000023CB00004B
:102B80004ACB0000F4CA00009BCB0000BBCB000086
:102B9000900C0010400C0010801A060010B50A4C72
:102BA000236823B90949012000F0D0FF206001F01B
:102BB0006FFF022806D120684FF0FF31BDE81040BA
:102BC00001F028B910BD00BF581000105C100010B3
:102BD00010B501F05DFF022808D1054800231A4610
:102BE00019460068BDE8104000F002BF10BD00BFEC
:102BF00058100010074A08B5136800210133084631
:102C0000136002F07FFA00210846BDE8084002F098
:102C100065BA00BFAC10001008B5074A0749B0FB01
:102C2000F1F10020013902F023FA0021044A08469C
:102C3000BDE8084002F040BAF52B000040420F000A
:102C40000087930370B5084E002002F053FA054642
:102C50000020346802F04EFA8542F5D8034B00217B
:102C6000E3FB040170BD00BFAC10001000879303AC
:102C700008B5FFF7E7FF4FF47A72002303F0F8F886
:102C800008BD70B5054608460C4604F0B2FD26188E
:102C9000B4424FF0FF320BD10D21284602F026FE40
:102CA00028464FF0FF320A21BDE8704002F01EBEF8
:102CB00014F8011B284602F019FEE9E770B5054635
:102CC00008460C4604F095FD2618B44205D1284666
:102CD0000A21BDE8704002F0A7BD14F8011B284688
:102CE00002F0A2FDF1E7FFFF0C460020044908B501
:102CF000FFF7E4FF21460020FFF7E0FFFEE700BFFB
:102D000014CD000008B502490020FFF7D7FFFEE709
:102D1000DACC0000024B0022C3F8C02030BF70475D
:102D200000C00F4008B50C4600200A49FFF7C6FF57
:102D300009490020FFF7C2FF08490020FFF7BEFF46
:102D400007490020FFF7BAFF21460020FFF7B6FF32
:102D5000FEE700BFE2CB000034CC000077CC0000DF
:102D6000ABCC0000034B0360034B0B606423136088
:102D7000704700BF48120010B810001008B5FFF7E8
:102D800061FF024B1B68C01A08BD00BFB0100010E5
:102D900008B5FFF757FF024BC3E9000108BD00BFAC
:102DA000B010001018B109B1401A704708467047BA
:102DB00038B5054614460B4649B152B118460021B4
:102DC00003F0E6FA0346C5E90034284638BD0C4650
:102DD000F9E71346F7E782B002AB03E90300DDE948
:102DE00000301BB100B1013802B070471846FBE754
:102DF00082B002AB03E90300009810B102B004F006
:102E0000F8BC02B0704713B56C4684E80300009B21
:102E100023B9B1FA81F0400902B010BD94E8030073
:102E2000FFF7E6FF024694E80300FFF7D4FF824273
:102E300034BF00200120EFE782B002AB03E90300BA
:102E4000009802B0704782B002AB03E90300009B18
:102E500033B1019810B100221A70012002B07047FE
:102E60001846FBE707B50DF1080C0CE903000098C4
:102E700030B12AB1019919B105F0C0FB002800DC7E
:102E8000002003B05DF804FB0CB41FB56C4684E869
:102E90000300069A40B162B1084629B107AB94E835
:102EA00003000393FFF7DEFF04B0BDE8104002B05B
:102EB00070471046F8E70CB41FB56B4683E8030073
:102EC000069930B129B107AA039205F0C9FB002881
:102ED00000DC002005B05DF804EB02B07047F7B5E8
:102EE0006D4685E8030014460646A0B19AB108462F
:102EF00079B1104604F07DFC074695E80300FFF722
:102F00006AFF8742024606D82146304604F0AEFCEE
:102F1000012003B0F0BD0020FBE738B504461D4694
:102F200021B90023C4E90033204638BD002BF8D076
:102F3000FFF73EFF2A4694E80300FFF7D0FFF3E7D0
:102F40002DE9F04385B06D4685E8030016461F461F
:102F5000044618B9002005B0BDE8F083002BF9D075
:102F6000DDF80480B8F1000FF4D095E80300FFF716
:102F70003FFFB042EED3CDE902480DF1080898E8D2
:102F80000300FFF735FF8146384604F032FC8144E8
:102F900098E80300FFF71FFF8145DBD8384604F0AF
:102FA00028FC3444804604EB000995E80300FFF751
:102FB0001FFFC6F1010202442146484603F0CEF944
:102FC00042463946204604F051FC0120C3E72DE972
:102FD000F3416C4684E8030015460646E0B1DAB1D9
:102FE0000846B1B194E80300FFF702FF0746284600
:102FF00004F0FFFB024607EB000894E80300FFF72C
:10300000EAFE804508D801322946F01903F098F904
:10301000012002B0BDE8F0810020FAE71FB56B4641
:1030200083E8030058B1084649B18DF80C2000220E
:103030008DF80D2093E8030003AAFFF7C8FF05B041
:103040005DF804FB07B502AB03E9030000981146E5
:1030500028B13AB104F0A4FBB0FA80F0400903B003
:103060005DF804FB1046FAE7F7B56D4685E8030006
:1030700014461F46064680B17AB195E80300FFF773
:10308000B7FEB84209D33A462146304604F0DCFB8D
:10309000B0FA80F0400903B0F0BD0020FBE773B543
:1030A0006B4683E8030014460546A0B19AB193E845
:1030B0000300FFF79DFE0646204604F09AFB864279
:1030C000024608D32146284604F09CFBB0FA80F063
:1030D000400902B070BD0020FBE7FFFF13B56B464F
:1030E00083E80300044678B1084A93E80300FFF739
:1030F000D6FF002814BF10220A220021204602B069
:10310000BDE8104005F044BA02B010BD31CD00005A
:103110002DE9F3416F4687E8030015461C46064635
:10312000E8B1E2B1DBB197E80300FFF761FE80464A
:10313000284604F05EFB8045074610D30246294628
:10314000304604F081FB50B9F05D237883421ABF0A
:10315000B0FA80F04009012002B0BDE8F081002003
:10316000FAE713B56B4683E80300044668B193E8B9
:103170000300FFF73DFE40B1204410F8010C0D287C
:1031800005D0A0F10A035842584102B010BD0120F9
:10319000FBE7F7B56F4687E8030015461E46044671
:1031A000A8B1084689B197E80300FFF721FEA842BD
:1031B0000DD9401B864228BF0646A9190130821B43
:1031C0002144601903F0CAF8012003B0F0BD0020CB
:1031D000FBE717B46C4684E80300134640B139B1ED
:1031E00094E80300002203B05DF8044BFFF7D1BF61
:1031F000002003B05DF8044B704737B56C4684E897
:103200000300154688B181B194E80300FFF7F0FD93
:10321000A84228BF421B94E8030038BF00222B4677
:1032200003B0BDE83040FFF7B4BF002003B030BDAD
:1032300013B502AB03E90300009C7CB182B1019895
:1032400050B11146204604F024FB28B12146FFF777
:10325000A9FD00232354012002B010BD2046FBE746
:103260001046F9E737B56C4684E80300054678B1A7
:1032700071B1114604F0B0FA50B12946FFF792FD42
:10328000421C94E8030003B0BDE83040FFF7A1BF43
:10329000002003B030BDFFFFF7B56F4687E803009D
:1032A0001446064648B351B3164905462A4612F855
:1032B000013BE3B15B5C580717D534B10A2200210A
:1032C000284605F065F9206001240E4A284615F8C5
:1032D000013B73B93146FFF765FD024697E80300ED
:1032E000FFF777FF204603B0F0BD1546DEE71C462A
:1032F000EBE79B5C5B07E9D4ECE70446F2E70C469E
:10330000F0E700BF9CD40000F7B56B4683E80300EC
:1033100015460646F8B1EAB10846E1B193E8030064
:10332000FFF766FD0446284604F063FA631E334443
:10333000284400219A1B002A02DB2A46824201D13E
:10334000012008E012F8014B1F78A742F6D103F8DC
:103350000119EFE7104603B0F0BD00F079B800F0B6
:10336000BFB800F0EFB810B5044601F0A3F820464E
:1033700002F0D6FF044601F037F90CB9FFF7C2FCA2
:10338000204610BD10B5044640B101F093F8204628
:1033900002F0CEFFBDE8104001F026B910BDFFFFDE
:1033A00008480068006880F308884FF0000080F348
:1033B000148862B661B6BFF34F8FBFF36F8F00DF23
:1033C00000BF000008ED00E0DFF80C00016841F4E8
:1033D000700101607047000088ED00E007B5002330
:1033E00001930B4B1B68013304D00A49EF20FFF710
:1033F00099FCFEE74FF0180383F31188BFF36F8F3A
:10340000BFF34F8F019B002BFCD003B05DF804FB92
:10341000AC12001034CD00004FF0807340F8043C33
:10342000074B40F80C3C21F001016FF0020340F81B
:10343000081C40F8202C40F8243C4438704700BF5A
:10344000DD330000FFFFFFFFFFFFFFFFFFFFFFFF78
:10345000074B19680868B0E8F04F80F30988BFF39C
:103460006F8F4FF0000080F311887047AFF300803A
:10347000B012001008B54FF0180383F31188BFF3A2
:103480006F8FBFF34F8F094A13680133012B13600D
:103490000AD1074B1B6813F0FF0F05D0054940F216
:1034A000AB10FFF73FFCFEE708BD00BFAC120010F9
:1034B00004ED00E04ECD0000074A08B513682BB9B3
:1034C00006494FF4D970FFF72DFCFEE7013B13606E
:1034D0000BB983F3118808BDAC12001083CD000036
:1034E000EFF30980BFF36F8F154B1A681EF0100FB2
:1034F00008BF20ED108A20E9F04F10602DE9090087
:103500004FF0180080F31188BFF34F8FBFF36F8F18
:1035100001F004F94FF0000080F3118809BC19682C
:103520000868B0E8F04F1EF0100F08BFB0EC108A2A
:1035300080F30988BFF36F8F704700BFAFF300803F
:10354000B012001008B54FF0180383F31188BFF3D1
:103550006F8FBFF34F8F00F0B5FF18B1034B4FF0E3
:1035600080521A60002383F3118808BD04ED00E047
:1035700010B5084A084C002323601360FCF74EFE88
:103580004FF47A73B0FBF3F0044B01381860072353
:10359000236010BD18E000E010E000E014E000E05F
:1035A000334B344A13B51968914205D132494FF46F
:1035B0009A70FFF7B7FBFEE71A68304B9A4205D1C5
:1035C0002F4940F23510FFF7ADFBFEE72D4B1A787F
:1035D000D2B20192FF221A701B782B4ADBB28DF80F
:1035E00003309DF8033003F018031370274A0723B4
:1035F000136000219DF80300000603F1FF3409D495
:1036000011B1022B13600ED0214940F25D10FFF77B
:1036100089FBFEE79DF803305B00DBB28DF80330D9
:1036200001212346E6E74FF400731360019B154A1E
:10363000DBB21370174B1A6842F478021A601A68EA
:1036400042F078421A60FFF793FF134B00241C608E
:10365000FFF7BAFE114A136843F040431360FFF7C7
:103660009FFE01F05BF8FFF7B9FE204602B010BDE7
:1036700000ED00E071C20F4101CE000070C20F41A9
:1036800024CE000000E400E0A4120010A8120010F4
:1036900047CE000020ED00E0AC12001034EF00E057
:1036A00008B5EFF305830F2B0BD90D4A9B5C0D4A30
:1036B00012789A4205D90C4940F2FE20FFF732FBFE
:1036C000FEE70A4B0A4A1B68126803F4E063934260
:1036D00005D9084940F20E30FFF724FBFEE708BD8C
:1036E000F0E300E0A412001095CD00000CED00E026
:1036F000A8120010BFCD000000F108034FF0FF3208
:103700004360C0E902230361002303607047002384
:103710000361704743684B609A688A609A68516099
:103720009960036808610133036070470A68531C9D
:1037300030B50AD103695A684A6091608B6059605C
:10374000036808610133036030BD00F108035C6861
:1037500025689542EFD82346F9E7D0E901120369BD
:103760008A6051605968814208BF5A600022026134
:103770001A68013A1A601868704710B50446FFF7D6
:1037800079FEA46BFFF798FEB4FA84F0400910BDEF
:10379000F8B51546026C866B044652B9076847BBFC
:1037A000806801F0D7F9A76005460136A663284670
:1037B000F8BD65B9406802F0C3FD6368226C13442C
:1037C000A26863609342F0D323686360EDE7C0684A
:1037D00002F0B6FD236CE26821685B421A448A421B
:1037E000E2603EBFA2689B18E360022D01D116B1D2
:1037F000013E0025D9E73546D7E7034610B41A6CD9
:10380000084662B1D9689C681144A142D96024BFBE
:103810001968D960D9685DF8044B02F091BD5DF874
:10382000044B704770B50446FFF724FE94F84550EA
:1038300004F124066DB2002D14DCFF2384F845301A
:10384000FFF73AFEFFF716FE94F8445004F1100615
:103850006DB2002D12DCFF2384F84430BDE87040C7
:10386000FFF72ABE636A002BE7D0304600F0CCFF9A
:1038700008B101F04FF8013D6DB2DCE72369002B80
:10388000E9D0304600F0C0FF08B101F043F8013D37
:103890006DB2DEE738B50D46044628B91A4940F244
:1038A0000310FFF73FFAFEE7FFF7E4FDD4E90F301E
:1038B000226862604343D1181B1A1344A160E3607D
:1038C0000021FF23A16384F8443084F8453095B982
:1038D000236963B104F1100000F096FF38B10B4B7F
:1038E0004FF080521A60BFF34F8FBFF36F8FFFF717
:1038F000E3FD012038BD04F11000FFF7FDFE04F1E7
:103900002400FFF7F9FEF2E74DCF000004ED00E0E0
:1039100013B51C4628B91E494FF49D70FFF702FAF3
:10392000FEE72BB91B494FF49F70FFF7FBF9FEE749
:1039300032B161B918494FF4A170FFF7F3F9FEE70E
:1039400029B1164940F24310FFF7ECF9FEE7502386
:103950000193019B502B05D0114940F24B10FFF70A
:10396000E1F9FEE7002908BF2246019B22600123FE
:10397000C4E90F0184F8463019462046FFF78AFF54
:103980009DF8103084F84C30204602B010BD00BFC6
:103990008ACE0000ACCE0000C2CE0000FACE0000FD
:1039A00032CF0000F8B50D461746064628B90F4934
:1039B0004FF4BB70FFF7B6F9FEE748435030FFF70E
:1039C000D2FC044670B1002380F8463065B100F1A6
:1039D00050032360C4E90F6501212046FFF75AFF19
:1039E00084F84C702046F8BD0346F2E78ACE00000A
:1039F0002DE9FF47884601921F46044628B94E49E3
:103A000040F2F120FFF78EF9FEE739B9036C2BB1D4
:103A10004A4940F2F220FFF785F9FEE7022F08D16C
:103A2000E36B012B05D0464940F2F320FFF77AF90A
:103A3000FEE701F02DF8064638B9019B33B1414944
:103A400040F2F620FFF76EF9FEE700264FF000097E
:103A5000DFF8F4A037E0019D1DB9FFF72DFD002030
:103A600050E016B902A800F00FFFFFF725FD00F0A7
:103A700021FDFFF7FFFC94F84430FF2B08BF84F8CA
:103A8000449094F84530FF2B08BF84F84590FFF729
:103A900013FD01A902A800F003FF002846D1FFF79B
:103AA000E9FCA26BE36B9A422FD1FFF705FD019968
:103AB00004F1100000F090FE2046FFF7B3FE00F086
:103AC00093FD50B30126FFF7D5FCA26BE36B9A423E
:103AD00001D3022FBFD13A4641462046FFF758FE98
:103AE000636A1BB104F1240000F08EFE38B1164B5E
:103AF0004FF080521A60BFF34F8FBFF36F8FFFF705
:103B0000DBFC012004B0BDE8F087FFF7D5FC2046C0
:103B1000FFF788FE00F068FDD4E74FF08053CAF845
:103B20000030BFF34F8FBFF36F8FCBE72046FFF717
:103B300079FE00F059FD92E74DCF000055CF00000F
:103B4000A5CF0000ECCF000004ED00E013B500228B
:103B500000900B4601201146FFF7DAFE044638B10B
:103B6000002383600360C3601A461946FFF740FFD5
:103B7000204602B010BDFFFF2DE9F843894690466C
:103B80001F46044628B9284940F2C330FFF7CAF857
:103B9000FEE739B9036C2BB124494FF47170FFF77C
:103BA000C1F8FEE7022F08D1E36B012B05D02049B5
:103BB00040F2C530FFF7B6F8FEE7FFF771FDEFF30F
:103BC00011864FF0180383F31188BFF36F8FBFF393
:103BD0004F8FA26BE36B9A4201D3022F22D194F84C
:103BE00045503A466DB249462046FFF7D1FD6B1C61
:103BF00013D1636A0BB901200BE004F1240000F03B
:103C000003FE0028F7D0B8F1000FF4D00120C8F867
:103C1000000086F31188BDE8F88301356DB284F8A1
:103C20004550E8E70020F4E74DCF000055CF0000F5
:103C3000A5CF000070B50D46044628B923494FF4BE
:103C40008C60FFF76FF8FEE7036C2BB1204940F260
:103C50006440FFF767F8FEE703683BB983682BB160
:103C60001C4940F26940FFF75DF8FEE7FFF718FDD9
:103C7000EFF311864FF0180383F31188BFF36F8FB2
:103C8000BFF34F8FA26BE36B93421CD994F845307E
:103C900001325BB2A2635A1C10D1636A0BB90120D6
:103CA00009E004F1240000F0AFFD0028F7D0002D5A
:103CB000F5D00120286086F3118870BD01335BB216
:103CC00084F84530EBE70020F5E700BF4DCF00005A
:103CD00042D000005BD000002DE9F04385B00F46D4
:103CE0000192044628B947494FF4A060FFF71AF83B
:103CF000FEE739B9036C2BB1434940F20450FFF79A
:103D000011F8FEE700F0C4FE064638B9019B33B156
:103D10003E4940F20950FFF705F8FEE700264FF054
:103D20000008DFF8EC903BE0019D1DB9FFF7C4FBF4
:103D3000002052E016B902A800F0A6FDFFF7BCFB78
:103D400000F0B8FBFFF796FB94F84430FF2B08BF58
:103D500084F8448094F84530FF2B08BF84F84580F0
:103D6000FFF7AAFB01A902A800F09AFD00283DD1A7
:103D70002046FFF702FD98B3019904F1240000F0FA
:103D80002BFD2046FFF74EFD00F02EFC38B94FF01A
:103D90008053C9F80030BFF34F8FBFF36F8F0126F8
:103DA000FFF768FBA56B002DBED039462046013DCC
:103DB000FFF723FDA563236963B104F1100000F050
:103DC00023FD38B1124B4FF080521A60BFF34F8F72
:103DD000BFF36F8FFFF770FB012005B0BDE8F083E4
:103DE0002046FFF71FFD00F0FFFBD8E72046FFF756
:103DF00019FD00F0F9FB2046FFF7BFFC0028CED0EC
:103E000096E700BFC2D00000CED00000ECCF00008B
:103E100004ED00E02DE9FF410446019128B958491D
:103E200040F29150FEF77EFFFEE7056C2DB155493B
:103E300040F29550FEF776FFFEE700F029FE0646B9
:103E400038B9019B53B1504940F29A50FEF76AFFCE
:103E5000FEE72E460027DFF838814EE00546F9E7F9
:103E6000019B4BB92DB1494940F2E150FEF75AFF91
:103E7000FEE7FFF721FB5EE016B902A800F004FDA3
:103E8000FFF71AFB00F016FBFFF7F4FA94F8443042
:103E9000FF2B08BF84F8447094F84530FF2B08BF0F
:103EA00084F84570FFF708FB01A902A800F0F8FCB0
:103EB00000284AD12046FFF760FC00283FD0236845
:103EC0003BB9FFF7D7FAA06800F0F2FD0546FFF70F
:103ED000F3FA019904F1240000F07EFC2046FFF77C
:103EE000A1FC00F081FB38B94FF08053C8F80030D6
:103EF000BFF34F8FBFF36F8F0126FFF7BBFAA36BA2
:103F0000002BADD0013BA363236813B900F0C8FEBA
:103F1000A060236963B104F1100000F075FC38B1B2
:103F20001B4B4FF080521A60BFF34F8FBFF36F8F60
:103F3000FFF7C2FA0125284604B0BDE8F08120460B
:103F4000FFF770FC00F050FBD6E72046FFF76AFC55
:103F500000F04AFB2046FFF710FC0028CCD0002DD3
:103F6000E9D0FFF787FA616A19B1236B1968C1F1CB
:103F70000A01A06800F03CFE0025FFF79DFADAE791
:103F8000C2D0000042D00000ECCF00006CD1000095
:103F900004ED00E02DE9F84389469046054628B92E
:103FA000214940F2FB60FEF7BDFEFEE739B9036C24
:103FB0002BB11E4940F2FC60FEF7B4FEFEE7FFF7AE
:103FC0006FFBEFF311874FF0180383F31188BFF3F2
:103FD0006F8FBFF34F8FAC6B1CB395F844604946AD
:103FE00076B22846FFF709FC013C731CAC6313D181
:103FF0002B690BB901200BE005F1100000F004FC67
:104000000028F7D0B8F1000FF4D00120C8F8000064
:1040100087F31188BDE8F883013676B285F84460ED
:10402000E8E72046F4E700BF4DCF000021D10000B3
:1040300010B5044628B9064940F28A70FEF772FEB0
:10404000FEE7FFF717FAA46BFFF736FA204610BD1C
:104050004ECF000008B528B9064940F2B770FEF708
:1040600061FEFEE790F846301BB9BDE80840FFF757
:1040700089B908BD4DCF000043685B68436000F11B
:104080000802934204BFC3684360436830B5DC68EC
:1040900000255B689A4208BF5368D9688C420D6559
:1040A000F7D1436030BDFFFF2DE9F0410446FFF733
:1040B000E1F92D4B2D4D1A682D4F01321A602E68F3
:1040C000002E46D12C601B68012B1CD1B8464046FF
:1040D0000136FFF711FB0A2E08F11408F7D1DFF8BB
:1040E000B880244E4046FFF707FB3046FFF704FB3D
:1040F0002148FFF701FB2148FFF7FEFA204BC3F8E8
:104100000080204B1E60204A204913680868013354
:104110001360E26A236401239340034314200B607D
:1041200000FB0270211DFFF7F5FAFFF7C5F9184BE8
:104130001B6863B12B68DA6AE36A9A4207D2154BAF
:104140004FF080521A60BFF34F8FBFF36F8FBDE8FF
:10415000F0810F4B1B68002BD5D12B68DA6AE36A1C
:104160009A4298BF2C60CEE788130010B01200105E
:10417000BC120010B0130010D0130010E813001090
:10418000B4120010B812001094130010981300100D
:10419000E413001004ED00E09C13001008B5074C78
:1041A000074D4FF080562368012B04D92E60BFF3D2
:1041B0004F8FBFF36F8FFEF7ADFDF4E7BC12001019
:1041C00004ED00E0064A13681968064B19B94FF070
:1041D000FF321A6070471268D268D2685268F8E7F6
:1041E000B4120010C81300102DE9F047DDE909648E
:1041F0004FEA82094A4607460D46206BA52198469C
:1042000002F0C6F8236BA9F10409994429F00709C3
:104210009DB36B1E04F134020B3513F8011F02F835
:10422000011B09B1AB42F8D1002384F83F30089D4F
:10423000092D28BF09254FF0000AE562A564201D5D
:10424000C4F84CA0FFF763FAC5F10A0504F11800A1
:10425000FFF75DFAC4F854A02461A5616462C4F854
:1042600050A084F858A0424639464846FFF7D4F893
:10427000206006B13460BDE8F08784F83450D6E79A
:10428000F8B51B4B1B4E1C680546306804300F46C2
:10429000FFF763FA334640B93168174EC96A32688E
:1042A0000120884022EA000232606A1C07D137B13F
:1042B000196812480431BDE8F840FFF72BBA1A68B4
:1042C0006419546007D30E4A10681968BDE8F840B5
:1042D0000431FFF72BBA0B4A106819680431FFF755
:1042E00025FA094B1A68A24288BF1C60F8BD00BFBE
:1042F000FC130010B012001098130010E813001007
:10430000B8120010B4120010C813001070B586B0B7
:10431000DDE90B542DB9154940F24D20FEF702FDA1
:10432000FEE72CB9124940F24E20FEF7FBFCFEE7F7
:104330005C260596059E5C2E05D00E4940F256205F
:10434000FEF7F0FCFEE72563022584F8595004AD22
:1043500001950A9D02940095059EFFF745FF2046B2
:10436000FFF7A2FE049806B070BD00BF5DD200004A
:1043700074D2000089D200002DE9F043074685B0D1
:104380009000884616469946FEF7EDFF0546E8B1CF
:104390005C20FEF7E8FF0446A8B1002380F85930FE
:1043A0000D9B056301930C9B0290009332464B4694
:1043B00041463846FFF718FF2046FFF775FE0120FB
:1043C00005B0BDE8F0832846FEF7DCFF4FF0FF3074
:1043D000F6E7FFFFF8B5044628B914494FF4AD607D
:1043E000FEF7A0FCFEE7124B1B68834218D0FFF7D4
:1043F00041F8104B65691F680F4B1E68FFF75CF8AA
:10440000BD4211D0B5420FD00C4B9D420AD1A36AD8
:1044100053B994F85830012B0CBF02200320F8BD8B
:104420000020FCE70120FAE70220F8E78CD1000029
:10443000B0120010B4120010B8120010E8130010EF
:1044400010B588B0002407AA06A905A8CDE905443F
:10445000FEF788FC059B0293069B079A0F491048BC
:10446000CDE900432346FFF751FF0E4B186090B192
:104470004FF0180383F31188BFF36F8FBFF34F8F93
:10448000094B4FF0FF321A60084B01221A60084BAB
:104490001C60FFF785F808B010BD00BF03D2000014
:1044A0009D410000C4130010C8130010E413001055
:1044B000FC130010024A136801331360704700BFF9
:1044C000901300102DE9F84F3B4B1B68002B6BD16C
:1044D0003A4B1C6801341C60A4B9394B1A68126845
:1044E0002AB1384940F67F20FEF71CFCFEE7364A29
:1044F0001968106818601160344A1368013313603A
:10450000FFF760FE324D334F2B68A3424FF0000B94
:1045100011D93A68304BD16A14224A439A58022A78
:1045200028BF4FF0010B2D4A1268002A0CBF5846D5
:104530000120BDE8F88FDFF888A0DFF8A890DAF84E
:10454000002012681AB94FF0FF322A60E1E7DAF86A
:104550000020D268D66871688C4201D22960D8E701
:1045600006F104084046FFF7F8F8B16A19B106F100
:104570001800FFF7F2F8F06AD9F80030012202FAC9
:1045800000F11943144BC9F800104FF0140C4146C8
:104590000CFB0030FFF7BEF83868F16AC26A91423E
:1045A00028BF4FF0010BCAE70D4A136801331360AF
:1045B0004FF0000BB7E700BF90130010FC13001082
:1045C000B4120010A2D20000B8120010CC130010D8
:1045D000C8130010B0120010BC120010001400101C
:1045E0008C130010981300102DE9F8432F4C23680A
:1045F0002BB92F4940F68500FEF794FBFEE7FEF746
:1046000039FF2368013B236024682CB10024FEF7A6
:1046100053FF2046BDE8F883264B1B68002BF5D0DE
:10462000254D264EDFF8A8801FE0EB68DC6804F11A
:10463000040904F11800FFF790F84846FFF78DF8D9
:10464000E26A3168012707FA02F314200B4300FBEA
:10465000028049463360FFF75DF8194BE26A1B6838
:10466000DB6A9A4201D3174B1F602B68002BDCD109
:104670000CB1FFF7A7FD144D2C6844B1114E012772
:10468000FFF720FF00B13760013CF9D12C600D4BE2
:104690001B68002BBAD00D4B4FF080521A60BFF34D
:1046A0004F8FBFF36F8F0124B1E700BF901300104D
:1046B00007D3000088130010D013001098130010C7
:1046C000B0120010001400108C13001004ED00E074
:1046D000BC12001008B540B90D4B4FF080521A6063
:1046E000BFF34F8FBFF36F8F08BD0A4B196829B115
:1046F000094940F23C50FEF715FBFEE7FFF7DAFEF2
:10470000FFF7BEFDFFF770FF0028E5D0ECE700BF24
:1047100004ED00E090130010BDD1000038B5274B28
:104720001A68274B12B101221A6038BD1A60FEF7D1
:1047300025FB244A244C1568A84204D921680B6D36
:104740005B1B03440B65236810601B6B1A68B2F196
:10475000A53F0BD15A68B2F1A53F07D19A68B2F1D3
:10476000A53F03D1DB68B3F1A53F04D020682168E1
:104770003431FEF7B9FA154B1B68B3FA83F3DBB299
:10478000C3F11F03142212495A4388188D582DB9BA
:10479000104940F6B730FEF7C5FAFEE74568083223
:1047A0006D6845600A44954204BF6A6842601422FD
:1047B00002FB03135B68DB682360B6E7901300100D
:1047C0000014001084130010B01200109813001091
:1047D000BC12001008D2000010B50C4628B90849D8
:1047E00040F6CE30FEF79EFAFEE7064B1968183108
:1047F000FEF79CFF20460121BDE81040FFF740BDB9
:10480000D7D10000B012001038B5C368DC682CB9ED
:10481000164940F62940FEF785FAFEE704F118052F
:104820002846FEF79AFF124B1B68E3B9251D284660
:10483000FEF793FF0F49E26A0868012393400343A0
:104840000B600D4B1420294600FB0230FEF762FF7F
:104850000A4BE26A1B68DB6A9A4283BF084B01205D
:104860001860002038BD29460648EFE7F8D200005E
:104870009013001098130010BC120010B01200101A
:1048800000140010D0130010034B1B680360034B8F
:104890001B684360704700BFCC130010FC1300106E
:1048A00070B50C46054628B9164940F69440FEF707
:1048B00039FAFEE729B9144940F69540FEF732FA75
:1048C000FEE7FEF7D7FD114B196823685A1C10D07C
:1048D0000F482E6800686A68864201D08A420FD964
:1048E000881A83420AD95B1A134423602846FFF7CB
:1048F000CBFF0024FEF7E0FD204670BD00232360BF
:104900000124F7E7F9D100004FD20000FC1300109A
:10491000CC130010014B01221A60704700140010E4
:1049200070B50C461646054608B91B4A1568256041
:1049300005F134026260EA6A22612A6BE2612A6C44
:10494000A260AA6C6261052B2A6DA2611AD0124A7C
:104950001268AA420AD100232373D6B1296B00231F
:10496000CA5CA52A13D09B08238470BD032B237334
:10497000F3D1FFF79FFDAB6A0BB102232373FFF75F
:1049800033FEEAE72846FFF725FD2073E5E701330C
:10499000E6E72684E9E700BFB01200102DE9F84FE2
:1049A0000D6881460C46934615B34B685B684B60B7
:1049B00001F10806B34204BFCB684B604B68D3F8E3
:1049C0000C8000254FF0240A63685B6863609E4298
:1049D00004BF736863606368DF680AFB05915B4628
:1049E00001223846FFF79CFFB84505F10105EBD1E0
:1049F0002846BDE8F88FFFFF2DE9F04705469046B1
:104A0000FFF758FD1D4B1B688B4234D8DFF87C90B4
:104A10000A2700244FF0140A2426013F06FB045005
:104A200001220AFB0791FFF7B9FF0444002FF4D1DC
:104A3000134B0222196806FB0450FFF7AFFF114B1E
:104A400004441968022206FB0450FFF7A7FF044440
:104A500006FB045003220C49FFF7A0FF0444B8F101
:104A6000000F03D0FEF78AF9C8F80000FFF7BCFD7D
:104A70002046BDE8F0870024F8E700BF8813001047
:104A8000B4120010B8120010E8130010BC1200108D
:104A9000054B1B6833B1054B1B68002B0CBF022074
:104AA0000020704701207047E4130010901300109D
:104AB0002DE9F0410446002835D0234AC36A116825
:104AC000C96A8B42174636D28269204D002AA1BF9F
:104AD0003A68D26AC2F10A0282611426426906FB70
:104AE00003539A4221D100F104084046FEF735FEF7
:104AF000174B48B9E06A4643AA592AB91A680121F6
:104B0000814022EA01021A603A681968D26AE262B8
:104B1000012404FA02F0084318601420414600FB07
:104B20000250FEF7F7FD204603E03B68DB6AC362F4
:104B30000120BDE8F0811368806CDC6AA0422CBFC4
:104B400000200120F5E700BFB0120010BC120010D9
:104B500098130010F8B5044608B90020F8BD1F4BA3
:104B60001B68834205D01E4940F6D170FEF7DAF883
:104B7000FEE7DB6C2BB91B4940F6D270FEF7D2F88A
:104B8000FEE7C16A826C013B9142C364E5D0002B11
:104B9000E3D1051D2846FEF7E0FD134E134A50B938
:104BA000E76A1421794373582BB913680120B84080
:104BB00023EA00031360A36CE362C3F10A01A1615D
:104BC0001168012404FA03F008431060142000FB6C
:104BD00003602946FEF79EFD2046BFE7B012001095
:104BE000CDD20000E3D20000BC12001098130010D8
:104BF000F8B50446002847D0C26C2AB923494FF4BF
:104C00008150FEF78FF8FEE7836C994238BF194652
:104C1000C36A8B4238D0012A36D11D4A12688242BB
:104C200005D11C4941F23B00FEF77CF8FEE78269A2
:104C3000194DC162002A4FF014064269A8BFC1F1A4
:104C40000A0106FB0353A8BF81619A421CD1071DCC
:104C50003846FEF782FDE26A104C40B95643AB5924
:104C60002BB923680121914023EA010323602168C5
:104C7000012393400B4314202360394600FB02506C
:104C8000BDE8F840FEF746BDF8BD00BFE3D2000026
:104C9000B0120010E3D10000BC12001098130010F5
:104CA000044B1A681AB11968CA6C0132CA641868D0
:104CB000704700BFB012001070B5FFF7FBFB144D3A
:104CC0000A241426013C06FB04F3E818EB580BB148
:104CD000FFF7D2F9002CF5D10E4B1A68126812B109
:104CE0001868FFF7C9F90C4B1A68126812B11868F6
:104CF000FFF7C2F9094803680BB1FFF7BDF9084B8C
:104D000000221A60FEF744F8BDE87040FFF76CBC63
:104D1000BC120010B4120010B8120010E8130010FA
:104D20008413001010B5FEF729F8064B064A1968DF
:104D300029B1196814680B6D1B1B03440B651060C7
:104D400010BD00BFB01200108413001008B5FEF7AC
:104D500015F8014B186008BD8413001038B5012206
:104D60000221002000F0C3F801220321002000F0FE
:104D7000BEF804220021012000F0B9F8012104222C
:104D8000084600F0B4F804221146012000F0AFF804
:104D90000821012000F01AF9284B4FF480729A6123
:104DA0000921012000F0EEF802220A21002000F083
:104DB0009EF802220B210546002000F098F80446D8
:104DC000284600F0A9F8204600F0A6F803210220AA
:104DD00000F0FCF81A4B1B4D18701A21012000F04E
:104DE000F5F8194B194C18701821012000F0EEF855
:104DF000174B12211870012000F0E8F8154B132111
:104E00001870012000F0BEF80F212870012000F07A
:104E1000B9F81E212070002000F0B4F80E4B1D21BF
:104E20001870002000F0AEF80C4B1870287800F0D5
:104E300083F82078BDE8384000F07EB82080092053
:104E400004140010081400100514001009140010B8
:104E500006140010071400100A1400100B140010A0
:104E6000024B4FF48072DA61704700BF2080092046
:104E7000024B4FF480729A61704700BF2080092076
:104E8000034B586980F40070C0F34020704700BFA6
:104E900020800920014B1878704700BF04140010CF
:104EA000014B1878704700BF05140010014B1878AB
:104EB000704700BF06140010014B1878704700BF00
:104EC00007140010C0F3C40300F007029B0003EBBB
:104ED000C21303F1804303F5303301F007011A6870
:104EE00022F007021A601A6811431960704738B53A
:104EF00000F007054FF0000001F01F0465F3020009
:104F000064F3C7001146FFF7DDFF4FF0000065F3C3
:104F1000020064F3C70038BDC0F3C40300F0070209
:104F20009B0003EBC21303F1804303F530331A688F
:104F300042F480621A607047C0F3C40300F00702B5
:104F40009B0003EBC21303F1804303F530331A686F
:104F500022F018021A601A6842F008021A607047BC
:104F600000F00702064B53F82210C0F3C4000B6890
:104F7000012202FA00F023EA00030B60704700BF31
:104F80001CD3000038B500F007054FF0000001F019
:104F90001F0465F3020064F3C700FFF7E1FF4FF061
:104FA000000065F3020064F3C70038BD00F007029B
:104FB000054B53F82220C0F3C40311680120984028
:104FC00008431060704700BF1CD3000038B500F0E4
:104FD00007054FF0000001F01F0465F3020064F3C1
:104FE000C700FFF7E3FF4FF0000065F3020064F332
:104FF000C70038BD00F00702064B53F82230C0F35B
:10500000C4005A69012303FA00F0104214BF184685
:10501000002070471CD3000000F00702044BC0F3CF
:10502000C40053F82220012303FA00F09061704776
:105030001CD3000000F00702044BC0F3C40053F877
:105040002220012303FA00F0D06170471CD3000036
:1050500008B50146FFF7CEFF20B10846BDE808407D
:10506000FFF7E8BF0846BDE80840FFF7D5BFFFFFE0
:105070002DE9F8430F4F0C2444433E1988463579F7
:105080002846914600F00EFA3C5900233F22636007
:105090004946A360284622606361B268A361E36168
:1050A0002362636200F022FA0123C4F80C8063607B
:1050B000BDE8F88334D300000C235843064B1B583B
:1050C00030B501205C6901EB4105A84020435861DF
:1050D000183343F8212030BD34D300000C2358434B
:1050E000034B1A58012303FA01F11160704700BF06
:1050F00034D300000C235843014B1B589868704769
:1051000034D300000C235843014B1B58996070475F
:1051100034D300002DE9F041044617461E46884668
:10512000FFF7B6FC00210546A068FEF773FE0023DA
:105130002374069BA361079BE361236884F81180B5
:105140002022022DA77466611A600BD140F6B83197
:10515000A068FEF75FFE18B1207CB0FA80F040092D
:10516000BDE8F0810021A068FEF754FE0028F9D0C8
:10517000F2E7FFFF03685A68282A13B557D00AD808
:10518000102A2CD0182A32D0082A09D1417C01F0EB
:10519000FE01996028E0402A63D00DD8382A77D0E4
:1051A0005A68027420229A6110221A6008229A61B9
:1051B0001A68D206FCD426E0502A5BD0582AEFD1D8
:1051C0004269996811700022C26120229A611022FE
:1051D0001A6008229A611A68D106FCD413E0427C56
:1051E00042F001029A6008229A6102B010BDC469BF
:1051F000202199610822C4B99961102119609A612E
:105200001A68D106FCD4002301A980680193FEF737
:1052100011FD019B002BE8D01F4B4FF080521A600C
:10522000BFF34F8FBFF36F8FDFE7817CB1E7427C25
:10523000D20702D520221A60D5E7C2694AB92022D6
:105240009A6110221A6008229A611A68D406FCD466
:10525000D9E78169013A11F8014B9C608161C26113
:10526000C1E720229A61C269012A4FF00402E2D804
:105270009A61B8E7426999681170426901324261E6
:10528000C269013A012AC2614FF00402D3D1EFE7AB
:105290005B680374B7E700BF04ED00E00148FFF767
:1052A00069BF00BF9C0000100148FFF763BF00BF4B
:1052B0007C0000100148FFF75DBF00BF5C000010DC
:1052C0002DE9F0471546284A0646894607CA86B0A2
:1052D00006AC04E9070040F60A32ADF808200C22BB
:1052E0008DF80A202149DDF838A072018F188C58FA
:1052F00006AA3244012012F8108C032200920022E8
:105300001146FEF705FB5146B8600120FEF71EFC72
:10531000F860404600F0C6F86C23A361144A154BB0
:10532000914588BF99462823B5FBF9F25208C82158
:105330005343B3FBF1F323613C235A430023B2FBF5
:10534000F1F26261A36263622362E360402323603F
:1053500006AB03EB86067A6856F80C1C404606B08E
:10536000BDE8F04700F0C2B87CD300005C0000103C
:1053700040420F00A08601002DE9F3410F46904600
:105380001D4623B90025284602B0BDE8F0810E4C29
:1053900004EB40144FF0FF31E068FEF73BFD0028BE
:1053A000F0D00026089B019342462B4647F00101AE
:1053B00000962046FFF7AEFE33460546324631469C
:1053C000E068FEF715FBDEE75C0000101FB5002368
:1053D0008DF80F30012300930DF10F03FFF7CCFF81
:1053E0009DF80F0005B05DF804FBFFFFF7B50E4612
:1053F00017461D461BB90025284603B0F0BD0E4CCC
:1054000004EB40144FF0FF31E068FEF703FD002885
:10541000F1D0089B3A46CDE9005306F0FE01002387
:105420002046FFF777FE002305461A461946E06836
:10543000FEF7DEFAE0E700BF5C0000101FB50022B7
:1054400000920DF10F038DF80F20FFF7CFFF05B08D
:105450005DF804FB1FB58DF80F30012300930DF1AB
:105460000F03FFF7C3FF05B05DF804FBFEE7FFFF86
:1054700008B5FFF757FC084B084A1B78103BDBB216
:1054800052F823309847064B00221A601B68BDE88B
:105490000840FFF75BBC00BF04ED00E0BC0000105B
:1054A0000C140010592809D8054B064A185CD2F88C
:1054B000C410012383400B43C2F8C430704700BFBF
:1054C00097D3000000C00F4059289FBF054B064AE4
:1054D000D3F8C430105C9ABF23FA00F000F001004A
:1054E0000020704700C00F4097D30000592808BF24
:1054F0001920084B43F8201043B2002B08DB01228F
:1055000000F01F0002FA00F05B09034A42F8230092
:10551000704700BFBC00001000E100E073B54FF021
:10552000FF33B1F5805F019336D21D4C2369DE074E
:1055300034D41C4B1D69ED0730D41B4D0326AE60DF
:105540002E611A4D1D6002B301AE5E6041F000464F
:10555000DE6041F20F061E61DAB1206041F0806129
:1055600040F68112E16065602261114A516A41F0A2
:1055700003015162D868C0F30B000028FAD1536AC6
:1055800023F00303536202B070BD586041F0084637
:10559000DEE701AA2260E3E70120F4E70220F2E758
:1055A00000010820200108200000082008C00A404F
:1055B00000C00A4010B50446FAF730FE4FF47A7383
:1055C000B0FBF3F00223B0FBF3F2A24202D8034A8D
:1055D000136110BD0233DBB2F5E700BF00C00A4023
:1055E00010B504462420FFF75DFF0B4B07221A601D
:1055F00002225A602046FFF7DDFF1A20FFF752FF14
:10560000064B01221A631A6BD207FCD5044A002309
:10561000936042F8183C10BD00C00A40000008200A
:1056200020010820034B9860DA68D206FCD4986801
:10563000C0B2704700C00A400122FFF76FBF0022CE
:10564000FFF76CBF02689368C3F34203022B73B584
:10565000064623D0062B21D0012B34D100248DF80F
:1056600003400194102501AA0DF10301B068FEF773
:1056700091FC48B133689DF803201A70019B002B00
:1056800018BF0124013DEED10CB3124B4FF08052F4
:105690001A60BFF34F8FBFF36F8F18E0002401949F
:1056A00033681A7DD207EFD51B788DF8033001AA35
:1056B00000230DF10301F068FEF75EFA019B002B59
:1056C00018BF0124ECE7137DDBB20193019B02B00C
:1056D00070BD00BF04ED00E00148FFF7B3BF00BF9D
:1056E000900100100148FFF7ADBF00BF800100101E
:1056F0000148FFF7A7BF00BF700100100148FFF786
:10570000A1BF00BF60010010154B70B516460546DD
:10571000185C0C463601FFF7C5FEB4FBF6F307EE46
:10572000903AF8EE677AB6EE007A77EE877A2D0136
:10573000FCEEE77A0B4A17EE903A52599BB2802161
:105740001173190ADBB211711370102382F828301B
:1057500001231372812313720323137370BD00BFDF
:105760001CD4000060010010074B10B50446185C03
:10577000FFF7AAFE30B12401044B1B59187B0030FF
:1057800018BF012010BD00BF1CD400006001001034
:10579000034B03EB00108068003018BF01207047F6
:1057A00060010010034B03EB0010C068003018BF0D
:1057B00001207047600100102DE9F8430746894633
:1057C0009046FFF7D1FF064618B900263046BDE8DF
:1057D000F883124C3D016319DA6822B9B9F1000F60
:1057E00001D0C3F80C9063199A6822B9B8F1000F80
:1057F00001D0C3F808806319DA68002AE5D09A68F6
:10580000002AE2D05A68064B53F82710054BD85DA2
:10581000FFF76CFE635907225A60D7E7600100105A
:105820000CD400001CD4000038B5074A03010D4613
:10583000D458FFF799FF30B1237D9A06FCD5257027
:10584000237D9B06FCD538BD6001001070B5044671
:105850000E461546FFF71CF90E4B03EB0413DC68EC
:10586000B4B1022814D16B1C09D04FF47A70A5FB97
:1058700000014FF47A72002300F0FAFA05462A4636
:1058800031462046FEF728FA003018BF012070BDCF
:105890000020FCE7600100102DE9F84305460E46A4
:1058A000114CFFF7F5F82F01E31981462846D3F88C
:1058B0000C80FFF759FF98B1B9F1020F0AD1B8F186
:1058C000000F07D0314628464FF0FF32BDE8F843BD
:1058D000FFF7BCBFE3591A7DD207FCD51B783370A4
:1058E0000020BDE8F88300BF60010010F7B5054651
:1058F0001C4E8DF807102D011746FFF7C9F87319D4
:105900009C6854B302282BD1791C09D04FF47A70CB
:10591000A7FB00014FF47A72002300F0A9FA0746B2
:1059200000233A460DF107012046FEF761F8041CFA
:1059300018BF0124FDF79EFD731975592A7D520683
:1059400009D500220DF107019868FEF723FB10B17D
:105950009DF807302B70FDF7AFFD204603B0F0BD7A
:105960000024FAE7600100102DE9F043224C234E99
:10597000ADF2444D25464FF0FF3202A93068204F6A
:10598000DFF88880DFF88890FEF7A6F902A91D48A5
:1059900001F024FD012202A986A8FBF7C3FD2368BC
:1059A00019490246D86800F0E5FB8B9A899B9A4218
:1059B00003D186A8FBF7ABFFDDE701AB06A94FF4E7
:1059C000007286A8FBF794FE2B6802463946D86819
:1059D00000F0D0FB2B68019AD868414600F0CAFB62
:1059E0000A20FEF777FE00234FF0FF3206A9D9F810
:1059F0000000FDF7FDFFD8E7A0010010181400100B
:105A00007AD400004FD400006AD400008AD4000089
:105A10001C140010F0B5ADF5017D4FF400720021AB
:105A2000684600F0B5FC124D124E2868FEF700FBE8
:105A3000C8B14FF0FF3269462868FEF74DF9336868
:105A40000D48D96800F04EFC6F460024336817F803
:105A5000010BD968013400F0D7FBB4F5007FF5D114
:105A60004FF4FA6000E00120FEF734FEDDE700BFEE
:105A70001C140010A001001046D4000013B5002231
:105A800010210120FDF78EFF144B002218604FF407
:105A900000710120FDF786FF114B124918600024A8
:105AA0000223CDE900344FF4806223460E48FEF70E
:105AB00063FC01234FF480620C4900930194234658
:105AC0000B48FEF759FCFCF74FFD0A4801F068FD52
:105AD000FEF7B6FC204602B010BD00BF181400103F
